{
	"contracts/License.sol": {
		"License": {
			"abi": [
				{
					"inputs": [],
					"stateMutability": "nonpayable",
					"type": "constructor"
				},
				{
					"anonymous": false,
					"inputs": [
						{
							"indexed": false,
							"internalType": "uint256",
							"name": "",
							"type": "uint256"
						},
						{
							"indexed": false,
							"internalType": "uint256",
							"name": "",
							"type": "uint256"
						}
					],
					"name": "AddLicense",
					"type": "event"
				},
				{
					"anonymous": false,
					"inputs": [
						{
							"indexed": true,
							"internalType": "address",
							"name": "previousOwner",
							"type": "address"
						},
						{
							"indexed": true,
							"internalType": "address",
							"name": "newOwner",
							"type": "address"
						}
					],
					"name": "OwnershipTransferred",
					"type": "event"
				},
				{
					"anonymous": false,
					"inputs": [
						{
							"indexed": false,
							"internalType": "address",
							"name": "account",
							"type": "address"
						}
					],
					"name": "Paused",
					"type": "event"
				},
				{
					"anonymous": false,
					"inputs": [
						{
							"indexed": false,
							"internalType": "uint256",
							"name": "",
							"type": "uint256"
						},
						{
							"indexed": false,
							"internalType": "uint256",
							"name": "",
							"type": "uint256"
						},
						{
							"indexed": false,
							"internalType": "uint256",
							"name": "",
							"type": "uint256"
						}
					],
					"name": "PriceDifference",
					"type": "event"
				},
				{
					"anonymous": false,
					"inputs": [
						{
							"indexed": false,
							"internalType": "address",
							"name": "account",
							"type": "address"
						}
					],
					"name": "Unpaused",
					"type": "event"
				},
				{
					"inputs": [],
					"name": "getNumberOfLicense",
					"outputs": [
						{
							"internalType": "uint256",
							"name": "",
							"type": "uint256"
						}
					],
					"stateMutability": "view",
					"type": "function"
				},
				{
					"inputs": [
						{
							"internalType": "uint256",
							"name": "_license",
							"type": "uint256"
						}
					],
					"name": "getPriceOfLicense",
					"outputs": [
						{
							"internalType": "uint256",
							"name": "",
							"type": "uint256"
						}
					],
					"stateMutability": "view",
					"type": "function"
				},
				{
					"inputs": [
						{
							"internalType": "uint256",
							"name": "_license",
							"type": "uint256"
						}
					],
					"name": "isLicense",
					"outputs": [
						{
							"internalType": "bool",
							"name": "",
							"type": "bool"
						}
					],
					"stateMutability": "view",
					"type": "function"
				},
				{
					"inputs": [],
					"name": "owner",
					"outputs": [
						{
							"internalType": "address",
							"name": "",
							"type": "address"
						}
					],
					"stateMutability": "view",
					"type": "function"
				},
				{
					"inputs": [],
					"name": "paused",
					"outputs": [
						{
							"internalType": "bool",
							"name": "",
							"type": "bool"
						}
					],
					"stateMutability": "view",
					"type": "function"
				},
				{
					"inputs": [
						{
							"internalType": "uint256",
							"name": "_newLicense",
							"type": "uint256"
						},
						{
							"internalType": "uint256",
							"name": "_oldLicense",
							"type": "uint256"
						}
					],
					"name": "priceDifferenceOfLicense",
					"outputs": [
						{
							"internalType": "uint256",
							"name": "",
							"type": "uint256"
						}
					],
					"stateMutability": "nonpayable",
					"type": "function"
				},
				{
					"inputs": [],
					"name": "renounceOwnership",
					"outputs": [],
					"stateMutability": "nonpayable",
					"type": "function"
				},
				{
					"inputs": [
						{
							"internalType": "uint256",
							"name": "_price",
							"type": "uint256"
						}
					],
					"name": "setLicense",
					"outputs": [],
					"stateMutability": "nonpayable",
					"type": "function"
				},
				{
					"inputs": [
						{
							"internalType": "uint256",
							"name": "_license",
							"type": "uint256"
						},
						{
							"internalType": "uint256",
							"name": "_price",
							"type": "uint256"
						}
					],
					"name": "setPriceOfLicense",
					"outputs": [],
					"stateMutability": "nonpayable",
					"type": "function"
				},
				{
					"inputs": [
						{
							"internalType": "address",
							"name": "newOwner",
							"type": "address"
						}
					],
					"name": "transferOwnership",
					"outputs": [],
					"stateMutability": "nonpayable",
					"type": "function"
				}
			],
			"devdoc": {
				"kind": "dev",
				"methods": {
					"getNumberOfLicense()": {
						"details": "This function returns the number of licenses"
					},
					"getPriceOfLicense(uint256)": {
						"details": "This function returns the price of ( `_license` )"
					},
					"isLicense(uint256)": {
						"details": "This function returns true if the ( `_license` ) exist"
					},
					"paused()": {
						"details": "Returns true if the contract is paused, and false otherwise."
					},
					"priceDifferenceOfLicense(uint256,uint256)": {
						"details": "This function returns the price difference between ( `_newLicense` ) and ( `_oldLicense` )"
					},
					"setLicense(uint256)": {
						"details": "This function adds to licenseToPrice map in position numberOfLicense the ( `_price` ) "
					},
					"setPriceOfLicense(uint256,uint256)": {
						"details": "This function set the ( `_price` ) of ( `_license` )"
					}
				},
				"version": 1
			},
			"evm": {
				"assembly": "    /* \"contracts/License.sol\":303:3196  contract License is ILicense,\r... */\n  mstore(0x40, 0x80)\n    /* \"contracts/License.sol\":667:1043  constructor ()\r... */\n  callvalue\n  dup1\n  iszero\n  tag_1\n  jumpi\n  0x00\n  dup1\n  revert\ntag_1:\n  pop\n    /* \"security/Ownable.sol\":241:273  _transferOwnership( msg.sender ) */\n  tag_6\n    /* \"security/Ownable.sol\":261:271  msg.sender */\n  caller\n    /* \"security/Ownable.sol\":241:259  _transferOwnership */\n  shl(0x20, tag_7)\n    /* \"security/Ownable.sol\":241:273  _transferOwnership( msg.sender ) */\n  0x20\n  shr\n  jump\t// in\ntag_6:\n    /* \"security/Pausable.sol\":665:670  false */\n  0x00\n    /* \"security/Pausable.sol\":655:662  _paused */\n  dup1\n  0x14\n    /* \"security/Pausable.sol\":655:670  _paused = false */\n  0x0100\n  exp\n  dup2\n  sload\n  dup2\n  0xff\n  mul\n  not\n  and\n  swap1\n  dup4\n  iszero\n  iszero\n  mul\n  or\n  swap1\n  sstore\n  pop\n    /* \"contracts/License.sol\":718:719  0 */\n  0x00\n    /* \"contracts/License.sol\":698:712  licenseToPrice */\n  0x01\n    /* \"contracts/License.sol\":698:715  licenseToPrice[0] */\n  0x00\n    /* \"contracts/License.sol\":713:714  0 */\n  dup1\n    /* \"contracts/License.sol\":698:715  licenseToPrice[0] */\n  dup2\n  mstore\n  0x20\n  add\n  swap1\n  dup2\n  mstore\n  0x20\n  add\n  0x00\n  keccak256\n    /* \"contracts/License.sol\":698:719  licenseToPrice[0] = 0 */\n  dup2\n  swap1\n  sstore\n  pop\n    /* \"contracts/License.sol\":781:782  0 */\n  0x00\n    /* \"contracts/License.sol\":761:775  licenseToPrice */\n  0x01\n    /* \"contracts/License.sol\":761:778  licenseToPrice[1] */\n  0x00\n    /* \"contracts/License.sol\":776:777  1 */\n  0x01\n    /* \"contracts/License.sol\":761:778  licenseToPrice[1] */\n  dup2\n  mstore\n  0x20\n  add\n  swap1\n  dup2\n  mstore\n  0x20\n  add\n  0x00\n  keccak256\n    /* \"contracts/License.sol\":761:782  licenseToPrice[1] = 0 */\n  dup2\n  swap1\n  sstore\n  pop\n    /* \"contracts/License.sol\":829:837  10 ether */\n  0x8ac7230489e80000\n    /* \"contracts/License.sol\":809:823  licenseToPrice */\n  0x01\n    /* \"contracts/License.sol\":809:826  licenseToPrice[2] */\n  0x00\n    /* \"contracts/License.sol\":824:825  2 */\n  0x02\n    /* \"contracts/License.sol\":809:826  licenseToPrice[2] */\n  dup2\n  mstore\n  0x20\n  add\n  swap1\n  dup2\n  mstore\n  0x20\n  add\n  0x00\n  keccak256\n    /* \"contracts/License.sol\":809:837  licenseToPrice[2] = 10 ether */\n  dup2\n  swap1\n  sstore\n  pop\n    /* \"contracts/License.sol\":897:905  15 ether */\n  0xd02ab486cedc0000\n    /* \"contracts/License.sol\":877:891  licenseToPrice */\n  0x01\n    /* \"contracts/License.sol\":877:894  licenseToPrice[3] */\n  0x00\n    /* \"contracts/License.sol\":892:893  3 */\n  0x03\n    /* \"contracts/License.sol\":877:894  licenseToPrice[3] */\n  dup2\n  mstore\n  0x20\n  add\n  swap1\n  dup2\n  mstore\n  0x20\n  add\n  0x00\n  keccak256\n    /* \"contracts/License.sol\":877:905  licenseToPrice[3] = 15 ether */\n  dup2\n  swap1\n  sstore\n  pop\n    /* \"contracts/License.sol\":967:975  20 ether */\n  0x01158e460913d00000\n    /* \"contracts/License.sol\":947:961  licenseToPrice */\n  0x01\n    /* \"contracts/License.sol\":947:964  licenseToPrice[4] */\n  0x00\n    /* \"contracts/License.sol\":962:963  4 */\n  0x04\n    /* \"contracts/License.sol\":947:964  licenseToPrice[4] */\n  dup2\n  mstore\n  0x20\n  add\n  swap1\n  dup2\n  mstore\n  0x20\n  add\n  0x00\n  keccak256\n    /* \"contracts/License.sol\":947:975  licenseToPrice[4] = 20 ether */\n  dup2\n  swap1\n  sstore\n  pop\n    /* \"contracts/License.sol\":1034:1035  5 */\n  0x05\n    /* \"contracts/License.sol\":1014:1029  numberOfLicense */\n  0x02\n    /* \"contracts/License.sol\":1014:1035  numberOfLicense   = 5 */\n  dup2\n  swap1\n  sstore\n  pop\n    /* \"contracts/License.sol\":303:3196  contract License is ILicense,\r... */\n  jump(tag_10)\n    /* \"security/Ownable.sol\":851:1044  function _transferOwnership( address newOwner ) internal virtual {\r... */\ntag_7:\n    /* \"security/Ownable.sol\":927:943  address oldOwner */\n  0x00\n    /* \"security/Ownable.sol\":946:952  _owner */\n  dup1\n  0x00\n  swap1\n  sload\n  swap1\n  0x0100\n  exp\n  swap1\n  div\n  0xffffffffffffffffffffffffffffffffffffffff\n  and\n    /* \"security/Ownable.sol\":927:952  address oldOwner = _owner */\n  swap1\n  pop\n    /* \"security/Ownable.sol\":972:980  newOwner */\n  dup2\n    /* \"security/Ownable.sol\":963:969  _owner */\n  0x00\n  dup1\n    /* \"security/Ownable.sol\":963:980  _owner = newOwner */\n  0x0100\n  exp\n  dup2\n  sload\n  dup2\n  0xffffffffffffffffffffffffffffffffffffffff\n  mul\n  not\n  and\n  swap1\n  dup4\n  0xffffffffffffffffffffffffffffffffffffffff\n  and\n  mul\n  or\n  swap1\n  sstore\n  pop\n    /* \"security/Ownable.sol\":1027:1035  newOwner */\n  dup2\n    /* \"security/Ownable.sol\":996:1036  OwnershipTransferred(oldOwner, newOwner) */\n  0xffffffffffffffffffffffffffffffffffffffff\n  and\n    /* \"security/Ownable.sol\":1017:1025  oldOwner */\n  dup2\n    /* \"security/Ownable.sol\":996:1036  OwnershipTransferred(oldOwner, newOwner) */\n  0xffffffffffffffffffffffffffffffffffffffff\n  and\n  0x8be0079c531659141344cd1fd0a4f28419497f9722a3daafe3b4186f6b6457e0\n  mload(0x40)\n  mload(0x40)\n  dup1\n  swap2\n  sub\n  swap1\n  log3\n    /* \"security/Ownable.sol\":916:1044  {\r... */\n  pop\n    /* \"security/Ownable.sol\":851:1044  function _transferOwnership( address newOwner ) internal virtual {\r... */\n  pop\n  jump\t// out\n    /* \"contracts/License.sol\":303:3196  contract License is ILicense,\r... */\ntag_10:\n  dataSize(sub_0)\n  dup1\n  dataOffset(sub_0)\n  0x00\n  codecopy\n  0x00\n  return\nstop\n\nsub_0: assembly {\n        /* \"contracts/License.sol\":303:3196  contract License is ILicense,\r... */\n      mstore(0x40, 0x80)\n      callvalue\n      dup1\n      iszero\n      tag_1\n      jumpi\n      0x00\n      dup1\n      revert\n    tag_1:\n      pop\n      jumpi(tag_2, lt(calldatasize, 0x04))\n      shr(0xe0, calldataload(0x00))\n      dup1\n      0x8cf56248\n      gt\n      tag_13\n      jumpi\n      dup1\n      0x8cf56248\n      eq\n      tag_8\n      jumpi\n      dup1\n      0x8da5cb5b\n      eq\n      tag_9\n      jumpi\n      dup1\n      0xf0e530f8\n      eq\n      tag_10\n      jumpi\n      dup1\n      0xf0ff87fc\n      eq\n      tag_11\n      jumpi\n      dup1\n      0xf2fde38b\n      eq\n      tag_12\n      jumpi\n      jump(tag_2)\n    tag_13:\n      dup1\n      0x128d2fe5\n      eq\n      tag_3\n      jumpi\n      dup1\n      0x169d08d4\n      eq\n      tag_4\n      jumpi\n      dup1\n      0x2b45f2d2\n      eq\n      tag_5\n      jumpi\n      dup1\n      0x5c975abb\n      eq\n      tag_6\n      jumpi\n      dup1\n      0x715018a6\n      eq\n      tag_7\n      jumpi\n    tag_2:\n      0x00\n      dup1\n      revert\n        /* \"contracts/License.sol\":1339:1557  function getNumberOfLicense () external view virtual override \r... */\n    tag_3:\n      tag_14\n      tag_15\n      jump\t// in\n    tag_14:\n      mload(0x40)\n      tag_16\n      swap2\n      swap1\n      tag_17\n      jump\t// in\n    tag_16:\n      mload(0x40)\n      dup1\n      swap2\n      sub\n      swap1\n      return\n        /* \"contracts/License.sol\":2256:2601  function setPriceOfLicense ( uint256 _license, uint256 _price ) external virtual override \r... */\n    tag_4:\n      tag_18\n      0x04\n      dup1\n      calldatasize\n      sub\n      dup2\n      add\n      swap1\n      tag_19\n      swap2\n      swap1\n      tag_20\n      jump\t// in\n    tag_19:\n      tag_21\n      jump\t// in\n    tag_18:\n      stop\n        /* \"contracts/License.sol\":1925:2248  function setLicense ( uint256 _price ) external virtual override \r... */\n    tag_5:\n      tag_22\n      0x04\n      dup1\n      calldatasize\n      sub\n      dup2\n      add\n      swap1\n      tag_23\n      swap2\n      swap1\n      tag_24\n      jump\t// in\n    tag_23:\n      tag_25\n      jump\t// in\n    tag_22:\n      stop\n        /* \"security/Pausable.sol\":778:864  function paused() public view virtual returns (bool) {\r... */\n    tag_6:\n      tag_26\n      tag_27\n      jump\t// in\n    tag_26:\n      mload(0x40)\n      tag_28\n      swap2\n      swap1\n      tag_29\n      jump\t// in\n    tag_28:\n      mload(0x40)\n      dup1\n      swap2\n      sub\n      swap1\n      return\n        /* \"security/Ownable.sol\":522:628  function renounceOwnership () public virtual onlyOwner {\r... */\n    tag_7:\n      tag_30\n      tag_31\n      jump\t// in\n    tag_30:\n      stop\n        /* \"contracts/License.sol\":1565:1917  function isLicense ( uint256 _license ) public view virtual override \r... */\n    tag_8:\n      tag_32\n      0x04\n      dup1\n      calldatasize\n      sub\n      dup2\n      add\n      swap1\n      tag_33\n      swap2\n      swap1\n      tag_24\n      jump\t// in\n    tag_33:\n      tag_34\n      jump\t// in\n    tag_32:\n      mload(0x40)\n      tag_35\n      swap2\n      swap1\n      tag_29\n      jump\t// in\n    tag_35:\n      mload(0x40)\n      dup1\n      swap2\n      sub\n      swap1\n      return\n        /* \"security/Ownable.sol\":289:379  function owner () public view virtual returns ( address ) {\r... */\n    tag_9:\n      tag_36\n      tag_37\n      jump\t// in\n    tag_36:\n      mload(0x40)\n      tag_38\n      swap2\n      swap1\n      tag_39\n      jump\t// in\n    tag_38:\n      mload(0x40)\n      dup1\n      swap2\n      sub\n      swap1\n      return\n        /* \"contracts/License.sol\":2613:3191  function priceDifferenceOfLicense ( uint256 _newLicense, uint256 _oldLicense ) external virtual override \r... */\n    tag_10:\n      tag_40\n      0x04\n      dup1\n      calldatasize\n      sub\n      dup2\n      add\n      swap1\n      tag_41\n      swap2\n      swap1\n      tag_20\n      jump\t// in\n    tag_41:\n      tag_42\n      jump\t// in\n    tag_40:\n      mload(0x40)\n      tag_43\n      swap2\n      swap1\n      tag_17\n      jump\t// in\n    tag_43:\n      mload(0x40)\n      dup1\n      swap2\n      sub\n      swap1\n      return\n        /* \"contracts/License.sol\":1053:1331  function getPriceOfLicense ( uint256 _license ) external view virtual override \r... */\n    tag_11:\n      tag_44\n      0x04\n      dup1\n      calldatasize\n      sub\n      dup2\n      add\n      swap1\n      tag_45\n      swap2\n      swap1\n      tag_24\n      jump\t// in\n    tag_45:\n      tag_46\n      jump\t// in\n    tag_44:\n      mload(0x40)\n      tag_47\n      swap2\n      swap1\n      tag_17\n      jump\t// in\n    tag_47:\n      mload(0x40)\n      dup1\n      swap2\n      sub\n      swap1\n      return\n        /* \"security/Ownable.sol\":636:843  function transferOwnership( address newOwner ) public virtual onlyOwner {\r... */\n    tag_12:\n      tag_48\n      0x04\n      dup1\n      calldatasize\n      sub\n      dup2\n      add\n      swap1\n      tag_49\n      swap2\n      swap1\n      tag_50\n      jump\t// in\n    tag_49:\n      tag_51\n      jump\t// in\n    tag_48:\n      stop\n        /* \"contracts/License.sol\":1339:1557  function getNumberOfLicense () external view virtual override \r... */\n    tag_15:\n        /* \"contracts/License.sol\":1501:1508  uint256 */\n      0x00\n        /* \"security/Pausable.sol\":1023:1031  paused() */\n      tag_53\n        /* \"security/Pausable.sol\":1023:1029  paused */\n      tag_27\n        /* \"security/Pausable.sol\":1023:1031  paused() */\n      jump\t// in\n    tag_53:\n        /* \"security/Pausable.sol\":1022:1031  !paused() */\n      iszero\n        /* \"security/Pausable.sol\":1014:1052  require(!paused(), \"Pausable: paused\") */\n      tag_54\n      jumpi\n      mload(0x40)\n      0x08c379a000000000000000000000000000000000000000000000000000000000\n      dup2\n      mstore\n      0x04\n      add\n      tag_55\n      swap1\n      tag_56\n      jump\t// in\n    tag_55:\n      mload(0x40)\n      dup1\n      swap2\n      sub\n      swap1\n      revert\n    tag_54:\n        /* \"contracts/License.sol\":1534:1549  numberOfLicense */\n      sload(0x02)\n        /* \"contracts/License.sol\":1527:1549  return numberOfLicense */\n      swap1\n      pop\n        /* \"contracts/License.sol\":1339:1557  function getNumberOfLicense () external view virtual override \r... */\n      swap1\n      jump\t// out\n        /* \"contracts/License.sol\":2256:2601  function setPriceOfLicense ( uint256 _license, uint256 _price ) external virtual override \r... */\n    tag_21:\n        /* \"security/Pausable.sol\":1023:1031  paused() */\n      tag_59\n        /* \"security/Pausable.sol\":1023:1029  paused */\n      tag_27\n        /* \"security/Pausable.sol\":1023:1031  paused() */\n      jump\t// in\n    tag_59:\n        /* \"security/Pausable.sol\":1022:1031  !paused() */\n      iszero\n        /* \"security/Pausable.sol\":1014:1052  require(!paused(), \"Pausable: paused\") */\n      tag_60\n      jumpi\n      mload(0x40)\n      0x08c379a000000000000000000000000000000000000000000000000000000000\n      dup2\n      mstore\n      0x04\n      add\n      tag_61\n      swap1\n      tag_56\n      jump\t// in\n    tag_61:\n      mload(0x40)\n      dup1\n      swap2\n      sub\n      swap1\n      revert\n    tag_60:\n        /* \"contracts/License.sol\":2453:2474  isLicense( _license ) */\n      tag_63\n        /* \"contracts/License.sol\":2464:2472  _license */\n      dup3\n        /* \"contracts/License.sol\":2453:2462  isLicense */\n      tag_34\n        /* \"contracts/License.sol\":2453:2474  isLicense( _license ) */\n      jump\t// in\n    tag_63:\n        /* \"contracts/License.sol\":2448:2546  if ( isLicense( _license ) )\r... */\n      iszero\n      tag_64\n      jumpi\n        /* \"contracts/License.sol\":2528:2534  _price */\n      dup1\n        /* \"contracts/License.sol\":2501:2515  licenseToPrice */\n      0x01\n        /* \"contracts/License.sol\":2501:2525  licenseToPrice[_license] */\n      0x00\n        /* \"contracts/License.sol\":2516:2524  _license */\n      dup5\n        /* \"contracts/License.sol\":2501:2525  licenseToPrice[_license] */\n      dup2\n      mstore\n      0x20\n      add\n      swap1\n      dup2\n      mstore\n      0x20\n      add\n      0x00\n      keccak256\n        /* \"contracts/License.sol\":2501:2534  licenseToPrice[_license] = _price */\n      dup2\n      swap1\n      sstore\n      pop\n        /* \"contracts/License.sol\":2448:2546  if ( isLicense( _license ) )\r... */\n    tag_64:\n        /* \"contracts/License.sol\":2561:2591  AddLicense( _license, _price ) */\n      0x5b480de6353001491810d11ec8b573429ea2e2d73b2dbee4106fdea4614df149\n        /* \"contracts/License.sol\":2573:2581  _license */\n      dup3\n        /* \"contracts/License.sol\":2583:2589  _price */\n      dup3\n        /* \"contracts/License.sol\":2561:2591  AddLicense( _license, _price ) */\n      mload(0x40)\n      tag_65\n      swap3\n      swap2\n      swap1\n      tag_66\n      jump\t// in\n    tag_65:\n      mload(0x40)\n      dup1\n      swap2\n      sub\n      swap1\n      log1\n        /* \"contracts/License.sol\":2256:2601  function setPriceOfLicense ( uint256 _license, uint256 _price ) external virtual override \r... */\n      pop\n      pop\n      jump\t// out\n        /* \"contracts/License.sol\":1925:2248  function setLicense ( uint256 _price ) external virtual override \r... */\n    tag_25:\n        /* \"security/Pausable.sol\":1023:1031  paused() */\n      tag_68\n        /* \"security/Pausable.sol\":1023:1029  paused */\n      tag_27\n        /* \"security/Pausable.sol\":1023:1031  paused() */\n      jump\t// in\n    tag_68:\n        /* \"security/Pausable.sol\":1022:1031  !paused() */\n      iszero\n        /* \"security/Pausable.sol\":1014:1052  require(!paused(), \"Pausable: paused\") */\n      tag_69\n      jumpi\n      mload(0x40)\n      0x08c379a000000000000000000000000000000000000000000000000000000000\n      dup2\n      mstore\n      0x04\n      add\n      tag_70\n      swap1\n      tag_56\n      jump\t// in\n    tag_70:\n      mload(0x40)\n      dup1\n      swap2\n      sub\n      swap1\n      revert\n    tag_69:\n        /* \"contracts/License.sol\":2101:2107  _price */\n      dup1\n        /* \"contracts/License.sol\":2067:2081  licenseToPrice */\n      0x01\n        /* \"contracts/License.sol\":2067:2098  licenseToPrice[numberOfLicense] */\n      0x00\n        /* \"contracts/License.sol\":2082:2097  numberOfLicense */\n      sload(0x02)\n        /* \"contracts/License.sol\":2067:2098  licenseToPrice[numberOfLicense] */\n      dup2\n      mstore\n      0x20\n      add\n      swap1\n      dup2\n      mstore\n      0x20\n      add\n      0x00\n      keccak256\n        /* \"contracts/License.sol\":2067:2107  licenseToPrice[numberOfLicense] = _price */\n      dup2\n      swap1\n      sstore\n      pop\n        /* \"contracts/License.sol\":2136:2170  SafeMath.add( numberOfLicense, 1 ) */\n      tag_72\n        /* \"contracts/License.sol\":2150:2165  numberOfLicense */\n      sload(0x02)\n        /* \"contracts/License.sol\":2167:2168  1 */\n      0x01\n        /* \"contracts/License.sol\":2136:2148  SafeMath.add */\n      tag_73\n        /* \"contracts/License.sol\":2136:2170  SafeMath.add( numberOfLicense, 1 ) */\n      jump\t// in\n    tag_72:\n        /* \"contracts/License.sol\":2118:2133  numberOfLicense */\n      0x02\n        /* \"contracts/License.sol\":2118:2170  numberOfLicense = SafeMath.add( numberOfLicense, 1 ) */\n      dup2\n      swap1\n      sstore\n      pop\n        /* \"contracts/License.sol\":2186:2239  AddLicense( licenseToPrice[numberOfLicense], _price ) */\n      0x5b480de6353001491810d11ec8b573429ea2e2d73b2dbee4106fdea4614df149\n        /* \"contracts/License.sol\":2198:2212  licenseToPrice */\n      0x01\n        /* \"contracts/License.sol\":2198:2229  licenseToPrice[numberOfLicense] */\n      0x00\n        /* \"contracts/License.sol\":2213:2228  numberOfLicense */\n      sload(0x02)\n        /* \"contracts/License.sol\":2198:2229  licenseToPrice[numberOfLicense] */\n      dup2\n      mstore\n      0x20\n      add\n      swap1\n      dup2\n      mstore\n      0x20\n      add\n      0x00\n      keccak256\n      sload\n        /* \"contracts/License.sol\":2231:2237  _price */\n      dup3\n        /* \"contracts/License.sol\":2186:2239  AddLicense( licenseToPrice[numberOfLicense], _price ) */\n      mload(0x40)\n      tag_74\n      swap3\n      swap2\n      swap1\n      tag_66\n      jump\t// in\n    tag_74:\n      mload(0x40)\n      dup1\n      swap2\n      sub\n      swap1\n      log1\n        /* \"contracts/License.sol\":1925:2248  function setLicense ( uint256 _price ) external virtual override \r... */\n      pop\n      jump\t// out\n        /* \"security/Pausable.sol\":778:864  function paused() public view virtual returns (bool) {\r... */\n    tag_27:\n        /* \"security/Pausable.sol\":825:829  bool */\n      0x00\n        /* \"security/Pausable.sol\":849:856  _paused */\n      dup1\n      0x14\n      swap1\n      sload\n      swap1\n      0x0100\n      exp\n      swap1\n      div\n      0xff\n      and\n        /* \"security/Pausable.sol\":842:856  return _paused */\n      swap1\n      pop\n        /* \"security/Pausable.sol\":778:864  function paused() public view virtual returns (bool) {\r... */\n      swap1\n      jump\t// out\n        /* \"security/Ownable.sol\":522:628  function renounceOwnership () public virtual onlyOwner {\r... */\n    tag_31:\n        /* \"security/Ownable.sol\":446:456  msg.sender */\n      caller\n        /* \"security/Ownable.sol\":435:456  owner() == msg.sender */\n      0xffffffffffffffffffffffffffffffffffffffff\n      and\n        /* \"security/Ownable.sol\":435:442  owner() */\n      tag_77\n        /* \"security/Ownable.sol\":435:440  owner */\n      tag_37\n        /* \"security/Ownable.sol\":435:442  owner() */\n      jump\t// in\n    tag_77:\n        /* \"security/Ownable.sol\":435:456  owner() == msg.sender */\n      0xffffffffffffffffffffffffffffffffffffffff\n      and\n      eq\n        /* \"security/Ownable.sol\":426:494  require( owner() == msg.sender, \"Ownable: caller is not the owner\" ) */\n      tag_78\n      jumpi\n      mload(0x40)\n      0x08c379a000000000000000000000000000000000000000000000000000000000\n      dup2\n      mstore\n      0x04\n      add\n      tag_79\n      swap1\n      tag_80\n      jump\t// in\n    tag_79:\n      mload(0x40)\n      dup1\n      swap2\n      sub\n      swap1\n      revert\n    tag_78:\n        /* \"security/Ownable.sol\":588:620  _transferOwnership( address(0) ) */\n      tag_82\n        /* \"security/Ownable.sol\":616:617  0 */\n      0x00\n        /* \"security/Ownable.sol\":588:606  _transferOwnership */\n      tag_83\n        /* \"security/Ownable.sol\":588:620  _transferOwnership( address(0) ) */\n      jump\t// in\n    tag_82:\n        /* \"security/Ownable.sol\":522:628  function renounceOwnership () public virtual onlyOwner {\r... */\n      jump\t// out\n        /* \"contracts/License.sol\":1565:1917  function isLicense ( uint256 _license ) public view virtual override \r... */\n    tag_34:\n        /* \"contracts/License.sol\":1752:1756  bool */\n      0x00\n        /* \"security/Pausable.sol\":1023:1031  paused() */\n      tag_85\n        /* \"security/Pausable.sol\":1023:1029  paused */\n      tag_27\n        /* \"security/Pausable.sol\":1023:1031  paused() */\n      jump\t// in\n    tag_85:\n        /* \"security/Pausable.sol\":1022:1031  !paused() */\n      iszero\n        /* \"security/Pausable.sol\":1014:1052  require(!paused(), \"Pausable: paused\") */\n      tag_86\n      jumpi\n      mload(0x40)\n      0x08c379a000000000000000000000000000000000000000000000000000000000\n      dup2\n      mstore\n      0x04\n      add\n      tag_87\n      swap1\n      tag_56\n      jump\t// in\n    tag_87:\n      mload(0x40)\n      dup1\n      swap2\n      sub\n      swap1\n      revert\n    tag_86:\n        /* \"contracts/License.sol\":1792:1793  0 */\n      0x00\n        /* \"contracts/License.sol\":1780:1788  _license */\n      dup3\n        /* \"contracts/License.sol\":1780:1793  _license == 0 */\n      eq\n        /* \"contracts/License.sol\":1780:1810  _license == 0 || _license == 1 */\n      dup1\n      tag_89\n      jumpi\n      pop\n        /* \"contracts/License.sol\":1809:1810  1 */\n      0x01\n        /* \"contracts/License.sol\":1797:1805  _license */\n      dup3\n        /* \"contracts/License.sol\":1797:1810  _license == 1 */\n      eq\n        /* \"contracts/License.sol\":1780:1810  _license == 0 || _license == 1 */\n    tag_89:\n        /* \"contracts/License.sol\":1775:1860  if ( _license == 0 || _license == 1 )\r... */\n      iszero\n      tag_90\n      jumpi\n        /* \"contracts/License.sol\":1844:1848  true */\n      0x01\n        /* \"contracts/License.sol\":1837:1848  return true */\n      swap1\n      pop\n      jump(tag_88)\n        /* \"contracts/License.sol\":1775:1860  if ( _license == 0 || _license == 1 )\r... */\n    tag_90:\n        /* \"contracts/License.sol\":1906:1907  0 */\n      0x00\n        /* \"contracts/License.sol\":1879:1893  licenseToPrice */\n      0x01\n        /* \"contracts/License.sol\":1879:1903  licenseToPrice[_license] */\n      0x00\n        /* \"contracts/License.sol\":1894:1902  _license */\n      dup5\n        /* \"contracts/License.sol\":1879:1903  licenseToPrice[_license] */\n      dup2\n      mstore\n      0x20\n      add\n      swap1\n      dup2\n      mstore\n      0x20\n      add\n      0x00\n      keccak256\n      sload\n        /* \"contracts/License.sol\":1879:1907  licenseToPrice[_license] > 0 */\n      gt\n        /* \"contracts/License.sol\":1870:1909  return ( licenseToPrice[_license] > 0 ) */\n      swap1\n      pop\n        /* \"security/Pausable.sol\":1063:1064  _ */\n    tag_88:\n        /* \"contracts/License.sol\":1565:1917  function isLicense ( uint256 _license ) public view virtual override \r... */\n      swap2\n      swap1\n      pop\n      jump\t// out\n        /* \"security/Ownable.sol\":289:379  function owner () public view virtual returns ( address ) {\r... */\n    tag_37:\n        /* \"security/Ownable.sol\":337:344  address */\n      0x00\n        /* \"security/Ownable.sol\":365:371  _owner */\n      dup1\n      0x00\n      swap1\n      sload\n      swap1\n      0x0100\n      exp\n      swap1\n      div\n      0xffffffffffffffffffffffffffffffffffffffff\n      and\n        /* \"security/Ownable.sol\":358:371  return _owner */\n      swap1\n      pop\n        /* \"security/Ownable.sol\":289:379  function owner () public view virtual returns ( address ) {\r... */\n      swap1\n      jump\t// out\n        /* \"contracts/License.sol\":2613:3191  function priceDifferenceOfLicense ( uint256 _newLicense, uint256 _oldLicense ) external virtual override \r... */\n    tag_42:\n        /* \"contracts/License.sol\":2914:2921  uint256 */\n      0x00\n        /* \"security/Pausable.sol\":1023:1031  paused() */\n      tag_93\n        /* \"security/Pausable.sol\":1023:1029  paused */\n      tag_27\n        /* \"security/Pausable.sol\":1023:1031  paused() */\n      jump\t// in\n    tag_93:\n        /* \"security/Pausable.sol\":1022:1031  !paused() */\n      iszero\n        /* \"security/Pausable.sol\":1014:1052  require(!paused(), \"Pausable: paused\") */\n      tag_94\n      jumpi\n      mload(0x40)\n      0x08c379a000000000000000000000000000000000000000000000000000000000\n      dup2\n      mstore\n      0x04\n      add\n      tag_95\n      swap1\n      tag_56\n      jump\t// in\n    tag_95:\n      mload(0x40)\n      dup1\n      swap2\n      sub\n      swap1\n      revert\n    tag_94:\n        /* \"contracts/License.sol\":2944:2967  uint256 priceDifference */\n      0x00\n        /* \"contracts/License.sol\":2970:3042  SafeMath.sub( licenseToPrice[_newLicense], licenseToPrice[_oldLicense] ) */\n      tag_97\n        /* \"contracts/License.sol\":2984:2998  licenseToPrice */\n      0x01\n        /* \"contracts/License.sol\":2984:3011  licenseToPrice[_newLicense] */\n      0x00\n        /* \"contracts/License.sol\":2999:3010  _newLicense */\n      dup7\n        /* \"contracts/License.sol\":2984:3011  licenseToPrice[_newLicense] */\n      dup2\n      mstore\n      0x20\n      add\n      swap1\n      dup2\n      mstore\n      0x20\n      add\n      0x00\n      keccak256\n      sload\n        /* \"contracts/License.sol\":3013:3027  licenseToPrice */\n      0x01\n        /* \"contracts/License.sol\":3013:3040  licenseToPrice[_oldLicense] */\n      0x00\n        /* \"contracts/License.sol\":3028:3039  _oldLicense */\n      dup7\n        /* \"contracts/License.sol\":3013:3040  licenseToPrice[_oldLicense] */\n      dup2\n      mstore\n      0x20\n      add\n      swap1\n      dup2\n      mstore\n      0x20\n      add\n      0x00\n      keccak256\n      sload\n        /* \"contracts/License.sol\":2970:2982  SafeMath.sub */\n      tag_98\n        /* \"contracts/License.sol\":2970:3042  SafeMath.sub( licenseToPrice[_newLicense], licenseToPrice[_oldLicense] ) */\n      jump\t// in\n    tag_97:\n        /* \"contracts/License.sol\":2944:3042  uint256 priceDifference = SafeMath.sub( licenseToPrice[_newLicense], licenseToPrice[_oldLicense] ) */\n      swap1\n      pop\n        /* \"contracts/License.sol\":3058:3150  PriceDifference( licenseToPrice[_newLicense], licenseToPrice[_oldLicense], priceDifference ) */\n      0xb3b97385128915259f86ae5f14535a9c7c563f63bf788ccd075ff7f7f60e8a64\n        /* \"contracts/License.sol\":3075:3089  licenseToPrice */\n      0x01\n        /* \"contracts/License.sol\":3075:3102  licenseToPrice[_newLicense] */\n      0x00\n        /* \"contracts/License.sol\":3090:3101  _newLicense */\n      dup7\n        /* \"contracts/License.sol\":3075:3102  licenseToPrice[_newLicense] */\n      dup2\n      mstore\n      0x20\n      add\n      swap1\n      dup2\n      mstore\n      0x20\n      add\n      0x00\n      keccak256\n      sload\n        /* \"contracts/License.sol\":3104:3118  licenseToPrice */\n      0x01\n        /* \"contracts/License.sol\":3104:3131  licenseToPrice[_oldLicense] */\n      0x00\n        /* \"contracts/License.sol\":3119:3130  _oldLicense */\n      dup7\n        /* \"contracts/License.sol\":3104:3131  licenseToPrice[_oldLicense] */\n      dup2\n      mstore\n      0x20\n      add\n      swap1\n      dup2\n      mstore\n      0x20\n      add\n      0x00\n      keccak256\n      sload\n        /* \"contracts/License.sol\":3133:3148  priceDifference */\n      dup4\n        /* \"contracts/License.sol\":3058:3150  PriceDifference( licenseToPrice[_newLicense], licenseToPrice[_oldLicense], priceDifference ) */\n      mload(0x40)\n      tag_99\n      swap4\n      swap3\n      swap2\n      swap1\n      tag_100\n      jump\t// in\n    tag_99:\n      mload(0x40)\n      dup1\n      swap2\n      sub\n      swap1\n      log1\n        /* \"contracts/License.sol\":3168:3183  priceDifference */\n      dup1\n        /* \"contracts/License.sol\":3161:3183  return priceDifference */\n      swap2\n      pop\n      pop\n        /* \"contracts/License.sol\":2613:3191  function priceDifferenceOfLicense ( uint256 _newLicense, uint256 _oldLicense ) external virtual override \r... */\n      swap3\n      swap2\n      pop\n      pop\n      jump\t// out\n        /* \"contracts/License.sol\":1053:1331  function getPriceOfLicense ( uint256 _license ) external view virtual override \r... */\n    tag_46:\n        /* \"contracts/License.sol\":1266:1273  uint256 */\n      0x00\n        /* \"security/Pausable.sol\":1023:1031  paused() */\n      tag_102\n        /* \"security/Pausable.sol\":1023:1029  paused */\n      tag_27\n        /* \"security/Pausable.sol\":1023:1031  paused() */\n      jump\t// in\n    tag_102:\n        /* \"security/Pausable.sol\":1022:1031  !paused() */\n      iszero\n        /* \"security/Pausable.sol\":1014:1052  require(!paused(), \"Pausable: paused\") */\n      tag_103\n      jumpi\n      mload(0x40)\n      0x08c379a000000000000000000000000000000000000000000000000000000000\n      dup2\n      mstore\n      0x04\n      add\n      tag_104\n      swap1\n      tag_56\n      jump\t// in\n    tag_104:\n      mload(0x40)\n      dup1\n      swap2\n      sub\n      swap1\n      revert\n    tag_103:\n        /* \"contracts/License.sol\":1299:1313  licenseToPrice */\n      0x01\n        /* \"contracts/License.sol\":1299:1323  licenseToPrice[_license] */\n      0x00\n        /* \"contracts/License.sol\":1314:1322  _license */\n      dup4\n        /* \"contracts/License.sol\":1299:1323  licenseToPrice[_license] */\n      dup2\n      mstore\n      0x20\n      add\n      swap1\n      dup2\n      mstore\n      0x20\n      add\n      0x00\n      keccak256\n      sload\n        /* \"contracts/License.sol\":1292:1323  return licenseToPrice[_license] */\n      swap1\n      pop\n        /* \"contracts/License.sol\":1053:1331  function getPriceOfLicense ( uint256 _license ) external view virtual override \r... */\n      swap2\n      swap1\n      pop\n      jump\t// out\n        /* \"security/Ownable.sol\":636:843  function transferOwnership( address newOwner ) public virtual onlyOwner {\r... */\n    tag_51:\n        /* \"security/Ownable.sol\":446:456  msg.sender */\n      caller\n        /* \"security/Ownable.sol\":435:456  owner() == msg.sender */\n      0xffffffffffffffffffffffffffffffffffffffff\n      and\n        /* \"security/Ownable.sol\":435:442  owner() */\n      tag_107\n        /* \"security/Ownable.sol\":435:440  owner */\n      tag_37\n        /* \"security/Ownable.sol\":435:442  owner() */\n      jump\t// in\n    tag_107:\n        /* \"security/Ownable.sol\":435:456  owner() == msg.sender */\n      0xffffffffffffffffffffffffffffffffffffffff\n      and\n      eq\n        /* \"security/Ownable.sol\":426:494  require( owner() == msg.sender, \"Ownable: caller is not the owner\" ) */\n      tag_108\n      jumpi\n      mload(0x40)\n      0x08c379a000000000000000000000000000000000000000000000000000000000\n      dup2\n      mstore\n      0x04\n      add\n      tag_109\n      swap1\n      tag_80\n      jump\t// in\n    tag_109:\n      mload(0x40)\n      dup1\n      swap2\n      sub\n      swap1\n      revert\n    tag_108:\n        /* \"security/Ownable.sol\":748:749  0 */\n      0x00\n        /* \"security/Ownable.sol\":728:750  newOwner != address(0) */\n      0xffffffffffffffffffffffffffffffffffffffff\n      and\n        /* \"security/Ownable.sol\":728:736  newOwner */\n      dup2\n        /* \"security/Ownable.sol\":728:750  newOwner != address(0) */\n      0xffffffffffffffffffffffffffffffffffffffff\n      and\n      eq\n      iszero\n        /* \"security/Ownable.sol\":719:794  require( newOwner != address(0), \"Ownable: new owner is the zero address\" ) */\n      tag_111\n      jumpi\n      mload(0x40)\n      0x08c379a000000000000000000000000000000000000000000000000000000000\n      dup2\n      mstore\n      0x04\n      add\n      tag_112\n      swap1\n      tag_113\n      jump\t// in\n    tag_112:\n      mload(0x40)\n      dup1\n      swap2\n      sub\n      swap1\n      revert\n    tag_111:\n        /* \"security/Ownable.sol\":805:835  _transferOwnership( newOwner ) */\n      tag_114\n        /* \"security/Ownable.sol\":825:833  newOwner */\n      dup2\n        /* \"security/Ownable.sol\":805:823  _transferOwnership */\n      tag_83\n        /* \"security/Ownable.sol\":805:835  _transferOwnership( newOwner ) */\n      jump\t// in\n    tag_114:\n        /* \"security/Ownable.sol\":636:843  function transferOwnership( address newOwner ) public virtual onlyOwner {\r... */\n      pop\n      jump\t// out\n        /* \"utils/math/SafeMath.sol\":2823:2932  function add ( uint256 a, uint256 b ) internal pure returns ( uint256 ) \r... */\n    tag_73:\n        /* \"utils/math/SafeMath.sol\":2885:2892  uint256 */\n      0x00\n        /* \"utils/math/SafeMath.sol\":2923:2924  b */\n      dup2\n        /* \"utils/math/SafeMath.sol\":2919:2920  a */\n      dup4\n        /* \"utils/math/SafeMath.sol\":2919:2924  a + b */\n      tag_116\n      swap2\n      swap1\n      tag_117\n      jump\t// in\n    tag_116:\n        /* \"utils/math/SafeMath.sol\":2912:2924  return a + b */\n      swap1\n      pop\n        /* \"utils/math/SafeMath.sol\":2823:2932  function add ( uint256 a, uint256 b ) internal pure returns ( uint256 ) \r... */\n      swap3\n      swap2\n      pop\n      pop\n      jump\t// out\n        /* \"security/Ownable.sol\":851:1044  function _transferOwnership( address newOwner ) internal virtual {\r... */\n    tag_83:\n        /* \"security/Ownable.sol\":927:943  address oldOwner */\n      0x00\n        /* \"security/Ownable.sol\":946:952  _owner */\n      dup1\n      0x00\n      swap1\n      sload\n      swap1\n      0x0100\n      exp\n      swap1\n      div\n      0xffffffffffffffffffffffffffffffffffffffff\n      and\n        /* \"security/Ownable.sol\":927:952  address oldOwner = _owner */\n      swap1\n      pop\n        /* \"security/Ownable.sol\":972:980  newOwner */\n      dup2\n        /* \"security/Ownable.sol\":963:969  _owner */\n      0x00\n      dup1\n        /* \"security/Ownable.sol\":963:980  _owner = newOwner */\n      0x0100\n      exp\n      dup2\n      sload\n      dup2\n      0xffffffffffffffffffffffffffffffffffffffff\n      mul\n      not\n      and\n      swap1\n      dup4\n      0xffffffffffffffffffffffffffffffffffffffff\n      and\n      mul\n      or\n      swap1\n      sstore\n      pop\n        /* \"security/Ownable.sol\":1027:1035  newOwner */\n      dup2\n        /* \"security/Ownable.sol\":996:1036  OwnershipTransferred(oldOwner, newOwner) */\n      0xffffffffffffffffffffffffffffffffffffffff\n      and\n        /* \"security/Ownable.sol\":1017:1025  oldOwner */\n      dup2\n        /* \"security/Ownable.sol\":996:1036  OwnershipTransferred(oldOwner, newOwner) */\n      0xffffffffffffffffffffffffffffffffffffffff\n      and\n      0x8be0079c531659141344cd1fd0a4f28419497f9722a3daafe3b4186f6b6457e0\n      mload(0x40)\n      mload(0x40)\n      dup1\n      swap2\n      sub\n      swap1\n      log3\n        /* \"security/Ownable.sol\":916:1044  {\r... */\n      pop\n        /* \"security/Ownable.sol\":851:1044  function _transferOwnership( address newOwner ) internal virtual {\r... */\n      pop\n      jump\t// out\n        /* \"utils/math/SafeMath.sol\":3222:3331  function sub ( uint256 a, uint256 b ) internal pure returns ( uint256 ) \r... */\n    tag_98:\n        /* \"utils/math/SafeMath.sol\":3284:3291  uint256 */\n      0x00\n        /* \"utils/math/SafeMath.sol\":3322:3323  b */\n      dup2\n        /* \"utils/math/SafeMath.sol\":3318:3319  a */\n      dup4\n        /* \"utils/math/SafeMath.sol\":3318:3323  a - b */\n      tag_120\n      swap2\n      swap1\n      tag_121\n      jump\t// in\n    tag_120:\n        /* \"utils/math/SafeMath.sol\":3311:3323  return a - b */\n      swap1\n      pop\n        /* \"utils/math/SafeMath.sol\":3222:3331  function sub ( uint256 a, uint256 b ) internal pure returns ( uint256 ) \r... */\n      swap3\n      swap2\n      pop\n      pop\n      jump\t// out\n        /* \"#utility.yul\":7:146   */\n    tag_123:\n        /* \"#utility.yul\":53:58   */\n      0x00\n        /* \"#utility.yul\":91:97   */\n      dup2\n        /* \"#utility.yul\":78:98   */\n      calldataload\n        /* \"#utility.yul\":69:98   */\n      swap1\n      pop\n        /* \"#utility.yul\":107:140   */\n      tag_125\n        /* \"#utility.yul\":134:139   */\n      dup2\n        /* \"#utility.yul\":107:140   */\n      tag_126\n      jump\t// in\n    tag_125:\n        /* \"#utility.yul\":7:146   */\n      swap3\n      swap2\n      pop\n      pop\n      jump\t// out\n        /* \"#utility.yul\":152:291   */\n    tag_127:\n        /* \"#utility.yul\":198:203   */\n      0x00\n        /* \"#utility.yul\":236:242   */\n      dup2\n        /* \"#utility.yul\":223:243   */\n      calldataload\n        /* \"#utility.yul\":214:243   */\n      swap1\n      pop\n        /* \"#utility.yul\":252:285   */\n      tag_129\n        /* \"#utility.yul\":279:284   */\n      dup2\n        /* \"#utility.yul\":252:285   */\n      tag_130\n      jump\t// in\n    tag_129:\n        /* \"#utility.yul\":152:291   */\n      swap3\n      swap2\n      pop\n      pop\n      jump\t// out\n        /* \"#utility.yul\":297:626   */\n    tag_50:\n        /* \"#utility.yul\":356:362   */\n      0x00\n        /* \"#utility.yul\":405:407   */\n      0x20\n        /* \"#utility.yul\":393:402   */\n      dup3\n        /* \"#utility.yul\":384:391   */\n      dup5\n        /* \"#utility.yul\":380:403   */\n      sub\n        /* \"#utility.yul\":376:408   */\n      slt\n        /* \"#utility.yul\":373:492   */\n      iszero\n      tag_132\n      jumpi\n        /* \"#utility.yul\":411:490   */\n      tag_133\n      tag_134\n      jump\t// in\n    tag_133:\n        /* \"#utility.yul\":373:492   */\n    tag_132:\n        /* \"#utility.yul\":531:532   */\n      0x00\n        /* \"#utility.yul\":556:609   */\n      tag_135\n        /* \"#utility.yul\":601:608   */\n      dup5\n        /* \"#utility.yul\":592:598   */\n      dup3\n        /* \"#utility.yul\":581:590   */\n      dup6\n        /* \"#utility.yul\":577:599   */\n      add\n        /* \"#utility.yul\":556:609   */\n      tag_123\n      jump\t// in\n    tag_135:\n        /* \"#utility.yul\":546:609   */\n      swap2\n      pop\n        /* \"#utility.yul\":502:619   */\n      pop\n        /* \"#utility.yul\":297:626   */\n      swap3\n      swap2\n      pop\n      pop\n      jump\t// out\n        /* \"#utility.yul\":632:961   */\n    tag_24:\n        /* \"#utility.yul\":691:697   */\n      0x00\n        /* \"#utility.yul\":740:742   */\n      0x20\n        /* \"#utility.yul\":728:737   */\n      dup3\n        /* \"#utility.yul\":719:726   */\n      dup5\n        /* \"#utility.yul\":715:738   */\n      sub\n        /* \"#utility.yul\":711:743   */\n      slt\n        /* \"#utility.yul\":708:827   */\n      iszero\n      tag_137\n      jumpi\n        /* \"#utility.yul\":746:825   */\n      tag_138\n      tag_134\n      jump\t// in\n    tag_138:\n        /* \"#utility.yul\":708:827   */\n    tag_137:\n        /* \"#utility.yul\":866:867   */\n      0x00\n        /* \"#utility.yul\":891:944   */\n      tag_139\n        /* \"#utility.yul\":936:943   */\n      dup5\n        /* \"#utility.yul\":927:933   */\n      dup3\n        /* \"#utility.yul\":916:925   */\n      dup6\n        /* \"#utility.yul\":912:934   */\n      add\n        /* \"#utility.yul\":891:944   */\n      tag_127\n      jump\t// in\n    tag_139:\n        /* \"#utility.yul\":881:944   */\n      swap2\n      pop\n        /* \"#utility.yul\":837:954   */\n      pop\n        /* \"#utility.yul\":632:961   */\n      swap3\n      swap2\n      pop\n      pop\n      jump\t// out\n        /* \"#utility.yul\":967:1441   */\n    tag_20:\n        /* \"#utility.yul\":1035:1041   */\n      0x00\n        /* \"#utility.yul\":1043:1049   */\n      dup1\n        /* \"#utility.yul\":1092:1094   */\n      0x40\n        /* \"#utility.yul\":1080:1089   */\n      dup4\n        /* \"#utility.yul\":1071:1078   */\n      dup6\n        /* \"#utility.yul\":1067:1090   */\n      sub\n        /* \"#utility.yul\":1063:1095   */\n      slt\n        /* \"#utility.yul\":1060:1179   */\n      iszero\n      tag_141\n      jumpi\n        /* \"#utility.yul\":1098:1177   */\n      tag_142\n      tag_134\n      jump\t// in\n    tag_142:\n        /* \"#utility.yul\":1060:1179   */\n    tag_141:\n        /* \"#utility.yul\":1218:1219   */\n      0x00\n        /* \"#utility.yul\":1243:1296   */\n      tag_143\n        /* \"#utility.yul\":1288:1295   */\n      dup6\n        /* \"#utility.yul\":1279:1285   */\n      dup3\n        /* \"#utility.yul\":1268:1277   */\n      dup7\n        /* \"#utility.yul\":1264:1286   */\n      add\n        /* \"#utility.yul\":1243:1296   */\n      tag_127\n      jump\t// in\n    tag_143:\n        /* \"#utility.yul\":1233:1296   */\n      swap3\n      pop\n        /* \"#utility.yul\":1189:1306   */\n      pop\n        /* \"#utility.yul\":1345:1347   */\n      0x20\n        /* \"#utility.yul\":1371:1424   */\n      tag_144\n        /* \"#utility.yul\":1416:1423   */\n      dup6\n        /* \"#utility.yul\":1407:1413   */\n      dup3\n        /* \"#utility.yul\":1396:1405   */\n      dup7\n        /* \"#utility.yul\":1392:1414   */\n      add\n        /* \"#utility.yul\":1371:1424   */\n      tag_127\n      jump\t// in\n    tag_144:\n        /* \"#utility.yul\":1361:1424   */\n      swap2\n      pop\n        /* \"#utility.yul\":1316:1434   */\n      pop\n        /* \"#utility.yul\":967:1441   */\n      swap3\n      pop\n      swap3\n      swap1\n      pop\n      jump\t// out\n        /* \"#utility.yul\":1447:1565   */\n    tag_145:\n        /* \"#utility.yul\":1534:1558   */\n      tag_147\n        /* \"#utility.yul\":1552:1557   */\n      dup2\n        /* \"#utility.yul\":1534:1558   */\n      tag_148\n      jump\t// in\n    tag_147:\n        /* \"#utility.yul\":1529:1532   */\n      dup3\n        /* \"#utility.yul\":1522:1559   */\n      mstore\n        /* \"#utility.yul\":1447:1565   */\n      pop\n      pop\n      jump\t// out\n        /* \"#utility.yul\":1571:1680   */\n    tag_149:\n        /* \"#utility.yul\":1652:1673   */\n      tag_151\n        /* \"#utility.yul\":1667:1672   */\n      dup2\n        /* \"#utility.yul\":1652:1673   */\n      tag_152\n      jump\t// in\n    tag_151:\n        /* \"#utility.yul\":1647:1650   */\n      dup3\n        /* \"#utility.yul\":1640:1674   */\n      mstore\n        /* \"#utility.yul\":1571:1680   */\n      pop\n      pop\n      jump\t// out\n        /* \"#utility.yul\":1686:2052   */\n    tag_153:\n        /* \"#utility.yul\":1828:1831   */\n      0x00\n        /* \"#utility.yul\":1849:1916   */\n      tag_155\n        /* \"#utility.yul\":1913:1915   */\n      0x26\n        /* \"#utility.yul\":1908:1911   */\n      dup4\n        /* \"#utility.yul\":1849:1916   */\n      tag_156\n      jump\t// in\n    tag_155:\n        /* \"#utility.yul\":1842:1916   */\n      swap2\n      pop\n        /* \"#utility.yul\":1925:2018   */\n      tag_157\n        /* \"#utility.yul\":2014:2017   */\n      dup3\n        /* \"#utility.yul\":1925:2018   */\n      tag_158\n      jump\t// in\n    tag_157:\n        /* \"#utility.yul\":2043:2045   */\n      0x40\n        /* \"#utility.yul\":2038:2041   */\n      dup3\n        /* \"#utility.yul\":2034:2046   */\n      add\n        /* \"#utility.yul\":2027:2046   */\n      swap1\n      pop\n        /* \"#utility.yul\":1686:2052   */\n      swap2\n      swap1\n      pop\n      jump\t// out\n        /* \"#utility.yul\":2058:2424   */\n    tag_159:\n        /* \"#utility.yul\":2200:2203   */\n      0x00\n        /* \"#utility.yul\":2221:2288   */\n      tag_161\n        /* \"#utility.yul\":2285:2287   */\n      0x10\n        /* \"#utility.yul\":2280:2283   */\n      dup4\n        /* \"#utility.yul\":2221:2288   */\n      tag_156\n      jump\t// in\n    tag_161:\n        /* \"#utility.yul\":2214:2288   */\n      swap2\n      pop\n        /* \"#utility.yul\":2297:2390   */\n      tag_162\n        /* \"#utility.yul\":2386:2389   */\n      dup3\n        /* \"#utility.yul\":2297:2390   */\n      tag_163\n      jump\t// in\n    tag_162:\n        /* \"#utility.yul\":2415:2417   */\n      0x20\n        /* \"#utility.yul\":2410:2413   */\n      dup3\n        /* \"#utility.yul\":2406:2418   */\n      add\n        /* \"#utility.yul\":2399:2418   */\n      swap1\n      pop\n        /* \"#utility.yul\":2058:2424   */\n      swap2\n      swap1\n      pop\n      jump\t// out\n        /* \"#utility.yul\":2430:2796   */\n    tag_164:\n        /* \"#utility.yul\":2572:2575   */\n      0x00\n        /* \"#utility.yul\":2593:2660   */\n      tag_166\n        /* \"#utility.yul\":2657:2659   */\n      0x20\n        /* \"#utility.yul\":2652:2655   */\n      dup4\n        /* \"#utility.yul\":2593:2660   */\n      tag_156\n      jump\t// in\n    tag_166:\n        /* \"#utility.yul\":2586:2660   */\n      swap2\n      pop\n        /* \"#utility.yul\":2669:2762   */\n      tag_167\n        /* \"#utility.yul\":2758:2761   */\n      dup3\n        /* \"#utility.yul\":2669:2762   */\n      tag_168\n      jump\t// in\n    tag_167:\n        /* \"#utility.yul\":2787:2789   */\n      0x20\n        /* \"#utility.yul\":2782:2785   */\n      dup3\n        /* \"#utility.yul\":2778:2790   */\n      add\n        /* \"#utility.yul\":2771:2790   */\n      swap1\n      pop\n        /* \"#utility.yul\":2430:2796   */\n      swap2\n      swap1\n      pop\n      jump\t// out\n        /* \"#utility.yul\":2802:2920   */\n    tag_169:\n        /* \"#utility.yul\":2889:2913   */\n      tag_171\n        /* \"#utility.yul\":2907:2912   */\n      dup2\n        /* \"#utility.yul\":2889:2913   */\n      tag_172\n      jump\t// in\n    tag_171:\n        /* \"#utility.yul\":2884:2887   */\n      dup3\n        /* \"#utility.yul\":2877:2914   */\n      mstore\n        /* \"#utility.yul\":2802:2920   */\n      pop\n      pop\n      jump\t// out\n        /* \"#utility.yul\":2926:3148   */\n    tag_39:\n        /* \"#utility.yul\":3019:3023   */\n      0x00\n        /* \"#utility.yul\":3057:3059   */\n      0x20\n        /* \"#utility.yul\":3046:3055   */\n      dup3\n        /* \"#utility.yul\":3042:3060   */\n      add\n        /* \"#utility.yul\":3034:3060   */\n      swap1\n      pop\n        /* \"#utility.yul\":3070:3141   */\n      tag_174\n        /* \"#utility.yul\":3138:3139   */\n      0x00\n        /* \"#utility.yul\":3127:3136   */\n      dup4\n        /* \"#utility.yul\":3123:3140   */\n      add\n        /* \"#utility.yul\":3114:3120   */\n      dup5\n        /* \"#utility.yul\":3070:3141   */\n      tag_145\n      jump\t// in\n    tag_174:\n        /* \"#utility.yul\":2926:3148   */\n      swap3\n      swap2\n      pop\n      pop\n      jump\t// out\n        /* \"#utility.yul\":3154:3364   */\n    tag_29:\n        /* \"#utility.yul\":3241:3245   */\n      0x00\n        /* \"#utility.yul\":3279:3281   */\n      0x20\n        /* \"#utility.yul\":3268:3277   */\n      dup3\n        /* \"#utility.yul\":3264:3282   */\n      add\n        /* \"#utility.yul\":3256:3282   */\n      swap1\n      pop\n        /* \"#utility.yul\":3292:3357   */\n      tag_176\n        /* \"#utility.yul\":3354:3355   */\n      0x00\n        /* \"#utility.yul\":3343:3352   */\n      dup4\n        /* \"#utility.yul\":3339:3356   */\n      add\n        /* \"#utility.yul\":3330:3336   */\n      dup5\n        /* \"#utility.yul\":3292:3357   */\n      tag_149\n      jump\t// in\n    tag_176:\n        /* \"#utility.yul\":3154:3364   */\n      swap3\n      swap2\n      pop\n      pop\n      jump\t// out\n        /* \"#utility.yul\":3370:3789   */\n    tag_113:\n        /* \"#utility.yul\":3536:3540   */\n      0x00\n        /* \"#utility.yul\":3574:3576   */\n      0x20\n        /* \"#utility.yul\":3563:3572   */\n      dup3\n        /* \"#utility.yul\":3559:3577   */\n      add\n        /* \"#utility.yul\":3551:3577   */\n      swap1\n      pop\n        /* \"#utility.yul\":3623:3632   */\n      dup2\n        /* \"#utility.yul\":3617:3621   */\n      dup2\n        /* \"#utility.yul\":3613:3633   */\n      sub\n        /* \"#utility.yul\":3609:3610   */\n      0x00\n        /* \"#utility.yul\":3598:3607   */\n      dup4\n        /* \"#utility.yul\":3594:3611   */\n      add\n        /* \"#utility.yul\":3587:3634   */\n      mstore\n        /* \"#utility.yul\":3651:3782   */\n      tag_178\n        /* \"#utility.yul\":3777:3781   */\n      dup2\n        /* \"#utility.yul\":3651:3782   */\n      tag_153\n      jump\t// in\n    tag_178:\n        /* \"#utility.yul\":3643:3782   */\n      swap1\n      pop\n        /* \"#utility.yul\":3370:3789   */\n      swap2\n      swap1\n      pop\n      jump\t// out\n        /* \"#utility.yul\":3795:4214   */\n    tag_56:\n        /* \"#utility.yul\":3961:3965   */\n      0x00\n        /* \"#utility.yul\":3999:4001   */\n      0x20\n        /* \"#utility.yul\":3988:3997   */\n      dup3\n        /* \"#utility.yul\":3984:4002   */\n      add\n        /* \"#utility.yul\":3976:4002   */\n      swap1\n      pop\n        /* \"#utility.yul\":4048:4057   */\n      dup2\n        /* \"#utility.yul\":4042:4046   */\n      dup2\n        /* \"#utility.yul\":4038:4058   */\n      sub\n        /* \"#utility.yul\":4034:4035   */\n      0x00\n        /* \"#utility.yul\":4023:4032   */\n      dup4\n        /* \"#utility.yul\":4019:4036   */\n      add\n        /* \"#utility.yul\":4012:4059   */\n      mstore\n        /* \"#utility.yul\":4076:4207   */\n      tag_180\n        /* \"#utility.yul\":4202:4206   */\n      dup2\n        /* \"#utility.yul\":4076:4207   */\n      tag_159\n      jump\t// in\n    tag_180:\n        /* \"#utility.yul\":4068:4207   */\n      swap1\n      pop\n        /* \"#utility.yul\":3795:4214   */\n      swap2\n      swap1\n      pop\n      jump\t// out\n        /* \"#utility.yul\":4220:4639   */\n    tag_80:\n        /* \"#utility.yul\":4386:4390   */\n      0x00\n        /* \"#utility.yul\":4424:4426   */\n      0x20\n        /* \"#utility.yul\":4413:4422   */\n      dup3\n        /* \"#utility.yul\":4409:4427   */\n      add\n        /* \"#utility.yul\":4401:4427   */\n      swap1\n      pop\n        /* \"#utility.yul\":4473:4482   */\n      dup2\n        /* \"#utility.yul\":4467:4471   */\n      dup2\n        /* \"#utility.yul\":4463:4483   */\n      sub\n        /* \"#utility.yul\":4459:4460   */\n      0x00\n        /* \"#utility.yul\":4448:4457   */\n      dup4\n        /* \"#utility.yul\":4444:4461   */\n      add\n        /* \"#utility.yul\":4437:4484   */\n      mstore\n        /* \"#utility.yul\":4501:4632   */\n      tag_182\n        /* \"#utility.yul\":4627:4631   */\n      dup2\n        /* \"#utility.yul\":4501:4632   */\n      tag_164\n      jump\t// in\n    tag_182:\n        /* \"#utility.yul\":4493:4632   */\n      swap1\n      pop\n        /* \"#utility.yul\":4220:4639   */\n      swap2\n      swap1\n      pop\n      jump\t// out\n        /* \"#utility.yul\":4645:4867   */\n    tag_17:\n        /* \"#utility.yul\":4738:4742   */\n      0x00\n        /* \"#utility.yul\":4776:4778   */\n      0x20\n        /* \"#utility.yul\":4765:4774   */\n      dup3\n        /* \"#utility.yul\":4761:4779   */\n      add\n        /* \"#utility.yul\":4753:4779   */\n      swap1\n      pop\n        /* \"#utility.yul\":4789:4860   */\n      tag_184\n        /* \"#utility.yul\":4857:4858   */\n      0x00\n        /* \"#utility.yul\":4846:4855   */\n      dup4\n        /* \"#utility.yul\":4842:4859   */\n      add\n        /* \"#utility.yul\":4833:4839   */\n      dup5\n        /* \"#utility.yul\":4789:4860   */\n      tag_169\n      jump\t// in\n    tag_184:\n        /* \"#utility.yul\":4645:4867   */\n      swap3\n      swap2\n      pop\n      pop\n      jump\t// out\n        /* \"#utility.yul\":4873:5205   */\n    tag_66:\n        /* \"#utility.yul\":4994:4998   */\n      0x00\n        /* \"#utility.yul\":5032:5034   */\n      0x40\n        /* \"#utility.yul\":5021:5030   */\n      dup3\n        /* \"#utility.yul\":5017:5035   */\n      add\n        /* \"#utility.yul\":5009:5035   */\n      swap1\n      pop\n        /* \"#utility.yul\":5045:5116   */\n      tag_186\n        /* \"#utility.yul\":5113:5114   */\n      0x00\n        /* \"#utility.yul\":5102:5111   */\n      dup4\n        /* \"#utility.yul\":5098:5115   */\n      add\n        /* \"#utility.yul\":5089:5095   */\n      dup6\n        /* \"#utility.yul\":5045:5116   */\n      tag_169\n      jump\t// in\n    tag_186:\n        /* \"#utility.yul\":5126:5198   */\n      tag_187\n        /* \"#utility.yul\":5194:5196   */\n      0x20\n        /* \"#utility.yul\":5183:5192   */\n      dup4\n        /* \"#utility.yul\":5179:5197   */\n      add\n        /* \"#utility.yul\":5170:5176   */\n      dup5\n        /* \"#utility.yul\":5126:5198   */\n      tag_169\n      jump\t// in\n    tag_187:\n        /* \"#utility.yul\":4873:5205   */\n      swap4\n      swap3\n      pop\n      pop\n      pop\n      jump\t// out\n        /* \"#utility.yul\":5211:5653   */\n    tag_100:\n        /* \"#utility.yul\":5360:5364   */\n      0x00\n        /* \"#utility.yul\":5398:5400   */\n      0x60\n        /* \"#utility.yul\":5387:5396   */\n      dup3\n        /* \"#utility.yul\":5383:5401   */\n      add\n        /* \"#utility.yul\":5375:5401   */\n      swap1\n      pop\n        /* \"#utility.yul\":5411:5482   */\n      tag_189\n        /* \"#utility.yul\":5479:5480   */\n      0x00\n        /* \"#utility.yul\":5468:5477   */\n      dup4\n        /* \"#utility.yul\":5464:5481   */\n      add\n        /* \"#utility.yul\":5455:5461   */\n      dup7\n        /* \"#utility.yul\":5411:5482   */\n      tag_169\n      jump\t// in\n    tag_189:\n        /* \"#utility.yul\":5492:5564   */\n      tag_190\n        /* \"#utility.yul\":5560:5562   */\n      0x20\n        /* \"#utility.yul\":5549:5558   */\n      dup4\n        /* \"#utility.yul\":5545:5563   */\n      add\n        /* \"#utility.yul\":5536:5542   */\n      dup6\n        /* \"#utility.yul\":5492:5564   */\n      tag_169\n      jump\t// in\n    tag_190:\n        /* \"#utility.yul\":5574:5646   */\n      tag_191\n        /* \"#utility.yul\":5642:5644   */\n      0x40\n        /* \"#utility.yul\":5631:5640   */\n      dup4\n        /* \"#utility.yul\":5627:5645   */\n      add\n        /* \"#utility.yul\":5618:5624   */\n      dup5\n        /* \"#utility.yul\":5574:5646   */\n      tag_169\n      jump\t// in\n    tag_191:\n        /* \"#utility.yul\":5211:5653   */\n      swap5\n      swap4\n      pop\n      pop\n      pop\n      pop\n      jump\t// out\n        /* \"#utility.yul\":5740:5909   */\n    tag_156:\n        /* \"#utility.yul\":5824:5835   */\n      0x00\n        /* \"#utility.yul\":5858:5864   */\n      dup3\n        /* \"#utility.yul\":5853:5856   */\n      dup3\n        /* \"#utility.yul\":5846:5865   */\n      mstore\n        /* \"#utility.yul\":5898:5902   */\n      0x20\n        /* \"#utility.yul\":5893:5896   */\n      dup3\n        /* \"#utility.yul\":5889:5903   */\n      add\n        /* \"#utility.yul\":5874:5903   */\n      swap1\n      pop\n        /* \"#utility.yul\":5740:5909   */\n      swap3\n      swap2\n      pop\n      pop\n      jump\t// out\n        /* \"#utility.yul\":5915:6220   */\n    tag_117:\n        /* \"#utility.yul\":5955:5958   */\n      0x00\n        /* \"#utility.yul\":5974:5994   */\n      tag_196\n        /* \"#utility.yul\":5992:5993   */\n      dup3\n        /* \"#utility.yul\":5974:5994   */\n      tag_172\n      jump\t// in\n    tag_196:\n        /* \"#utility.yul\":5969:5994   */\n      swap2\n      pop\n        /* \"#utility.yul\":6008:6028   */\n      tag_197\n        /* \"#utility.yul\":6026:6027   */\n      dup4\n        /* \"#utility.yul\":6008:6028   */\n      tag_172\n      jump\t// in\n    tag_197:\n        /* \"#utility.yul\":6003:6028   */\n      swap3\n      pop\n        /* \"#utility.yul\":6162:6163   */\n      dup3\n        /* \"#utility.yul\":6094:6160   */\n      0xffffffffffffffffffffffffffffffffffffffffffffffffffffffffffffffff\n        /* \"#utility.yul\":6090:6164   */\n      sub\n        /* \"#utility.yul\":6087:6088   */\n      dup3\n        /* \"#utility.yul\":6084:6165   */\n      gt\n        /* \"#utility.yul\":6081:6188   */\n      iszero\n      tag_198\n      jumpi\n        /* \"#utility.yul\":6168:6186   */\n      tag_199\n      tag_200\n      jump\t// in\n    tag_199:\n        /* \"#utility.yul\":6081:6188   */\n    tag_198:\n        /* \"#utility.yul\":6212:6213   */\n      dup3\n        /* \"#utility.yul\":6209:6210   */\n      dup3\n        /* \"#utility.yul\":6205:6214   */\n      add\n        /* \"#utility.yul\":6198:6214   */\n      swap1\n      pop\n        /* \"#utility.yul\":5915:6220   */\n      swap3\n      swap2\n      pop\n      pop\n      jump\t// out\n        /* \"#utility.yul\":6226:6417   */\n    tag_121:\n        /* \"#utility.yul\":6266:6270   */\n      0x00\n        /* \"#utility.yul\":6286:6306   */\n      tag_202\n        /* \"#utility.yul\":6304:6305   */\n      dup3\n        /* \"#utility.yul\":6286:6306   */\n      tag_172\n      jump\t// in\n    tag_202:\n        /* \"#utility.yul\":6281:6306   */\n      swap2\n      pop\n        /* \"#utility.yul\":6320:6340   */\n      tag_203\n        /* \"#utility.yul\":6338:6339   */\n      dup4\n        /* \"#utility.yul\":6320:6340   */\n      tag_172\n      jump\t// in\n    tag_203:\n        /* \"#utility.yul\":6315:6340   */\n      swap3\n      pop\n        /* \"#utility.yul\":6359:6360   */\n      dup3\n        /* \"#utility.yul\":6356:6357   */\n      dup3\n        /* \"#utility.yul\":6353:6361   */\n      lt\n        /* \"#utility.yul\":6350:6384   */\n      iszero\n      tag_204\n      jumpi\n        /* \"#utility.yul\":6364:6382   */\n      tag_205\n      tag_200\n      jump\t// in\n    tag_205:\n        /* \"#utility.yul\":6350:6384   */\n    tag_204:\n        /* \"#utility.yul\":6409:6410   */\n      dup3\n        /* \"#utility.yul\":6406:6407   */\n      dup3\n        /* \"#utility.yul\":6402:6411   */\n      sub\n        /* \"#utility.yul\":6394:6411   */\n      swap1\n      pop\n        /* \"#utility.yul\":6226:6417   */\n      swap3\n      swap2\n      pop\n      pop\n      jump\t// out\n        /* \"#utility.yul\":6423:6519   */\n    tag_148:\n        /* \"#utility.yul\":6460:6467   */\n      0x00\n        /* \"#utility.yul\":6489:6513   */\n      tag_207\n        /* \"#utility.yul\":6507:6512   */\n      dup3\n        /* \"#utility.yul\":6489:6513   */\n      tag_208\n      jump\t// in\n    tag_207:\n        /* \"#utility.yul\":6478:6513   */\n      swap1\n      pop\n        /* \"#utility.yul\":6423:6519   */\n      swap2\n      swap1\n      pop\n      jump\t// out\n        /* \"#utility.yul\":6525:6615   */\n    tag_152:\n        /* \"#utility.yul\":6559:6566   */\n      0x00\n        /* \"#utility.yul\":6602:6607   */\n      dup2\n        /* \"#utility.yul\":6595:6608   */\n      iszero\n        /* \"#utility.yul\":6588:6609   */\n      iszero\n        /* \"#utility.yul\":6577:6609   */\n      swap1\n      pop\n        /* \"#utility.yul\":6525:6615   */\n      swap2\n      swap1\n      pop\n      jump\t// out\n        /* \"#utility.yul\":6621:6747   */\n    tag_208:\n        /* \"#utility.yul\":6658:6665   */\n      0x00\n        /* \"#utility.yul\":6698:6740   */\n      0xffffffffffffffffffffffffffffffffffffffff\n        /* \"#utility.yul\":6691:6696   */\n      dup3\n        /* \"#utility.yul\":6687:6741   */\n      and\n        /* \"#utility.yul\":6676:6741   */\n      swap1\n      pop\n        /* \"#utility.yul\":6621:6747   */\n      swap2\n      swap1\n      pop\n      jump\t// out\n        /* \"#utility.yul\":6753:6830   */\n    tag_172:\n        /* \"#utility.yul\":6790:6797   */\n      0x00\n        /* \"#utility.yul\":6819:6824   */\n      dup2\n        /* \"#utility.yul\":6808:6824   */\n      swap1\n      pop\n        /* \"#utility.yul\":6753:6830   */\n      swap2\n      swap1\n      pop\n      jump\t// out\n        /* \"#utility.yul\":6836:7016   */\n    tag_200:\n        /* \"#utility.yul\":6884:6961   */\n      0x4e487b7100000000000000000000000000000000000000000000000000000000\n        /* \"#utility.yul\":6881:6882   */\n      0x00\n        /* \"#utility.yul\":6874:6962   */\n      mstore\n        /* \"#utility.yul\":6981:6985   */\n      0x11\n        /* \"#utility.yul\":6978:6979   */\n      0x04\n        /* \"#utility.yul\":6971:6986   */\n      mstore\n        /* \"#utility.yul\":7005:7009   */\n      0x24\n        /* \"#utility.yul\":7002:7003   */\n      0x00\n        /* \"#utility.yul\":6995:7010   */\n      revert\n        /* \"#utility.yul\":7145:7262   */\n    tag_134:\n        /* \"#utility.yul\":7254:7255   */\n      0x00\n        /* \"#utility.yul\":7251:7252   */\n      dup1\n        /* \"#utility.yul\":7244:7256   */\n      revert\n        /* \"#utility.yul\":7268:7493   */\n    tag_158:\n        /* \"#utility.yul\":7408:7442   */\n      0x4f776e61626c653a206e6577206f776e657220697320746865207a65726f2061\n        /* \"#utility.yul\":7404:7405   */\n      0x00\n        /* \"#utility.yul\":7396:7402   */\n      dup3\n        /* \"#utility.yul\":7392:7406   */\n      add\n        /* \"#utility.yul\":7385:7443   */\n      mstore\n        /* \"#utility.yul\":7477:7485   */\n      0x6464726573730000000000000000000000000000000000000000000000000000\n        /* \"#utility.yul\":7472:7474   */\n      0x20\n        /* \"#utility.yul\":7464:7470   */\n      dup3\n        /* \"#utility.yul\":7460:7475   */\n      add\n        /* \"#utility.yul\":7453:7486   */\n      mstore\n        /* \"#utility.yul\":7268:7493   */\n      pop\n      jump\t// out\n        /* \"#utility.yul\":7499:7665   */\n    tag_163:\n        /* \"#utility.yul\":7639:7657   */\n      0x5061757361626c653a2070617573656400000000000000000000000000000000\n        /* \"#utility.yul\":7635:7636   */\n      0x00\n        /* \"#utility.yul\":7627:7633   */\n      dup3\n        /* \"#utility.yul\":7623:7637   */\n      add\n        /* \"#utility.yul\":7616:7658   */\n      mstore\n        /* \"#utility.yul\":7499:7665   */\n      pop\n      jump\t// out\n        /* \"#utility.yul\":7671:7853   */\n    tag_168:\n        /* \"#utility.yul\":7811:7845   */\n      0x4f776e61626c653a2063616c6c6572206973206e6f7420746865206f776e6572\n        /* \"#utility.yul\":7807:7808   */\n      0x00\n        /* \"#utility.yul\":7799:7805   */\n      dup3\n        /* \"#utility.yul\":7795:7809   */\n      add\n        /* \"#utility.yul\":7788:7846   */\n      mstore\n        /* \"#utility.yul\":7671:7853   */\n      pop\n      jump\t// out\n        /* \"#utility.yul\":7859:7981   */\n    tag_126:\n        /* \"#utility.yul\":7932:7956   */\n      tag_220\n        /* \"#utility.yul\":7950:7955   */\n      dup2\n        /* \"#utility.yul\":7932:7956   */\n      tag_148\n      jump\t// in\n    tag_220:\n        /* \"#utility.yul\":7925:7930   */\n      dup2\n        /* \"#utility.yul\":7922:7957   */\n      eq\n        /* \"#utility.yul\":7912:7975   */\n      tag_221\n      jumpi\n        /* \"#utility.yul\":7971:7972   */\n      0x00\n        /* \"#utility.yul\":7968:7969   */\n      dup1\n        /* \"#utility.yul\":7961:7973   */\n      revert\n        /* \"#utility.yul\":7912:7975   */\n    tag_221:\n        /* \"#utility.yul\":7859:7981   */\n      pop\n      jump\t// out\n        /* \"#utility.yul\":7987:8109   */\n    tag_130:\n        /* \"#utility.yul\":8060:8084   */\n      tag_223\n        /* \"#utility.yul\":8078:8083   */\n      dup2\n        /* \"#utility.yul\":8060:8084   */\n      tag_172\n      jump\t// in\n    tag_223:\n        /* \"#utility.yul\":8053:8058   */\n      dup2\n        /* \"#utility.yul\":8050:8085   */\n      eq\n        /* \"#utility.yul\":8040:8103   */\n      tag_224\n      jumpi\n        /* \"#utility.yul\":8099:8100   */\n      0x00\n        /* \"#utility.yul\":8096:8097   */\n      dup1\n        /* \"#utility.yul\":8089:8101   */\n      revert\n        /* \"#utility.yul\":8040:8103   */\n    tag_224:\n        /* \"#utility.yul\":7987:8109   */\n      pop\n      jump\t// out\n\n    auxdata: 0xa2646970667358221220a8c3e2ae24635f6328e755ded8c6764ec54274eda2b848dee8d4b215f12dcca764736f6c63430008070033\n}\n",
				"bytecode": {
					"linkReferences": {},
					"object": "608060405234801561001057600080fd5b50610020336100de60201b60201c565b60008060146101000a81548160ff021916908315150217905550600060016000808152602001908152602001600020819055506000600160006001815260200190815260200160002081905550678ac7230489e8000060016000600281526020019081526020016000208190555067d02ab486cedc00006001600060038152602001908152602001600020819055506801158e460913d0000060016000600481526020019081526020016000208190555060056002819055506101a2565b60008060009054906101000a900473ffffffffffffffffffffffffffffffffffffffff169050816000806101000a81548173ffffffffffffffffffffffffffffffffffffffff021916908373ffffffffffffffffffffffffffffffffffffffff1602179055508173ffffffffffffffffffffffffffffffffffffffff168173ffffffffffffffffffffffffffffffffffffffff167f8be0079c531659141344cd1fd0a4f28419497f9722a3daafe3b4186f6b6457e060405160405180910390a35050565b610cab806101b16000396000f3fe608060405234801561001057600080fd5b506004361061009e5760003560e01c80638cf56248116100665780638cf56248146101215780638da5cb5b14610151578063f0e530f81461016f578063f0ff87fc1461019f578063f2fde38b146101cf5761009e565b8063128d2fe5146100a3578063169d08d4146100c15780632b45f2d2146100dd5780635c975abb146100f9578063715018a614610117575b600080fd5b6100ab6101eb565b6040516100b89190610a14565b60405180910390f35b6100db60048036038101906100d691906108a8565b61023d565b005b6100f760048036038101906100f2919061087b565b6102e9565b005b6101016103af565b60405161010e9190610999565b60405180910390f35b61011f6103c5565b005b61013b6004803603810190610136919061087b565b610446565b6040516101489190610999565b60405180910390f35b6101596104cc565b604051610166919061097e565b60405180910390f35b610189600480360381019061018491906108a8565b6104f5565b6040516101969190610a14565b60405180910390f35b6101b960048036038101906101b4919061087b565b6105de565b6040516101c69190610a14565b60405180910390f35b6101e960048036038101906101e4919061084e565b610643565b005b60006101f56103af565b15610235576040517f08c379a000000000000000000000000000000000000000000000000000000000815260040161022c906109d4565b60405180910390fd5b600254905090565b6102456103af565b15610285576040517f08c379a000000000000000000000000000000000000000000000000000000000815260040161027c906109d4565b60405180910390fd5b61028e82610446565b156102ac578060016000848152602001908152602001600020819055505b7f5b480de6353001491810d11ec8b573429ea2e2d73b2dbee4106fdea4614df14982826040516102dd929190610a2f565b60405180910390a15050565b6102f16103af565b15610331576040517f08c379a0000000000000000000000000000000000000000000000000000000008152600401610328906109d4565b60405180910390fd5b80600160006002548152602001908152602001600020819055506103586002546001610734565b6002819055507f5b480de6353001491810d11ec8b573429ea2e2d73b2dbee4106fdea4614df14960016000600254815260200190815260200160002054826040516103a4929190610a2f565b60405180910390a150565b60008060149054906101000a900460ff16905090565b3373ffffffffffffffffffffffffffffffffffffffff166103e46104cc565b73ffffffffffffffffffffffffffffffffffffffff161461043a576040517f08c379a0000000000000000000000000000000000000000000000000000000008152600401610431906109f4565b60405180910390fd5b610444600061074a565b565b60006104506103af565b15610490576040517f08c379a0000000000000000000000000000000000000000000000000000000008152600401610487906109d4565b60405180910390fd5b600082148061049f5750600182145b156104ad57600190506104c7565b600060016000848152602001908152602001600020541190505b919050565b60008060009054906101000a900473ffffffffffffffffffffffffffffffffffffffff16905090565b60006104ff6103af565b1561053f576040517f08c379a0000000000000000000000000000000000000000000000000000000008152600401610536906109d4565b60405180910390fd5b60006105716001600086815260200190815260200160002054600160008681526020019081526020016000205461080e565b90507fb3b97385128915259f86ae5f14535a9c7c563f63bf788ccd075ff7f7f60e8a6460016000868152602001908152602001600020546001600086815260200190815260200160002054836040516105cc93929190610a58565b60405180910390a18091505092915050565b60006105e86103af565b15610628576040517f08c379a000000000000000000000000000000000000000000000000000000000815260040161061f906109d4565b60405180910390fd5b60016000838152602001908152602001600020549050919050565b3373ffffffffffffffffffffffffffffffffffffffff166106626104cc565b73ffffffffffffffffffffffffffffffffffffffff16146106b8576040517f08c379a00000000000000000000000000000000000000000000000000000000081526004016106af906109f4565b60405180910390fd5b600073ffffffffffffffffffffffffffffffffffffffff168173ffffffffffffffffffffffffffffffffffffffff161415610728576040517f08c379a000000000000000000000000000000000000000000000000000000000815260040161071f906109b4565b60405180910390fd5b6107318161074a565b50565b600081836107429190610aa0565b905092915050565b60008060009054906101000a900473ffffffffffffffffffffffffffffffffffffffff169050816000806101000a81548173ffffffffffffffffffffffffffffffffffffffff021916908373ffffffffffffffffffffffffffffffffffffffff1602179055508173ffffffffffffffffffffffffffffffffffffffff168173ffffffffffffffffffffffffffffffffffffffff167f8be0079c531659141344cd1fd0a4f28419497f9722a3daafe3b4186f6b6457e060405160405180910390a35050565b6000818361081c9190610af6565b905092915050565b60008135905061083381610c47565b92915050565b60008135905061084881610c5e565b92915050565b60006020828403121561086457610863610ba1565b5b600061087284828501610824565b91505092915050565b60006020828403121561089157610890610ba1565b5b600061089f84828501610839565b91505092915050565b600080604083850312156108bf576108be610ba1565b5b60006108cd85828601610839565b92505060206108de85828601610839565b9150509250929050565b6108f181610b2a565b82525050565b61090081610b3c565b82525050565b6000610913602683610a8f565b915061091e82610ba6565b604082019050919050565b6000610936601083610a8f565b915061094182610bf5565b602082019050919050565b6000610959602083610a8f565b915061096482610c1e565b602082019050919050565b61097881610b68565b82525050565b600060208201905061099360008301846108e8565b92915050565b60006020820190506109ae60008301846108f7565b92915050565b600060208201905081810360008301526109cd81610906565b9050919050565b600060208201905081810360008301526109ed81610929565b9050919050565b60006020820190508181036000830152610a0d8161094c565b9050919050565b6000602082019050610a29600083018461096f565b92915050565b6000604082019050610a44600083018561096f565b610a51602083018461096f565b9392505050565b6000606082019050610a6d600083018661096f565b610a7a602083018561096f565b610a87604083018461096f565b949350505050565b600082825260208201905092915050565b6000610aab82610b68565b9150610ab683610b68565b9250827fffffffffffffffffffffffffffffffffffffffffffffffffffffffffffffffff03821115610aeb57610aea610b72565b5b828201905092915050565b6000610b0182610b68565b9150610b0c83610b68565b925082821015610b1f57610b1e610b72565b5b828203905092915050565b6000610b3582610b48565b9050919050565b60008115159050919050565b600073ffffffffffffffffffffffffffffffffffffffff82169050919050565b6000819050919050565b7f4e487b7100000000000000000000000000000000000000000000000000000000600052601160045260246000fd5b600080fd5b7f4f776e61626c653a206e6577206f776e657220697320746865207a65726f206160008201527f6464726573730000000000000000000000000000000000000000000000000000602082015250565b7f5061757361626c653a2070617573656400000000000000000000000000000000600082015250565b7f4f776e61626c653a2063616c6c6572206973206e6f7420746865206f776e6572600082015250565b610c5081610b2a565b8114610c5b57600080fd5b50565b610c6781610b68565b8114610c7257600080fd5b5056fea2646970667358221220a8c3e2ae24635f6328e755ded8c6764ec54274eda2b848dee8d4b215f12dcca764736f6c63430008070033",
					"opcodes": "PUSH1 0x80 PUSH1 0x40 MSTORE CALLVALUE DUP1 ISZERO PUSH2 0x10 JUMPI PUSH1 0x0 DUP1 REVERT JUMPDEST POP PUSH2 0x20 CALLER PUSH2 0xDE PUSH1 0x20 SHL PUSH1 0x20 SHR JUMP JUMPDEST PUSH1 0x0 DUP1 PUSH1 0x14 PUSH2 0x100 EXP DUP2 SLOAD DUP2 PUSH1 0xFF MUL NOT AND SWAP1 DUP4 ISZERO ISZERO MUL OR SWAP1 SSTORE POP PUSH1 0x0 PUSH1 0x1 PUSH1 0x0 DUP1 DUP2 MSTORE PUSH1 0x20 ADD SWAP1 DUP2 MSTORE PUSH1 0x20 ADD PUSH1 0x0 KECCAK256 DUP2 SWAP1 SSTORE POP PUSH1 0x0 PUSH1 0x1 PUSH1 0x0 PUSH1 0x1 DUP2 MSTORE PUSH1 0x20 ADD SWAP1 DUP2 MSTORE PUSH1 0x20 ADD PUSH1 0x0 KECCAK256 DUP2 SWAP1 SSTORE POP PUSH8 0x8AC7230489E80000 PUSH1 0x1 PUSH1 0x0 PUSH1 0x2 DUP2 MSTORE PUSH1 0x20 ADD SWAP1 DUP2 MSTORE PUSH1 0x20 ADD PUSH1 0x0 KECCAK256 DUP2 SWAP1 SSTORE POP PUSH8 0xD02AB486CEDC0000 PUSH1 0x1 PUSH1 0x0 PUSH1 0x3 DUP2 MSTORE PUSH1 0x20 ADD SWAP1 DUP2 MSTORE PUSH1 0x20 ADD PUSH1 0x0 KECCAK256 DUP2 SWAP1 SSTORE POP PUSH9 0x1158E460913D00000 PUSH1 0x1 PUSH1 0x0 PUSH1 0x4 DUP2 MSTORE PUSH1 0x20 ADD SWAP1 DUP2 MSTORE PUSH1 0x20 ADD PUSH1 0x0 KECCAK256 DUP2 SWAP1 SSTORE POP PUSH1 0x5 PUSH1 0x2 DUP2 SWAP1 SSTORE POP PUSH2 0x1A2 JUMP JUMPDEST PUSH1 0x0 DUP1 PUSH1 0x0 SWAP1 SLOAD SWAP1 PUSH2 0x100 EXP SWAP1 DIV PUSH20 0xFFFFFFFFFFFFFFFFFFFFFFFFFFFFFFFFFFFFFFFF AND SWAP1 POP DUP2 PUSH1 0x0 DUP1 PUSH2 0x100 EXP DUP2 SLOAD DUP2 PUSH20 0xFFFFFFFFFFFFFFFFFFFFFFFFFFFFFFFFFFFFFFFF MUL NOT AND SWAP1 DUP4 PUSH20 0xFFFFFFFFFFFFFFFFFFFFFFFFFFFFFFFFFFFFFFFF AND MUL OR SWAP1 SSTORE POP DUP2 PUSH20 0xFFFFFFFFFFFFFFFFFFFFFFFFFFFFFFFFFFFFFFFF AND DUP2 PUSH20 0xFFFFFFFFFFFFFFFFFFFFFFFFFFFFFFFFFFFFFFFF AND PUSH32 0x8BE0079C531659141344CD1FD0A4F28419497F9722A3DAAFE3B4186F6B6457E0 PUSH1 0x40 MLOAD PUSH1 0x40 MLOAD DUP1 SWAP2 SUB SWAP1 LOG3 POP POP JUMP JUMPDEST PUSH2 0xCAB DUP1 PUSH2 0x1B1 PUSH1 0x0 CODECOPY PUSH1 0x0 RETURN INVALID PUSH1 0x80 PUSH1 0x40 MSTORE CALLVALUE DUP1 ISZERO PUSH2 0x10 JUMPI PUSH1 0x0 DUP1 REVERT JUMPDEST POP PUSH1 0x4 CALLDATASIZE LT PUSH2 0x9E JUMPI PUSH1 0x0 CALLDATALOAD PUSH1 0xE0 SHR DUP1 PUSH4 0x8CF56248 GT PUSH2 0x66 JUMPI DUP1 PUSH4 0x8CF56248 EQ PUSH2 0x121 JUMPI DUP1 PUSH4 0x8DA5CB5B EQ PUSH2 0x151 JUMPI DUP1 PUSH4 0xF0E530F8 EQ PUSH2 0x16F JUMPI DUP1 PUSH4 0xF0FF87FC EQ PUSH2 0x19F JUMPI DUP1 PUSH4 0xF2FDE38B EQ PUSH2 0x1CF JUMPI PUSH2 0x9E JUMP JUMPDEST DUP1 PUSH4 0x128D2FE5 EQ PUSH2 0xA3 JUMPI DUP1 PUSH4 0x169D08D4 EQ PUSH2 0xC1 JUMPI DUP1 PUSH4 0x2B45F2D2 EQ PUSH2 0xDD JUMPI DUP1 PUSH4 0x5C975ABB EQ PUSH2 0xF9 JUMPI DUP1 PUSH4 0x715018A6 EQ PUSH2 0x117 JUMPI JUMPDEST PUSH1 0x0 DUP1 REVERT JUMPDEST PUSH2 0xAB PUSH2 0x1EB JUMP JUMPDEST PUSH1 0x40 MLOAD PUSH2 0xB8 SWAP2 SWAP1 PUSH2 0xA14 JUMP JUMPDEST PUSH1 0x40 MLOAD DUP1 SWAP2 SUB SWAP1 RETURN JUMPDEST PUSH2 0xDB PUSH1 0x4 DUP1 CALLDATASIZE SUB DUP2 ADD SWAP1 PUSH2 0xD6 SWAP2 SWAP1 PUSH2 0x8A8 JUMP JUMPDEST PUSH2 0x23D JUMP JUMPDEST STOP JUMPDEST PUSH2 0xF7 PUSH1 0x4 DUP1 CALLDATASIZE SUB DUP2 ADD SWAP1 PUSH2 0xF2 SWAP2 SWAP1 PUSH2 0x87B JUMP JUMPDEST PUSH2 0x2E9 JUMP JUMPDEST STOP JUMPDEST PUSH2 0x101 PUSH2 0x3AF JUMP JUMPDEST PUSH1 0x40 MLOAD PUSH2 0x10E SWAP2 SWAP1 PUSH2 0x999 JUMP JUMPDEST PUSH1 0x40 MLOAD DUP1 SWAP2 SUB SWAP1 RETURN JUMPDEST PUSH2 0x11F PUSH2 0x3C5 JUMP JUMPDEST STOP JUMPDEST PUSH2 0x13B PUSH1 0x4 DUP1 CALLDATASIZE SUB DUP2 ADD SWAP1 PUSH2 0x136 SWAP2 SWAP1 PUSH2 0x87B JUMP JUMPDEST PUSH2 0x446 JUMP JUMPDEST PUSH1 0x40 MLOAD PUSH2 0x148 SWAP2 SWAP1 PUSH2 0x999 JUMP JUMPDEST PUSH1 0x40 MLOAD DUP1 SWAP2 SUB SWAP1 RETURN JUMPDEST PUSH2 0x159 PUSH2 0x4CC JUMP JUMPDEST PUSH1 0x40 MLOAD PUSH2 0x166 SWAP2 SWAP1 PUSH2 0x97E JUMP JUMPDEST PUSH1 0x40 MLOAD DUP1 SWAP2 SUB SWAP1 RETURN JUMPDEST PUSH2 0x189 PUSH1 0x4 DUP1 CALLDATASIZE SUB DUP2 ADD SWAP1 PUSH2 0x184 SWAP2 SWAP1 PUSH2 0x8A8 JUMP JUMPDEST PUSH2 0x4F5 JUMP JUMPDEST PUSH1 0x40 MLOAD PUSH2 0x196 SWAP2 SWAP1 PUSH2 0xA14 JUMP JUMPDEST PUSH1 0x40 MLOAD DUP1 SWAP2 SUB SWAP1 RETURN JUMPDEST PUSH2 0x1B9 PUSH1 0x4 DUP1 CALLDATASIZE SUB DUP2 ADD SWAP1 PUSH2 0x1B4 SWAP2 SWAP1 PUSH2 0x87B JUMP JUMPDEST PUSH2 0x5DE JUMP JUMPDEST PUSH1 0x40 MLOAD PUSH2 0x1C6 SWAP2 SWAP1 PUSH2 0xA14 JUMP JUMPDEST PUSH1 0x40 MLOAD DUP1 SWAP2 SUB SWAP1 RETURN JUMPDEST PUSH2 0x1E9 PUSH1 0x4 DUP1 CALLDATASIZE SUB DUP2 ADD SWAP1 PUSH2 0x1E4 SWAP2 SWAP1 PUSH2 0x84E JUMP JUMPDEST PUSH2 0x643 JUMP JUMPDEST STOP JUMPDEST PUSH1 0x0 PUSH2 0x1F5 PUSH2 0x3AF JUMP JUMPDEST ISZERO PUSH2 0x235 JUMPI PUSH1 0x40 MLOAD PUSH32 0x8C379A000000000000000000000000000000000000000000000000000000000 DUP2 MSTORE PUSH1 0x4 ADD PUSH2 0x22C SWAP1 PUSH2 0x9D4 JUMP JUMPDEST PUSH1 0x40 MLOAD DUP1 SWAP2 SUB SWAP1 REVERT JUMPDEST PUSH1 0x2 SLOAD SWAP1 POP SWAP1 JUMP JUMPDEST PUSH2 0x245 PUSH2 0x3AF JUMP JUMPDEST ISZERO PUSH2 0x285 JUMPI PUSH1 0x40 MLOAD PUSH32 0x8C379A000000000000000000000000000000000000000000000000000000000 DUP2 MSTORE PUSH1 0x4 ADD PUSH2 0x27C SWAP1 PUSH2 0x9D4 JUMP JUMPDEST PUSH1 0x40 MLOAD DUP1 SWAP2 SUB SWAP1 REVERT JUMPDEST PUSH2 0x28E DUP3 PUSH2 0x446 JUMP JUMPDEST ISZERO PUSH2 0x2AC JUMPI DUP1 PUSH1 0x1 PUSH1 0x0 DUP5 DUP2 MSTORE PUSH1 0x20 ADD SWAP1 DUP2 MSTORE PUSH1 0x20 ADD PUSH1 0x0 KECCAK256 DUP2 SWAP1 SSTORE POP JUMPDEST PUSH32 0x5B480DE6353001491810D11EC8B573429EA2E2D73B2DBEE4106FDEA4614DF149 DUP3 DUP3 PUSH1 0x40 MLOAD PUSH2 0x2DD SWAP3 SWAP2 SWAP1 PUSH2 0xA2F JUMP JUMPDEST PUSH1 0x40 MLOAD DUP1 SWAP2 SUB SWAP1 LOG1 POP POP JUMP JUMPDEST PUSH2 0x2F1 PUSH2 0x3AF JUMP JUMPDEST ISZERO PUSH2 0x331 JUMPI PUSH1 0x40 MLOAD PUSH32 0x8C379A000000000000000000000000000000000000000000000000000000000 DUP2 MSTORE PUSH1 0x4 ADD PUSH2 0x328 SWAP1 PUSH2 0x9D4 JUMP JUMPDEST PUSH1 0x40 MLOAD DUP1 SWAP2 SUB SWAP1 REVERT JUMPDEST DUP1 PUSH1 0x1 PUSH1 0x0 PUSH1 0x2 SLOAD DUP2 MSTORE PUSH1 0x20 ADD SWAP1 DUP2 MSTORE PUSH1 0x20 ADD PUSH1 0x0 KECCAK256 DUP2 SWAP1 SSTORE POP PUSH2 0x358 PUSH1 0x2 SLOAD PUSH1 0x1 PUSH2 0x734 JUMP JUMPDEST PUSH1 0x2 DUP2 SWAP1 SSTORE POP PUSH32 0x5B480DE6353001491810D11EC8B573429EA2E2D73B2DBEE4106FDEA4614DF149 PUSH1 0x1 PUSH1 0x0 PUSH1 0x2 SLOAD DUP2 MSTORE PUSH1 0x20 ADD SWAP1 DUP2 MSTORE PUSH1 0x20 ADD PUSH1 0x0 KECCAK256 SLOAD DUP3 PUSH1 0x40 MLOAD PUSH2 0x3A4 SWAP3 SWAP2 SWAP1 PUSH2 0xA2F JUMP JUMPDEST PUSH1 0x40 MLOAD DUP1 SWAP2 SUB SWAP1 LOG1 POP JUMP JUMPDEST PUSH1 0x0 DUP1 PUSH1 0x14 SWAP1 SLOAD SWAP1 PUSH2 0x100 EXP SWAP1 DIV PUSH1 0xFF AND SWAP1 POP SWAP1 JUMP JUMPDEST CALLER PUSH20 0xFFFFFFFFFFFFFFFFFFFFFFFFFFFFFFFFFFFFFFFF AND PUSH2 0x3E4 PUSH2 0x4CC JUMP JUMPDEST PUSH20 0xFFFFFFFFFFFFFFFFFFFFFFFFFFFFFFFFFFFFFFFF AND EQ PUSH2 0x43A JUMPI PUSH1 0x40 MLOAD PUSH32 0x8C379A000000000000000000000000000000000000000000000000000000000 DUP2 MSTORE PUSH1 0x4 ADD PUSH2 0x431 SWAP1 PUSH2 0x9F4 JUMP JUMPDEST PUSH1 0x40 MLOAD DUP1 SWAP2 SUB SWAP1 REVERT JUMPDEST PUSH2 0x444 PUSH1 0x0 PUSH2 0x74A JUMP JUMPDEST JUMP JUMPDEST PUSH1 0x0 PUSH2 0x450 PUSH2 0x3AF JUMP JUMPDEST ISZERO PUSH2 0x490 JUMPI PUSH1 0x40 MLOAD PUSH32 0x8C379A000000000000000000000000000000000000000000000000000000000 DUP2 MSTORE PUSH1 0x4 ADD PUSH2 0x487 SWAP1 PUSH2 0x9D4 JUMP JUMPDEST PUSH1 0x40 MLOAD DUP1 SWAP2 SUB SWAP1 REVERT JUMPDEST PUSH1 0x0 DUP3 EQ DUP1 PUSH2 0x49F JUMPI POP PUSH1 0x1 DUP3 EQ JUMPDEST ISZERO PUSH2 0x4AD JUMPI PUSH1 0x1 SWAP1 POP PUSH2 0x4C7 JUMP JUMPDEST PUSH1 0x0 PUSH1 0x1 PUSH1 0x0 DUP5 DUP2 MSTORE PUSH1 0x20 ADD SWAP1 DUP2 MSTORE PUSH1 0x20 ADD PUSH1 0x0 KECCAK256 SLOAD GT SWAP1 POP JUMPDEST SWAP2 SWAP1 POP JUMP JUMPDEST PUSH1 0x0 DUP1 PUSH1 0x0 SWAP1 SLOAD SWAP1 PUSH2 0x100 EXP SWAP1 DIV PUSH20 0xFFFFFFFFFFFFFFFFFFFFFFFFFFFFFFFFFFFFFFFF AND SWAP1 POP SWAP1 JUMP JUMPDEST PUSH1 0x0 PUSH2 0x4FF PUSH2 0x3AF JUMP JUMPDEST ISZERO PUSH2 0x53F JUMPI PUSH1 0x40 MLOAD PUSH32 0x8C379A000000000000000000000000000000000000000000000000000000000 DUP2 MSTORE PUSH1 0x4 ADD PUSH2 0x536 SWAP1 PUSH2 0x9D4 JUMP JUMPDEST PUSH1 0x40 MLOAD DUP1 SWAP2 SUB SWAP1 REVERT JUMPDEST PUSH1 0x0 PUSH2 0x571 PUSH1 0x1 PUSH1 0x0 DUP7 DUP2 MSTORE PUSH1 0x20 ADD SWAP1 DUP2 MSTORE PUSH1 0x20 ADD PUSH1 0x0 KECCAK256 SLOAD PUSH1 0x1 PUSH1 0x0 DUP7 DUP2 MSTORE PUSH1 0x20 ADD SWAP1 DUP2 MSTORE PUSH1 0x20 ADD PUSH1 0x0 KECCAK256 SLOAD PUSH2 0x80E JUMP JUMPDEST SWAP1 POP PUSH32 0xB3B97385128915259F86AE5F14535A9C7C563F63BF788CCD075FF7F7F60E8A64 PUSH1 0x1 PUSH1 0x0 DUP7 DUP2 MSTORE PUSH1 0x20 ADD SWAP1 DUP2 MSTORE PUSH1 0x20 ADD PUSH1 0x0 KECCAK256 SLOAD PUSH1 0x1 PUSH1 0x0 DUP7 DUP2 MSTORE PUSH1 0x20 ADD SWAP1 DUP2 MSTORE PUSH1 0x20 ADD PUSH1 0x0 KECCAK256 SLOAD DUP4 PUSH1 0x40 MLOAD PUSH2 0x5CC SWAP4 SWAP3 SWAP2 SWAP1 PUSH2 0xA58 JUMP JUMPDEST PUSH1 0x40 MLOAD DUP1 SWAP2 SUB SWAP1 LOG1 DUP1 SWAP2 POP POP SWAP3 SWAP2 POP POP JUMP JUMPDEST PUSH1 0x0 PUSH2 0x5E8 PUSH2 0x3AF JUMP JUMPDEST ISZERO PUSH2 0x628 JUMPI PUSH1 0x40 MLOAD PUSH32 0x8C379A000000000000000000000000000000000000000000000000000000000 DUP2 MSTORE PUSH1 0x4 ADD PUSH2 0x61F SWAP1 PUSH2 0x9D4 JUMP JUMPDEST PUSH1 0x40 MLOAD DUP1 SWAP2 SUB SWAP1 REVERT JUMPDEST PUSH1 0x1 PUSH1 0x0 DUP4 DUP2 MSTORE PUSH1 0x20 ADD SWAP1 DUP2 MSTORE PUSH1 0x20 ADD PUSH1 0x0 KECCAK256 SLOAD SWAP1 POP SWAP2 SWAP1 POP JUMP JUMPDEST CALLER PUSH20 0xFFFFFFFFFFFFFFFFFFFFFFFFFFFFFFFFFFFFFFFF AND PUSH2 0x662 PUSH2 0x4CC JUMP JUMPDEST PUSH20 0xFFFFFFFFFFFFFFFFFFFFFFFFFFFFFFFFFFFFFFFF AND EQ PUSH2 0x6B8 JUMPI PUSH1 0x40 MLOAD PUSH32 0x8C379A000000000000000000000000000000000000000000000000000000000 DUP2 MSTORE PUSH1 0x4 ADD PUSH2 0x6AF SWAP1 PUSH2 0x9F4 JUMP JUMPDEST PUSH1 0x40 MLOAD DUP1 SWAP2 SUB SWAP1 REVERT JUMPDEST PUSH1 0x0 PUSH20 0xFFFFFFFFFFFFFFFFFFFFFFFFFFFFFFFFFFFFFFFF AND DUP2 PUSH20 0xFFFFFFFFFFFFFFFFFFFFFFFFFFFFFFFFFFFFFFFF AND EQ ISZERO PUSH2 0x728 JUMPI PUSH1 0x40 MLOAD PUSH32 0x8C379A000000000000000000000000000000000000000000000000000000000 DUP2 MSTORE PUSH1 0x4 ADD PUSH2 0x71F SWAP1 PUSH2 0x9B4 JUMP JUMPDEST PUSH1 0x40 MLOAD DUP1 SWAP2 SUB SWAP1 REVERT JUMPDEST PUSH2 0x731 DUP2 PUSH2 0x74A JUMP JUMPDEST POP JUMP JUMPDEST PUSH1 0x0 DUP2 DUP4 PUSH2 0x742 SWAP2 SWAP1 PUSH2 0xAA0 JUMP JUMPDEST SWAP1 POP SWAP3 SWAP2 POP POP JUMP JUMPDEST PUSH1 0x0 DUP1 PUSH1 0x0 SWAP1 SLOAD SWAP1 PUSH2 0x100 EXP SWAP1 DIV PUSH20 0xFFFFFFFFFFFFFFFFFFFFFFFFFFFFFFFFFFFFFFFF AND SWAP1 POP DUP2 PUSH1 0x0 DUP1 PUSH2 0x100 EXP DUP2 SLOAD DUP2 PUSH20 0xFFFFFFFFFFFFFFFFFFFFFFFFFFFFFFFFFFFFFFFF MUL NOT AND SWAP1 DUP4 PUSH20 0xFFFFFFFFFFFFFFFFFFFFFFFFFFFFFFFFFFFFFFFF AND MUL OR SWAP1 SSTORE POP DUP2 PUSH20 0xFFFFFFFFFFFFFFFFFFFFFFFFFFFFFFFFFFFFFFFF AND DUP2 PUSH20 0xFFFFFFFFFFFFFFFFFFFFFFFFFFFFFFFFFFFFFFFF AND PUSH32 0x8BE0079C531659141344CD1FD0A4F28419497F9722A3DAAFE3B4186F6B6457E0 PUSH1 0x40 MLOAD PUSH1 0x40 MLOAD DUP1 SWAP2 SUB SWAP1 LOG3 POP POP JUMP JUMPDEST PUSH1 0x0 DUP2 DUP4 PUSH2 0x81C SWAP2 SWAP1 PUSH2 0xAF6 JUMP JUMPDEST SWAP1 POP SWAP3 SWAP2 POP POP JUMP JUMPDEST PUSH1 0x0 DUP2 CALLDATALOAD SWAP1 POP PUSH2 0x833 DUP2 PUSH2 0xC47 JUMP JUMPDEST SWAP3 SWAP2 POP POP JUMP JUMPDEST PUSH1 0x0 DUP2 CALLDATALOAD SWAP1 POP PUSH2 0x848 DUP2 PUSH2 0xC5E JUMP JUMPDEST SWAP3 SWAP2 POP POP JUMP JUMPDEST PUSH1 0x0 PUSH1 0x20 DUP3 DUP5 SUB SLT ISZERO PUSH2 0x864 JUMPI PUSH2 0x863 PUSH2 0xBA1 JUMP JUMPDEST JUMPDEST PUSH1 0x0 PUSH2 0x872 DUP5 DUP3 DUP6 ADD PUSH2 0x824 JUMP JUMPDEST SWAP2 POP POP SWAP3 SWAP2 POP POP JUMP JUMPDEST PUSH1 0x0 PUSH1 0x20 DUP3 DUP5 SUB SLT ISZERO PUSH2 0x891 JUMPI PUSH2 0x890 PUSH2 0xBA1 JUMP JUMPDEST JUMPDEST PUSH1 0x0 PUSH2 0x89F DUP5 DUP3 DUP6 ADD PUSH2 0x839 JUMP JUMPDEST SWAP2 POP POP SWAP3 SWAP2 POP POP JUMP JUMPDEST PUSH1 0x0 DUP1 PUSH1 0x40 DUP4 DUP6 SUB SLT ISZERO PUSH2 0x8BF JUMPI PUSH2 0x8BE PUSH2 0xBA1 JUMP JUMPDEST JUMPDEST PUSH1 0x0 PUSH2 0x8CD DUP6 DUP3 DUP7 ADD PUSH2 0x839 JUMP JUMPDEST SWAP3 POP POP PUSH1 0x20 PUSH2 0x8DE DUP6 DUP3 DUP7 ADD PUSH2 0x839 JUMP JUMPDEST SWAP2 POP POP SWAP3 POP SWAP3 SWAP1 POP JUMP JUMPDEST PUSH2 0x8F1 DUP2 PUSH2 0xB2A JUMP JUMPDEST DUP3 MSTORE POP POP JUMP JUMPDEST PUSH2 0x900 DUP2 PUSH2 0xB3C JUMP JUMPDEST DUP3 MSTORE POP POP JUMP JUMPDEST PUSH1 0x0 PUSH2 0x913 PUSH1 0x26 DUP4 PUSH2 0xA8F JUMP JUMPDEST SWAP2 POP PUSH2 0x91E DUP3 PUSH2 0xBA6 JUMP JUMPDEST PUSH1 0x40 DUP3 ADD SWAP1 POP SWAP2 SWAP1 POP JUMP JUMPDEST PUSH1 0x0 PUSH2 0x936 PUSH1 0x10 DUP4 PUSH2 0xA8F JUMP JUMPDEST SWAP2 POP PUSH2 0x941 DUP3 PUSH2 0xBF5 JUMP JUMPDEST PUSH1 0x20 DUP3 ADD SWAP1 POP SWAP2 SWAP1 POP JUMP JUMPDEST PUSH1 0x0 PUSH2 0x959 PUSH1 0x20 DUP4 PUSH2 0xA8F JUMP JUMPDEST SWAP2 POP PUSH2 0x964 DUP3 PUSH2 0xC1E JUMP JUMPDEST PUSH1 0x20 DUP3 ADD SWAP1 POP SWAP2 SWAP1 POP JUMP JUMPDEST PUSH2 0x978 DUP2 PUSH2 0xB68 JUMP JUMPDEST DUP3 MSTORE POP POP JUMP JUMPDEST PUSH1 0x0 PUSH1 0x20 DUP3 ADD SWAP1 POP PUSH2 0x993 PUSH1 0x0 DUP4 ADD DUP5 PUSH2 0x8E8 JUMP JUMPDEST SWAP3 SWAP2 POP POP JUMP JUMPDEST PUSH1 0x0 PUSH1 0x20 DUP3 ADD SWAP1 POP PUSH2 0x9AE PUSH1 0x0 DUP4 ADD DUP5 PUSH2 0x8F7 JUMP JUMPDEST SWAP3 SWAP2 POP POP JUMP JUMPDEST PUSH1 0x0 PUSH1 0x20 DUP3 ADD SWAP1 POP DUP2 DUP2 SUB PUSH1 0x0 DUP4 ADD MSTORE PUSH2 0x9CD DUP2 PUSH2 0x906 JUMP JUMPDEST SWAP1 POP SWAP2 SWAP1 POP JUMP JUMPDEST PUSH1 0x0 PUSH1 0x20 DUP3 ADD SWAP1 POP DUP2 DUP2 SUB PUSH1 0x0 DUP4 ADD MSTORE PUSH2 0x9ED DUP2 PUSH2 0x929 JUMP JUMPDEST SWAP1 POP SWAP2 SWAP1 POP JUMP JUMPDEST PUSH1 0x0 PUSH1 0x20 DUP3 ADD SWAP1 POP DUP2 DUP2 SUB PUSH1 0x0 DUP4 ADD MSTORE PUSH2 0xA0D DUP2 PUSH2 0x94C JUMP JUMPDEST SWAP1 POP SWAP2 SWAP1 POP JUMP JUMPDEST PUSH1 0x0 PUSH1 0x20 DUP3 ADD SWAP1 POP PUSH2 0xA29 PUSH1 0x0 DUP4 ADD DUP5 PUSH2 0x96F JUMP JUMPDEST SWAP3 SWAP2 POP POP JUMP JUMPDEST PUSH1 0x0 PUSH1 0x40 DUP3 ADD SWAP1 POP PUSH2 0xA44 PUSH1 0x0 DUP4 ADD DUP6 PUSH2 0x96F JUMP JUMPDEST PUSH2 0xA51 PUSH1 0x20 DUP4 ADD DUP5 PUSH2 0x96F JUMP JUMPDEST SWAP4 SWAP3 POP POP POP JUMP JUMPDEST PUSH1 0x0 PUSH1 0x60 DUP3 ADD SWAP1 POP PUSH2 0xA6D PUSH1 0x0 DUP4 ADD DUP7 PUSH2 0x96F JUMP JUMPDEST PUSH2 0xA7A PUSH1 0x20 DUP4 ADD DUP6 PUSH2 0x96F JUMP JUMPDEST PUSH2 0xA87 PUSH1 0x40 DUP4 ADD DUP5 PUSH2 0x96F JUMP JUMPDEST SWAP5 SWAP4 POP POP POP POP JUMP JUMPDEST PUSH1 0x0 DUP3 DUP3 MSTORE PUSH1 0x20 DUP3 ADD SWAP1 POP SWAP3 SWAP2 POP POP JUMP JUMPDEST PUSH1 0x0 PUSH2 0xAAB DUP3 PUSH2 0xB68 JUMP JUMPDEST SWAP2 POP PUSH2 0xAB6 DUP4 PUSH2 0xB68 JUMP JUMPDEST SWAP3 POP DUP3 PUSH32 0xFFFFFFFFFFFFFFFFFFFFFFFFFFFFFFFFFFFFFFFFFFFFFFFFFFFFFFFFFFFFFFFF SUB DUP3 GT ISZERO PUSH2 0xAEB JUMPI PUSH2 0xAEA PUSH2 0xB72 JUMP JUMPDEST JUMPDEST DUP3 DUP3 ADD SWAP1 POP SWAP3 SWAP2 POP POP JUMP JUMPDEST PUSH1 0x0 PUSH2 0xB01 DUP3 PUSH2 0xB68 JUMP JUMPDEST SWAP2 POP PUSH2 0xB0C DUP4 PUSH2 0xB68 JUMP JUMPDEST SWAP3 POP DUP3 DUP3 LT ISZERO PUSH2 0xB1F JUMPI PUSH2 0xB1E PUSH2 0xB72 JUMP JUMPDEST JUMPDEST DUP3 DUP3 SUB SWAP1 POP SWAP3 SWAP2 POP POP JUMP JUMPDEST PUSH1 0x0 PUSH2 0xB35 DUP3 PUSH2 0xB48 JUMP JUMPDEST SWAP1 POP SWAP2 SWAP1 POP JUMP JUMPDEST PUSH1 0x0 DUP2 ISZERO ISZERO SWAP1 POP SWAP2 SWAP1 POP JUMP JUMPDEST PUSH1 0x0 PUSH20 0xFFFFFFFFFFFFFFFFFFFFFFFFFFFFFFFFFFFFFFFF DUP3 AND SWAP1 POP SWAP2 SWAP1 POP JUMP JUMPDEST PUSH1 0x0 DUP2 SWAP1 POP SWAP2 SWAP1 POP JUMP JUMPDEST PUSH32 0x4E487B7100000000000000000000000000000000000000000000000000000000 PUSH1 0x0 MSTORE PUSH1 0x11 PUSH1 0x4 MSTORE PUSH1 0x24 PUSH1 0x0 REVERT JUMPDEST PUSH1 0x0 DUP1 REVERT JUMPDEST PUSH32 0x4F776E61626C653A206E6577206F776E657220697320746865207A65726F2061 PUSH1 0x0 DUP3 ADD MSTORE PUSH32 0x6464726573730000000000000000000000000000000000000000000000000000 PUSH1 0x20 DUP3 ADD MSTORE POP JUMP JUMPDEST PUSH32 0x5061757361626C653A2070617573656400000000000000000000000000000000 PUSH1 0x0 DUP3 ADD MSTORE POP JUMP JUMPDEST PUSH32 0x4F776E61626C653A2063616C6C6572206973206E6F7420746865206F776E6572 PUSH1 0x0 DUP3 ADD MSTORE POP JUMP JUMPDEST PUSH2 0xC50 DUP2 PUSH2 0xB2A JUMP JUMPDEST DUP2 EQ PUSH2 0xC5B JUMPI PUSH1 0x0 DUP1 REVERT JUMPDEST POP JUMP JUMPDEST PUSH2 0xC67 DUP2 PUSH2 0xB68 JUMP JUMPDEST DUP2 EQ PUSH2 0xC72 JUMPI PUSH1 0x0 DUP1 REVERT JUMPDEST POP JUMP INVALID LOG2 PUSH5 0x6970667358 0x22 SLT KECCAK256 0xA8 0xC3 0xE2 0xAE 0x24 PUSH4 0x5F6328E7 SSTORE 0xDE 0xD8 0xC6 PUSH23 0x4EC54274EDA2B848DEE8D4B215F12DCCA764736F6C6343 STOP ADDMOD SMOD STOP CALLER "
				},
				"gasEstimates": {
					"creation": {
						"codeDepositCost": "648600",
						"executionCost": "infinite",
						"totalCost": "infinite"
					},
					"external": {
						"getNumberOfLicense()": "4679",
						"getPriceOfLicense(uint256)": "infinite",
						"isLicense(uint256)": "5088",
						"owner()": "2544",
						"paused()": "2596",
						"priceDifferenceOfLicense(uint256,uint256)": "infinite",
						"renounceOwnership()": "30428",
						"setLicense(uint256)": "infinite",
						"setPriceOfLicense(uint256,uint256)": "infinite",
						"transferOwnership(address)": "30776"
					}
				},
				"methodIdentifiers": {
					"getNumberOfLicense()": "128d2fe5",
					"getPriceOfLicense(uint256)": "f0ff87fc",
					"isLicense(uint256)": "8cf56248",
					"owner()": "8da5cb5b",
					"paused()": "5c975abb",
					"priceDifferenceOfLicense(uint256,uint256)": "f0e530f8",
					"renounceOwnership()": "715018a6",
					"setLicense(uint256)": "2b45f2d2",
					"setPriceOfLicense(uint256,uint256)": "169d08d4",
					"transferOwnership(address)": "f2fde38b"
				}
			},
			"storageLayout": {
				"storage": [
					{
						"astId": 1026,
						"contract": "contracts/License.sol:License",
						"label": "_owner",
						"offset": 0,
						"slot": "0",
						"type": "t_address"
					},
					{
						"astId": 1135,
						"contract": "contracts/License.sol:License",
						"label": "_paused",
						"offset": 20,
						"slot": "0",
						"type": "t_bool"
					},
					{
						"astId": 19,
						"contract": "contracts/License.sol:License",
						"label": "licenseToPrice",
						"offset": 0,
						"slot": "1",
						"type": "t_mapping(t_uint256,t_uint256)"
					},
					{
						"astId": 21,
						"contract": "contracts/License.sol:License",
						"label": "numberOfLicense",
						"offset": 0,
						"slot": "2",
						"type": "t_uint256"
					}
				],
				"types": {
					"t_address": {
						"encoding": "inplace",
						"label": "address",
						"numberOfBytes": "20"
					},
					"t_bool": {
						"encoding": "inplace",
						"label": "bool",
						"numberOfBytes": "1"
					},
					"t_mapping(t_uint256,t_uint256)": {
						"encoding": "mapping",
						"key": "t_uint256",
						"label": "mapping(uint256 => uint256)",
						"numberOfBytes": "32",
						"value": "t_uint256"
					},
					"t_uint256": {
						"encoding": "inplace",
						"label": "uint256",
						"numberOfBytes": "32"
					}
				}
			},
			"userdoc": {
				"kind": "user",
				"methods": {},
				"version": 1
			}
		}
	}
}