{
	"contracts/SingleDigitalObject.sol": {
		"SingleDigitalObject": {
			"abi": [
				{
					"inputs": [
						{
							"internalType": "string",
							"name": "_name",
							"type": "string"
						},
						{
							"internalType": "string",
							"name": "_symbol",
							"type": "string"
						},
						{
							"internalType": "uint256",
							"name": "_age",
							"type": "uint256"
						},
						{
							"internalType": "enum ISingleDigitalObject.typeT",
							"name": "_typeOf",
							"type": "uint8"
						},
						{
							"internalType": "uint256",
							"name": "_price",
							"type": "uint256"
						}
					],
					"stateMutability": "nonpayable",
					"type": "constructor"
				},
				{
					"anonymous": false,
					"inputs": [
						{
							"indexed": true,
							"internalType": "address",
							"name": "previousOwner",
							"type": "address"
						},
						{
							"indexed": true,
							"internalType": "address",
							"name": "newOwner",
							"type": "address"
						}
					],
					"name": "OwnershipTransferred",
					"type": "event"
				},
				{
					"anonymous": false,
					"inputs": [
						{
							"indexed": false,
							"internalType": "address",
							"name": "account",
							"type": "address"
						}
					],
					"name": "Paused",
					"type": "event"
				},
				{
					"anonymous": false,
					"inputs": [
						{
							"indexed": false,
							"internalType": "address",
							"name": "account",
							"type": "address"
						}
					],
					"name": "Unpaused",
					"type": "event"
				},
				{
					"inputs": [],
					"name": "getActor",
					"outputs": [
						{
							"internalType": "address[]",
							"name": "",
							"type": "address[]"
						}
					],
					"stateMutability": "view",
					"type": "function"
				},
				{
					"inputs": [],
					"name": "getAge",
					"outputs": [
						{
							"internalType": "uint256",
							"name": "",
							"type": "uint256"
						}
					],
					"stateMutability": "view",
					"type": "function"
				},
				{
					"inputs": [],
					"name": "getCompany",
					"outputs": [
						{
							"internalType": "address[]",
							"name": "",
							"type": "address[]"
						}
					],
					"stateMutability": "view",
					"type": "function"
				},
				{
					"inputs": [],
					"name": "getDistribution",
					"outputs": [
						{
							"internalType": "uint256[]",
							"name": "",
							"type": "uint256[]"
						}
					],
					"stateMutability": "view",
					"type": "function"
				},
				{
					"inputs": [],
					"name": "getIeee1599",
					"outputs": [
						{
							"internalType": "address",
							"name": "",
							"type": "address"
						}
					],
					"stateMutability": "view",
					"type": "function"
				},
				{
					"inputs": [],
					"name": "getName",
					"outputs": [
						{
							"internalType": "string",
							"name": "",
							"type": "string"
						}
					],
					"stateMutability": "view",
					"type": "function"
				},
				{
					"inputs": [],
					"name": "getNumActor",
					"outputs": [
						{
							"internalType": "uint256",
							"name": "",
							"type": "uint256"
						}
					],
					"stateMutability": "view",
					"type": "function"
				},
				{
					"inputs": [],
					"name": "getNumCompany",
					"outputs": [
						{
							"internalType": "uint256",
							"name": "",
							"type": "uint256"
						}
					],
					"stateMutability": "view",
					"type": "function"
				},
				{
					"inputs": [],
					"name": "getNumSynchronization",
					"outputs": [
						{
							"internalType": "uint256",
							"name": "",
							"type": "uint256"
						}
					],
					"stateMutability": "view",
					"type": "function"
				},
				{
					"inputs": [],
					"name": "getPrice",
					"outputs": [
						{
							"internalType": "uint256",
							"name": "",
							"type": "uint256"
						}
					],
					"stateMutability": "view",
					"type": "function"
				},
				{
					"inputs": [],
					"name": "getSymbol",
					"outputs": [
						{
							"internalType": "string",
							"name": "",
							"type": "string"
						}
					],
					"stateMutability": "view",
					"type": "function"
				},
				{
					"inputs": [],
					"name": "getSynchronization",
					"outputs": [
						{
							"internalType": "address[]",
							"name": "",
							"type": "address[]"
						}
					],
					"stateMutability": "view",
					"type": "function"
				},
				{
					"inputs": [],
					"name": "getType",
					"outputs": [
						{
							"internalType": "enum ISingleDigitalObject.typeT",
							"name": "",
							"type": "uint8"
						}
					],
					"stateMutability": "view",
					"type": "function"
				},
				{
					"inputs": [],
					"name": "owner",
					"outputs": [
						{
							"internalType": "address",
							"name": "",
							"type": "address"
						}
					],
					"stateMutability": "view",
					"type": "function"
				},
				{
					"inputs": [],
					"name": "paused",
					"outputs": [
						{
							"internalType": "bool",
							"name": "",
							"type": "bool"
						}
					],
					"stateMutability": "view",
					"type": "function"
				},
				{
					"inputs": [],
					"name": "renounceOwnership",
					"outputs": [],
					"stateMutability": "nonpayable",
					"type": "function"
				},
				{
					"inputs": [
						{
							"internalType": "address[]",
							"name": "_actor",
							"type": "address[]"
						}
					],
					"name": "setActor",
					"outputs": [],
					"stateMutability": "nonpayable",
					"type": "function"
				},
				{
					"inputs": [
						{
							"internalType": "uint256",
							"name": "_age",
							"type": "uint256"
						}
					],
					"name": "setAge",
					"outputs": [],
					"stateMutability": "nonpayable",
					"type": "function"
				},
				{
					"inputs": [
						{
							"internalType": "address[]",
							"name": "_company",
							"type": "address[]"
						}
					],
					"name": "setCompany",
					"outputs": [],
					"stateMutability": "nonpayable",
					"type": "function"
				},
				{
					"inputs": [
						{
							"internalType": "uint256[]",
							"name": "_distribution",
							"type": "uint256[]"
						}
					],
					"name": "setDistribution",
					"outputs": [],
					"stateMutability": "nonpayable",
					"type": "function"
				},
				{
					"inputs": [
						{
							"internalType": "string",
							"name": "_name",
							"type": "string"
						}
					],
					"name": "setName",
					"outputs": [],
					"stateMutability": "nonpayable",
					"type": "function"
				},
				{
					"inputs": [
						{
							"internalType": "uint256",
							"name": "_price",
							"type": "uint256"
						}
					],
					"name": "setPrice",
					"outputs": [],
					"stateMutability": "nonpayable",
					"type": "function"
				},
				{
					"inputs": [
						{
							"internalType": "string",
							"name": "_symbol",
							"type": "string"
						}
					],
					"name": "setSymbol",
					"outputs": [],
					"stateMutability": "nonpayable",
					"type": "function"
				},
				{
					"inputs": [
						{
							"internalType": "address[]",
							"name": "_synchronization",
							"type": "address[]"
						}
					],
					"name": "setSynchronization",
					"outputs": [],
					"stateMutability": "nonpayable",
					"type": "function"
				},
				{
					"inputs": [
						{
							"internalType": "enum ISingleDigitalObject.typeT",
							"name": "_typeOf",
							"type": "uint8"
						}
					],
					"name": "setType",
					"outputs": [],
					"stateMutability": "nonpayable",
					"type": "function"
				},
				{
					"inputs": [
						{
							"internalType": "address",
							"name": "newOwner",
							"type": "address"
						}
					],
					"name": "transferOwnership",
					"outputs": [],
					"stateMutability": "nonpayable",
					"type": "function"
				}
			],
			"devdoc": {
				"kind": "dev",
				"methods": {
					"getActor()": {
						"details": "This function returns the actor of this SingleDigitalObject"
					},
					"getAge()": {
						"details": "This function returns the age of this SingleDigitalObject"
					},
					"getCompany()": {
						"details": "This function returns the company of this SingleDigitalObject"
					},
					"getDistribution()": {
						"details": "This function returns the distribution of this SingleDigitalObject"
					},
					"getIeee1599()": {
						"details": "This function returns the ieee of this SingleDigitalObject"
					},
					"getName()": {
						"details": "This function returns the name of this SingleDigitalObject"
					},
					"getNumActor()": {
						"details": "This function returns the number of actors of this SingleDigitalObject"
					},
					"getNumCompany()": {
						"details": "This function returns the number of company of this SingleDigitalObject"
					},
					"getNumSynchronization()": {
						"details": "This function returns the number of synchronization (actor) of this SingleDigitalObject"
					},
					"getPrice()": {
						"details": "This function returns the price of this SingleDigitalObject"
					},
					"getSymbol()": {
						"details": "This function returns the symbol of this SingleDigitalObject"
					},
					"getSynchronization()": {
						"details": "This function returns the company of this SingleDigitalObject"
					},
					"getType()": {
						"details": "This function returns the type of this SingleDigitalObject"
					},
					"owner()": {
						"details": "Returns the address of the current owner."
					},
					"paused()": {
						"details": "Returns true if the contract is paused, and false otherwise."
					},
					"renounceOwnership()": {
						"details": "Leaves the contract without owner. It will not be possible to call `onlyOwner` functions anymore. Can only be called by the current owner."
					},
					"setActor(address[])": {
						"details": "This function adds the ( `_actor` ) to the actor array "
					},
					"setAge(uint256)": {
						"details": "This function set the age of this SingleDigitalObject"
					},
					"setCompany(address[])": {
						"details": "This function adds the ( `_company` ) to the company array "
					},
					"setDistribution(uint256[])": {
						"details": "This function set the new distribution "
					},
					"setName(string)": {
						"details": "This function set the name of this SingleDigitalObject"
					},
					"setPrice(uint256)": {
						"details": "This function set the price of this SingleDigitalObject"
					},
					"setSymbol(string)": {
						"details": "This function set the symbol of this SingleDigitalObject"
					},
					"setSynchronization(address[])": {
						"details": "This function adds the ( `_synchronization` ) to the synchronization array "
					},
					"transferOwnership(address)": {
						"details": "Transfers ownership of the contract to a new account (`newOwner`). Can only be called by the current owner."
					}
				},
				"version": 1
			},
			"evm": {
				"assembly": "    /* \"contracts/SingleDigitalObject.sol\":277:7538  contract SingleDigitalObject is ISingleDigitalObject, \r... */\n  mstore(0x40, 0x80)\n    /* \"contracts/SingleDigitalObject.sol\":802:1012  uint256[] private distribution = [10,  // % ieee1599\r... */\n  mload(0x40)\n  dup1\n  0x80\n  add\n  0x40\n  mstore\n  dup1\n    /* \"contracts/SingleDigitalObject.sol\":836:838  10 */\n  0x0a\n    /* \"contracts/SingleDigitalObject.sol\":802:1012  uint256[] private distribution = [10,  // % ieee1599\r... */\n  0xff\n  and\n  dup2\n  mstore\n  0x20\n  add\n    /* \"contracts/SingleDigitalObject.sol\":894:896  40 */\n  0x28\n    /* \"contracts/SingleDigitalObject.sol\":802:1012  uint256[] private distribution = [10,  // % ieee1599\r... */\n  0xff\n  and\n  dup2\n  mstore\n  0x20\n  add\n    /* \"contracts/SingleDigitalObject.sol\":950:952  40 */\n  0x28\n    /* \"contracts/SingleDigitalObject.sol\":802:1012  uint256[] private distribution = [10,  // % ieee1599\r... */\n  0xff\n  and\n  dup2\n  mstore\n  0x20\n  add\n    /* \"contracts/SingleDigitalObject.sol\":1009:1011  10 */\n  0x0a\n    /* \"contracts/SingleDigitalObject.sol\":802:1012  uint256[] private distribution = [10,  // % ieee1599\r... */\n  0xff\n  and\n  dup2\n  mstore\n  pop\n  0x0a\n  swap1\n  0x04\n  tag_1\n  swap3\n  swap2\n  swap1\n  tag_2\n  jump\t// in\ntag_1:\n  pop\n    /* \"contracts/SingleDigitalObject.sol\":1047:1415  constructor ( \r... */\n  callvalue\n  dup1\n  iszero\n  tag_3\n  jumpi\n  0x00\n  dup1\n  revert\ntag_3:\n  pop\n  mload(0x40)\n  sub(codesize, bytecodeSize)\n  dup1\n  bytecodeSize\n  dup4\n  codecopy\n  dup2\n  dup2\n  add\n  0x40\n  mstore\n  dup2\n  add\n  swap1\n  tag_4\n  swap2\n  swap1\n  tag_5\n  jump\t// in\ntag_4:\n    /* \"security/Ownable.sol\":588:622  _transferOwnership( _msgSender() ) */\n  tag_10\n    /* \"security/Ownable.sol\":608:620  _msgSender() */\n  tag_11\n    /* \"security/Ownable.sol\":608:618  _msgSender */\n  shl(0x20, tag_12)\n    /* \"security/Ownable.sol\":608:620  _msgSender() */\n  0x20\n  shr\n  jump\t// in\ntag_11:\n    /* \"security/Ownable.sol\":588:606  _transferOwnership */\n  shl(0x20, tag_13)\n    /* \"security/Ownable.sol\":588:622  _transferOwnership( _msgSender() ) */\n  0x20\n  shr\n  jump\t// in\ntag_10:\n    /* \"security/Pausable.sol\":675:680  false */\n  0x00\n    /* \"security/Pausable.sol\":665:672  _paused */\n  dup1\n  0x14\n    /* \"security/Pausable.sol\":665:680  _paused = false */\n  0x0100\n  exp\n  dup2\n  sload\n  dup2\n  0xff\n  mul\n  not\n  and\n  swap1\n  dup4\n  iszero\n  iszero\n  mul\n  or\n  swap1\n  sstore\n  pop\n    /* \"contracts/SingleDigitalObject.sol\":1265:1277  _msgSender() */\n  tag_16\n    /* \"contracts/SingleDigitalObject.sol\":1265:1275  _msgSender */\n  shl(0x20, tag_12)\n    /* \"contracts/SingleDigitalObject.sol\":1265:1277  _msgSender() */\n  0x20\n  shr\n  jump\t// in\ntag_16:\n    /* \"contracts/SingleDigitalObject.sol\":1246:1254  ieee1599 */\n  0x01\n  0x00\n    /* \"contracts/SingleDigitalObject.sol\":1246:1278  ieee1599 = payable(_msgSender()) */\n  0x0100\n  exp\n  dup2\n  sload\n  dup2\n  0xffffffffffffffffffffffffffffffffffffffff\n  mul\n  not\n  and\n  swap1\n  dup4\n  0xffffffffffffffffffffffffffffffffffffffff\n  and\n  mul\n  or\n  swap1\n  sstore\n  pop\n    /* \"contracts/SingleDigitalObject.sol\":1298:1303  _name */\n  dup5\n    /* \"contracts/SingleDigitalObject.sol\":1289:1293  name */\n  0x05\n    /* \"contracts/SingleDigitalObject.sol\":1289:1303  name   = _name */\n  swap1\n  dup1\n  mload\n  swap1\n  0x20\n  add\n  swap1\n  tag_17\n  swap3\n  swap2\n  swap1\n  tag_18\n  jump\t// in\ntag_17:\n  pop\n    /* \"contracts/SingleDigitalObject.sol\":1323:1330  _symbol */\n  dup4\n    /* \"contracts/SingleDigitalObject.sol\":1314:1320  symbol */\n  0x06\n    /* \"contracts/SingleDigitalObject.sol\":1314:1330  symbol = _symbol */\n  swap1\n  dup1\n  mload\n  swap1\n  0x20\n  add\n  swap1\n  tag_19\n  swap3\n  swap2\n  swap1\n  tag_18\n  jump\t// in\ntag_19:\n  pop\n    /* \"contracts/SingleDigitalObject.sol\":1350:1354  _age */\n  dup3\n    /* \"contracts/SingleDigitalObject.sol\":1341:1344  age */\n  0x07\n    /* \"contracts/SingleDigitalObject.sol\":1341:1354  age    = _age */\n  dup2\n  swap1\n  sstore\n  pop\n    /* \"contracts/SingleDigitalObject.sol\":1374:1381  _typeOf */\n  dup2\n    /* \"contracts/SingleDigitalObject.sol\":1365:1371  typeOf */\n  0x08\n  0x00\n    /* \"contracts/SingleDigitalObject.sol\":1365:1381  typeOf = _typeOf */\n  0x0100\n  exp\n  dup2\n  sload\n  dup2\n  0xff\n  mul\n  not\n  and\n  swap1\n  dup4\n  0x02\n  dup2\n  gt\n  iszero\n  tag_20\n  jumpi\n  tag_21\n  tag_22\n  jump\t// in\ntag_21:\ntag_20:\n  mul\n  or\n  swap1\n  sstore\n  pop\n    /* \"contracts/SingleDigitalObject.sol\":1401:1407  _price */\n  dup1\n    /* \"contracts/SingleDigitalObject.sol\":1392:1397  price */\n  0x09\n    /* \"contracts/SingleDigitalObject.sol\":1392:1407  price  = _price */\n  dup2\n  swap1\n  sstore\n  pop\n    /* \"contracts/SingleDigitalObject.sol\":1047:1415  constructor ( \r... */\n  pop\n  pop\n  pop\n  pop\n  pop\n    /* \"contracts/SingleDigitalObject.sol\":277:7538  contract SingleDigitalObject is ISingleDigitalObject, \r... */\n  jump(tag_23)\n    /* \"utils/Context.sol\":1711:1846  function _msgSender () internal view virtual \r... */\ntag_12:\n    /* \"utils/Context.sol\":1794:1801  address */\n  0x00\n    /* \"utils/Context.sol\":1828:1838  msg.sender */\n  caller\n    /* \"utils/Context.sol\":1821:1838  return msg.sender */\n  swap1\n  pop\n    /* \"utils/Context.sol\":1711:1846  function _msgSender () internal view virtual \r... */\n  swap1\n  jump\t// out\n    /* \"security/Ownable.sol\":1967:2166  function _transferOwnership( address newOwner ) internal virtual \r... */\ntag_13:\n    /* \"security/Ownable.sol\":2049:2065  address oldOwner */\n  0x00\n    /* \"security/Ownable.sol\":2068:2074  _owner */\n  dup1\n  0x00\n  swap1\n  sload\n  swap1\n  0x0100\n  exp\n  swap1\n  div\n  0xffffffffffffffffffffffffffffffffffffffff\n  and\n    /* \"security/Ownable.sol\":2049:2074  address oldOwner = _owner */\n  swap1\n  pop\n    /* \"security/Ownable.sol\":2094:2102  newOwner */\n  dup2\n    /* \"security/Ownable.sol\":2085:2091  _owner */\n  0x00\n  dup1\n    /* \"security/Ownable.sol\":2085:2102  _owner = newOwner */\n  0x0100\n  exp\n  dup2\n  sload\n  dup2\n  0xffffffffffffffffffffffffffffffffffffffff\n  mul\n  not\n  and\n  swap1\n  dup4\n  0xffffffffffffffffffffffffffffffffffffffff\n  and\n  mul\n  or\n  swap1\n  sstore\n  pop\n    /* \"security/Ownable.sol\":2149:2157  newOwner */\n  dup2\n    /* \"security/Ownable.sol\":2118:2158  OwnershipTransferred(oldOwner, newOwner) */\n  0xffffffffffffffffffffffffffffffffffffffff\n  and\n    /* \"security/Ownable.sol\":2139:2147  oldOwner */\n  dup2\n    /* \"security/Ownable.sol\":2118:2158  OwnershipTransferred(oldOwner, newOwner) */\n  0xffffffffffffffffffffffffffffffffffffffff\n  and\n  0x8be0079c531659141344cd1fd0a4f28419497f9722a3daafe3b4186f6b6457e0\n  mload(0x40)\n  mload(0x40)\n  dup1\n  swap2\n  sub\n  swap1\n  log3\n    /* \"security/Ownable.sol\":2038:2166  {\r... */\n  pop\n    /* \"security/Ownable.sol\":1967:2166  function _transferOwnership( address newOwner ) internal virtual \r... */\n  pop\n  jump\t// out\n    /* \"contracts/SingleDigitalObject.sol\":277:7538  contract SingleDigitalObject is ISingleDigitalObject, \r... */\ntag_2:\n  dup3\n  dup1\n  sload\n  dup3\n  dup3\n  sstore\n  swap1\n  0x00\n  mstore\n  keccak256(0x00, 0x20)\n  swap1\n  dup2\n  add\n  swap3\n  dup3\n  iszero\n  tag_26\n  jumpi\n  swap2\n  0x20\n  mul\n  dup3\n  add\ntag_27:\n  dup3\n  dup2\n  gt\n  iszero\n  tag_28\n  jumpi\n  dup3\n  mload\n  dup3\n  swap1\n  0xff\n  and\n  swap1\n  sstore\n  swap2\n  0x20\n  add\n  swap2\n  swap1\n  0x01\n  add\n  swap1\n  jump(tag_27)\ntag_28:\ntag_26:\n  pop\n  swap1\n  pop\n  tag_29\n  swap2\n  swap1\n  tag_30\n  jump\t// in\ntag_29:\n  pop\n  swap1\n  jump\t// out\ntag_18:\n  dup3\n  dup1\n  sload\n  tag_31\n  swap1\n  tag_32\n  jump\t// in\ntag_31:\n  swap1\n  0x00\n  mstore\n  keccak256(0x00, 0x20)\n  swap1\n  0x1f\n  add\n  0x20\n  swap1\n  div\n  dup2\n  add\n  swap3\n  dup3\n  tag_34\n  jumpi\n  0x00\n  dup6\n  sstore\n  jump(tag_33)\ntag_34:\n  dup3\n  0x1f\n  lt\n  tag_35\n  jumpi\n  dup1\n  mload\n  not(0xff)\n  and\n  dup4\n  dup1\n  add\n  or\n  dup6\n  sstore\n  jump(tag_33)\ntag_35:\n  dup3\n  dup1\n  add\n  0x01\n  add\n  dup6\n  sstore\n  dup3\n  iszero\n  tag_33\n  jumpi\n  swap2\n  dup3\n  add\ntag_36:\n  dup3\n  dup2\n  gt\n  iszero\n  tag_37\n  jumpi\n  dup3\n  mload\n  dup3\n  sstore\n  swap2\n  0x20\n  add\n  swap2\n  swap1\n  0x01\n  add\n  swap1\n  jump(tag_36)\ntag_37:\ntag_33:\n  pop\n  swap1\n  pop\n  tag_38\n  swap2\n  swap1\n  tag_30\n  jump\t// in\ntag_38:\n  pop\n  swap1\n  jump\t// out\ntag_30:\ntag_39:\n  dup1\n  dup3\n  gt\n  iszero\n  tag_40\n  jumpi\n  0x00\n  dup2\n  0x00\n  swap1\n  sstore\n  pop\n  0x01\n  add\n  jump(tag_39)\ntag_40:\n  pop\n  swap1\n  jump\t// out\n    /* \"#utility.yul\":7:428   */\ntag_42:\n    /* \"#utility.yul\":96:101   */\n  0x00\n    /* \"#utility.yul\":121:187   */\n  tag_44\n    /* \"#utility.yul\":137:186   */\n  tag_45\n    /* \"#utility.yul\":179:185   */\n  dup5\n    /* \"#utility.yul\":137:186   */\n  tag_46\n  jump\t// in\ntag_45:\n    /* \"#utility.yul\":121:187   */\n  tag_47\n  jump\t// in\ntag_44:\n    /* \"#utility.yul\":112:187   */\n  swap1\n  pop\n    /* \"#utility.yul\":210:216   */\n  dup3\n    /* \"#utility.yul\":203:208   */\n  dup2\n    /* \"#utility.yul\":196:217   */\n  mstore\n    /* \"#utility.yul\":248:252   */\n  0x20\n    /* \"#utility.yul\":241:246   */\n  dup2\n    /* \"#utility.yul\":237:253   */\n  add\n    /* \"#utility.yul\":286:289   */\n  dup5\n    /* \"#utility.yul\":277:283   */\n  dup5\n    /* \"#utility.yul\":272:275   */\n  dup5\n    /* \"#utility.yul\":268:284   */\n  add\n    /* \"#utility.yul\":265:290   */\n  gt\n    /* \"#utility.yul\":262:374   */\n  iszero\n  tag_48\n  jumpi\n    /* \"#utility.yul\":293:372   */\n  tag_49\n  tag_50\n  jump\t// in\ntag_49:\n    /* \"#utility.yul\":262:374   */\ntag_48:\n    /* \"#utility.yul\":383:422   */\n  tag_51\n    /* \"#utility.yul\":415:421   */\n  dup5\n    /* \"#utility.yul\":410:413   */\n  dup3\n    /* \"#utility.yul\":405:408   */\n  dup6\n    /* \"#utility.yul\":383:422   */\n  tag_52\n  jump\t// in\ntag_51:\n    /* \"#utility.yul\":102:428   */\n  pop\n    /* \"#utility.yul\":7:428   */\n  swap4\n  swap3\n  pop\n  pop\n  pop\n  jump\t// out\n    /* \"#utility.yul\":434:595   */\ntag_53:\n    /* \"#utility.yul\":500:505   */\n  0x00\n    /* \"#utility.yul\":531:537   */\n  dup2\n    /* \"#utility.yul\":525:538   */\n  mload\n    /* \"#utility.yul\":516:538   */\n  swap1\n  pop\n    /* \"#utility.yul\":547:589   */\n  tag_55\n    /* \"#utility.yul\":583:588   */\n  dup2\n    /* \"#utility.yul\":547:589   */\n  tag_56\n  jump\t// in\ntag_55:\n    /* \"#utility.yul\":434:595   */\n  swap3\n  swap2\n  pop\n  pop\n  jump\t// out\n    /* \"#utility.yul\":615:970   */\ntag_57:\n    /* \"#utility.yul\":682:687   */\n  0x00\n    /* \"#utility.yul\":731:734   */\n  dup3\n    /* \"#utility.yul\":724:728   */\n  0x1f\n    /* \"#utility.yul\":716:722   */\n  dup4\n    /* \"#utility.yul\":712:729   */\n  add\n    /* \"#utility.yul\":708:735   */\n  slt\n    /* \"#utility.yul\":698:820   */\n  tag_59\n  jumpi\n    /* \"#utility.yul\":739:818   */\n  tag_60\n  tag_61\n  jump\t// in\ntag_60:\n    /* \"#utility.yul\":698:820   */\ntag_59:\n    /* \"#utility.yul\":849:855   */\n  dup2\n    /* \"#utility.yul\":843:856   */\n  mload\n    /* \"#utility.yul\":874:964   */\n  tag_62\n    /* \"#utility.yul\":960:963   */\n  dup5\n    /* \"#utility.yul\":952:958   */\n  dup3\n    /* \"#utility.yul\":945:949   */\n  0x20\n    /* \"#utility.yul\":937:943   */\n  dup7\n    /* \"#utility.yul\":933:950   */\n  add\n    /* \"#utility.yul\":874:964   */\n  tag_42\n  jump\t// in\ntag_62:\n    /* \"#utility.yul\":865:964   */\n  swap2\n  pop\n    /* \"#utility.yul\":688:970   */\n  pop\n    /* \"#utility.yul\":615:970   */\n  swap3\n  swap2\n  pop\n  pop\n  jump\t// out\n    /* \"#utility.yul\":976:1119   */\ntag_63:\n    /* \"#utility.yul\":1033:1038   */\n  0x00\n    /* \"#utility.yul\":1064:1070   */\n  dup2\n    /* \"#utility.yul\":1058:1071   */\n  mload\n    /* \"#utility.yul\":1049:1071   */\n  swap1\n  pop\n    /* \"#utility.yul\":1080:1113   */\n  tag_65\n    /* \"#utility.yul\":1107:1112   */\n  dup2\n    /* \"#utility.yul\":1080:1113   */\n  tag_66\n  jump\t// in\ntag_65:\n    /* \"#utility.yul\":976:1119   */\n  swap3\n  swap2\n  pop\n  pop\n  jump\t// out\n    /* \"#utility.yul\":1125:2466   */\ntag_5:\n    /* \"#utility.yul\":1260:1266   */\n  0x00\n    /* \"#utility.yul\":1268:1274   */\n  dup1\n    /* \"#utility.yul\":1276:1282   */\n  0x00\n    /* \"#utility.yul\":1284:1290   */\n  dup1\n    /* \"#utility.yul\":1292:1298   */\n  0x00\n    /* \"#utility.yul\":1341:1344   */\n  0xa0\n    /* \"#utility.yul\":1329:1338   */\n  dup7\n    /* \"#utility.yul\":1320:1327   */\n  dup9\n    /* \"#utility.yul\":1316:1339   */\n  sub\n    /* \"#utility.yul\":1312:1345   */\n  slt\n    /* \"#utility.yul\":1309:1429   */\n  iszero\n  tag_68\n  jumpi\n    /* \"#utility.yul\":1348:1427   */\n  tag_69\n  tag_70\n  jump\t// in\ntag_69:\n    /* \"#utility.yul\":1309:1429   */\ntag_68:\n    /* \"#utility.yul\":1489:1490   */\n  0x00\n    /* \"#utility.yul\":1478:1487   */\n  dup7\n    /* \"#utility.yul\":1474:1491   */\n  add\n    /* \"#utility.yul\":1468:1492   */\n  mload\n    /* \"#utility.yul\":1519:1537   */\n  0xffffffffffffffff\n    /* \"#utility.yul\":1511:1517   */\n  dup2\n    /* \"#utility.yul\":1508:1538   */\n  gt\n    /* \"#utility.yul\":1505:1622   */\n  iszero\n  tag_71\n  jumpi\n    /* \"#utility.yul\":1541:1620   */\n  tag_72\n  tag_73\n  jump\t// in\ntag_72:\n    /* \"#utility.yul\":1505:1622   */\ntag_71:\n    /* \"#utility.yul\":1646:1720   */\n  tag_74\n    /* \"#utility.yul\":1712:1719   */\n  dup9\n    /* \"#utility.yul\":1703:1709   */\n  dup3\n    /* \"#utility.yul\":1692:1701   */\n  dup10\n    /* \"#utility.yul\":1688:1710   */\n  add\n    /* \"#utility.yul\":1646:1720   */\n  tag_57\n  jump\t// in\ntag_74:\n    /* \"#utility.yul\":1636:1720   */\n  swap6\n  pop\n    /* \"#utility.yul\":1439:1730   */\n  pop\n    /* \"#utility.yul\":1790:1792   */\n  0x20\n    /* \"#utility.yul\":1779:1788   */\n  dup7\n    /* \"#utility.yul\":1775:1793   */\n  add\n    /* \"#utility.yul\":1769:1794   */\n  mload\n    /* \"#utility.yul\":1821:1839   */\n  0xffffffffffffffff\n    /* \"#utility.yul\":1813:1819   */\n  dup2\n    /* \"#utility.yul\":1810:1840   */\n  gt\n    /* \"#utility.yul\":1807:1924   */\n  iszero\n  tag_75\n  jumpi\n    /* \"#utility.yul\":1843:1922   */\n  tag_76\n  tag_73\n  jump\t// in\ntag_76:\n    /* \"#utility.yul\":1807:1924   */\ntag_75:\n    /* \"#utility.yul\":1948:2022   */\n  tag_77\n    /* \"#utility.yul\":2014:2021   */\n  dup9\n    /* \"#utility.yul\":2005:2011   */\n  dup3\n    /* \"#utility.yul\":1994:2003   */\n  dup10\n    /* \"#utility.yul\":1990:2012   */\n  add\n    /* \"#utility.yul\":1948:2022   */\n  tag_57\n  jump\t// in\ntag_77:\n    /* \"#utility.yul\":1938:2022   */\n  swap5\n  pop\n    /* \"#utility.yul\":1740:2032   */\n  pop\n    /* \"#utility.yul\":2071:2073   */\n  0x40\n    /* \"#utility.yul\":2097:2161   */\n  tag_78\n    /* \"#utility.yul\":2153:2160   */\n  dup9\n    /* \"#utility.yul\":2144:2150   */\n  dup3\n    /* \"#utility.yul\":2133:2142   */\n  dup10\n    /* \"#utility.yul\":2129:2151   */\n  add\n    /* \"#utility.yul\":2097:2161   */\n  tag_63\n  jump\t// in\ntag_78:\n    /* \"#utility.yul\":2087:2161   */\n  swap4\n  pop\n    /* \"#utility.yul\":2042:2171   */\n  pop\n    /* \"#utility.yul\":2210:2212   */\n  0x60\n    /* \"#utility.yul\":2236:2309   */\n  tag_79\n    /* \"#utility.yul\":2301:2308   */\n  dup9\n    /* \"#utility.yul\":2292:2298   */\n  dup3\n    /* \"#utility.yul\":2281:2290   */\n  dup10\n    /* \"#utility.yul\":2277:2299   */\n  add\n    /* \"#utility.yul\":2236:2309   */\n  tag_53\n  jump\t// in\ntag_79:\n    /* \"#utility.yul\":2226:2309   */\n  swap3\n  pop\n    /* \"#utility.yul\":2181:2319   */\n  pop\n    /* \"#utility.yul\":2358:2361   */\n  0x80\n    /* \"#utility.yul\":2385:2449   */\n  tag_80\n    /* \"#utility.yul\":2441:2448   */\n  dup9\n    /* \"#utility.yul\":2432:2438   */\n  dup3\n    /* \"#utility.yul\":2421:2430   */\n  dup10\n    /* \"#utility.yul\":2417:2439   */\n  add\n    /* \"#utility.yul\":2385:2449   */\n  tag_63\n  jump\t// in\ntag_80:\n    /* \"#utility.yul\":2375:2449   */\n  swap2\n  pop\n    /* \"#utility.yul\":2329:2459   */\n  pop\n    /* \"#utility.yul\":1125:2466   */\n  swap3\n  swap6\n  pop\n  swap3\n  swap6\n  swap1\n  swap4\n  pop\n  jump\t// out\n    /* \"#utility.yul\":2472:2601   */\ntag_47:\n    /* \"#utility.yul\":2506:2512   */\n  0x00\n    /* \"#utility.yul\":2533:2553   */\n  tag_82\n  tag_83\n  jump\t// in\ntag_82:\n    /* \"#utility.yul\":2523:2553   */\n  swap1\n  pop\n    /* \"#utility.yul\":2562:2595   */\n  tag_84\n    /* \"#utility.yul\":2590:2594   */\n  dup3\n    /* \"#utility.yul\":2582:2588   */\n  dup3\n    /* \"#utility.yul\":2562:2595   */\n  tag_85\n  jump\t// in\ntag_84:\n    /* \"#utility.yul\":2472:2601   */\n  swap2\n  swap1\n  pop\n  jump\t// out\n    /* \"#utility.yul\":2607:2682   */\ntag_83:\n    /* \"#utility.yul\":2640:2646   */\n  0x00\n    /* \"#utility.yul\":2673:2675   */\n  0x40\n    /* \"#utility.yul\":2667:2676   */\n  mload\n    /* \"#utility.yul\":2657:2676   */\n  swap1\n  pop\n    /* \"#utility.yul\":2607:2682   */\n  swap1\n  jump\t// out\n    /* \"#utility.yul\":2688:2996   */\ntag_46:\n    /* \"#utility.yul\":2750:2754   */\n  0x00\n    /* \"#utility.yul\":2840:2858   */\n  0xffffffffffffffff\n    /* \"#utility.yul\":2832:2838   */\n  dup3\n    /* \"#utility.yul\":2829:2859   */\n  gt\n    /* \"#utility.yul\":2826:2882   */\n  iszero\n  tag_88\n  jumpi\n    /* \"#utility.yul\":2862:2880   */\n  tag_89\n  tag_90\n  jump\t// in\ntag_89:\n    /* \"#utility.yul\":2826:2882   */\ntag_88:\n    /* \"#utility.yul\":2900:2929   */\n  tag_91\n    /* \"#utility.yul\":2922:2928   */\n  dup3\n    /* \"#utility.yul\":2900:2929   */\n  tag_92\n  jump\t// in\ntag_91:\n    /* \"#utility.yul\":2892:2929   */\n  swap1\n  pop\n    /* \"#utility.yul\":2984:2988   */\n  0x20\n    /* \"#utility.yul\":2978:2982   */\n  dup2\n    /* \"#utility.yul\":2974:2989   */\n  add\n    /* \"#utility.yul\":2966:2989   */\n  swap1\n  pop\n    /* \"#utility.yul\":2688:2996   */\n  swap2\n  swap1\n  pop\n  jump\t// out\n    /* \"#utility.yul\":3002:3079   */\ntag_93:\n    /* \"#utility.yul\":3039:3046   */\n  0x00\n    /* \"#utility.yul\":3068:3073   */\n  dup2\n    /* \"#utility.yul\":3057:3073   */\n  swap1\n  pop\n    /* \"#utility.yul\":3002:3079   */\n  swap2\n  swap1\n  pop\n  jump\t// out\n    /* \"#utility.yul\":3085:3392   */\ntag_52:\n    /* \"#utility.yul\":3153:3154   */\n  0x00\n    /* \"#utility.yul\":3163:3276   */\ntag_96:\n    /* \"#utility.yul\":3177:3183   */\n  dup4\n    /* \"#utility.yul\":3174:3175   */\n  dup2\n    /* \"#utility.yul\":3171:3184   */\n  lt\n    /* \"#utility.yul\":3163:3276   */\n  iszero\n  tag_98\n  jumpi\n    /* \"#utility.yul\":3262:3263   */\n  dup1\n    /* \"#utility.yul\":3257:3260   */\n  dup3\n    /* \"#utility.yul\":3253:3264   */\n  add\n    /* \"#utility.yul\":3247:3265   */\n  mload\n    /* \"#utility.yul\":3243:3244   */\n  dup2\n    /* \"#utility.yul\":3238:3241   */\n  dup5\n    /* \"#utility.yul\":3234:3245   */\n  add\n    /* \"#utility.yul\":3227:3266   */\n  mstore\n    /* \"#utility.yul\":3199:3201   */\n  0x20\n    /* \"#utility.yul\":3196:3197   */\n  dup2\n    /* \"#utility.yul\":3192:3202   */\n  add\n    /* \"#utility.yul\":3187:3202   */\n  swap1\n  pop\n    /* \"#utility.yul\":3163:3276   */\n  jump(tag_96)\ntag_98:\n    /* \"#utility.yul\":3294:3300   */\n  dup4\n    /* \"#utility.yul\":3291:3292   */\n  dup2\n    /* \"#utility.yul\":3288:3301   */\n  gt\n    /* \"#utility.yul\":3285:3386   */\n  iszero\n  tag_99\n  jumpi\n    /* \"#utility.yul\":3374:3375   */\n  0x00\n    /* \"#utility.yul\":3365:3371   */\n  dup5\n    /* \"#utility.yul\":3360:3363   */\n  dup5\n    /* \"#utility.yul\":3356:3372   */\n  add\n    /* \"#utility.yul\":3349:3376   */\n  mstore\n    /* \"#utility.yul\":3285:3386   */\ntag_99:\n    /* \"#utility.yul\":3134:3392   */\n  pop\n    /* \"#utility.yul\":3085:3392   */\n  pop\n  pop\n  pop\n  jump\t// out\n    /* \"#utility.yul\":3398:3718   */\ntag_32:\n    /* \"#utility.yul\":3442:3448   */\n  0x00\n    /* \"#utility.yul\":3479:3480   */\n  0x02\n    /* \"#utility.yul\":3473:3477   */\n  dup3\n    /* \"#utility.yul\":3469:3481   */\n  div\n    /* \"#utility.yul\":3459:3481   */\n  swap1\n  pop\n    /* \"#utility.yul\":3526:3527   */\n  0x01\n    /* \"#utility.yul\":3520:3524   */\n  dup3\n    /* \"#utility.yul\":3516:3528   */\n  and\n    /* \"#utility.yul\":3547:3565   */\n  dup1\n    /* \"#utility.yul\":3537:3618   */\n  tag_101\n  jumpi\n    /* \"#utility.yul\":3603:3607   */\n  0x7f\n    /* \"#utility.yul\":3595:3601   */\n  dup3\n    /* \"#utility.yul\":3591:3608   */\n  and\n    /* \"#utility.yul\":3581:3608   */\n  swap2\n  pop\n    /* \"#utility.yul\":3537:3618   */\ntag_101:\n    /* \"#utility.yul\":3665:3667   */\n  0x20\n    /* \"#utility.yul\":3657:3663   */\n  dup3\n    /* \"#utility.yul\":3654:3668   */\n  lt\n    /* \"#utility.yul\":3634:3652   */\n  dup2\n    /* \"#utility.yul\":3631:3669   */\n  eq\n    /* \"#utility.yul\":3628:3712   */\n  iszero\n  tag_102\n  jumpi\n    /* \"#utility.yul\":3684:3702   */\n  tag_103\n  tag_104\n  jump\t// in\ntag_103:\n    /* \"#utility.yul\":3628:3712   */\ntag_102:\n    /* \"#utility.yul\":3449:3718   */\n  pop\n    /* \"#utility.yul\":3398:3718   */\n  swap2\n  swap1\n  pop\n  jump\t// out\n    /* \"#utility.yul\":3724:4005   */\ntag_85:\n    /* \"#utility.yul\":3807:3834   */\n  tag_106\n    /* \"#utility.yul\":3829:3833   */\n  dup3\n    /* \"#utility.yul\":3807:3834   */\n  tag_92\n  jump\t// in\ntag_106:\n    /* \"#utility.yul\":3799:3805   */\n  dup2\n    /* \"#utility.yul\":3795:3835   */\n  add\n    /* \"#utility.yul\":3937:3943   */\n  dup2\n    /* \"#utility.yul\":3925:3935   */\n  dup2\n    /* \"#utility.yul\":3922:3944   */\n  lt\n    /* \"#utility.yul\":3901:3919   */\n  0xffffffffffffffff\n    /* \"#utility.yul\":3889:3899   */\n  dup3\n    /* \"#utility.yul\":3886:3920   */\n  gt\n    /* \"#utility.yul\":3883:3945   */\n  or\n    /* \"#utility.yul\":3880:3968   */\n  iszero\n  tag_107\n  jumpi\n    /* \"#utility.yul\":3948:3966   */\n  tag_108\n  tag_90\n  jump\t// in\ntag_108:\n    /* \"#utility.yul\":3880:3968   */\ntag_107:\n    /* \"#utility.yul\":3988:3998   */\n  dup1\n    /* \"#utility.yul\":3984:3986   */\n  0x40\n    /* \"#utility.yul\":3977:3999   */\n  mstore\n    /* \"#utility.yul\":3767:4005   */\n  pop\n    /* \"#utility.yul\":3724:4005   */\n  pop\n  pop\n  jump\t// out\n    /* \"#utility.yul\":4011:4191   */\ntag_22:\n    /* \"#utility.yul\":4059:4136   */\n  0x4e487b7100000000000000000000000000000000000000000000000000000000\n    /* \"#utility.yul\":4056:4057   */\n  0x00\n    /* \"#utility.yul\":4049:4137   */\n  mstore\n    /* \"#utility.yul\":4156:4160   */\n  0x21\n    /* \"#utility.yul\":4153:4154   */\n  0x04\n    /* \"#utility.yul\":4146:4161   */\n  mstore\n    /* \"#utility.yul\":4180:4184   */\n  0x24\n    /* \"#utility.yul\":4177:4178   */\n  0x00\n    /* \"#utility.yul\":4170:4185   */\n  revert\n    /* \"#utility.yul\":4197:4377   */\ntag_104:\n    /* \"#utility.yul\":4245:4322   */\n  0x4e487b7100000000000000000000000000000000000000000000000000000000\n    /* \"#utility.yul\":4242:4243   */\n  0x00\n    /* \"#utility.yul\":4235:4323   */\n  mstore\n    /* \"#utility.yul\":4342:4346   */\n  0x22\n    /* \"#utility.yul\":4339:4340   */\n  0x04\n    /* \"#utility.yul\":4332:4347   */\n  mstore\n    /* \"#utility.yul\":4366:4370   */\n  0x24\n    /* \"#utility.yul\":4363:4364   */\n  0x00\n    /* \"#utility.yul\":4356:4371   */\n  revert\n    /* \"#utility.yul\":4383:4563   */\ntag_90:\n    /* \"#utility.yul\":4431:4508   */\n  0x4e487b7100000000000000000000000000000000000000000000000000000000\n    /* \"#utility.yul\":4428:4429   */\n  0x00\n    /* \"#utility.yul\":4421:4509   */\n  mstore\n    /* \"#utility.yul\":4528:4532   */\n  0x41\n    /* \"#utility.yul\":4525:4526   */\n  0x04\n    /* \"#utility.yul\":4518:4533   */\n  mstore\n    /* \"#utility.yul\":4552:4556   */\n  0x24\n    /* \"#utility.yul\":4549:4550   */\n  0x00\n    /* \"#utility.yul\":4542:4557   */\n  revert\n    /* \"#utility.yul\":4569:4686   */\ntag_61:\n    /* \"#utility.yul\":4678:4679   */\n  0x00\n    /* \"#utility.yul\":4675:4676   */\n  dup1\n    /* \"#utility.yul\":4668:4680   */\n  revert\n    /* \"#utility.yul\":4692:4809   */\ntag_50:\n    /* \"#utility.yul\":4801:4802   */\n  0x00\n    /* \"#utility.yul\":4798:4799   */\n  dup1\n    /* \"#utility.yul\":4791:4803   */\n  revert\n    /* \"#utility.yul\":4815:4932   */\ntag_73:\n    /* \"#utility.yul\":4924:4925   */\n  0x00\n    /* \"#utility.yul\":4921:4922   */\n  dup1\n    /* \"#utility.yul\":4914:4926   */\n  revert\n    /* \"#utility.yul\":4938:5055   */\ntag_70:\n    /* \"#utility.yul\":5047:5048   */\n  0x00\n    /* \"#utility.yul\":5044:5045   */\n  dup1\n    /* \"#utility.yul\":5037:5049   */\n  revert\n    /* \"#utility.yul\":5061:5163   */\ntag_92:\n    /* \"#utility.yul\":5102:5108   */\n  0x00\n    /* \"#utility.yul\":5153:5155   */\n  0x1f\n    /* \"#utility.yul\":5149:5156   */\n  not\n    /* \"#utility.yul\":5144:5146   */\n  0x1f\n    /* \"#utility.yul\":5137:5142   */\n  dup4\n    /* \"#utility.yul\":5133:5147   */\n  add\n    /* \"#utility.yul\":5129:5157   */\n  and\n    /* \"#utility.yul\":5119:5157   */\n  swap1\n  pop\n    /* \"#utility.yul\":5061:5163   */\n  swap2\n  swap1\n  pop\n  jump\t// out\n    /* \"#utility.yul\":5169:5277   */\ntag_56:\n    /* \"#utility.yul\":5251:5252   */\n  0x03\n    /* \"#utility.yul\":5244:5249   */\n  dup2\n    /* \"#utility.yul\":5241:5253   */\n  lt\n    /* \"#utility.yul\":5231:5271   */\n  tag_118\n  jumpi\n    /* \"#utility.yul\":5267:5268   */\n  0x00\n    /* \"#utility.yul\":5264:5265   */\n  dup1\n    /* \"#utility.yul\":5257:5269   */\n  revert\n    /* \"#utility.yul\":5231:5271   */\ntag_118:\n    /* \"#utility.yul\":5169:5277   */\n  pop\n  jump\t// out\n    /* \"#utility.yul\":5283:5405   */\ntag_66:\n    /* \"#utility.yul\":5356:5380   */\n  tag_120\n    /* \"#utility.yul\":5374:5379   */\n  dup2\n    /* \"#utility.yul\":5356:5380   */\n  tag_93\n  jump\t// in\ntag_120:\n    /* \"#utility.yul\":5349:5354   */\n  dup2\n    /* \"#utility.yul\":5346:5381   */\n  eq\n    /* \"#utility.yul\":5336:5399   */\n  tag_121\n  jumpi\n    /* \"#utility.yul\":5395:5396   */\n  0x00\n    /* \"#utility.yul\":5392:5393   */\n  dup1\n    /* \"#utility.yul\":5385:5397   */\n  revert\n    /* \"#utility.yul\":5336:5399   */\ntag_121:\n    /* \"#utility.yul\":5283:5405   */\n  pop\n  jump\t// out\n    /* \"contracts/SingleDigitalObject.sol\":277:7538  contract SingleDigitalObject is ISingleDigitalObject, \r... */\ntag_23:\n  dataSize(sub_0)\n  dup1\n  dataOffset(sub_0)\n  0x00\n  codecopy\n  0x00\n  return\nstop\n\nsub_0: assembly {\n        /* \"contracts/SingleDigitalObject.sol\":277:7538  contract SingleDigitalObject is ISingleDigitalObject, \r... */\n      mstore(0x40, 0x80)\n      callvalue\n      dup1\n      iszero\n      tag_1\n      jumpi\n      0x00\n      dup1\n      revert\n    tag_1:\n      pop\n      jumpi(tag_2, lt(calldatasize, 0x04))\n      shr(0xe0, calldataload(0x00))\n      dup1\n      0x715018a6\n      gt\n      tag_29\n      jumpi\n      dup1\n      0xa34d8460\n      gt\n      tag_30\n      jumpi\n      dup1\n      0xc47f0027\n      gt\n      tag_31\n      jumpi\n      dup1\n      0xc47f0027\n      eq\n      tag_25\n      jumpi\n      dup1\n      0xd5dcf127\n      eq\n      tag_26\n      jumpi\n      dup1\n      0xd9e71c02\n      eq\n      tag_27\n      jumpi\n      dup1\n      0xf2fde38b\n      eq\n      tag_28\n      jumpi\n      jump(tag_2)\n    tag_31:\n      dup1\n      0xa34d8460\n      eq\n      tag_22\n      jumpi\n      dup1\n      0xb84c8246\n      eq\n      tag_23\n      jumpi\n      dup1\n      0xc250a9aa\n      eq\n      tag_24\n      jumpi\n      jump(tag_2)\n    tag_30:\n      dup1\n      0x715018a6\n      eq\n      tag_16\n      jumpi\n      dup1\n      0x8da5cb5b\n      eq\n      tag_17\n      jumpi\n      dup1\n      0x8f59e34f\n      eq\n      tag_18\n      jumpi\n      dup1\n      0x91b7f5ed\n      eq\n      tag_19\n      jumpi\n      dup1\n      0x967e6e65\n      eq\n      tag_20\n      jumpi\n      dup1\n      0x98d5fdca\n      eq\n      tag_21\n      jumpi\n      jump(tag_2)\n    tag_29:\n      dup1\n      0x17d7de7c\n      gt\n      tag_32\n      jumpi\n      dup1\n      0x5c975abb\n      gt\n      tag_33\n      jumpi\n      dup1\n      0x5c975abb\n      eq\n      tag_12\n      jumpi\n      dup1\n      0x5dca654f\n      eq\n      tag_13\n      jumpi\n      dup1\n      0x5fcd689e\n      eq\n      tag_14\n      jumpi\n      dup1\n      0x667de587\n      eq\n      tag_15\n      jumpi\n      jump(tag_2)\n    tag_33:\n      dup1\n      0x17d7de7c\n      eq\n      tag_9\n      jumpi\n      dup1\n      0x1cced51b\n      eq\n      tag_10\n      jumpi\n      dup1\n      0x4956f4eb\n      eq\n      tag_11\n      jumpi\n      jump(tag_2)\n    tag_32:\n      dup1\n      0x0b54cbfb\n      eq\n      tag_3\n      jumpi\n      dup1\n      0x0b9d3f32\n      eq\n      tag_4\n      jumpi\n      dup1\n      0x127810bc\n      eq\n      tag_5\n      jumpi\n      dup1\n      0x14b21322\n      eq\n      tag_6\n      jumpi\n      dup1\n      0x15070401\n      eq\n      tag_7\n      jumpi\n      dup1\n      0x15dae03e\n      eq\n      tag_8\n      jumpi\n    tag_2:\n      0x00\n      dup1\n      revert\n        /* \"contracts/SingleDigitalObject.sol\":4911:5121  function setType ( typeT _typeOf ) public virtual override \r... */\n    tag_3:\n      tag_34\n      0x04\n      dup1\n      calldatasize\n      sub\n      dup2\n      add\n      swap1\n      tag_35\n      swap2\n      swap1\n      tag_36\n      jump\t// in\n    tag_35:\n      tag_37\n      jump\t// in\n    tag_34:\n      stop\n        /* \"contracts/SingleDigitalObject.sol\":3672:3904  function getNumSynchronization () public view virtual override \r... */\n    tag_4:\n      tag_38\n      tag_39\n      jump\t// in\n    tag_38:\n      mload(0x40)\n      tag_40\n      swap2\n      swap1\n      tag_41\n      jump\t// in\n    tag_40:\n      mload(0x40)\n      dup1\n      swap2\n      sub\n      swap1\n      return\n        /* \"contracts/SingleDigitalObject.sol\":2822:3016  function getCompany () public view virtual override \r... */\n    tag_5:\n      tag_42\n      tag_43\n      jump\t// in\n    tag_42:\n      mload(0x40)\n      tag_44\n      swap2\n      swap1\n      tag_45\n      jump\t// in\n    tag_44:\n      mload(0x40)\n      dup1\n      swap2\n      sub\n      swap1\n      return\n        /* \"contracts/SingleDigitalObject.sol\":2426:2615  function getIeee1599 () public view virtual override \r... */\n    tag_6:\n      tag_46\n      tag_47\n      jump\t// in\n    tag_46:\n      mload(0x40)\n      tag_48\n      swap2\n      swap1\n      tag_49\n      jump\t// in\n    tag_48:\n      mload(0x40)\n      dup1\n      swap2\n      sub\n      swap1\n      return\n        /* \"contracts/SingleDigitalObject.sol\":1688:1875  function getSymbol () public view virtual override \r... */\n    tag_7:\n      tag_50\n      tag_51\n      jump\t// in\n    tag_50:\n      mload(0x40)\n      tag_52\n      swap2\n      swap1\n      tag_53\n      jump\t// in\n    tag_52:\n      mload(0x40)\n      dup1\n      swap2\n      sub\n      swap1\n      return\n        /* \"contracts/SingleDigitalObject.sol\":2060:2233  function getType () public view virtual override \r... */\n    tag_8:\n      tag_54\n      tag_55\n      jump\t// in\n    tag_54:\n      mload(0x40)\n      tag_56\n      swap2\n      swap1\n      tag_57\n      jump\t// in\n    tag_56:\n      mload(0x40)\n      dup1\n      swap2\n      sub\n      swap1\n      return\n        /* \"contracts/SingleDigitalObject.sol\":1501:1680  function getName () public view virtual override \r... */\n    tag_9:\n      tag_58\n      tag_59\n      jump\t// in\n    tag_58:\n      mload(0x40)\n      tag_60\n      swap2\n      swap1\n      tag_53\n      jump\t// in\n    tag_60:\n      mload(0x40)\n      dup1\n      swap2\n      sub\n      swap1\n      return\n        /* \"contracts/SingleDigitalObject.sol\":3912:4126  function getDistribution () public view virtual override \r... */\n    tag_10:\n      tag_61\n      tag_62\n      jump\t// in\n    tag_61:\n      mload(0x40)\n      tag_63\n      swap2\n      swap1\n      tag_64\n      jump\t// in\n    tag_63:\n      mload(0x40)\n      dup1\n      swap2\n      sub\n      swap1\n      return\n        /* \"contracts/SingleDigitalObject.sol\":7037:7526  function setDistribution ( uint256[] memory _distribution ) public virtual override \r... */\n    tag_11:\n      tag_65\n      0x04\n      dup1\n      calldatasize\n      sub\n      dup2\n      add\n      swap1\n      tag_66\n      swap2\n      swap1\n      tag_67\n      jump\t// in\n    tag_66:\n      tag_68\n      jump\t// in\n    tag_65:\n      stop\n        /* \"security/Pausable.sol\":788:904  function paused() public view virtual \r... */\n    tag_12:\n      tag_69\n      tag_70\n      jump\t// in\n    tag_69:\n      mload(0x40)\n      tag_71\n      swap2\n      swap1\n      tag_72\n      jump\t// in\n    tag_71:\n      mload(0x40)\n      dup1\n      swap2\n      sub\n      swap1\n      return\n        /* \"contracts/SingleDigitalObject.sol\":3459:3660  function getNumCompany () public view virtual override \r... */\n    tag_13:\n      tag_73\n      tag_74\n      jump\t// in\n    tag_73:\n      mload(0x40)\n      tag_75\n      swap2\n      swap1\n      tag_41\n      jump\t// in\n    tag_75:\n      mload(0x40)\n      dup1\n      swap2\n      sub\n      swap1\n      return\n        /* \"contracts/SingleDigitalObject.sol\":5360:5868  function setActor ( address[] memory _actor ) public virtual  override \r... */\n    tag_14:\n      tag_76\n      0x04\n      dup1\n      calldatasize\n      sub\n      dup2\n      add\n      swap1\n      tag_77\n      swap2\n      swap1\n      tag_78\n      jump\t// in\n    tag_77:\n      tag_79\n      jump\t// in\n    tag_76:\n      stop\n        /* \"contracts/SingleDigitalObject.sol\":5883:6391  function setCompany ( address[] memory _company ) public virtual override \r... */\n    tag_15:\n      tag_80\n      0x04\n      dup1\n      calldatasize\n      sub\n      dup2\n      add\n      swap1\n      tag_81\n      swap2\n      swap1\n      tag_78\n      jump\t// in\n    tag_81:\n      tag_82\n      jump\t// in\n    tag_80:\n      stop\n        /* \"security/Ownable.sol\":1239:1386  function renounceOwnership () public virtual\r... */\n    tag_16:\n      tag_83\n      tag_84\n      jump\t// in\n    tag_83:\n      stop\n        /* \"security/Ownable.sol\":711:831  function owner () public view virtual \r... */\n    tag_17:\n      tag_85\n      tag_86\n      jump\t// in\n    tag_85:\n      mload(0x40)\n      tag_87\n      swap2\n      swap1\n      tag_49\n      jump\t// in\n    tag_87:\n      mload(0x40)\n      dup1\n      swap2\n      sub\n      swap1\n      return\n        /* \"contracts/SingleDigitalObject.sol\":3258:3451  function getNumActor () public view virtual override \r... */\n    tag_18:\n      tag_88\n      tag_89\n      jump\t// in\n    tag_88:\n      mload(0x40)\n      tag_90\n      swap2\n      swap1\n      tag_41\n      jump\t// in\n    tag_90:\n      mload(0x40)\n      dup1\n      swap2\n      sub\n      swap1\n      return\n        /* \"contracts/SingleDigitalObject.sol\":5134:5348  function setPrice ( uint256 _price ) public virtual override \r... */\n    tag_19:\n      tag_91\n      0x04\n      dup1\n      calldatasize\n      sub\n      dup2\n      add\n      swap1\n      tag_92\n      swap2\n      swap1\n      tag_93\n      jump\t// in\n    tag_92:\n      tag_94\n      jump\t// in\n    tag_91:\n      stop\n        /* \"contracts/SingleDigitalObject.sol\":1883:2052  function getAge () public view virtual override \r... */\n    tag_20:\n      tag_95\n      tag_96\n      jump\t// in\n    tag_95:\n      mload(0x40)\n      tag_97\n      swap2\n      swap1\n      tag_41\n      jump\t// in\n    tag_97:\n      mload(0x40)\n      dup1\n      swap2\n      sub\n      swap1\n      return\n        /* \"contracts/SingleDigitalObject.sol\":2241:2418  function getPrice () public view virtual override \r... */\n    tag_21:\n      tag_98\n      tag_99\n      jump\t// in\n    tag_98:\n      mload(0x40)\n      tag_100\n      swap2\n      swap1\n      tag_41\n      jump\t// in\n    tag_100:\n      mload(0x40)\n      dup1\n      swap2\n      sub\n      swap1\n      return\n        /* \"contracts/SingleDigitalObject.sol\":6403:7024  function setSynchronization ( address[] memory _synchronization ) public virtual override \r... */\n    tag_22:\n      tag_101\n      0x04\n      dup1\n      calldatasize\n      sub\n      dup2\n      add\n      swap1\n      tag_102\n      swap2\n      swap1\n      tag_78\n      jump\t// in\n    tag_102:\n      tag_103\n      jump\t// in\n    tag_101:\n      stop\n        /* \"contracts/SingleDigitalObject.sol\":4447:4686  function setSymbol ( string memory _symbol ) public virtual override \r... */\n    tag_23:\n      tag_104\n      0x04\n      dup1\n      calldatasize\n      sub\n      dup2\n      add\n      swap1\n      tag_105\n      swap2\n      swap1\n      tag_106\n      jump\t// in\n    tag_105:\n      tag_107\n      jump\t// in\n    tag_104:\n      stop\n        /* \"contracts/SingleDigitalObject.sol\":2623:2810  function getActor () public view virtual override  \r... */\n    tag_24:\n      tag_108\n      tag_109\n      jump\t// in\n    tag_108:\n      mload(0x40)\n      tag_110\n      swap2\n      swap1\n      tag_45\n      jump\t// in\n    tag_110:\n      mload(0x40)\n      dup1\n      swap2\n      sub\n      swap1\n      return\n        /* \"contracts/SingleDigitalObject.sol\":4212:4435  function setName ( string memory _name ) public virtual override \r... */\n    tag_25:\n      tag_111\n      0x04\n      dup1\n      calldatasize\n      sub\n      dup2\n      add\n      swap1\n      tag_112\n      swap2\n      swap1\n      tag_106\n      jump\t// in\n    tag_112:\n      tag_113\n      jump\t// in\n    tag_111:\n      stop\n        /* \"contracts/SingleDigitalObject.sol\":4698:4899  function setAge ( uint256 _age )  public virtual override \r... */\n    tag_26:\n      tag_114\n      0x04\n      dup1\n      calldatasize\n      sub\n      dup2\n      add\n      swap1\n      tag_115\n      swap2\n      swap1\n      tag_93\n      jump\t// in\n    tag_115:\n      tag_116\n      jump\t// in\n    tag_114:\n      stop\n        /* \"contracts/SingleDigitalObject.sol\":3024:3250  function getSynchronization () public view virtual override \r... */\n    tag_27:\n      tag_117\n      tag_118\n      jump\t// in\n    tag_117:\n      mload(0x40)\n      tag_119\n      swap2\n      swap1\n      tag_45\n      jump\t// in\n    tag_119:\n      mload(0x40)\n      dup1\n      swap2\n      sub\n      swap1\n      return\n        /* \"security/Ownable.sol\":1541:1807  function transferOwnership( address newOwner ) public virtual \r... */\n    tag_28:\n      tag_120\n      0x04\n      dup1\n      calldatasize\n      sub\n      dup2\n      add\n      swap1\n      tag_121\n      swap2\n      swap1\n      tag_122\n      jump\t// in\n    tag_121:\n      tag_123\n      jump\t// in\n    tag_120:\n      stop\n        /* \"contracts/SingleDigitalObject.sol\":4911:5121  function setType ( typeT _typeOf ) public virtual override \r... */\n    tag_37:\n        /* \"security/Ownable.sol\":983:995  _msgSender() */\n      tag_125\n        /* \"security/Ownable.sol\":983:993  _msgSender */\n      tag_126\n        /* \"security/Ownable.sol\":983:995  _msgSender() */\n      jump\t// in\n    tag_125:\n        /* \"security/Ownable.sol\":972:995  owner() == _msgSender() */\n      0xffffffffffffffffffffffffffffffffffffffff\n      and\n        /* \"security/Ownable.sol\":972:979  owner() */\n      tag_127\n        /* \"security/Ownable.sol\":972:977  owner */\n      tag_86\n        /* \"security/Ownable.sol\":972:979  owner() */\n      jump\t// in\n    tag_127:\n        /* \"security/Ownable.sol\":972:995  owner() == _msgSender() */\n      0xffffffffffffffffffffffffffffffffffffffff\n      and\n      eq\n        /* \"security/Ownable.sol\":963:1033  require( owner() == _msgSender(), \"Ownable: caller is not the owner\" ) */\n      tag_128\n      jumpi\n      mload(0x40)\n      0x08c379a000000000000000000000000000000000000000000000000000000000\n      dup2\n      mstore\n      0x04\n      add\n      tag_129\n      swap1\n      tag_130\n      jump\t// in\n    tag_129:\n      mload(0x40)\n      dup1\n      swap2\n      sub\n      swap1\n      revert\n    tag_128:\n        /* \"security/Pausable.sol\":1151:1159  paused() */\n      tag_132\n        /* \"security/Pausable.sol\":1151:1157  paused */\n      tag_70\n        /* \"security/Pausable.sol\":1151:1159  paused() */\n      jump\t// in\n    tag_132:\n        /* \"security/Pausable.sol\":1150:1159  !paused() */\n      iszero\n        /* \"security/Pausable.sol\":1141:1181  require( !paused(), \"Pausable: paused\" ) */\n      tag_133\n      jumpi\n      mload(0x40)\n      0x08c379a000000000000000000000000000000000000000000000000000000000\n      dup2\n      mstore\n      0x04\n      add\n      tag_134\n      swap1\n      tag_135\n      jump\t// in\n    tag_134:\n      mload(0x40)\n      dup1\n      swap2\n      sub\n      swap1\n      revert\n    tag_133:\n        /* \"contracts/SingleDigitalObject.sol\":5106:5113  _typeOf */\n      dup1\n        /* \"contracts/SingleDigitalObject.sol\":5097:5103  typeOf */\n      0x08\n      0x00\n        /* \"contracts/SingleDigitalObject.sol\":5097:5113  typeOf = _typeOf */\n      0x0100\n      exp\n      dup2\n      sload\n      dup2\n      0xff\n      mul\n      not\n      and\n      swap1\n      dup4\n      0x02\n      dup2\n      gt\n      iszero\n      tag_137\n      jumpi\n      tag_138\n      tag_139\n      jump\t// in\n    tag_138:\n    tag_137:\n      mul\n      or\n      swap1\n      sstore\n      pop\n        /* \"contracts/SingleDigitalObject.sol\":4911:5121  function setType ( typeT _typeOf ) public virtual override \r... */\n      pop\n      jump\t// out\n        /* \"contracts/SingleDigitalObject.sol\":3672:3904  function getNumSynchronization () public view virtual override \r... */\n    tag_39:\n        /* \"contracts/SingleDigitalObject.sol\":3841:3848  uint256 */\n      0x00\n        /* \"security/Pausable.sol\":1151:1159  paused() */\n      tag_141\n        /* \"security/Pausable.sol\":1151:1157  paused */\n      tag_70\n        /* \"security/Pausable.sol\":1151:1159  paused() */\n      jump\t// in\n    tag_141:\n        /* \"security/Pausable.sol\":1150:1159  !paused() */\n      iszero\n        /* \"security/Pausable.sol\":1141:1181  require( !paused(), \"Pausable: paused\" ) */\n      tag_142\n      jumpi\n      mload(0x40)\n      0x08c379a000000000000000000000000000000000000000000000000000000000\n      dup2\n      mstore\n      0x04\n      add\n      tag_143\n      swap1\n      tag_135\n      jump\t// in\n    tag_143:\n      mload(0x40)\n      dup1\n      swap2\n      sub\n      swap1\n      revert\n    tag_142:\n        /* \"contracts/SingleDigitalObject.sol\":3874:3889  synchronization */\n      0x04\n        /* \"contracts/SingleDigitalObject.sol\":3874:3896  synchronization.length */\n      dup1\n      sload\n      swap1\n      pop\n        /* \"contracts/SingleDigitalObject.sol\":3867:3896  return synchronization.length */\n      swap1\n      pop\n        /* \"contracts/SingleDigitalObject.sol\":3672:3904  function getNumSynchronization () public view virtual override \r... */\n      swap1\n      jump\t// out\n        /* \"contracts/SingleDigitalObject.sol\":2822:3016  function getCompany () public view virtual override \r... */\n    tag_43:\n        /* \"contracts/SingleDigitalObject.sol\":2958:2974  address[] memory */\n      0x60\n        /* \"security/Pausable.sol\":1151:1159  paused() */\n      tag_146\n        /* \"security/Pausable.sol\":1151:1157  paused */\n      tag_70\n        /* \"security/Pausable.sol\":1151:1159  paused() */\n      jump\t// in\n    tag_146:\n        /* \"security/Pausable.sol\":1150:1159  !paused() */\n      iszero\n        /* \"security/Pausable.sol\":1141:1181  require( !paused(), \"Pausable: paused\" ) */\n      tag_147\n      jumpi\n      mload(0x40)\n      0x08c379a000000000000000000000000000000000000000000000000000000000\n      dup2\n      mstore\n      0x04\n      add\n      tag_148\n      swap1\n      tag_135\n      jump\t// in\n    tag_148:\n      mload(0x40)\n      dup1\n      swap2\n      sub\n      swap1\n      revert\n    tag_147:\n        /* \"contracts/SingleDigitalObject.sol\":3001:3008  company */\n      0x03\n        /* \"contracts/SingleDigitalObject.sol\":2994:3008  return company */\n      dup1\n      sload\n      dup1\n      0x20\n      mul\n      0x20\n      add\n      mload(0x40)\n      swap1\n      dup2\n      add\n      0x40\n      mstore\n      dup1\n      swap3\n      swap2\n      swap1\n      dup2\n      dup2\n      mstore\n      0x20\n      add\n      dup3\n      dup1\n      sload\n      dup1\n      iszero\n      tag_150\n      jumpi\n      0x20\n      mul\n      dup3\n      add\n      swap2\n      swap1\n      0x00\n      mstore\n      keccak256(0x00, 0x20)\n      swap1\n    tag_151:\n      dup2\n      0x00\n      swap1\n      sload\n      swap1\n      0x0100\n      exp\n      swap1\n      div\n      0xffffffffffffffffffffffffffffffffffffffff\n      and\n      0xffffffffffffffffffffffffffffffffffffffff\n      and\n      dup2\n      mstore\n      0x20\n      add\n      swap1\n      0x01\n      add\n      swap1\n      dup1\n      dup4\n      gt\n      tag_151\n      jumpi\n    tag_150:\n      pop\n      pop\n      pop\n      pop\n      pop\n      swap1\n      pop\n        /* \"contracts/SingleDigitalObject.sol\":2822:3016  function getCompany () public view virtual override \r... */\n      swap1\n      jump\t// out\n        /* \"contracts/SingleDigitalObject.sol\":2426:2615  function getIeee1599 () public view virtual override \r... */\n    tag_47:\n        /* \"contracts/SingleDigitalObject.sol\":2565:2572  address */\n      0x00\n        /* \"security/Pausable.sol\":1151:1159  paused() */\n      tag_153\n        /* \"security/Pausable.sol\":1151:1157  paused */\n      tag_70\n        /* \"security/Pausable.sol\":1151:1159  paused() */\n      jump\t// in\n    tag_153:\n        /* \"security/Pausable.sol\":1150:1159  !paused() */\n      iszero\n        /* \"security/Pausable.sol\":1141:1181  require( !paused(), \"Pausable: paused\" ) */\n      tag_154\n      jumpi\n      mload(0x40)\n      0x08c379a000000000000000000000000000000000000000000000000000000000\n      dup2\n      mstore\n      0x04\n      add\n      tag_155\n      swap1\n      tag_135\n      jump\t// in\n    tag_155:\n      mload(0x40)\n      dup1\n      swap2\n      sub\n      swap1\n      revert\n    tag_154:\n        /* \"contracts/SingleDigitalObject.sol\":2599:2607  ieee1599 */\n      0x01\n      0x00\n      swap1\n      sload\n      swap1\n      0x0100\n      exp\n      swap1\n      div\n      0xffffffffffffffffffffffffffffffffffffffff\n      and\n        /* \"contracts/SingleDigitalObject.sol\":2592:2607  return ieee1599 */\n      swap1\n      pop\n        /* \"contracts/SingleDigitalObject.sol\":2426:2615  function getIeee1599 () public view virtual override \r... */\n      swap1\n      jump\t// out\n        /* \"contracts/SingleDigitalObject.sol\":1688:1875  function getSymbol () public view virtual override \r... */\n    tag_51:\n        /* \"contracts/SingleDigitalObject.sol\":1821:1834  string memory */\n      0x60\n        /* \"security/Pausable.sol\":1151:1159  paused() */\n      tag_158\n        /* \"security/Pausable.sol\":1151:1157  paused */\n      tag_70\n        /* \"security/Pausable.sol\":1151:1159  paused() */\n      jump\t// in\n    tag_158:\n        /* \"security/Pausable.sol\":1150:1159  !paused() */\n      iszero\n        /* \"security/Pausable.sol\":1141:1181  require( !paused(), \"Pausable: paused\" ) */\n      tag_159\n      jumpi\n      mload(0x40)\n      0x08c379a000000000000000000000000000000000000000000000000000000000\n      dup2\n      mstore\n      0x04\n      add\n      tag_160\n      swap1\n      tag_135\n      jump\t// in\n    tag_160:\n      mload(0x40)\n      dup1\n      swap2\n      sub\n      swap1\n      revert\n    tag_159:\n        /* \"contracts/SingleDigitalObject.sol\":1861:1867  symbol */\n      0x06\n        /* \"contracts/SingleDigitalObject.sol\":1854:1867  return symbol */\n      dup1\n      sload\n      tag_162\n      swap1\n      tag_163\n      jump\t// in\n    tag_162:\n      dup1\n      0x1f\n      add\n      0x20\n      dup1\n      swap2\n      div\n      mul\n      0x20\n      add\n      mload(0x40)\n      swap1\n      dup2\n      add\n      0x40\n      mstore\n      dup1\n      swap3\n      swap2\n      swap1\n      dup2\n      dup2\n      mstore\n      0x20\n      add\n      dup3\n      dup1\n      sload\n      tag_164\n      swap1\n      tag_163\n      jump\t// in\n    tag_164:\n      dup1\n      iszero\n      tag_165\n      jumpi\n      dup1\n      0x1f\n      lt\n      tag_166\n      jumpi\n      0x0100\n      dup1\n      dup4\n      sload\n      div\n      mul\n      dup4\n      mstore\n      swap2\n      0x20\n      add\n      swap2\n      jump(tag_165)\n    tag_166:\n      dup3\n      add\n      swap2\n      swap1\n      0x00\n      mstore\n      keccak256(0x00, 0x20)\n      swap1\n    tag_167:\n      dup2\n      sload\n      dup2\n      mstore\n      swap1\n      0x01\n      add\n      swap1\n      0x20\n      add\n      dup1\n      dup4\n      gt\n      tag_167\n      jumpi\n      dup3\n      swap1\n      sub\n      0x1f\n      and\n      dup3\n      add\n      swap2\n    tag_165:\n      pop\n      pop\n      pop\n      pop\n      pop\n      swap1\n      pop\n        /* \"contracts/SingleDigitalObject.sol\":1688:1875  function getSymbol () public view virtual override \r... */\n      swap1\n      jump\t// out\n        /* \"contracts/SingleDigitalObject.sol\":2060:2233  function getType () public view virtual override \r... */\n    tag_55:\n        /* \"contracts/SingleDigitalObject.sol\":2187:2192  typeT */\n      0x00\n        /* \"security/Pausable.sol\":1151:1159  paused() */\n      tag_169\n        /* \"security/Pausable.sol\":1151:1157  paused */\n      tag_70\n        /* \"security/Pausable.sol\":1151:1159  paused() */\n      jump\t// in\n    tag_169:\n        /* \"security/Pausable.sol\":1150:1159  !paused() */\n      iszero\n        /* \"security/Pausable.sol\":1141:1181  require( !paused(), \"Pausable: paused\" ) */\n      tag_170\n      jumpi\n      mload(0x40)\n      0x08c379a000000000000000000000000000000000000000000000000000000000\n      dup2\n      mstore\n      0x04\n      add\n      tag_171\n      swap1\n      tag_135\n      jump\t// in\n    tag_171:\n      mload(0x40)\n      dup1\n      swap2\n      sub\n      swap1\n      revert\n    tag_170:\n        /* \"contracts/SingleDigitalObject.sol\":2219:2225  typeOf */\n      0x08\n      0x00\n      swap1\n      sload\n      swap1\n      0x0100\n      exp\n      swap1\n      div\n      0xff\n      and\n        /* \"contracts/SingleDigitalObject.sol\":2212:2225  return typeOf */\n      swap1\n      pop\n        /* \"contracts/SingleDigitalObject.sol\":2060:2233  function getType () public view virtual override \r... */\n      swap1\n      jump\t// out\n        /* \"contracts/SingleDigitalObject.sol\":1501:1680  function getName () public view virtual override \r... */\n    tag_59:\n        /* \"contracts/SingleDigitalObject.sol\":1628:1641  string memory */\n      0x60\n        /* \"security/Pausable.sol\":1151:1159  paused() */\n      tag_174\n        /* \"security/Pausable.sol\":1151:1157  paused */\n      tag_70\n        /* \"security/Pausable.sol\":1151:1159  paused() */\n      jump\t// in\n    tag_174:\n        /* \"security/Pausable.sol\":1150:1159  !paused() */\n      iszero\n        /* \"security/Pausable.sol\":1141:1181  require( !paused(), \"Pausable: paused\" ) */\n      tag_175\n      jumpi\n      mload(0x40)\n      0x08c379a000000000000000000000000000000000000000000000000000000000\n      dup2\n      mstore\n      0x04\n      add\n      tag_176\n      swap1\n      tag_135\n      jump\t// in\n    tag_176:\n      mload(0x40)\n      dup1\n      swap2\n      sub\n      swap1\n      revert\n    tag_175:\n        /* \"contracts/SingleDigitalObject.sol\":1668:1672  name */\n      0x05\n        /* \"contracts/SingleDigitalObject.sol\":1661:1672  return name */\n      dup1\n      sload\n      tag_178\n      swap1\n      tag_163\n      jump\t// in\n    tag_178:\n      dup1\n      0x1f\n      add\n      0x20\n      dup1\n      swap2\n      div\n      mul\n      0x20\n      add\n      mload(0x40)\n      swap1\n      dup2\n      add\n      0x40\n      mstore\n      dup1\n      swap3\n      swap2\n      swap1\n      dup2\n      dup2\n      mstore\n      0x20\n      add\n      dup3\n      dup1\n      sload\n      tag_179\n      swap1\n      tag_163\n      jump\t// in\n    tag_179:\n      dup1\n      iszero\n      tag_180\n      jumpi\n      dup1\n      0x1f\n      lt\n      tag_181\n      jumpi\n      0x0100\n      dup1\n      dup4\n      sload\n      div\n      mul\n      dup4\n      mstore\n      swap2\n      0x20\n      add\n      swap2\n      jump(tag_180)\n    tag_181:\n      dup3\n      add\n      swap2\n      swap1\n      0x00\n      mstore\n      keccak256(0x00, 0x20)\n      swap1\n    tag_182:\n      dup2\n      sload\n      dup2\n      mstore\n      swap1\n      0x01\n      add\n      swap1\n      0x20\n      add\n      dup1\n      dup4\n      gt\n      tag_182\n      jumpi\n      dup3\n      swap1\n      sub\n      0x1f\n      and\n      dup3\n      add\n      swap2\n    tag_180:\n      pop\n      pop\n      pop\n      pop\n      pop\n      swap1\n      pop\n        /* \"contracts/SingleDigitalObject.sol\":1501:1680  function getName () public view virtual override \r... */\n      swap1\n      jump\t// out\n        /* \"contracts/SingleDigitalObject.sol\":3912:4126  function getDistribution () public view virtual override \r... */\n    tag_62:\n        /* \"contracts/SingleDigitalObject.sol\":4063:4079  uint256[] memory */\n      0x60\n        /* \"security/Pausable.sol\":1151:1159  paused() */\n      tag_184\n        /* \"security/Pausable.sol\":1151:1157  paused */\n      tag_70\n        /* \"security/Pausable.sol\":1151:1159  paused() */\n      jump\t// in\n    tag_184:\n        /* \"security/Pausable.sol\":1150:1159  !paused() */\n      iszero\n        /* \"security/Pausable.sol\":1141:1181  require( !paused(), \"Pausable: paused\" ) */\n      tag_185\n      jumpi\n      mload(0x40)\n      0x08c379a000000000000000000000000000000000000000000000000000000000\n      dup2\n      mstore\n      0x04\n      add\n      tag_186\n      swap1\n      tag_135\n      jump\t// in\n    tag_186:\n      mload(0x40)\n      dup1\n      swap2\n      sub\n      swap1\n      revert\n    tag_185:\n        /* \"contracts/SingleDigitalObject.sol\":4106:4118  distribution */\n      0x0a\n        /* \"contracts/SingleDigitalObject.sol\":4099:4118  return distribution */\n      dup1\n      sload\n      dup1\n      0x20\n      mul\n      0x20\n      add\n      mload(0x40)\n      swap1\n      dup2\n      add\n      0x40\n      mstore\n      dup1\n      swap3\n      swap2\n      swap1\n      dup2\n      dup2\n      mstore\n      0x20\n      add\n      dup3\n      dup1\n      sload\n      dup1\n      iszero\n      tag_188\n      jumpi\n      0x20\n      mul\n      dup3\n      add\n      swap2\n      swap1\n      0x00\n      mstore\n      keccak256(0x00, 0x20)\n      swap1\n    tag_189:\n      dup2\n      sload\n      dup2\n      mstore\n      0x20\n      add\n      swap1\n      0x01\n      add\n      swap1\n      dup1\n      dup4\n      gt\n      tag_189\n      jumpi\n    tag_188:\n      pop\n      pop\n      pop\n      pop\n      pop\n      swap1\n      pop\n        /* \"contracts/SingleDigitalObject.sol\":3912:4126  function getDistribution () public view virtual override \r... */\n      swap1\n      jump\t// out\n        /* \"contracts/SingleDigitalObject.sol\":7037:7526  function setDistribution ( uint256[] memory _distribution ) public virtual override \r... */\n    tag_68:\n        /* \"security/Ownable.sol\":983:995  _msgSender() */\n      tag_191\n        /* \"security/Ownable.sol\":983:993  _msgSender */\n      tag_126\n        /* \"security/Ownable.sol\":983:995  _msgSender() */\n      jump\t// in\n    tag_191:\n        /* \"security/Ownable.sol\":972:995  owner() == _msgSender() */\n      0xffffffffffffffffffffffffffffffffffffffff\n      and\n        /* \"security/Ownable.sol\":972:979  owner() */\n      tag_192\n        /* \"security/Ownable.sol\":972:977  owner */\n      tag_86\n        /* \"security/Ownable.sol\":972:979  owner() */\n      jump\t// in\n    tag_192:\n        /* \"security/Ownable.sol\":972:995  owner() == _msgSender() */\n      0xffffffffffffffffffffffffffffffffffffffff\n      and\n      eq\n        /* \"security/Ownable.sol\":963:1033  require( owner() == _msgSender(), \"Ownable: caller is not the owner\" ) */\n      tag_193\n      jumpi\n      mload(0x40)\n      0x08c379a000000000000000000000000000000000000000000000000000000000\n      dup2\n      mstore\n      0x04\n      add\n      tag_194\n      swap1\n      tag_130\n      jump\t// in\n    tag_194:\n      mload(0x40)\n      dup1\n      swap2\n      sub\n      swap1\n      revert\n    tag_193:\n        /* \"security/Pausable.sol\":1151:1159  paused() */\n      tag_196\n        /* \"security/Pausable.sol\":1151:1157  paused */\n      tag_70\n        /* \"security/Pausable.sol\":1151:1159  paused() */\n      jump\t// in\n    tag_196:\n        /* \"security/Pausable.sol\":1150:1159  !paused() */\n      iszero\n        /* \"security/Pausable.sol\":1141:1181  require( !paused(), \"Pausable: paused\" ) */\n      tag_197\n      jumpi\n      mload(0x40)\n      0x08c379a000000000000000000000000000000000000000000000000000000000\n      dup2\n      mstore\n      0x04\n      add\n      tag_198\n      swap1\n      tag_135\n      jump\t// in\n    tag_198:\n      mload(0x40)\n      dup1\n      swap2\n      sub\n      swap1\n      revert\n    tag_197:\n        /* \"contracts/SingleDigitalObject.sol\":7368:7381  _distribution */\n      dup1\n        /* \"utils/array/Arrays_Interface.sol\":1938:1976  Arrays.uintGreaterThenZeroN ( _array ) */\n      tag_200\n        /* \"utils/array/Arrays_Interface.sol\":1968:1974  _array */\n      dup2\n        /* \"utils/array/Arrays_Interface.sol\":1938:1965  Arrays.uintGreaterThenZeroN */\n      tag_201\n        /* \"utils/array/Arrays_Interface.sol\":1938:1976  Arrays.uintGreaterThenZeroN ( _array ) */\n      jump\t// in\n    tag_200:\n        /* \"utils/array/Arrays_Interface.sol\":1929:1978  require( Arrays.uintGreaterThenZeroN ( _array ) ) */\n      tag_202\n      jumpi\n      0x00\n      dup1\n      revert\n    tag_202:\n        /* \"contracts/SingleDigitalObject.sol\":7406:7415  uint256 i */\n      0x00\n        /* \"contracts/SingleDigitalObject.sol\":7400:7519  for ( uint256 i = 0; i < _distribution.length; i++ )\r... */\n    tag_204:\n        /* \"contracts/SingleDigitalObject.sol\":7425:7438  _distribution */\n      dup3\n        /* \"contracts/SingleDigitalObject.sol\":7425:7445  _distribution.length */\n      mload\n        /* \"contracts/SingleDigitalObject.sol\":7421:7422  i */\n      dup2\n        /* \"contracts/SingleDigitalObject.sol\":7421:7445  i < _distribution.length */\n      lt\n        /* \"contracts/SingleDigitalObject.sol\":7400:7519  for ( uint256 i = 0; i < _distribution.length; i++ )\r... */\n      iszero\n      tag_205\n      jumpi\n        /* \"contracts/SingleDigitalObject.sol\":7492:7505  _distribution */\n      dup3\n        /* \"contracts/SingleDigitalObject.sol\":7506:7507  i */\n      dup2\n        /* \"contracts/SingleDigitalObject.sol\":7492:7508  _distribution[i] */\n      dup2\n      mload\n      dup2\n      lt\n      tag_207\n      jumpi\n      tag_208\n      tag_209\n      jump\t// in\n    tag_208:\n    tag_207:\n      0x20\n      mul\n      0x20\n      add\n      add\n      mload\n        /* \"contracts/SingleDigitalObject.sol\":7474:7486  distribution */\n      0x0a\n        /* \"contracts/SingleDigitalObject.sol\":7487:7488  i */\n      dup3\n        /* \"contracts/SingleDigitalObject.sol\":7474:7489  distribution[i] */\n      dup2\n      sload\n      dup2\n      lt\n      tag_210\n      jumpi\n      tag_211\n      tag_209\n      jump\t// in\n    tag_211:\n    tag_210:\n      swap1\n      0x00\n      mstore\n      keccak256(0x00, 0x20)\n      add\n        /* \"contracts/SingleDigitalObject.sol\":7474:7508  distribution[i] = _distribution[i] */\n      dup2\n      swap1\n      sstore\n      pop\n        /* \"contracts/SingleDigitalObject.sol\":7447:7450  i++ */\n      dup1\n      dup1\n      tag_213\n      swap1\n      tag_214\n      jump\t// in\n    tag_213:\n      swap2\n      pop\n      pop\n        /* \"contracts/SingleDigitalObject.sol\":7400:7519  for ( uint256 i = 0; i < _distribution.length; i++ )\r... */\n      jump(tag_204)\n    tag_205:\n      pop\n        /* \"security/Pausable.sol\":1192:1193  _ */\n      pop\n        /* \"contracts/SingleDigitalObject.sol\":7037:7526  function setDistribution ( uint256[] memory _distribution ) public virtual override \r... */\n      pop\n      jump\t// out\n        /* \"security/Pausable.sol\":788:904  function paused() public view virtual \r... */\n    tag_70:\n        /* \"security/Pausable.sol\":859:863  bool */\n      0x00\n        /* \"security/Pausable.sol\":889:896  _paused */\n      dup1\n      0x14\n      swap1\n      sload\n      swap1\n      0x0100\n      exp\n      swap1\n      div\n      0xff\n      and\n        /* \"security/Pausable.sol\":882:896  return _paused */\n      swap1\n      pop\n        /* \"security/Pausable.sol\":788:904  function paused() public view virtual \r... */\n      swap1\n      jump\t// out\n        /* \"contracts/SingleDigitalObject.sol\":3459:3660  function getNumCompany () public view virtual override \r... */\n    tag_74:\n        /* \"contracts/SingleDigitalObject.sol\":3604:3611  uint256 */\n      0x00\n        /* \"security/Pausable.sol\":1151:1159  paused() */\n      tag_217\n        /* \"security/Pausable.sol\":1151:1157  paused */\n      tag_70\n        /* \"security/Pausable.sol\":1151:1159  paused() */\n      jump\t// in\n    tag_217:\n        /* \"security/Pausable.sol\":1150:1159  !paused() */\n      iszero\n        /* \"security/Pausable.sol\":1141:1181  require( !paused(), \"Pausable: paused\" ) */\n      tag_218\n      jumpi\n      mload(0x40)\n      0x08c379a000000000000000000000000000000000000000000000000000000000\n      dup2\n      mstore\n      0x04\n      add\n      tag_219\n      swap1\n      tag_135\n      jump\t// in\n    tag_219:\n      mload(0x40)\n      dup1\n      swap2\n      sub\n      swap1\n      revert\n    tag_218:\n        /* \"contracts/SingleDigitalObject.sol\":3638:3645  company */\n      0x03\n        /* \"contracts/SingleDigitalObject.sol\":3638:3652  company.length */\n      dup1\n      sload\n      swap1\n      pop\n        /* \"contracts/SingleDigitalObject.sol\":3631:3652  return company.length */\n      swap1\n      pop\n        /* \"contracts/SingleDigitalObject.sol\":3459:3660  function getNumCompany () public view virtual override \r... */\n      swap1\n      jump\t// out\n        /* \"contracts/SingleDigitalObject.sol\":5360:5868  function setActor ( address[] memory _actor ) public virtual  override \r... */\n    tag_79:\n        /* \"security/Ownable.sol\":983:995  _msgSender() */\n      tag_222\n        /* \"security/Ownable.sol\":983:993  _msgSender */\n      tag_126\n        /* \"security/Ownable.sol\":983:995  _msgSender() */\n      jump\t// in\n    tag_222:\n        /* \"security/Ownable.sol\":972:995  owner() == _msgSender() */\n      0xffffffffffffffffffffffffffffffffffffffff\n      and\n        /* \"security/Ownable.sol\":972:979  owner() */\n      tag_223\n        /* \"security/Ownable.sol\":972:977  owner */\n      tag_86\n        /* \"security/Ownable.sol\":972:979  owner() */\n      jump\t// in\n    tag_223:\n        /* \"security/Ownable.sol\":972:995  owner() == _msgSender() */\n      0xffffffffffffffffffffffffffffffffffffffff\n      and\n      eq\n        /* \"security/Ownable.sol\":963:1033  require( owner() == _msgSender(), \"Ownable: caller is not the owner\" ) */\n      tag_224\n      jumpi\n      mload(0x40)\n      0x08c379a000000000000000000000000000000000000000000000000000000000\n      dup2\n      mstore\n      0x04\n      add\n      tag_225\n      swap1\n      tag_130\n      jump\t// in\n    tag_225:\n      mload(0x40)\n      dup1\n      swap2\n      sub\n      swap1\n      revert\n    tag_224:\n        /* \"security/Pausable.sol\":1151:1159  paused() */\n      tag_227\n        /* \"security/Pausable.sol\":1151:1157  paused */\n      tag_70\n        /* \"security/Pausable.sol\":1151:1159  paused() */\n      jump\t// in\n    tag_227:\n        /* \"security/Pausable.sol\":1150:1159  !paused() */\n      iszero\n        /* \"security/Pausable.sol\":1141:1181  require( !paused(), \"Pausable: paused\" ) */\n      tag_228\n      jumpi\n      mload(0x40)\n      0x08c379a000000000000000000000000000000000000000000000000000000000\n      dup2\n      mstore\n      0x04\n      add\n      tag_229\n      swap1\n      tag_135\n      jump\t// in\n    tag_229:\n      mload(0x40)\n      dup1\n      swap2\n      sub\n      swap1\n      revert\n    tag_228:\n        /* \"contracts/SingleDigitalObject.sol\":5639:5645  _actor */\n      dup1\n        /* \"utils/array/Arrays_Interface.sol\":854:895  Arrays.addressGreaterThenZeroN ( _array ) */\n      tag_231\n        /* \"utils/array/Arrays_Interface.sol\":887:893  _array */\n      dup2\n        /* \"utils/array/Arrays_Interface.sol\":854:884  Arrays.addressGreaterThenZeroN */\n      tag_232\n        /* \"utils/array/Arrays_Interface.sol\":854:895  Arrays.addressGreaterThenZeroN ( _array ) */\n      jump\t// in\n    tag_231:\n        /* \"utils/array/Arrays_Interface.sol\":845:897  require( Arrays.addressGreaterThenZeroN ( _array ) ) */\n      tag_233\n      jumpi\n      0x00\n      dup1\n      revert\n    tag_233:\n        /* \"contracts/SingleDigitalObject.sol\":5679:5688  uint256 i */\n      0x00\n        /* \"contracts/SingleDigitalObject.sol\":5674:5851  for (uint256 i = 0; i < _actor.length; i++)\r... */\n    tag_235:\n        /* \"contracts/SingleDigitalObject.sol\":5698:5704  _actor */\n      dup3\n        /* \"contracts/SingleDigitalObject.sol\":5698:5711  _actor.length */\n      mload\n        /* \"contracts/SingleDigitalObject.sol\":5694:5695  i */\n      dup2\n        /* \"contracts/SingleDigitalObject.sol\":5694:5711  i < _actor.length */\n      lt\n        /* \"contracts/SingleDigitalObject.sol\":5674:5851  for (uint256 i = 0; i < _actor.length; i++)\r... */\n      iszero\n      tag_236\n      jumpi\n        /* \"contracts/SingleDigitalObject.sol\":5753:5793  Arrays.elementSearch( actor, _actor[i] ) */\n      tag_238\n        /* \"contracts/SingleDigitalObject.sol\":5775:5780  actor */\n      0x02\n        /* \"contracts/SingleDigitalObject.sol\":5753:5793  Arrays.elementSearch( actor, _actor[i] ) */\n      dup1\n      sload\n      dup1\n      0x20\n      mul\n      0x20\n      add\n      mload(0x40)\n      swap1\n      dup2\n      add\n      0x40\n      mstore\n      dup1\n      swap3\n      swap2\n      swap1\n      dup2\n      dup2\n      mstore\n      0x20\n      add\n      dup3\n      dup1\n      sload\n      dup1\n      iszero\n      tag_239\n      jumpi\n      0x20\n      mul\n      dup3\n      add\n      swap2\n      swap1\n      0x00\n      mstore\n      keccak256(0x00, 0x20)\n      swap1\n    tag_240:\n      dup2\n      0x00\n      swap1\n      sload\n      swap1\n      0x0100\n      exp\n      swap1\n      div\n      0xffffffffffffffffffffffffffffffffffffffff\n      and\n      0xffffffffffffffffffffffffffffffffffffffff\n      and\n      dup2\n      mstore\n      0x20\n      add\n      swap1\n      0x01\n      add\n      swap1\n      dup1\n      dup4\n      gt\n      tag_240\n      jumpi\n    tag_239:\n      pop\n      pop\n      pop\n      pop\n      pop\n        /* \"contracts/SingleDigitalObject.sol\":5782:5788  _actor */\n      dup5\n        /* \"contracts/SingleDigitalObject.sol\":5789:5790  i */\n      dup4\n        /* \"contracts/SingleDigitalObject.sol\":5782:5791  _actor[i] */\n      dup2\n      mload\n      dup2\n      lt\n      tag_241\n      jumpi\n      tag_242\n      tag_209\n      jump\t// in\n    tag_242:\n    tag_241:\n      0x20\n      mul\n      0x20\n      add\n      add\n      mload\n        /* \"contracts/SingleDigitalObject.sol\":5753:5773  Arrays.elementSearch */\n      tag_243\n        /* \"contracts/SingleDigitalObject.sol\":5753:5793  Arrays.elementSearch( actor, _actor[i] ) */\n      jump\t// in\n    tag_238:\n        /* \"contracts/SingleDigitalObject.sol\":5750:5795  !( Arrays.elementSearch( actor, _actor[i] ) ) */\n      iszero\n        /* \"contracts/SingleDigitalObject.sol\":5742:5797  assert( !( Arrays.elementSearch( actor, _actor[i] ) ) ) */\n      tag_244\n      jumpi\n      tag_245\n      tag_246\n      jump\t// in\n    tag_245:\n    tag_244:\n        /* \"contracts/SingleDigitalObject.sol\":5812:5817  actor */\n      0x02\n        /* \"contracts/SingleDigitalObject.sol\":5825:5831  _actor */\n      dup4\n        /* \"contracts/SingleDigitalObject.sol\":5832:5833  i */\n      dup3\n        /* \"contracts/SingleDigitalObject.sol\":5825:5834  _actor[i] */\n      dup2\n      mload\n      dup2\n      lt\n      tag_247\n      jumpi\n      tag_248\n      tag_209\n      jump\t// in\n    tag_248:\n    tag_247:\n      0x20\n      mul\n      0x20\n      add\n      add\n      mload\n        /* \"contracts/SingleDigitalObject.sol\":5812:5835  actor.push(  _actor[i]) */\n      swap1\n      dup1\n      0x01\n      dup2\n      sload\n      add\n      dup1\n      dup3\n      sstore\n      dup1\n      swap2\n      pop\n      pop\n      0x01\n      swap1\n      sub\n      swap1\n      0x00\n      mstore\n      keccak256(0x00, 0x20)\n      add\n      0x00\n      swap1\n      swap2\n      swap1\n      swap2\n      swap1\n      swap2\n      0x0100\n      exp\n      dup2\n      sload\n      dup2\n      0xffffffffffffffffffffffffffffffffffffffff\n      mul\n      not\n      and\n      swap1\n      dup4\n      0xffffffffffffffffffffffffffffffffffffffff\n      and\n      mul\n      or\n      swap1\n      sstore\n      pop\n        /* \"contracts/SingleDigitalObject.sol\":5713:5716  i++ */\n      dup1\n      dup1\n      tag_250\n      swap1\n      tag_214\n      jump\t// in\n    tag_250:\n      swap2\n      pop\n      pop\n        /* \"contracts/SingleDigitalObject.sol\":5674:5851  for (uint256 i = 0; i < _actor.length; i++)\r... */\n      jump(tag_235)\n    tag_236:\n      pop\n        /* \"security/Pausable.sol\":1192:1193  _ */\n      pop\n        /* \"contracts/SingleDigitalObject.sol\":5360:5868  function setActor ( address[] memory _actor ) public virtual  override \r... */\n      pop\n      jump\t// out\n        /* \"contracts/SingleDigitalObject.sol\":5883:6391  function setCompany ( address[] memory _company ) public virtual override \r... */\n    tag_82:\n        /* \"security/Ownable.sol\":983:995  _msgSender() */\n      tag_252\n        /* \"security/Ownable.sol\":983:993  _msgSender */\n      tag_126\n        /* \"security/Ownable.sol\":983:995  _msgSender() */\n      jump\t// in\n    tag_252:\n        /* \"security/Ownable.sol\":972:995  owner() == _msgSender() */\n      0xffffffffffffffffffffffffffffffffffffffff\n      and\n        /* \"security/Ownable.sol\":972:979  owner() */\n      tag_253\n        /* \"security/Ownable.sol\":972:977  owner */\n      tag_86\n        /* \"security/Ownable.sol\":972:979  owner() */\n      jump\t// in\n    tag_253:\n        /* \"security/Ownable.sol\":972:995  owner() == _msgSender() */\n      0xffffffffffffffffffffffffffffffffffffffff\n      and\n      eq\n        /* \"security/Ownable.sol\":963:1033  require( owner() == _msgSender(), \"Ownable: caller is not the owner\" ) */\n      tag_254\n      jumpi\n      mload(0x40)\n      0x08c379a000000000000000000000000000000000000000000000000000000000\n      dup2\n      mstore\n      0x04\n      add\n      tag_255\n      swap1\n      tag_130\n      jump\t// in\n    tag_255:\n      mload(0x40)\n      dup1\n      swap2\n      sub\n      swap1\n      revert\n    tag_254:\n        /* \"security/Pausable.sol\":1151:1159  paused() */\n      tag_257\n        /* \"security/Pausable.sol\":1151:1157  paused */\n      tag_70\n        /* \"security/Pausable.sol\":1151:1159  paused() */\n      jump\t// in\n    tag_257:\n        /* \"security/Pausable.sol\":1150:1159  !paused() */\n      iszero\n        /* \"security/Pausable.sol\":1141:1181  require( !paused(), \"Pausable: paused\" ) */\n      tag_258\n      jumpi\n      mload(0x40)\n      0x08c379a000000000000000000000000000000000000000000000000000000000\n      dup2\n      mstore\n      0x04\n      add\n      tag_259\n      swap1\n      tag_135\n      jump\t// in\n    tag_259:\n      mload(0x40)\n      dup1\n      swap2\n      sub\n      swap1\n      revert\n    tag_258:\n        /* \"contracts/SingleDigitalObject.sol\":6177:6185  _company */\n      dup1\n        /* \"utils/array/Arrays_Interface.sol\":854:895  Arrays.addressGreaterThenZeroN ( _array ) */\n      tag_261\n        /* \"utils/array/Arrays_Interface.sol\":887:893  _array */\n      dup2\n        /* \"utils/array/Arrays_Interface.sol\":854:884  Arrays.addressGreaterThenZeroN */\n      tag_232\n        /* \"utils/array/Arrays_Interface.sol\":854:895  Arrays.addressGreaterThenZeroN ( _array ) */\n      jump\t// in\n    tag_261:\n        /* \"utils/array/Arrays_Interface.sol\":845:897  require( Arrays.addressGreaterThenZeroN ( _array ) ) */\n      tag_262\n      jumpi\n      0x00\n      dup1\n      revert\n    tag_262:\n        /* \"contracts/SingleDigitalObject.sol\":6208:6217  uint256 i */\n      0x00\n        /* \"contracts/SingleDigitalObject.sol\":6203:6384  for (uint256 i = 0; i < _company.length; i++)\r... */\n    tag_264:\n        /* \"contracts/SingleDigitalObject.sol\":6227:6235  _company */\n      dup3\n        /* \"contracts/SingleDigitalObject.sol\":6227:6242  _company.length */\n      mload\n        /* \"contracts/SingleDigitalObject.sol\":6223:6224  i */\n      dup2\n        /* \"contracts/SingleDigitalObject.sol\":6223:6242  i < _company.length */\n      lt\n        /* \"contracts/SingleDigitalObject.sol\":6203:6384  for (uint256 i = 0; i < _company.length; i++)\r... */\n      iszero\n      tag_265\n      jumpi\n        /* \"contracts/SingleDigitalObject.sol\":6283:6327  Arrays.elementSearch( company, _company[i] ) */\n      tag_267\n        /* \"contracts/SingleDigitalObject.sol\":6305:6312  company */\n      0x03\n        /* \"contracts/SingleDigitalObject.sol\":6283:6327  Arrays.elementSearch( company, _company[i] ) */\n      dup1\n      sload\n      dup1\n      0x20\n      mul\n      0x20\n      add\n      mload(0x40)\n      swap1\n      dup2\n      add\n      0x40\n      mstore\n      dup1\n      swap3\n      swap2\n      swap1\n      dup2\n      dup2\n      mstore\n      0x20\n      add\n      dup3\n      dup1\n      sload\n      dup1\n      iszero\n      tag_268\n      jumpi\n      0x20\n      mul\n      dup3\n      add\n      swap2\n      swap1\n      0x00\n      mstore\n      keccak256(0x00, 0x20)\n      swap1\n    tag_269:\n      dup2\n      0x00\n      swap1\n      sload\n      swap1\n      0x0100\n      exp\n      swap1\n      div\n      0xffffffffffffffffffffffffffffffffffffffff\n      and\n      0xffffffffffffffffffffffffffffffffffffffff\n      and\n      dup2\n      mstore\n      0x20\n      add\n      swap1\n      0x01\n      add\n      swap1\n      dup1\n      dup4\n      gt\n      tag_269\n      jumpi\n    tag_268:\n      pop\n      pop\n      pop\n      pop\n      pop\n        /* \"contracts/SingleDigitalObject.sol\":6314:6322  _company */\n      dup5\n        /* \"contracts/SingleDigitalObject.sol\":6323:6324  i */\n      dup4\n        /* \"contracts/SingleDigitalObject.sol\":6314:6325  _company[i] */\n      dup2\n      mload\n      dup2\n      lt\n      tag_270\n      jumpi\n      tag_271\n      tag_209\n      jump\t// in\n    tag_271:\n    tag_270:\n      0x20\n      mul\n      0x20\n      add\n      add\n      mload\n        /* \"contracts/SingleDigitalObject.sol\":6283:6303  Arrays.elementSearch */\n      tag_243\n        /* \"contracts/SingleDigitalObject.sol\":6283:6327  Arrays.elementSearch( company, _company[i] ) */\n      jump\t// in\n    tag_267:\n        /* \"contracts/SingleDigitalObject.sol\":6280:6329  !( Arrays.elementSearch( company, _company[i] ) ) */\n      iszero\n        /* \"contracts/SingleDigitalObject.sol\":6272:6331  assert( !( Arrays.elementSearch( company, _company[i] ) ) ) */\n      tag_272\n      jumpi\n      tag_273\n      tag_246\n      jump\t// in\n    tag_273:\n    tag_272:\n        /* \"contracts/SingleDigitalObject.sol\":6346:6353  company */\n      0x03\n        /* \"contracts/SingleDigitalObject.sol\":6360:6368  _company */\n      dup4\n        /* \"contracts/SingleDigitalObject.sol\":6369:6370  i */\n      dup3\n        /* \"contracts/SingleDigitalObject.sol\":6360:6371  _company[i] */\n      dup2\n      mload\n      dup2\n      lt\n      tag_274\n      jumpi\n      tag_275\n      tag_209\n      jump\t// in\n    tag_275:\n    tag_274:\n      0x20\n      mul\n      0x20\n      add\n      add\n      mload\n        /* \"contracts/SingleDigitalObject.sol\":6346:6373  company.push( _company[i] ) */\n      swap1\n      dup1\n      0x01\n      dup2\n      sload\n      add\n      dup1\n      dup3\n      sstore\n      dup1\n      swap2\n      pop\n      pop\n      0x01\n      swap1\n      sub\n      swap1\n      0x00\n      mstore\n      keccak256(0x00, 0x20)\n      add\n      0x00\n      swap1\n      swap2\n      swap1\n      swap2\n      swap1\n      swap2\n      0x0100\n      exp\n      dup2\n      sload\n      dup2\n      0xffffffffffffffffffffffffffffffffffffffff\n      mul\n      not\n      and\n      swap1\n      dup4\n      0xffffffffffffffffffffffffffffffffffffffff\n      and\n      mul\n      or\n      swap1\n      sstore\n      pop\n        /* \"contracts/SingleDigitalObject.sol\":6244:6247  i++ */\n      dup1\n      dup1\n      tag_277\n      swap1\n      tag_214\n      jump\t// in\n    tag_277:\n      swap2\n      pop\n      pop\n        /* \"contracts/SingleDigitalObject.sol\":6203:6384  for (uint256 i = 0; i < _company.length; i++)\r... */\n      jump(tag_264)\n    tag_265:\n      pop\n        /* \"security/Pausable.sol\":1192:1193  _ */\n      pop\n        /* \"contracts/SingleDigitalObject.sol\":5883:6391  function setCompany ( address[] memory _company ) public virtual override \r... */\n      pop\n      jump\t// out\n        /* \"security/Ownable.sol\":1239:1386  function renounceOwnership () public virtual\r... */\n    tag_84:\n        /* \"security/Ownable.sol\":983:995  _msgSender() */\n      tag_279\n        /* \"security/Ownable.sol\":983:993  _msgSender */\n      tag_126\n        /* \"security/Ownable.sol\":983:995  _msgSender() */\n      jump\t// in\n    tag_279:\n        /* \"security/Ownable.sol\":972:995  owner() == _msgSender() */\n      0xffffffffffffffffffffffffffffffffffffffff\n      and\n        /* \"security/Ownable.sol\":972:979  owner() */\n      tag_280\n        /* \"security/Ownable.sol\":972:977  owner */\n      tag_86\n        /* \"security/Ownable.sol\":972:979  owner() */\n      jump\t// in\n    tag_280:\n        /* \"security/Ownable.sol\":972:995  owner() == _msgSender() */\n      0xffffffffffffffffffffffffffffffffffffffff\n      and\n      eq\n        /* \"security/Ownable.sol\":963:1033  require( owner() == _msgSender(), \"Ownable: caller is not the owner\" ) */\n      tag_281\n      jumpi\n      mload(0x40)\n      0x08c379a000000000000000000000000000000000000000000000000000000000\n      dup2\n      mstore\n      0x04\n      add\n      tag_282\n      swap1\n      tag_130\n      jump\t// in\n    tag_282:\n      mload(0x40)\n      dup1\n      swap2\n      sub\n      swap1\n      revert\n    tag_281:\n        /* \"security/Ownable.sol\":1348:1378  _transferOwnership(address(0)) */\n      tag_284\n        /* \"security/Ownable.sol\":1375:1376  0 */\n      0x00\n        /* \"security/Ownable.sol\":1348:1366  _transferOwnership */\n      tag_285\n        /* \"security/Ownable.sol\":1348:1378  _transferOwnership(address(0)) */\n      jump\t// in\n    tag_284:\n        /* \"security/Ownable.sol\":1239:1386  function renounceOwnership () public virtual\r... */\n      jump\t// out\n        /* \"security/Ownable.sol\":711:831  function owner () public view virtual \r... */\n    tag_86:\n        /* \"security/Ownable.sol\":783:790  address */\n      0x00\n        /* \"security/Ownable.sol\":817:823  _owner */\n      dup1\n      0x00\n      swap1\n      sload\n      swap1\n      0x0100\n      exp\n      swap1\n      div\n      0xffffffffffffffffffffffffffffffffffffffff\n      and\n        /* \"security/Ownable.sol\":810:823  return _owner */\n      swap1\n      pop\n        /* \"security/Ownable.sol\":711:831  function owner () public view virtual \r... */\n      swap1\n      jump\t// out\n        /* \"contracts/SingleDigitalObject.sol\":3258:3451  function getNumActor () public view virtual override \r... */\n    tag_89:\n        /* \"contracts/SingleDigitalObject.sol\":3397:3404  uint256 */\n      0x00\n        /* \"security/Pausable.sol\":1151:1159  paused() */\n      tag_288\n        /* \"security/Pausable.sol\":1151:1157  paused */\n      tag_70\n        /* \"security/Pausable.sol\":1151:1159  paused() */\n      jump\t// in\n    tag_288:\n        /* \"security/Pausable.sol\":1150:1159  !paused() */\n      iszero\n        /* \"security/Pausable.sol\":1141:1181  require( !paused(), \"Pausable: paused\" ) */\n      tag_289\n      jumpi\n      mload(0x40)\n      0x08c379a000000000000000000000000000000000000000000000000000000000\n      dup2\n      mstore\n      0x04\n      add\n      tag_290\n      swap1\n      tag_135\n      jump\t// in\n    tag_290:\n      mload(0x40)\n      dup1\n      swap2\n      sub\n      swap1\n      revert\n    tag_289:\n        /* \"contracts/SingleDigitalObject.sol\":3431:3436  actor */\n      0x02\n        /* \"contracts/SingleDigitalObject.sol\":3431:3443  actor.length */\n      dup1\n      sload\n      swap1\n      pop\n        /* \"contracts/SingleDigitalObject.sol\":3424:3443  return actor.length */\n      swap1\n      pop\n        /* \"contracts/SingleDigitalObject.sol\":3258:3451  function getNumActor () public view virtual override \r... */\n      swap1\n      jump\t// out\n        /* \"contracts/SingleDigitalObject.sol\":5134:5348  function setPrice ( uint256 _price ) public virtual override \r... */\n    tag_94:\n        /* \"security/Ownable.sol\":983:995  _msgSender() */\n      tag_293\n        /* \"security/Ownable.sol\":983:993  _msgSender */\n      tag_126\n        /* \"security/Ownable.sol\":983:995  _msgSender() */\n      jump\t// in\n    tag_293:\n        /* \"security/Ownable.sol\":972:995  owner() == _msgSender() */\n      0xffffffffffffffffffffffffffffffffffffffff\n      and\n        /* \"security/Ownable.sol\":972:979  owner() */\n      tag_294\n        /* \"security/Ownable.sol\":972:977  owner */\n      tag_86\n        /* \"security/Ownable.sol\":972:979  owner() */\n      jump\t// in\n    tag_294:\n        /* \"security/Ownable.sol\":972:995  owner() == _msgSender() */\n      0xffffffffffffffffffffffffffffffffffffffff\n      and\n      eq\n        /* \"security/Ownable.sol\":963:1033  require( owner() == _msgSender(), \"Ownable: caller is not the owner\" ) */\n      tag_295\n      jumpi\n      mload(0x40)\n      0x08c379a000000000000000000000000000000000000000000000000000000000\n      dup2\n      mstore\n      0x04\n      add\n      tag_296\n      swap1\n      tag_130\n      jump\t// in\n    tag_296:\n      mload(0x40)\n      dup1\n      swap2\n      sub\n      swap1\n      revert\n    tag_295:\n        /* \"security/Pausable.sol\":1151:1159  paused() */\n      tag_298\n        /* \"security/Pausable.sol\":1151:1157  paused */\n      tag_70\n        /* \"security/Pausable.sol\":1151:1159  paused() */\n      jump\t// in\n    tag_298:\n        /* \"security/Pausable.sol\":1150:1159  !paused() */\n      iszero\n        /* \"security/Pausable.sol\":1141:1181  require( !paused(), \"Pausable: paused\" ) */\n      tag_299\n      jumpi\n      mload(0x40)\n      0x08c379a000000000000000000000000000000000000000000000000000000000\n      dup2\n      mstore\n      0x04\n      add\n      tag_300\n      swap1\n      tag_135\n      jump\t// in\n    tag_300:\n      mload(0x40)\n      dup1\n      swap2\n      sub\n      swap1\n      revert\n    tag_299:\n        /* \"contracts/SingleDigitalObject.sol\":5334:5340  _price */\n      dup1\n        /* \"contracts/SingleDigitalObject.sol\":5326:5331  price */\n      0x09\n        /* \"contracts/SingleDigitalObject.sol\":5326:5340  price = _price */\n      dup2\n      swap1\n      sstore\n      pop\n        /* \"contracts/SingleDigitalObject.sol\":5134:5348  function setPrice ( uint256 _price ) public virtual override \r... */\n      pop\n      jump\t// out\n        /* \"contracts/SingleDigitalObject.sol\":1883:2052  function getAge () public view virtual override \r... */\n    tag_96:\n        /* \"contracts/SingleDigitalObject.sol\":2007:2014  uint256 */\n      0x00\n        /* \"security/Pausable.sol\":1151:1159  paused() */\n      tag_303\n        /* \"security/Pausable.sol\":1151:1157  paused */\n      tag_70\n        /* \"security/Pausable.sol\":1151:1159  paused() */\n      jump\t// in\n    tag_303:\n        /* \"security/Pausable.sol\":1150:1159  !paused() */\n      iszero\n        /* \"security/Pausable.sol\":1141:1181  require( !paused(), \"Pausable: paused\" ) */\n      tag_304\n      jumpi\n      mload(0x40)\n      0x08c379a000000000000000000000000000000000000000000000000000000000\n      dup2\n      mstore\n      0x04\n      add\n      tag_305\n      swap1\n      tag_135\n      jump\t// in\n    tag_305:\n      mload(0x40)\n      dup1\n      swap2\n      sub\n      swap1\n      revert\n    tag_304:\n        /* \"contracts/SingleDigitalObject.sol\":2041:2044  age */\n      sload(0x07)\n        /* \"contracts/SingleDigitalObject.sol\":2034:2044  return age */\n      swap1\n      pop\n        /* \"contracts/SingleDigitalObject.sol\":1883:2052  function getAge () public view virtual override \r... */\n      swap1\n      jump\t// out\n        /* \"contracts/SingleDigitalObject.sol\":2241:2418  function getPrice () public view virtual override \r... */\n    tag_99:\n        /* \"contracts/SingleDigitalObject.sol\":2371:2378  uint256 */\n      0x00\n        /* \"security/Pausable.sol\":1151:1159  paused() */\n      tag_308\n        /* \"security/Pausable.sol\":1151:1157  paused */\n      tag_70\n        /* \"security/Pausable.sol\":1151:1159  paused() */\n      jump\t// in\n    tag_308:\n        /* \"security/Pausable.sol\":1150:1159  !paused() */\n      iszero\n        /* \"security/Pausable.sol\":1141:1181  require( !paused(), \"Pausable: paused\" ) */\n      tag_309\n      jumpi\n      mload(0x40)\n      0x08c379a000000000000000000000000000000000000000000000000000000000\n      dup2\n      mstore\n      0x04\n      add\n      tag_310\n      swap1\n      tag_135\n      jump\t// in\n    tag_310:\n      mload(0x40)\n      dup1\n      swap2\n      sub\n      swap1\n      revert\n    tag_309:\n        /* \"contracts/SingleDigitalObject.sol\":2405:2410  price */\n      sload(0x09)\n        /* \"contracts/SingleDigitalObject.sol\":2398:2410  return price */\n      swap1\n      pop\n        /* \"contracts/SingleDigitalObject.sol\":2241:2418  function getPrice () public view virtual override \r... */\n      swap1\n      jump\t// out\n        /* \"contracts/SingleDigitalObject.sol\":6403:7024  function setSynchronization ( address[] memory _synchronization ) public virtual override \r... */\n    tag_103:\n        /* \"security/Ownable.sol\":983:995  _msgSender() */\n      tag_313\n        /* \"security/Ownable.sol\":983:993  _msgSender */\n      tag_126\n        /* \"security/Ownable.sol\":983:995  _msgSender() */\n      jump\t// in\n    tag_313:\n        /* \"security/Ownable.sol\":972:995  owner() == _msgSender() */\n      0xffffffffffffffffffffffffffffffffffffffff\n      and\n        /* \"security/Ownable.sol\":972:979  owner() */\n      tag_314\n        /* \"security/Ownable.sol\":972:977  owner */\n      tag_86\n        /* \"security/Ownable.sol\":972:979  owner() */\n      jump\t// in\n    tag_314:\n        /* \"security/Ownable.sol\":972:995  owner() == _msgSender() */\n      0xffffffffffffffffffffffffffffffffffffffff\n      and\n      eq\n        /* \"security/Ownable.sol\":963:1033  require( owner() == _msgSender(), \"Ownable: caller is not the owner\" ) */\n      tag_315\n      jumpi\n      mload(0x40)\n      0x08c379a000000000000000000000000000000000000000000000000000000000\n      dup2\n      mstore\n      0x04\n      add\n      tag_316\n      swap1\n      tag_130\n      jump\t// in\n    tag_316:\n      mload(0x40)\n      dup1\n      swap2\n      sub\n      swap1\n      revert\n    tag_315:\n        /* \"security/Pausable.sol\":1151:1159  paused() */\n      tag_318\n        /* \"security/Pausable.sol\":1151:1157  paused */\n      tag_70\n        /* \"security/Pausable.sol\":1151:1159  paused() */\n      jump\t// in\n    tag_318:\n        /* \"security/Pausable.sol\":1150:1159  !paused() */\n      iszero\n        /* \"security/Pausable.sol\":1141:1181  require( !paused(), \"Pausable: paused\" ) */\n      tag_319\n      jumpi\n      mload(0x40)\n      0x08c379a000000000000000000000000000000000000000000000000000000000\n      dup2\n      mstore\n      0x04\n      add\n      tag_320\n      swap1\n      tag_135\n      jump\t// in\n    tag_320:\n      mload(0x40)\n      dup1\n      swap2\n      sub\n      swap1\n      revert\n    tag_319:\n        /* \"contracts/SingleDigitalObject.sol\":6761:6777  _synchronization */\n      dup1\n        /* \"utils/array/Arrays_Interface.sol\":854:895  Arrays.addressGreaterThenZeroN ( _array ) */\n      tag_322\n        /* \"utils/array/Arrays_Interface.sol\":887:893  _array */\n      dup2\n        /* \"utils/array/Arrays_Interface.sol\":854:884  Arrays.addressGreaterThenZeroN */\n      tag_232\n        /* \"utils/array/Arrays_Interface.sol\":854:895  Arrays.addressGreaterThenZeroN ( _array ) */\n      jump\t// in\n    tag_322:\n        /* \"utils/array/Arrays_Interface.sol\":845:897  require( Arrays.addressGreaterThenZeroN ( _array ) ) */\n      tag_323\n      jumpi\n      0x00\n      dup1\n      revert\n    tag_323:\n        /* \"contracts/SingleDigitalObject.sol\":6801:6810  uint256 i */\n      0x00\n        /* \"contracts/SingleDigitalObject.sol\":6796:7017  for (uint256 i = 0; i < _synchronization.length; i++)\r... */\n    tag_325:\n        /* \"contracts/SingleDigitalObject.sol\":6820:6836  _synchronization */\n      dup3\n        /* \"contracts/SingleDigitalObject.sol\":6820:6843  _synchronization.length */\n      mload\n        /* \"contracts/SingleDigitalObject.sol\":6816:6817  i */\n      dup2\n        /* \"contracts/SingleDigitalObject.sol\":6816:6843  i < _synchronization.length */\n      lt\n        /* \"contracts/SingleDigitalObject.sol\":6796:7017  for (uint256 i = 0; i < _synchronization.length; i++)\r... */\n      iszero\n      tag_326\n      jumpi\n        /* \"contracts/SingleDigitalObject.sol\":6885:6945  Arrays.elementSearch( synchronization, _synchronization[i] ) */\n      tag_328\n        /* \"contracts/SingleDigitalObject.sol\":6907:6922  synchronization */\n      0x04\n        /* \"contracts/SingleDigitalObject.sol\":6885:6945  Arrays.elementSearch( synchronization, _synchronization[i] ) */\n      dup1\n      sload\n      dup1\n      0x20\n      mul\n      0x20\n      add\n      mload(0x40)\n      swap1\n      dup2\n      add\n      0x40\n      mstore\n      dup1\n      swap3\n      swap2\n      swap1\n      dup2\n      dup2\n      mstore\n      0x20\n      add\n      dup3\n      dup1\n      sload\n      dup1\n      iszero\n      tag_329\n      jumpi\n      0x20\n      mul\n      dup3\n      add\n      swap2\n      swap1\n      0x00\n      mstore\n      keccak256(0x00, 0x20)\n      swap1\n    tag_330:\n      dup2\n      0x00\n      swap1\n      sload\n      swap1\n      0x0100\n      exp\n      swap1\n      div\n      0xffffffffffffffffffffffffffffffffffffffff\n      and\n      0xffffffffffffffffffffffffffffffffffffffff\n      and\n      dup2\n      mstore\n      0x20\n      add\n      swap1\n      0x01\n      add\n      swap1\n      dup1\n      dup4\n      gt\n      tag_330\n      jumpi\n    tag_329:\n      pop\n      pop\n      pop\n      pop\n      pop\n        /* \"contracts/SingleDigitalObject.sol\":6924:6940  _synchronization */\n      dup5\n        /* \"contracts/SingleDigitalObject.sol\":6941:6942  i */\n      dup4\n        /* \"contracts/SingleDigitalObject.sol\":6924:6943  _synchronization[i] */\n      dup2\n      mload\n      dup2\n      lt\n      tag_331\n      jumpi\n      tag_332\n      tag_209\n      jump\t// in\n    tag_332:\n    tag_331:\n      0x20\n      mul\n      0x20\n      add\n      add\n      mload\n        /* \"contracts/SingleDigitalObject.sol\":6885:6905  Arrays.elementSearch */\n      tag_243\n        /* \"contracts/SingleDigitalObject.sol\":6885:6945  Arrays.elementSearch( synchronization, _synchronization[i] ) */\n      jump\t// in\n    tag_328:\n        /* \"contracts/SingleDigitalObject.sol\":6882:6947  !( Arrays.elementSearch( synchronization, _synchronization[i] ) ) */\n      iszero\n        /* \"contracts/SingleDigitalObject.sol\":6874:6949  assert( !( Arrays.elementSearch( synchronization, _synchronization[i] ) ) ) */\n      tag_333\n      jumpi\n      tag_334\n      tag_246\n      jump\t// in\n    tag_334:\n    tag_333:\n        /* \"contracts/SingleDigitalObject.sol\":6964:6979  synchronization */\n      0x04\n        /* \"contracts/SingleDigitalObject.sol\":6985:7001  _synchronization */\n      dup4\n        /* \"contracts/SingleDigitalObject.sol\":7002:7003  i */\n      dup3\n        /* \"contracts/SingleDigitalObject.sol\":6985:7004  _synchronization[i] */\n      dup2\n      mload\n      dup2\n      lt\n      tag_335\n      jumpi\n      tag_336\n      tag_209\n      jump\t// in\n    tag_336:\n    tag_335:\n      0x20\n      mul\n      0x20\n      add\n      add\n      mload\n        /* \"contracts/SingleDigitalObject.sol\":6964:7005  synchronization.push(_synchronization[i]) */\n      swap1\n      dup1\n      0x01\n      dup2\n      sload\n      add\n      dup1\n      dup3\n      sstore\n      dup1\n      swap2\n      pop\n      pop\n      0x01\n      swap1\n      sub\n      swap1\n      0x00\n      mstore\n      keccak256(0x00, 0x20)\n      add\n      0x00\n      swap1\n      swap2\n      swap1\n      swap2\n      swap1\n      swap2\n      0x0100\n      exp\n      dup2\n      sload\n      dup2\n      0xffffffffffffffffffffffffffffffffffffffff\n      mul\n      not\n      and\n      swap1\n      dup4\n      0xffffffffffffffffffffffffffffffffffffffff\n      and\n      mul\n      or\n      swap1\n      sstore\n      pop\n        /* \"contracts/SingleDigitalObject.sol\":6845:6848  i++ */\n      dup1\n      dup1\n      tag_338\n      swap1\n      tag_214\n      jump\t// in\n    tag_338:\n      swap2\n      pop\n      pop\n        /* \"contracts/SingleDigitalObject.sol\":6796:7017  for (uint256 i = 0; i < _synchronization.length; i++)\r... */\n      jump(tag_325)\n    tag_326:\n      pop\n        /* \"security/Pausable.sol\":1192:1193  _ */\n      pop\n        /* \"contracts/SingleDigitalObject.sol\":6403:7024  function setSynchronization ( address[] memory _synchronization ) public virtual override \r... */\n      pop\n      jump\t// out\n        /* \"contracts/SingleDigitalObject.sol\":4447:4686  function setSymbol ( string memory _symbol ) public virtual override \r... */\n    tag_107:\n        /* \"security/Ownable.sol\":983:995  _msgSender() */\n      tag_340\n        /* \"security/Ownable.sol\":983:993  _msgSender */\n      tag_126\n        /* \"security/Ownable.sol\":983:995  _msgSender() */\n      jump\t// in\n    tag_340:\n        /* \"security/Ownable.sol\":972:995  owner() == _msgSender() */\n      0xffffffffffffffffffffffffffffffffffffffff\n      and\n        /* \"security/Ownable.sol\":972:979  owner() */\n      tag_341\n        /* \"security/Ownable.sol\":972:977  owner */\n      tag_86\n        /* \"security/Ownable.sol\":972:979  owner() */\n      jump\t// in\n    tag_341:\n        /* \"security/Ownable.sol\":972:995  owner() == _msgSender() */\n      0xffffffffffffffffffffffffffffffffffffffff\n      and\n      eq\n        /* \"security/Ownable.sol\":963:1033  require( owner() == _msgSender(), \"Ownable: caller is not the owner\" ) */\n      tag_342\n      jumpi\n      mload(0x40)\n      0x08c379a000000000000000000000000000000000000000000000000000000000\n      dup2\n      mstore\n      0x04\n      add\n      tag_343\n      swap1\n      tag_130\n      jump\t// in\n    tag_343:\n      mload(0x40)\n      dup1\n      swap2\n      sub\n      swap1\n      revert\n    tag_342:\n        /* \"security/Pausable.sol\":1151:1159  paused() */\n      tag_345\n        /* \"security/Pausable.sol\":1151:1157  paused */\n      tag_70\n        /* \"security/Pausable.sol\":1151:1159  paused() */\n      jump\t// in\n    tag_345:\n        /* \"security/Pausable.sol\":1150:1159  !paused() */\n      iszero\n        /* \"security/Pausable.sol\":1141:1181  require( !paused(), \"Pausable: paused\" ) */\n      tag_346\n      jumpi\n      mload(0x40)\n      0x08c379a000000000000000000000000000000000000000000000000000000000\n      dup2\n      mstore\n      0x04\n      add\n      tag_347\n      swap1\n      tag_135\n      jump\t// in\n    tag_347:\n      mload(0x40)\n      dup1\n      swap2\n      sub\n      swap1\n      revert\n    tag_346:\n        /* \"contracts/SingleDigitalObject.sol\":4671:4678  _symbol */\n      dup1\n        /* \"contracts/SingleDigitalObject.sol\":4662:4668  symbol */\n      0x06\n        /* \"contracts/SingleDigitalObject.sol\":4662:4678  symbol = _symbol */\n      swap1\n      dup1\n      mload\n      swap1\n      0x20\n      add\n      swap1\n      tag_349\n      swap3\n      swap2\n      swap1\n      tag_350\n      jump\t// in\n    tag_349:\n      pop\n        /* \"contracts/SingleDigitalObject.sol\":4447:4686  function setSymbol ( string memory _symbol ) public virtual override \r... */\n      pop\n      jump\t// out\n        /* \"contracts/SingleDigitalObject.sol\":2623:2810  function getActor () public view virtual override  \r... */\n    tag_109:\n        /* \"contracts/SingleDigitalObject.sol\":2754:2770  address[] memory */\n      0x60\n        /* \"security/Pausable.sol\":1151:1159  paused() */\n      tag_352\n        /* \"security/Pausable.sol\":1151:1157  paused */\n      tag_70\n        /* \"security/Pausable.sol\":1151:1159  paused() */\n      jump\t// in\n    tag_352:\n        /* \"security/Pausable.sol\":1150:1159  !paused() */\n      iszero\n        /* \"security/Pausable.sol\":1141:1181  require( !paused(), \"Pausable: paused\" ) */\n      tag_353\n      jumpi\n      mload(0x40)\n      0x08c379a000000000000000000000000000000000000000000000000000000000\n      dup2\n      mstore\n      0x04\n      add\n      tag_354\n      swap1\n      tag_135\n      jump\t// in\n    tag_354:\n      mload(0x40)\n      dup1\n      swap2\n      sub\n      swap1\n      revert\n    tag_353:\n        /* \"contracts/SingleDigitalObject.sol\":2797:2802  actor */\n      0x02\n        /* \"contracts/SingleDigitalObject.sol\":2790:2802  return actor */\n      dup1\n      sload\n      dup1\n      0x20\n      mul\n      0x20\n      add\n      mload(0x40)\n      swap1\n      dup2\n      add\n      0x40\n      mstore\n      dup1\n      swap3\n      swap2\n      swap1\n      dup2\n      dup2\n      mstore\n      0x20\n      add\n      dup3\n      dup1\n      sload\n      dup1\n      iszero\n      tag_356\n      jumpi\n      0x20\n      mul\n      dup3\n      add\n      swap2\n      swap1\n      0x00\n      mstore\n      keccak256(0x00, 0x20)\n      swap1\n    tag_357:\n      dup2\n      0x00\n      swap1\n      sload\n      swap1\n      0x0100\n      exp\n      swap1\n      div\n      0xffffffffffffffffffffffffffffffffffffffff\n      and\n      0xffffffffffffffffffffffffffffffffffffffff\n      and\n      dup2\n      mstore\n      0x20\n      add\n      swap1\n      0x01\n      add\n      swap1\n      dup1\n      dup4\n      gt\n      tag_357\n      jumpi\n    tag_356:\n      pop\n      pop\n      pop\n      pop\n      pop\n      swap1\n      pop\n        /* \"contracts/SingleDigitalObject.sol\":2623:2810  function getActor () public view virtual override  \r... */\n      swap1\n      jump\t// out\n        /* \"contracts/SingleDigitalObject.sol\":4212:4435  function setName ( string memory _name ) public virtual override \r... */\n    tag_113:\n        /* \"security/Ownable.sol\":983:995  _msgSender() */\n      tag_359\n        /* \"security/Ownable.sol\":983:993  _msgSender */\n      tag_126\n        /* \"security/Ownable.sol\":983:995  _msgSender() */\n      jump\t// in\n    tag_359:\n        /* \"security/Ownable.sol\":972:995  owner() == _msgSender() */\n      0xffffffffffffffffffffffffffffffffffffffff\n      and\n        /* \"security/Ownable.sol\":972:979  owner() */\n      tag_360\n        /* \"security/Ownable.sol\":972:977  owner */\n      tag_86\n        /* \"security/Ownable.sol\":972:979  owner() */\n      jump\t// in\n    tag_360:\n        /* \"security/Ownable.sol\":972:995  owner() == _msgSender() */\n      0xffffffffffffffffffffffffffffffffffffffff\n      and\n      eq\n        /* \"security/Ownable.sol\":963:1033  require( owner() == _msgSender(), \"Ownable: caller is not the owner\" ) */\n      tag_361\n      jumpi\n      mload(0x40)\n      0x08c379a000000000000000000000000000000000000000000000000000000000\n      dup2\n      mstore\n      0x04\n      add\n      tag_362\n      swap1\n      tag_130\n      jump\t// in\n    tag_362:\n      mload(0x40)\n      dup1\n      swap2\n      sub\n      swap1\n      revert\n    tag_361:\n        /* \"security/Pausable.sol\":1151:1159  paused() */\n      tag_364\n        /* \"security/Pausable.sol\":1151:1157  paused */\n      tag_70\n        /* \"security/Pausable.sol\":1151:1159  paused() */\n      jump\t// in\n    tag_364:\n        /* \"security/Pausable.sol\":1150:1159  !paused() */\n      iszero\n        /* \"security/Pausable.sol\":1141:1181  require( !paused(), \"Pausable: paused\" ) */\n      tag_365\n      jumpi\n      mload(0x40)\n      0x08c379a000000000000000000000000000000000000000000000000000000000\n      dup2\n      mstore\n      0x04\n      add\n      tag_366\n      swap1\n      tag_135\n      jump\t// in\n    tag_366:\n      mload(0x40)\n      dup1\n      swap2\n      sub\n      swap1\n      revert\n    tag_365:\n        /* \"contracts/SingleDigitalObject.sol\":4422:4427  _name */\n      dup1\n        /* \"contracts/SingleDigitalObject.sol\":4415:4419  name */\n      0x05\n        /* \"contracts/SingleDigitalObject.sol\":4415:4427  name = _name */\n      swap1\n      dup1\n      mload\n      swap1\n      0x20\n      add\n      swap1\n      tag_368\n      swap3\n      swap2\n      swap1\n      tag_350\n      jump\t// in\n    tag_368:\n      pop\n        /* \"contracts/SingleDigitalObject.sol\":4212:4435  function setName ( string memory _name ) public virtual override \r... */\n      pop\n      jump\t// out\n        /* \"contracts/SingleDigitalObject.sol\":4698:4899  function setAge ( uint256 _age )  public virtual override \r... */\n    tag_116:\n        /* \"security/Ownable.sol\":983:995  _msgSender() */\n      tag_370\n        /* \"security/Ownable.sol\":983:993  _msgSender */\n      tag_126\n        /* \"security/Ownable.sol\":983:995  _msgSender() */\n      jump\t// in\n    tag_370:\n        /* \"security/Ownable.sol\":972:995  owner() == _msgSender() */\n      0xffffffffffffffffffffffffffffffffffffffff\n      and\n        /* \"security/Ownable.sol\":972:979  owner() */\n      tag_371\n        /* \"security/Ownable.sol\":972:977  owner */\n      tag_86\n        /* \"security/Ownable.sol\":972:979  owner() */\n      jump\t// in\n    tag_371:\n        /* \"security/Ownable.sol\":972:995  owner() == _msgSender() */\n      0xffffffffffffffffffffffffffffffffffffffff\n      and\n      eq\n        /* \"security/Ownable.sol\":963:1033  require( owner() == _msgSender(), \"Ownable: caller is not the owner\" ) */\n      tag_372\n      jumpi\n      mload(0x40)\n      0x08c379a000000000000000000000000000000000000000000000000000000000\n      dup2\n      mstore\n      0x04\n      add\n      tag_373\n      swap1\n      tag_130\n      jump\t// in\n    tag_373:\n      mload(0x40)\n      dup1\n      swap2\n      sub\n      swap1\n      revert\n    tag_372:\n        /* \"security/Pausable.sol\":1151:1159  paused() */\n      tag_375\n        /* \"security/Pausable.sol\":1151:1157  paused */\n      tag_70\n        /* \"security/Pausable.sol\":1151:1159  paused() */\n      jump\t// in\n    tag_375:\n        /* \"security/Pausable.sol\":1150:1159  !paused() */\n      iszero\n        /* \"security/Pausable.sol\":1141:1181  require( !paused(), \"Pausable: paused\" ) */\n      tag_376\n      jumpi\n      mload(0x40)\n      0x08c379a000000000000000000000000000000000000000000000000000000000\n      dup2\n      mstore\n      0x04\n      add\n      tag_377\n      swap1\n      tag_135\n      jump\t// in\n    tag_377:\n      mload(0x40)\n      dup1\n      swap2\n      sub\n      swap1\n      revert\n    tag_376:\n        /* \"contracts/SingleDigitalObject.sol\":4887:4891  _age */\n      dup1\n        /* \"contracts/SingleDigitalObject.sol\":4881:4884  age */\n      0x07\n        /* \"contracts/SingleDigitalObject.sol\":4881:4891  age = _age */\n      dup2\n      swap1\n      sstore\n      pop\n        /* \"contracts/SingleDigitalObject.sol\":4698:4899  function setAge ( uint256 _age )  public virtual override \r... */\n      pop\n      jump\t// out\n        /* \"contracts/SingleDigitalObject.sol\":3024:3250  function getSynchronization () public view virtual override \r... */\n    tag_118:\n        /* \"contracts/SingleDigitalObject.sol\":3184:3200  address[] memory */\n      0x60\n        /* \"security/Pausable.sol\":1151:1159  paused() */\n      tag_380\n        /* \"security/Pausable.sol\":1151:1157  paused */\n      tag_70\n        /* \"security/Pausable.sol\":1151:1159  paused() */\n      jump\t// in\n    tag_380:\n        /* \"security/Pausable.sol\":1150:1159  !paused() */\n      iszero\n        /* \"security/Pausable.sol\":1141:1181  require( !paused(), \"Pausable: paused\" ) */\n      tag_381\n      jumpi\n      mload(0x40)\n      0x08c379a000000000000000000000000000000000000000000000000000000000\n      dup2\n      mstore\n      0x04\n      add\n      tag_382\n      swap1\n      tag_135\n      jump\t// in\n    tag_382:\n      mload(0x40)\n      dup1\n      swap2\n      sub\n      swap1\n      revert\n    tag_381:\n        /* \"contracts/SingleDigitalObject.sol\":3227:3242  synchronization */\n      0x04\n        /* \"contracts/SingleDigitalObject.sol\":3220:3242  return synchronization */\n      dup1\n      sload\n      dup1\n      0x20\n      mul\n      0x20\n      add\n      mload(0x40)\n      swap1\n      dup2\n      add\n      0x40\n      mstore\n      dup1\n      swap3\n      swap2\n      swap1\n      dup2\n      dup2\n      mstore\n      0x20\n      add\n      dup3\n      dup1\n      sload\n      dup1\n      iszero\n      tag_384\n      jumpi\n      0x20\n      mul\n      dup3\n      add\n      swap2\n      swap1\n      0x00\n      mstore\n      keccak256(0x00, 0x20)\n      swap1\n    tag_385:\n      dup2\n      0x00\n      swap1\n      sload\n      swap1\n      0x0100\n      exp\n      swap1\n      div\n      0xffffffffffffffffffffffffffffffffffffffff\n      and\n      0xffffffffffffffffffffffffffffffffffffffff\n      and\n      dup2\n      mstore\n      0x20\n      add\n      swap1\n      0x01\n      add\n      swap1\n      dup1\n      dup4\n      gt\n      tag_385\n      jumpi\n    tag_384:\n      pop\n      pop\n      pop\n      pop\n      pop\n      swap1\n      pop\n        /* \"contracts/SingleDigitalObject.sol\":3024:3250  function getSynchronization () public view virtual override \r... */\n      swap1\n      jump\t// out\n        /* \"security/Ownable.sol\":1541:1807  function transferOwnership( address newOwner ) public virtual \r... */\n    tag_123:\n        /* \"security/Ownable.sol\":983:995  _msgSender() */\n      tag_387\n        /* \"security/Ownable.sol\":983:993  _msgSender */\n      tag_126\n        /* \"security/Ownable.sol\":983:995  _msgSender() */\n      jump\t// in\n    tag_387:\n        /* \"security/Ownable.sol\":972:995  owner() == _msgSender() */\n      0xffffffffffffffffffffffffffffffffffffffff\n      and\n        /* \"security/Ownable.sol\":972:979  owner() */\n      tag_388\n        /* \"security/Ownable.sol\":972:977  owner */\n      tag_86\n        /* \"security/Ownable.sol\":972:979  owner() */\n      jump\t// in\n    tag_388:\n        /* \"security/Ownable.sol\":972:995  owner() == _msgSender() */\n      0xffffffffffffffffffffffffffffffffffffffff\n      and\n      eq\n        /* \"security/Ownable.sol\":963:1033  require( owner() == _msgSender(), \"Ownable: caller is not the owner\" ) */\n      tag_389\n      jumpi\n      mload(0x40)\n      0x08c379a000000000000000000000000000000000000000000000000000000000\n      dup2\n      mstore\n      0x04\n      add\n      tag_390\n      swap1\n      tag_130\n      jump\t// in\n    tag_390:\n      mload(0x40)\n      dup1\n      swap2\n      sub\n      swap1\n      revert\n    tag_389:\n        /* \"security/Ownable.sol\":1714:1715  0 */\n      0x00\n        /* \"security/Ownable.sol\":1694:1716  newOwner != address(0) */\n      0xffffffffffffffffffffffffffffffffffffffff\n      and\n        /* \"security/Ownable.sol\":1694:1702  newOwner */\n      dup2\n        /* \"security/Ownable.sol\":1694:1716  newOwner != address(0) */\n      0xffffffffffffffffffffffffffffffffffffffff\n      and\n      eq\n      iszero\n        /* \"security/Ownable.sol\":1685:1760  require( newOwner != address(0), \"Ownable: new owner is the zero address\" ) */\n      tag_392\n      jumpi\n      mload(0x40)\n      0x08c379a000000000000000000000000000000000000000000000000000000000\n      dup2\n      mstore\n      0x04\n      add\n      tag_393\n      swap1\n      tag_394\n      jump\t// in\n    tag_393:\n      mload(0x40)\n      dup1\n      swap2\n      sub\n      swap1\n      revert\n    tag_392:\n        /* \"security/Ownable.sol\":1771:1799  _transferOwnership(newOwner) */\n      tag_395\n        /* \"security/Ownable.sol\":1790:1798  newOwner */\n      dup2\n        /* \"security/Ownable.sol\":1771:1789  _transferOwnership */\n      tag_285\n        /* \"security/Ownable.sol\":1771:1799  _transferOwnership(newOwner) */\n      jump\t// in\n    tag_395:\n        /* \"security/Ownable.sol\":1541:1807  function transferOwnership( address newOwner ) public virtual \r... */\n      pop\n      jump\t// out\n        /* \"utils/Context.sol\":1711:1846  function _msgSender () internal view virtual \r... */\n    tag_126:\n        /* \"utils/Context.sol\":1794:1801  address */\n      0x00\n        /* \"utils/Context.sol\":1828:1838  msg.sender */\n      caller\n        /* \"utils/Context.sol\":1821:1838  return msg.sender */\n      swap1\n      pop\n        /* \"utils/Context.sol\":1711:1846  function _msgSender () internal view virtual \r... */\n      swap1\n      jump\t// out\n        /* \"utils/array/Arrays.sol\":4921:5204  function uintGreaterThenZeroN ( uint256[] memory _array ) internal pure \r... */\n    tag_201:\n        /* \"utils/array/Arrays.sol\":5162:5166  bool */\n      0x00\n        /* \"utils/array/Arrays.sol\":5079:5085  _array */\n      dup2\n        /* \"utils/array/Arrays.sol\":1773:1774  0 */\n      0x00\n        /* \"utils/array/Arrays.sol\":1757:1763  _array */\n      dup2\n        /* \"utils/array/Arrays.sol\":1757:1770  _array.length */\n      mload\n        /* \"utils/array/Arrays.sol\":1757:1774  _array.length > 0 */\n      gt\n        /* \"utils/array/Arrays.sol\":1748:1809  require( _array.length > 0, \"Array: contains zero elements\" ) */\n      tag_398\n      jumpi\n      mload(0x40)\n      0x08c379a000000000000000000000000000000000000000000000000000000000\n      dup2\n      mstore\n      0x04\n      add\n      tag_399\n      swap1\n      tag_400\n      jump\t// in\n    tag_399:\n      mload(0x40)\n      dup1\n      swap2\n      sub\n      swap1\n      revert\n    tag_398:\n        /* \"utils/array/Arrays.sol\":5192:5196  true */\n      0x01\n        /* \"utils/array/Arrays.sol\":5185:5196  return true */\n      swap2\n      pop\n        /* \"utils/array/Arrays.sol\":4921:5204  function uintGreaterThenZeroN ( uint256[] memory _array ) internal pure \r... */\n      pop\n      swap2\n      swap1\n      pop\n      jump\t// out\n        /* \"utils/array/Arrays.sol\":2618:2914  function addressGreaterThenZeroN ( address[] memory _array ) internal pure \r... */\n    tag_232:\n        /* \"utils/array/Arrays.sol\":2871:2875  bool */\n      0x00\n        /* \"utils/array/Arrays.sol\":2785:2791  _array */\n      dup2\n        /* \"utils/array/Arrays.sol\":657:658  0 */\n      0x00\n        /* \"utils/array/Arrays.sol\":641:647  _array */\n      dup2\n        /* \"utils/array/Arrays.sol\":641:654  _array.length */\n      mload\n        /* \"utils/array/Arrays.sol\":641:658  _array.length > 0 */\n      gt\n        /* \"utils/array/Arrays.sol\":632:693  require( _array.length > 0, \"Array: contains zero elements\" ) */\n      tag_403\n      jumpi\n      mload(0x40)\n      0x08c379a000000000000000000000000000000000000000000000000000000000\n      dup2\n      mstore\n      0x04\n      add\n      tag_404\n      swap1\n      tag_400\n      jump\t// in\n    tag_404:\n      mload(0x40)\n      dup1\n      swap2\n      sub\n      swap1\n      revert\n    tag_403:\n        /* \"utils/array/Arrays.sol\":2902:2906  true */\n      0x01\n        /* \"utils/array/Arrays.sol\":2895:2906  return true */\n      swap2\n      pop\n        /* \"utils/array/Arrays.sol\":2618:2914  function addressGreaterThenZeroN ( address[] memory _array ) internal pure \r... */\n      pop\n      swap2\n      swap1\n      pop\n      jump\t// out\n        /* \"utils/array/Arrays.sol\":5335:5653  function elementSearch ( address [] memory _array, address _address )  internal pure returns ( bool )\r... */\n    tag_243:\n        /* \"utils/array/Arrays.sol\":5430:5434  bool */\n      0x00\n        /* \"utils/array/Arrays.sol\":5459:5468  uint256 i */\n      dup1\n        /* \"utils/array/Arrays.sol\":5471:5472  0 */\n      0x00\n        /* \"utils/array/Arrays.sol\":5459:5472  uint256 i = 0 */\n      swap1\n      pop\n        /* \"utils/array/Arrays.sol\":5453:5621  for ( uint256 i = 0; i < _array.length; i++)\r... */\n    tag_407:\n        /* \"utils/array/Arrays.sol\":5478:5484  _array */\n      dup4\n        /* \"utils/array/Arrays.sol\":5478:5491  _array.length */\n      mload\n        /* \"utils/array/Arrays.sol\":5474:5475  i */\n      dup2\n        /* \"utils/array/Arrays.sol\":5474:5491  i < _array.length */\n      lt\n        /* \"utils/array/Arrays.sol\":5453:5621  for ( uint256 i = 0; i < _array.length; i++)\r... */\n      iszero\n      tag_408\n      jumpi\n        /* \"utils/array/Arrays.sol\":5540:5548  _address */\n      dup3\n        /* \"utils/array/Arrays.sol\":5527:5548  _array[i] == _address */\n      0xffffffffffffffffffffffffffffffffffffffff\n      and\n        /* \"utils/array/Arrays.sol\":5527:5533  _array */\n      dup5\n        /* \"utils/array/Arrays.sol\":5534:5535  i */\n      dup3\n        /* \"utils/array/Arrays.sol\":5527:5536  _array[i] */\n      dup2\n      mload\n      dup2\n      lt\n      tag_410\n      jumpi\n      tag_411\n      tag_209\n      jump\t// in\n    tag_411:\n    tag_410:\n      0x20\n      mul\n      0x20\n      add\n      add\n      mload\n        /* \"utils/array/Arrays.sol\":5527:5548  _array[i] == _address */\n      0xffffffffffffffffffffffffffffffffffffffff\n      and\n      eq\n        /* \"utils/array/Arrays.sol\":5522:5610  if ( _array[i] == _address )\r... */\n      iszero\n      tag_412\n      jumpi\n        /* \"utils/array/Arrays.sol\":5590:5594  true */\n      0x01\n        /* \"utils/array/Arrays.sol\":5583:5594  return true */\n      swap2\n      pop\n      pop\n      jump(tag_406)\n        /* \"utils/array/Arrays.sol\":5522:5610  if ( _array[i] == _address )\r... */\n    tag_412:\n        /* \"utils/array/Arrays.sol\":5493:5496  i++ */\n      dup1\n      dup1\n      tag_413\n      swap1\n      tag_214\n      jump\t// in\n    tag_413:\n      swap2\n      pop\n      pop\n        /* \"utils/array/Arrays.sol\":5453:5621  for ( uint256 i = 0; i < _array.length; i++)\r... */\n      jump(tag_407)\n    tag_408:\n      pop\n        /* \"utils/array/Arrays.sol\":5640:5645  false */\n      0x00\n        /* \"utils/array/Arrays.sol\":5633:5645  return false */\n      swap1\n      pop\n        /* \"utils/array/Arrays.sol\":5335:5653  function elementSearch ( address [] memory _array, address _address )  internal pure returns ( bool )\r... */\n    tag_406:\n      swap3\n      swap2\n      pop\n      pop\n      jump\t// out\n        /* \"security/Ownable.sol\":1967:2166  function _transferOwnership( address newOwner ) internal virtual \r... */\n    tag_285:\n        /* \"security/Ownable.sol\":2049:2065  address oldOwner */\n      0x00\n        /* \"security/Ownable.sol\":2068:2074  _owner */\n      dup1\n      0x00\n      swap1\n      sload\n      swap1\n      0x0100\n      exp\n      swap1\n      div\n      0xffffffffffffffffffffffffffffffffffffffff\n      and\n        /* \"security/Ownable.sol\":2049:2074  address oldOwner = _owner */\n      swap1\n      pop\n        /* \"security/Ownable.sol\":2094:2102  newOwner */\n      dup2\n        /* \"security/Ownable.sol\":2085:2091  _owner */\n      0x00\n      dup1\n        /* \"security/Ownable.sol\":2085:2102  _owner = newOwner */\n      0x0100\n      exp\n      dup2\n      sload\n      dup2\n      0xffffffffffffffffffffffffffffffffffffffff\n      mul\n      not\n      and\n      swap1\n      dup4\n      0xffffffffffffffffffffffffffffffffffffffff\n      and\n      mul\n      or\n      swap1\n      sstore\n      pop\n        /* \"security/Ownable.sol\":2149:2157  newOwner */\n      dup2\n        /* \"security/Ownable.sol\":2118:2158  OwnershipTransferred(oldOwner, newOwner) */\n      0xffffffffffffffffffffffffffffffffffffffff\n      and\n        /* \"security/Ownable.sol\":2139:2147  oldOwner */\n      dup2\n        /* \"security/Ownable.sol\":2118:2158  OwnershipTransferred(oldOwner, newOwner) */\n      0xffffffffffffffffffffffffffffffffffffffff\n      and\n      0x8be0079c531659141344cd1fd0a4f28419497f9722a3daafe3b4186f6b6457e0\n      mload(0x40)\n      mload(0x40)\n      dup1\n      swap2\n      sub\n      swap1\n      log3\n        /* \"security/Ownable.sol\":2038:2166  {\r... */\n      pop\n        /* \"security/Ownable.sol\":1967:2166  function _transferOwnership( address newOwner ) internal virtual \r... */\n      pop\n      jump\t// out\n    tag_350:\n      dup3\n      dup1\n      sload\n      tag_415\n      swap1\n      tag_163\n      jump\t// in\n    tag_415:\n      swap1\n      0x00\n      mstore\n      keccak256(0x00, 0x20)\n      swap1\n      0x1f\n      add\n      0x20\n      swap1\n      div\n      dup2\n      add\n      swap3\n      dup3\n      tag_417\n      jumpi\n      0x00\n      dup6\n      sstore\n      jump(tag_416)\n    tag_417:\n      dup3\n      0x1f\n      lt\n      tag_418\n      jumpi\n      dup1\n      mload\n      not(0xff)\n      and\n      dup4\n      dup1\n      add\n      or\n      dup6\n      sstore\n      jump(tag_416)\n    tag_418:\n      dup3\n      dup1\n      add\n      0x01\n      add\n      dup6\n      sstore\n      dup3\n      iszero\n      tag_416\n      jumpi\n      swap2\n      dup3\n      add\n    tag_419:\n      dup3\n      dup2\n      gt\n      iszero\n      tag_420\n      jumpi\n      dup3\n      mload\n      dup3\n      sstore\n      swap2\n      0x20\n      add\n      swap2\n      swap1\n      0x01\n      add\n      swap1\n      jump(tag_419)\n    tag_420:\n    tag_416:\n      pop\n      swap1\n      pop\n      tag_421\n      swap2\n      swap1\n      tag_422\n      jump\t// in\n    tag_421:\n      pop\n      swap1\n      jump\t// out\n    tag_422:\n    tag_423:\n      dup1\n      dup3\n      gt\n      iszero\n      tag_424\n      jumpi\n      0x00\n      dup2\n      0x00\n      swap1\n      sstore\n      pop\n      0x01\n      add\n      jump(tag_423)\n    tag_424:\n      pop\n      swap1\n      jump\t// out\n        /* \"#utility.yul\":24:746   */\n    tag_426:\n        /* \"#utility.yul\":120:125   */\n      0x00\n        /* \"#utility.yul\":145:226   */\n      tag_428\n        /* \"#utility.yul\":161:225   */\n      tag_429\n        /* \"#utility.yul\":218:224   */\n      dup5\n        /* \"#utility.yul\":161:225   */\n      tag_430\n      jump\t// in\n    tag_429:\n        /* \"#utility.yul\":145:226   */\n      tag_431\n      jump\t// in\n    tag_428:\n        /* \"#utility.yul\":136:226   */\n      swap1\n      pop\n        /* \"#utility.yul\":246:251   */\n      dup1\n        /* \"#utility.yul\":275:281   */\n      dup4\n        /* \"#utility.yul\":268:273   */\n      dup3\n        /* \"#utility.yul\":261:282   */\n      mstore\n        /* \"#utility.yul\":309:313   */\n      0x20\n        /* \"#utility.yul\":302:307   */\n      dup3\n        /* \"#utility.yul\":298:314   */\n      add\n        /* \"#utility.yul\":291:314   */\n      swap1\n      pop\n        /* \"#utility.yul\":335:341   */\n      dup3\n        /* \"#utility.yul\":385:388   */\n      dup6\n        /* \"#utility.yul\":377:381   */\n      0x20\n        /* \"#utility.yul\":369:375   */\n      dup7\n        /* \"#utility.yul\":365:382   */\n      mul\n        /* \"#utility.yul\":360:363   */\n      dup3\n        /* \"#utility.yul\":356:383   */\n      add\n        /* \"#utility.yul\":353:389   */\n      gt\n        /* \"#utility.yul\":350:493   */\n      iszero\n      tag_432\n      jumpi\n        /* \"#utility.yul\":404:483   */\n      tag_433\n      tag_434\n      jump\t// in\n    tag_433:\n        /* \"#utility.yul\":350:493   */\n    tag_432:\n        /* \"#utility.yul\":517:518   */\n      0x00\n        /* \"#utility.yul\":502:740   */\n    tag_435:\n        /* \"#utility.yul\":527:533   */\n      dup6\n        /* \"#utility.yul\":524:525   */\n      dup2\n        /* \"#utility.yul\":521:534   */\n      lt\n        /* \"#utility.yul\":502:740   */\n      iszero\n      tag_437\n      jumpi\n        /* \"#utility.yul\":595:598   */\n      dup2\n        /* \"#utility.yul\":624:661   */\n      tag_438\n        /* \"#utility.yul\":657:660   */\n      dup9\n        /* \"#utility.yul\":645:655   */\n      dup3\n        /* \"#utility.yul\":624:661   */\n      tag_439\n      jump\t// in\n    tag_438:\n        /* \"#utility.yul\":619:622   */\n      dup5\n        /* \"#utility.yul\":612:662   */\n      mstore\n        /* \"#utility.yul\":691:695   */\n      0x20\n        /* \"#utility.yul\":686:689   */\n      dup5\n        /* \"#utility.yul\":682:696   */\n      add\n        /* \"#utility.yul\":675:696   */\n      swap4\n      pop\n        /* \"#utility.yul\":725:729   */\n      0x20\n        /* \"#utility.yul\":720:723   */\n      dup4\n        /* \"#utility.yul\":716:730   */\n      add\n        /* \"#utility.yul\":709:730   */\n      swap3\n      pop\n        /* \"#utility.yul\":562:740   */\n      pop\n        /* \"#utility.yul\":549:550   */\n      0x01\n        /* \"#utility.yul\":546:547   */\n      dup2\n        /* \"#utility.yul\":542:551   */\n      add\n        /* \"#utility.yul\":537:551   */\n      swap1\n      pop\n        /* \"#utility.yul\":502:740   */\n      jump(tag_435)\n    tag_437:\n        /* \"#utility.yul\":506:520   */\n      pop\n        /* \"#utility.yul\":126:746   */\n      pop\n      pop\n        /* \"#utility.yul\":24:746   */\n      swap4\n      swap3\n      pop\n      pop\n      pop\n      jump\t// out\n        /* \"#utility.yul\":769:1491   */\n    tag_440:\n        /* \"#utility.yul\":865:870   */\n      0x00\n        /* \"#utility.yul\":890:971   */\n      tag_442\n        /* \"#utility.yul\":906:970   */\n      tag_443\n        /* \"#utility.yul\":963:969   */\n      dup5\n        /* \"#utility.yul\":906:970   */\n      tag_444\n      jump\t// in\n    tag_443:\n        /* \"#utility.yul\":890:971   */\n      tag_431\n      jump\t// in\n    tag_442:\n        /* \"#utility.yul\":881:971   */\n      swap1\n      pop\n        /* \"#utility.yul\":991:996   */\n      dup1\n        /* \"#utility.yul\":1020:1026   */\n      dup4\n        /* \"#utility.yul\":1013:1018   */\n      dup3\n        /* \"#utility.yul\":1006:1027   */\n      mstore\n        /* \"#utility.yul\":1054:1058   */\n      0x20\n        /* \"#utility.yul\":1047:1052   */\n      dup3\n        /* \"#utility.yul\":1043:1059   */\n      add\n        /* \"#utility.yul\":1036:1059   */\n      swap1\n      pop\n        /* \"#utility.yul\":1080:1086   */\n      dup3\n        /* \"#utility.yul\":1130:1133   */\n      dup6\n        /* \"#utility.yul\":1122:1126   */\n      0x20\n        /* \"#utility.yul\":1114:1120   */\n      dup7\n        /* \"#utility.yul\":1110:1127   */\n      mul\n        /* \"#utility.yul\":1105:1108   */\n      dup3\n        /* \"#utility.yul\":1101:1128   */\n      add\n        /* \"#utility.yul\":1098:1134   */\n      gt\n        /* \"#utility.yul\":1095:1238   */\n      iszero\n      tag_445\n      jumpi\n        /* \"#utility.yul\":1149:1228   */\n      tag_446\n      tag_434\n      jump\t// in\n    tag_446:\n        /* \"#utility.yul\":1095:1238   */\n    tag_445:\n        /* \"#utility.yul\":1262:1263   */\n      0x00\n        /* \"#utility.yul\":1247:1485   */\n    tag_447:\n        /* \"#utility.yul\":1272:1278   */\n      dup6\n        /* \"#utility.yul\":1269:1270   */\n      dup2\n        /* \"#utility.yul\":1266:1279   */\n      lt\n        /* \"#utility.yul\":1247:1485   */\n      iszero\n      tag_449\n      jumpi\n        /* \"#utility.yul\":1340:1343   */\n      dup2\n        /* \"#utility.yul\":1369:1406   */\n      tag_450\n        /* \"#utility.yul\":1402:1405   */\n      dup9\n        /* \"#utility.yul\":1390:1400   */\n      dup3\n        /* \"#utility.yul\":1369:1406   */\n      tag_451\n      jump\t// in\n    tag_450:\n        /* \"#utility.yul\":1364:1367   */\n      dup5\n        /* \"#utility.yul\":1357:1407   */\n      mstore\n        /* \"#utility.yul\":1436:1440   */\n      0x20\n        /* \"#utility.yul\":1431:1434   */\n      dup5\n        /* \"#utility.yul\":1427:1441   */\n      add\n        /* \"#utility.yul\":1420:1441   */\n      swap4\n      pop\n        /* \"#utility.yul\":1470:1474   */\n      0x20\n        /* \"#utility.yul\":1465:1468   */\n      dup4\n        /* \"#utility.yul\":1461:1475   */\n      add\n        /* \"#utility.yul\":1454:1475   */\n      swap3\n      pop\n        /* \"#utility.yul\":1307:1485   */\n      pop\n        /* \"#utility.yul\":1294:1295   */\n      0x01\n        /* \"#utility.yul\":1291:1292   */\n      dup2\n        /* \"#utility.yul\":1287:1296   */\n      add\n        /* \"#utility.yul\":1282:1296   */\n      swap1\n      pop\n        /* \"#utility.yul\":1247:1485   */\n      jump(tag_447)\n    tag_449:\n        /* \"#utility.yul\":1251:1265   */\n      pop\n        /* \"#utility.yul\":871:1491   */\n      pop\n      pop\n        /* \"#utility.yul\":769:1491   */\n      swap4\n      swap3\n      pop\n      pop\n      pop\n      jump\t// out\n        /* \"#utility.yul\":1497:1909   */\n    tag_452:\n        /* \"#utility.yul\":1575:1580   */\n      0x00\n        /* \"#utility.yul\":1600:1666   */\n      tag_454\n        /* \"#utility.yul\":1616:1665   */\n      tag_455\n        /* \"#utility.yul\":1658:1664   */\n      dup5\n        /* \"#utility.yul\":1616:1665   */\n      tag_456\n      jump\t// in\n    tag_455:\n        /* \"#utility.yul\":1600:1666   */\n      tag_431\n      jump\t// in\n    tag_454:\n        /* \"#utility.yul\":1591:1666   */\n      swap1\n      pop\n        /* \"#utility.yul\":1689:1695   */\n      dup3\n        /* \"#utility.yul\":1682:1687   */\n      dup2\n        /* \"#utility.yul\":1675:1696   */\n      mstore\n        /* \"#utility.yul\":1727:1731   */\n      0x20\n        /* \"#utility.yul\":1720:1725   */\n      dup2\n        /* \"#utility.yul\":1716:1732   */\n      add\n        /* \"#utility.yul\":1765:1768   */\n      dup5\n        /* \"#utility.yul\":1756:1762   */\n      dup5\n        /* \"#utility.yul\":1751:1754   */\n      dup5\n        /* \"#utility.yul\":1747:1763   */\n      add\n        /* \"#utility.yul\":1744:1769   */\n      gt\n        /* \"#utility.yul\":1741:1853   */\n      iszero\n      tag_457\n      jumpi\n        /* \"#utility.yul\":1772:1851   */\n      tag_458\n      tag_459\n      jump\t// in\n    tag_458:\n        /* \"#utility.yul\":1741:1853   */\n    tag_457:\n        /* \"#utility.yul\":1862:1903   */\n      tag_460\n        /* \"#utility.yul\":1896:1902   */\n      dup5\n        /* \"#utility.yul\":1891:1894   */\n      dup3\n        /* \"#utility.yul\":1886:1889   */\n      dup6\n        /* \"#utility.yul\":1862:1903   */\n      tag_461\n      jump\t// in\n    tag_460:\n        /* \"#utility.yul\":1581:1909   */\n      pop\n        /* \"#utility.yul\":1497:1909   */\n      swap4\n      swap3\n      pop\n      pop\n      pop\n      jump\t// out\n        /* \"#utility.yul\":1915:2054   */\n    tag_439:\n        /* \"#utility.yul\":1961:1966   */\n      0x00\n        /* \"#utility.yul\":1999:2005   */\n      dup2\n        /* \"#utility.yul\":1986:2006   */\n      calldataload\n        /* \"#utility.yul\":1977:2006   */\n      swap1\n      pop\n        /* \"#utility.yul\":2015:2048   */\n      tag_463\n        /* \"#utility.yul\":2042:2047   */\n      dup2\n        /* \"#utility.yul\":2015:2048   */\n      tag_464\n      jump\t// in\n    tag_463:\n        /* \"#utility.yul\":1915:2054   */\n      swap3\n      swap2\n      pop\n      pop\n      jump\t// out\n        /* \"#utility.yul\":2077:2447   */\n    tag_465:\n        /* \"#utility.yul\":2148:2153   */\n      0x00\n        /* \"#utility.yul\":2197:2200   */\n      dup3\n        /* \"#utility.yul\":2190:2194   */\n      0x1f\n        /* \"#utility.yul\":2182:2188   */\n      dup4\n        /* \"#utility.yul\":2178:2195   */\n      add\n        /* \"#utility.yul\":2174:2201   */\n      slt\n        /* \"#utility.yul\":2164:2286   */\n      tag_467\n      jumpi\n        /* \"#utility.yul\":2205:2284   */\n      tag_468\n      tag_469\n      jump\t// in\n    tag_468:\n        /* \"#utility.yul\":2164:2286   */\n    tag_467:\n        /* \"#utility.yul\":2322:2328   */\n      dup2\n        /* \"#utility.yul\":2309:2329   */\n      calldataload\n        /* \"#utility.yul\":2347:2441   */\n      tag_470\n        /* \"#utility.yul\":2437:2440   */\n      dup5\n        /* \"#utility.yul\":2429:2435   */\n      dup3\n        /* \"#utility.yul\":2422:2426   */\n      0x20\n        /* \"#utility.yul\":2414:2420   */\n      dup7\n        /* \"#utility.yul\":2410:2427   */\n      add\n        /* \"#utility.yul\":2347:2441   */\n      tag_426\n      jump\t// in\n    tag_470:\n        /* \"#utility.yul\":2338:2441   */\n      swap2\n      pop\n        /* \"#utility.yul\":2154:2447   */\n      pop\n        /* \"#utility.yul\":2077:2447   */\n      swap3\n      swap2\n      pop\n      pop\n      jump\t// out\n        /* \"#utility.yul\":2470:2840   */\n    tag_471:\n        /* \"#utility.yul\":2541:2546   */\n      0x00\n        /* \"#utility.yul\":2590:2593   */\n      dup3\n        /* \"#utility.yul\":2583:2587   */\n      0x1f\n        /* \"#utility.yul\":2575:2581   */\n      dup4\n        /* \"#utility.yul\":2571:2588   */\n      add\n        /* \"#utility.yul\":2567:2594   */\n      slt\n        /* \"#utility.yul\":2557:2679   */\n      tag_473\n      jumpi\n        /* \"#utility.yul\":2598:2677   */\n      tag_474\n      tag_469\n      jump\t// in\n    tag_474:\n        /* \"#utility.yul\":2557:2679   */\n    tag_473:\n        /* \"#utility.yul\":2715:2721   */\n      dup2\n        /* \"#utility.yul\":2702:2722   */\n      calldataload\n        /* \"#utility.yul\":2740:2834   */\n      tag_475\n        /* \"#utility.yul\":2830:2833   */\n      dup5\n        /* \"#utility.yul\":2822:2828   */\n      dup3\n        /* \"#utility.yul\":2815:2819   */\n      0x20\n        /* \"#utility.yul\":2807:2813   */\n      dup7\n        /* \"#utility.yul\":2803:2820   */\n      add\n        /* \"#utility.yul\":2740:2834   */\n      tag_440\n      jump\t// in\n    tag_475:\n        /* \"#utility.yul\":2731:2834   */\n      swap2\n      pop\n        /* \"#utility.yul\":2547:2840   */\n      pop\n        /* \"#utility.yul\":2470:2840   */\n      swap3\n      swap2\n      pop\n      pop\n      jump\t// out\n        /* \"#utility.yul\":2846:3003   */\n    tag_476:\n        /* \"#utility.yul\":2901:2906   */\n      0x00\n        /* \"#utility.yul\":2939:2945   */\n      dup2\n        /* \"#utility.yul\":2926:2946   */\n      calldataload\n        /* \"#utility.yul\":2917:2946   */\n      swap1\n      pop\n        /* \"#utility.yul\":2955:2997   */\n      tag_478\n        /* \"#utility.yul\":2991:2996   */\n      dup2\n        /* \"#utility.yul\":2955:2997   */\n      tag_479\n      jump\t// in\n    tag_478:\n        /* \"#utility.yul\":2846:3003   */\n      swap3\n      swap2\n      pop\n      pop\n      jump\t// out\n        /* \"#utility.yul\":3023:3363   */\n    tag_480:\n        /* \"#utility.yul\":3079:3084   */\n      0x00\n        /* \"#utility.yul\":3128:3131   */\n      dup3\n        /* \"#utility.yul\":3121:3125   */\n      0x1f\n        /* \"#utility.yul\":3113:3119   */\n      dup4\n        /* \"#utility.yul\":3109:3126   */\n      add\n        /* \"#utility.yul\":3105:3132   */\n      slt\n        /* \"#utility.yul\":3095:3217   */\n      tag_482\n      jumpi\n        /* \"#utility.yul\":3136:3215   */\n      tag_483\n      tag_469\n      jump\t// in\n    tag_483:\n        /* \"#utility.yul\":3095:3217   */\n    tag_482:\n        /* \"#utility.yul\":3253:3259   */\n      dup2\n        /* \"#utility.yul\":3240:3260   */\n      calldataload\n        /* \"#utility.yul\":3278:3357   */\n      tag_484\n        /* \"#utility.yul\":3353:3356   */\n      dup5\n        /* \"#utility.yul\":3345:3351   */\n      dup3\n        /* \"#utility.yul\":3338:3342   */\n      0x20\n        /* \"#utility.yul\":3330:3336   */\n      dup7\n        /* \"#utility.yul\":3326:3343   */\n      add\n        /* \"#utility.yul\":3278:3357   */\n      tag_452\n      jump\t// in\n    tag_484:\n        /* \"#utility.yul\":3269:3357   */\n      swap2\n      pop\n        /* \"#utility.yul\":3085:3363   */\n      pop\n        /* \"#utility.yul\":3023:3363   */\n      swap3\n      swap2\n      pop\n      pop\n      jump\t// out\n        /* \"#utility.yul\":3369:3508   */\n    tag_451:\n        /* \"#utility.yul\":3415:3420   */\n      0x00\n        /* \"#utility.yul\":3453:3459   */\n      dup2\n        /* \"#utility.yul\":3440:3460   */\n      calldataload\n        /* \"#utility.yul\":3431:3460   */\n      swap1\n      pop\n        /* \"#utility.yul\":3469:3502   */\n      tag_486\n        /* \"#utility.yul\":3496:3501   */\n      dup2\n        /* \"#utility.yul\":3469:3502   */\n      tag_487\n      jump\t// in\n    tag_486:\n        /* \"#utility.yul\":3369:3508   */\n      swap3\n      swap2\n      pop\n      pop\n      jump\t// out\n        /* \"#utility.yul\":3514:3843   */\n    tag_122:\n        /* \"#utility.yul\":3573:3579   */\n      0x00\n        /* \"#utility.yul\":3622:3624   */\n      0x20\n        /* \"#utility.yul\":3610:3619   */\n      dup3\n        /* \"#utility.yul\":3601:3608   */\n      dup5\n        /* \"#utility.yul\":3597:3620   */\n      sub\n        /* \"#utility.yul\":3593:3625   */\n      slt\n        /* \"#utility.yul\":3590:3709   */\n      iszero\n      tag_489\n      jumpi\n        /* \"#utility.yul\":3628:3707   */\n      tag_490\n      tag_491\n      jump\t// in\n    tag_490:\n        /* \"#utility.yul\":3590:3709   */\n    tag_489:\n        /* \"#utility.yul\":3748:3749   */\n      0x00\n        /* \"#utility.yul\":3773:3826   */\n      tag_492\n        /* \"#utility.yul\":3818:3825   */\n      dup5\n        /* \"#utility.yul\":3809:3815   */\n      dup3\n        /* \"#utility.yul\":3798:3807   */\n      dup6\n        /* \"#utility.yul\":3794:3816   */\n      add\n        /* \"#utility.yul\":3773:3826   */\n      tag_439\n      jump\t// in\n    tag_492:\n        /* \"#utility.yul\":3763:3826   */\n      swap2\n      pop\n        /* \"#utility.yul\":3719:3836   */\n      pop\n        /* \"#utility.yul\":3514:3843   */\n      swap3\n      swap2\n      pop\n      pop\n      jump\t// out\n        /* \"#utility.yul\":3849:4388   */\n    tag_78:\n        /* \"#utility.yul\":3933:3939   */\n      0x00\n        /* \"#utility.yul\":3982:3984   */\n      0x20\n        /* \"#utility.yul\":3970:3979   */\n      dup3\n        /* \"#utility.yul\":3961:3968   */\n      dup5\n        /* \"#utility.yul\":3957:3980   */\n      sub\n        /* \"#utility.yul\":3953:3985   */\n      slt\n        /* \"#utility.yul\":3950:4069   */\n      iszero\n      tag_494\n      jumpi\n        /* \"#utility.yul\":3988:4067   */\n      tag_495\n      tag_491\n      jump\t// in\n    tag_495:\n        /* \"#utility.yul\":3950:4069   */\n    tag_494:\n        /* \"#utility.yul\":4136:4137   */\n      0x00\n        /* \"#utility.yul\":4125:4134   */\n      dup3\n        /* \"#utility.yul\":4121:4138   */\n      add\n        /* \"#utility.yul\":4108:4139   */\n      calldataload\n        /* \"#utility.yul\":4166:4184   */\n      0xffffffffffffffff\n        /* \"#utility.yul\":4158:4164   */\n      dup2\n        /* \"#utility.yul\":4155:4185   */\n      gt\n        /* \"#utility.yul\":4152:4269   */\n      iszero\n      tag_496\n      jumpi\n        /* \"#utility.yul\":4188:4267   */\n      tag_497\n      tag_498\n      jump\t// in\n    tag_497:\n        /* \"#utility.yul\":4152:4269   */\n    tag_496:\n        /* \"#utility.yul\":4293:4371   */\n      tag_499\n        /* \"#utility.yul\":4363:4370   */\n      dup5\n        /* \"#utility.yul\":4354:4360   */\n      dup3\n        /* \"#utility.yul\":4343:4352   */\n      dup6\n        /* \"#utility.yul\":4339:4361   */\n      add\n        /* \"#utility.yul\":4293:4371   */\n      tag_465\n      jump\t// in\n    tag_499:\n        /* \"#utility.yul\":4283:4371   */\n      swap2\n      pop\n        /* \"#utility.yul\":4079:4381   */\n      pop\n        /* \"#utility.yul\":3849:4388   */\n      swap3\n      swap2\n      pop\n      pop\n      jump\t// out\n        /* \"#utility.yul\":4394:4933   */\n    tag_67:\n        /* \"#utility.yul\":4478:4484   */\n      0x00\n        /* \"#utility.yul\":4527:4529   */\n      0x20\n        /* \"#utility.yul\":4515:4524   */\n      dup3\n        /* \"#utility.yul\":4506:4513   */\n      dup5\n        /* \"#utility.yul\":4502:4525   */\n      sub\n        /* \"#utility.yul\":4498:4530   */\n      slt\n        /* \"#utility.yul\":4495:4614   */\n      iszero\n      tag_501\n      jumpi\n        /* \"#utility.yul\":4533:4612   */\n      tag_502\n      tag_491\n      jump\t// in\n    tag_502:\n        /* \"#utility.yul\":4495:4614   */\n    tag_501:\n        /* \"#utility.yul\":4681:4682   */\n      0x00\n        /* \"#utility.yul\":4670:4679   */\n      dup3\n        /* \"#utility.yul\":4666:4683   */\n      add\n        /* \"#utility.yul\":4653:4684   */\n      calldataload\n        /* \"#utility.yul\":4711:4729   */\n      0xffffffffffffffff\n        /* \"#utility.yul\":4703:4709   */\n      dup2\n        /* \"#utility.yul\":4700:4730   */\n      gt\n        /* \"#utility.yul\":4697:4814   */\n      iszero\n      tag_503\n      jumpi\n        /* \"#utility.yul\":4733:4812   */\n      tag_504\n      tag_498\n      jump\t// in\n    tag_504:\n        /* \"#utility.yul\":4697:4814   */\n    tag_503:\n        /* \"#utility.yul\":4838:4916   */\n      tag_505\n        /* \"#utility.yul\":4908:4915   */\n      dup5\n        /* \"#utility.yul\":4899:4905   */\n      dup3\n        /* \"#utility.yul\":4888:4897   */\n      dup6\n        /* \"#utility.yul\":4884:4906   */\n      add\n        /* \"#utility.yul\":4838:4916   */\n      tag_471\n      jump\t// in\n    tag_505:\n        /* \"#utility.yul\":4828:4916   */\n      swap2\n      pop\n        /* \"#utility.yul\":4624:4926   */\n      pop\n        /* \"#utility.yul\":4394:4933   */\n      swap3\n      swap2\n      pop\n      pop\n      jump\t// out\n        /* \"#utility.yul\":4939:5286   */\n    tag_36:\n        /* \"#utility.yul\":5007:5013   */\n      0x00\n        /* \"#utility.yul\":5056:5058   */\n      0x20\n        /* \"#utility.yul\":5044:5053   */\n      dup3\n        /* \"#utility.yul\":5035:5042   */\n      dup5\n        /* \"#utility.yul\":5031:5054   */\n      sub\n        /* \"#utility.yul\":5027:5059   */\n      slt\n        /* \"#utility.yul\":5024:5143   */\n      iszero\n      tag_507\n      jumpi\n        /* \"#utility.yul\":5062:5141   */\n      tag_508\n      tag_491\n      jump\t// in\n    tag_508:\n        /* \"#utility.yul\":5024:5143   */\n    tag_507:\n        /* \"#utility.yul\":5182:5183   */\n      0x00\n        /* \"#utility.yul\":5207:5269   */\n      tag_509\n        /* \"#utility.yul\":5261:5268   */\n      dup5\n        /* \"#utility.yul\":5252:5258   */\n      dup3\n        /* \"#utility.yul\":5241:5250   */\n      dup6\n        /* \"#utility.yul\":5237:5259   */\n      add\n        /* \"#utility.yul\":5207:5269   */\n      tag_476\n      jump\t// in\n    tag_509:\n        /* \"#utility.yul\":5197:5269   */\n      swap2\n      pop\n        /* \"#utility.yul\":5153:5279   */\n      pop\n        /* \"#utility.yul\":4939:5286   */\n      swap3\n      swap2\n      pop\n      pop\n      jump\t// out\n        /* \"#utility.yul\":5292:5801   */\n    tag_106:\n        /* \"#utility.yul\":5361:5367   */\n      0x00\n        /* \"#utility.yul\":5410:5412   */\n      0x20\n        /* \"#utility.yul\":5398:5407   */\n      dup3\n        /* \"#utility.yul\":5389:5396   */\n      dup5\n        /* \"#utility.yul\":5385:5408   */\n      sub\n        /* \"#utility.yul\":5381:5413   */\n      slt\n        /* \"#utility.yul\":5378:5497   */\n      iszero\n      tag_511\n      jumpi\n        /* \"#utility.yul\":5416:5495   */\n      tag_512\n      tag_491\n      jump\t// in\n    tag_512:\n        /* \"#utility.yul\":5378:5497   */\n    tag_511:\n        /* \"#utility.yul\":5564:5565   */\n      0x00\n        /* \"#utility.yul\":5553:5562   */\n      dup3\n        /* \"#utility.yul\":5549:5566   */\n      add\n        /* \"#utility.yul\":5536:5567   */\n      calldataload\n        /* \"#utility.yul\":5594:5612   */\n      0xffffffffffffffff\n        /* \"#utility.yul\":5586:5592   */\n      dup2\n        /* \"#utility.yul\":5583:5613   */\n      gt\n        /* \"#utility.yul\":5580:5697   */\n      iszero\n      tag_513\n      jumpi\n        /* \"#utility.yul\":5616:5695   */\n      tag_514\n      tag_498\n      jump\t// in\n    tag_514:\n        /* \"#utility.yul\":5580:5697   */\n    tag_513:\n        /* \"#utility.yul\":5721:5784   */\n      tag_515\n        /* \"#utility.yul\":5776:5783   */\n      dup5\n        /* \"#utility.yul\":5767:5773   */\n      dup3\n        /* \"#utility.yul\":5756:5765   */\n      dup6\n        /* \"#utility.yul\":5752:5774   */\n      add\n        /* \"#utility.yul\":5721:5784   */\n      tag_480\n      jump\t// in\n    tag_515:\n        /* \"#utility.yul\":5711:5784   */\n      swap2\n      pop\n        /* \"#utility.yul\":5507:5794   */\n      pop\n        /* \"#utility.yul\":5292:5801   */\n      swap3\n      swap2\n      pop\n      pop\n      jump\t// out\n        /* \"#utility.yul\":5807:6136   */\n    tag_93:\n        /* \"#utility.yul\":5866:5872   */\n      0x00\n        /* \"#utility.yul\":5915:5917   */\n      0x20\n        /* \"#utility.yul\":5903:5912   */\n      dup3\n        /* \"#utility.yul\":5894:5901   */\n      dup5\n        /* \"#utility.yul\":5890:5913   */\n      sub\n        /* \"#utility.yul\":5886:5918   */\n      slt\n        /* \"#utility.yul\":5883:6002   */\n      iszero\n      tag_517\n      jumpi\n        /* \"#utility.yul\":5921:6000   */\n      tag_518\n      tag_491\n      jump\t// in\n    tag_518:\n        /* \"#utility.yul\":5883:6002   */\n    tag_517:\n        /* \"#utility.yul\":6041:6042   */\n      0x00\n        /* \"#utility.yul\":6066:6119   */\n      tag_519\n        /* \"#utility.yul\":6111:6118   */\n      dup5\n        /* \"#utility.yul\":6102:6108   */\n      dup3\n        /* \"#utility.yul\":6091:6100   */\n      dup6\n        /* \"#utility.yul\":6087:6109   */\n      add\n        /* \"#utility.yul\":6066:6119   */\n      tag_451\n      jump\t// in\n    tag_519:\n        /* \"#utility.yul\":6056:6119   */\n      swap2\n      pop\n        /* \"#utility.yul\":6012:6129   */\n      pop\n        /* \"#utility.yul\":5807:6136   */\n      swap3\n      swap2\n      pop\n      pop\n      jump\t// out\n        /* \"#utility.yul\":6142:6321   */\n    tag_520:\n        /* \"#utility.yul\":6211:6221   */\n      0x00\n        /* \"#utility.yul\":6232:6278   */\n      tag_522\n        /* \"#utility.yul\":6274:6277   */\n      dup4\n        /* \"#utility.yul\":6266:6272   */\n      dup4\n        /* \"#utility.yul\":6232:6278   */\n      tag_523\n      jump\t// in\n    tag_522:\n        /* \"#utility.yul\":6310:6314   */\n      0x20\n        /* \"#utility.yul\":6305:6308   */\n      dup4\n        /* \"#utility.yul\":6301:6315   */\n      add\n        /* \"#utility.yul\":6287:6315   */\n      swap1\n      pop\n        /* \"#utility.yul\":6142:6321   */\n      swap3\n      swap2\n      pop\n      pop\n      jump\t// out\n        /* \"#utility.yul\":6327:6506   */\n    tag_524:\n        /* \"#utility.yul\":6396:6406   */\n      0x00\n        /* \"#utility.yul\":6417:6463   */\n      tag_526\n        /* \"#utility.yul\":6459:6462   */\n      dup4\n        /* \"#utility.yul\":6451:6457   */\n      dup4\n        /* \"#utility.yul\":6417:6463   */\n      tag_527\n      jump\t// in\n    tag_526:\n        /* \"#utility.yul\":6495:6499   */\n      0x20\n        /* \"#utility.yul\":6490:6493   */\n      dup4\n        /* \"#utility.yul\":6486:6500   */\n      add\n        /* \"#utility.yul\":6472:6500   */\n      swap1\n      pop\n        /* \"#utility.yul\":6327:6506   */\n      swap3\n      swap2\n      pop\n      pop\n      jump\t// out\n        /* \"#utility.yul\":6512:6620   */\n    tag_523:\n        /* \"#utility.yul\":6589:6613   */\n      tag_529\n        /* \"#utility.yul\":6607:6612   */\n      dup2\n        /* \"#utility.yul\":6589:6613   */\n      tag_530\n      jump\t// in\n    tag_529:\n        /* \"#utility.yul\":6584:6587   */\n      dup3\n        /* \"#utility.yul\":6577:6614   */\n      mstore\n        /* \"#utility.yul\":6512:6620   */\n      pop\n      pop\n      jump\t// out\n        /* \"#utility.yul\":6626:6744   */\n    tag_531:\n        /* \"#utility.yul\":6713:6737   */\n      tag_533\n        /* \"#utility.yul\":6731:6736   */\n      dup2\n        /* \"#utility.yul\":6713:6737   */\n      tag_530\n      jump\t// in\n    tag_533:\n        /* \"#utility.yul\":6708:6711   */\n      dup3\n        /* \"#utility.yul\":6701:6738   */\n      mstore\n        /* \"#utility.yul\":6626:6744   */\n      pop\n      pop\n      jump\t// out\n        /* \"#utility.yul\":6780:7512   */\n    tag_534:\n        /* \"#utility.yul\":6899:6902   */\n      0x00\n        /* \"#utility.yul\":6928:6982   */\n      tag_536\n        /* \"#utility.yul\":6976:6981   */\n      dup3\n        /* \"#utility.yul\":6928:6982   */\n      tag_537\n      jump\t// in\n    tag_536:\n        /* \"#utility.yul\":6998:7084   */\n      tag_538\n        /* \"#utility.yul\":7077:7083   */\n      dup2\n        /* \"#utility.yul\":7072:7075   */\n      dup6\n        /* \"#utility.yul\":6998:7084   */\n      tag_539\n      jump\t// in\n    tag_538:\n        /* \"#utility.yul\":6991:7084   */\n      swap4\n      pop\n        /* \"#utility.yul\":7108:7164   */\n      tag_540\n        /* \"#utility.yul\":7158:7163   */\n      dup4\n        /* \"#utility.yul\":7108:7164   */\n      tag_541\n      jump\t// in\n    tag_540:\n        /* \"#utility.yul\":7187:7194   */\n      dup1\n        /* \"#utility.yul\":7218:7219   */\n      0x00\n        /* \"#utility.yul\":7203:7487   */\n    tag_542:\n        /* \"#utility.yul\":7228:7234   */\n      dup4\n        /* \"#utility.yul\":7225:7226   */\n      dup2\n        /* \"#utility.yul\":7222:7235   */\n      lt\n        /* \"#utility.yul\":7203:7487   */\n      iszero\n      tag_544\n      jumpi\n        /* \"#utility.yul\":7304:7310   */\n      dup2\n        /* \"#utility.yul\":7298:7311   */\n      mload\n        /* \"#utility.yul\":7331:7394   */\n      tag_545\n        /* \"#utility.yul\":7390:7393   */\n      dup9\n        /* \"#utility.yul\":7375:7388   */\n      dup3\n        /* \"#utility.yul\":7331:7394   */\n      tag_520\n      jump\t// in\n    tag_545:\n        /* \"#utility.yul\":7324:7394   */\n      swap8\n      pop\n        /* \"#utility.yul\":7417:7477   */\n      tag_546\n        /* \"#utility.yul\":7470:7476   */\n      dup4\n        /* \"#utility.yul\":7417:7477   */\n      tag_547\n      jump\t// in\n    tag_546:\n        /* \"#utility.yul\":7407:7477   */\n      swap3\n      pop\n        /* \"#utility.yul\":7263:7487   */\n      pop\n        /* \"#utility.yul\":7250:7251   */\n      0x01\n        /* \"#utility.yul\":7247:7248   */\n      dup2\n        /* \"#utility.yul\":7243:7252   */\n      add\n        /* \"#utility.yul\":7238:7252   */\n      swap1\n      pop\n        /* \"#utility.yul\":7203:7487   */\n      jump(tag_542)\n    tag_544:\n        /* \"#utility.yul\":7207:7221   */\n      pop\n        /* \"#utility.yul\":7503:7506   */\n      dup6\n        /* \"#utility.yul\":7496:7506   */\n      swap4\n      pop\n        /* \"#utility.yul\":6904:7512   */\n      pop\n      pop\n      pop\n        /* \"#utility.yul\":6780:7512   */\n      swap3\n      swap2\n      pop\n      pop\n      jump\t// out\n        /* \"#utility.yul\":7548:8280   */\n    tag_548:\n        /* \"#utility.yul\":7667:7670   */\n      0x00\n        /* \"#utility.yul\":7696:7750   */\n      tag_550\n        /* \"#utility.yul\":7744:7749   */\n      dup3\n        /* \"#utility.yul\":7696:7750   */\n      tag_551\n      jump\t// in\n    tag_550:\n        /* \"#utility.yul\":7766:7852   */\n      tag_552\n        /* \"#utility.yul\":7845:7851   */\n      dup2\n        /* \"#utility.yul\":7840:7843   */\n      dup6\n        /* \"#utility.yul\":7766:7852   */\n      tag_553\n      jump\t// in\n    tag_552:\n        /* \"#utility.yul\":7759:7852   */\n      swap4\n      pop\n        /* \"#utility.yul\":7876:7932   */\n      tag_554\n        /* \"#utility.yul\":7926:7931   */\n      dup4\n        /* \"#utility.yul\":7876:7932   */\n      tag_555\n      jump\t// in\n    tag_554:\n        /* \"#utility.yul\":7955:7962   */\n      dup1\n        /* \"#utility.yul\":7986:7987   */\n      0x00\n        /* \"#utility.yul\":7971:8255   */\n    tag_556:\n        /* \"#utility.yul\":7996:8002   */\n      dup4\n        /* \"#utility.yul\":7993:7994   */\n      dup2\n        /* \"#utility.yul\":7990:8003   */\n      lt\n        /* \"#utility.yul\":7971:8255   */\n      iszero\n      tag_558\n      jumpi\n        /* \"#utility.yul\":8072:8078   */\n      dup2\n        /* \"#utility.yul\":8066:8079   */\n      mload\n        /* \"#utility.yul\":8099:8162   */\n      tag_559\n        /* \"#utility.yul\":8158:8161   */\n      dup9\n        /* \"#utility.yul\":8143:8156   */\n      dup3\n        /* \"#utility.yul\":8099:8162   */\n      tag_524\n      jump\t// in\n    tag_559:\n        /* \"#utility.yul\":8092:8162   */\n      swap8\n      pop\n        /* \"#utility.yul\":8185:8245   */\n      tag_560\n        /* \"#utility.yul\":8238:8244   */\n      dup4\n        /* \"#utility.yul\":8185:8245   */\n      tag_561\n      jump\t// in\n    tag_560:\n        /* \"#utility.yul\":8175:8245   */\n      swap3\n      pop\n        /* \"#utility.yul\":8031:8255   */\n      pop\n        /* \"#utility.yul\":8018:8019   */\n      0x01\n        /* \"#utility.yul\":8015:8016   */\n      dup2\n        /* \"#utility.yul\":8011:8020   */\n      add\n        /* \"#utility.yul\":8006:8020   */\n      swap1\n      pop\n        /* \"#utility.yul\":7971:8255   */\n      jump(tag_556)\n    tag_558:\n        /* \"#utility.yul\":7975:7989   */\n      pop\n        /* \"#utility.yul\":8271:8274   */\n      dup6\n        /* \"#utility.yul\":8264:8274   */\n      swap4\n      pop\n        /* \"#utility.yul\":7672:8280   */\n      pop\n      pop\n      pop\n        /* \"#utility.yul\":7548:8280   */\n      swap3\n      swap2\n      pop\n      pop\n      jump\t// out\n        /* \"#utility.yul\":8286:8395   */\n    tag_562:\n        /* \"#utility.yul\":8367:8388   */\n      tag_564\n        /* \"#utility.yul\":8382:8387   */\n      dup2\n        /* \"#utility.yul\":8367:8388   */\n      tag_565\n      jump\t// in\n    tag_564:\n        /* \"#utility.yul\":8362:8365   */\n      dup3\n        /* \"#utility.yul\":8355:8389   */\n      mstore\n        /* \"#utility.yul\":8286:8395   */\n      pop\n      pop\n      jump\t// out\n        /* \"#utility.yul\":8401:8546   */\n    tag_566:\n        /* \"#utility.yul\":8495:8539   */\n      tag_568\n        /* \"#utility.yul\":8533:8538   */\n      dup2\n        /* \"#utility.yul\":8495:8539   */\n      tag_569\n      jump\t// in\n    tag_568:\n        /* \"#utility.yul\":8490:8493   */\n      dup3\n        /* \"#utility.yul\":8483:8540   */\n      mstore\n        /* \"#utility.yul\":8401:8546   */\n      pop\n      pop\n      jump\t// out\n        /* \"#utility.yul\":8552:8916   */\n    tag_570:\n        /* \"#utility.yul\":8640:8643   */\n      0x00\n        /* \"#utility.yul\":8668:8707   */\n      tag_572\n        /* \"#utility.yul\":8701:8706   */\n      dup3\n        /* \"#utility.yul\":8668:8707   */\n      tag_573\n      jump\t// in\n    tag_572:\n        /* \"#utility.yul\":8723:8794   */\n      tag_574\n        /* \"#utility.yul\":8787:8793   */\n      dup2\n        /* \"#utility.yul\":8782:8785   */\n      dup6\n        /* \"#utility.yul\":8723:8794   */\n      tag_575\n      jump\t// in\n    tag_574:\n        /* \"#utility.yul\":8716:8794   */\n      swap4\n      pop\n        /* \"#utility.yul\":8803:8855   */\n      tag_576\n        /* \"#utility.yul\":8848:8854   */\n      dup2\n        /* \"#utility.yul\":8843:8846   */\n      dup6\n        /* \"#utility.yul\":8836:8840   */\n      0x20\n        /* \"#utility.yul\":8829:8834   */\n      dup7\n        /* \"#utility.yul\":8825:8841   */\n      add\n        /* \"#utility.yul\":8803:8855   */\n      tag_577\n      jump\t// in\n    tag_576:\n        /* \"#utility.yul\":8880:8909   */\n      tag_578\n        /* \"#utility.yul\":8902:8908   */\n      dup2\n        /* \"#utility.yul\":8880:8909   */\n      tag_579\n      jump\t// in\n    tag_578:\n        /* \"#utility.yul\":8875:8878   */\n      dup5\n        /* \"#utility.yul\":8871:8910   */\n      add\n        /* \"#utility.yul\":8864:8910   */\n      swap2\n      pop\n        /* \"#utility.yul\":8644:8916   */\n      pop\n        /* \"#utility.yul\":8552:8916   */\n      swap3\n      swap2\n      pop\n      pop\n      jump\t// out\n        /* \"#utility.yul\":8922:9288   */\n    tag_580:\n        /* \"#utility.yul\":9064:9067   */\n      0x00\n        /* \"#utility.yul\":9085:9152   */\n      tag_582\n        /* \"#utility.yul\":9149:9151   */\n      0x26\n        /* \"#utility.yul\":9144:9147   */\n      dup4\n        /* \"#utility.yul\":9085:9152   */\n      tag_575\n      jump\t// in\n    tag_582:\n        /* \"#utility.yul\":9078:9152   */\n      swap2\n      pop\n        /* \"#utility.yul\":9161:9254   */\n      tag_583\n        /* \"#utility.yul\":9250:9253   */\n      dup3\n        /* \"#utility.yul\":9161:9254   */\n      tag_584\n      jump\t// in\n    tag_583:\n        /* \"#utility.yul\":9279:9281   */\n      0x40\n        /* \"#utility.yul\":9274:9277   */\n      dup3\n        /* \"#utility.yul\":9270:9282   */\n      add\n        /* \"#utility.yul\":9263:9282   */\n      swap1\n      pop\n        /* \"#utility.yul\":8922:9288   */\n      swap2\n      swap1\n      pop\n      jump\t// out\n        /* \"#utility.yul\":9294:9660   */\n    tag_585:\n        /* \"#utility.yul\":9436:9439   */\n      0x00\n        /* \"#utility.yul\":9457:9524   */\n      tag_587\n        /* \"#utility.yul\":9521:9523   */\n      0x10\n        /* \"#utility.yul\":9516:9519   */\n      dup4\n        /* \"#utility.yul\":9457:9524   */\n      tag_575\n      jump\t// in\n    tag_587:\n        /* \"#utility.yul\":9450:9524   */\n      swap2\n      pop\n        /* \"#utility.yul\":9533:9626   */\n      tag_588\n        /* \"#utility.yul\":9622:9625   */\n      dup3\n        /* \"#utility.yul\":9533:9626   */\n      tag_589\n      jump\t// in\n    tag_588:\n        /* \"#utility.yul\":9651:9653   */\n      0x20\n        /* \"#utility.yul\":9646:9649   */\n      dup3\n        /* \"#utility.yul\":9642:9654   */\n      add\n        /* \"#utility.yul\":9635:9654   */\n      swap1\n      pop\n        /* \"#utility.yul\":9294:9660   */\n      swap2\n      swap1\n      pop\n      jump\t// out\n        /* \"#utility.yul\":9666:10032   */\n    tag_590:\n        /* \"#utility.yul\":9808:9811   */\n      0x00\n        /* \"#utility.yul\":9829:9896   */\n      tag_592\n        /* \"#utility.yul\":9893:9895   */\n      0x1d\n        /* \"#utility.yul\":9888:9891   */\n      dup4\n        /* \"#utility.yul\":9829:9896   */\n      tag_575\n      jump\t// in\n    tag_592:\n        /* \"#utility.yul\":9822:9896   */\n      swap2\n      pop\n        /* \"#utility.yul\":9905:9998   */\n      tag_593\n        /* \"#utility.yul\":9994:9997   */\n      dup3\n        /* \"#utility.yul\":9905:9998   */\n      tag_594\n      jump\t// in\n    tag_593:\n        /* \"#utility.yul\":10023:10025   */\n      0x20\n        /* \"#utility.yul\":10018:10021   */\n      dup3\n        /* \"#utility.yul\":10014:10026   */\n      add\n        /* \"#utility.yul\":10007:10026   */\n      swap1\n      pop\n        /* \"#utility.yul\":9666:10032   */\n      swap2\n      swap1\n      pop\n      jump\t// out\n        /* \"#utility.yul\":10038:10404   */\n    tag_595:\n        /* \"#utility.yul\":10180:10183   */\n      0x00\n        /* \"#utility.yul\":10201:10268   */\n      tag_597\n        /* \"#utility.yul\":10265:10267   */\n      0x20\n        /* \"#utility.yul\":10260:10263   */\n      dup4\n        /* \"#utility.yul\":10201:10268   */\n      tag_575\n      jump\t// in\n    tag_597:\n        /* \"#utility.yul\":10194:10268   */\n      swap2\n      pop\n        /* \"#utility.yul\":10277:10370   */\n      tag_598\n        /* \"#utility.yul\":10366:10369   */\n      dup3\n        /* \"#utility.yul\":10277:10370   */\n      tag_599\n      jump\t// in\n    tag_598:\n        /* \"#utility.yul\":10395:10397   */\n      0x20\n        /* \"#utility.yul\":10390:10393   */\n      dup3\n        /* \"#utility.yul\":10386:10398   */\n      add\n        /* \"#utility.yul\":10379:10398   */\n      swap1\n      pop\n        /* \"#utility.yul\":10038:10404   */\n      swap2\n      swap1\n      pop\n      jump\t// out\n        /* \"#utility.yul\":10410:10518   */\n    tag_527:\n        /* \"#utility.yul\":10487:10511   */\n      tag_601\n        /* \"#utility.yul\":10505:10510   */\n      dup2\n        /* \"#utility.yul\":10487:10511   */\n      tag_602\n      jump\t// in\n    tag_601:\n        /* \"#utility.yul\":10482:10485   */\n      dup3\n        /* \"#utility.yul\":10475:10512   */\n      mstore\n        /* \"#utility.yul\":10410:10518   */\n      pop\n      pop\n      jump\t// out\n        /* \"#utility.yul\":10524:10642   */\n    tag_603:\n        /* \"#utility.yul\":10611:10635   */\n      tag_605\n        /* \"#utility.yul\":10629:10634   */\n      dup2\n        /* \"#utility.yul\":10611:10635   */\n      tag_602\n      jump\t// in\n    tag_605:\n        /* \"#utility.yul\":10606:10609   */\n      dup3\n        /* \"#utility.yul\":10599:10636   */\n      mstore\n        /* \"#utility.yul\":10524:10642   */\n      pop\n      pop\n      jump\t// out\n        /* \"#utility.yul\":10648:10870   */\n    tag_49:\n        /* \"#utility.yul\":10741:10745   */\n      0x00\n        /* \"#utility.yul\":10779:10781   */\n      0x20\n        /* \"#utility.yul\":10768:10777   */\n      dup3\n        /* \"#utility.yul\":10764:10782   */\n      add\n        /* \"#utility.yul\":10756:10782   */\n      swap1\n      pop\n        /* \"#utility.yul\":10792:10863   */\n      tag_607\n        /* \"#utility.yul\":10860:10861   */\n      0x00\n        /* \"#utility.yul\":10849:10858   */\n      dup4\n        /* \"#utility.yul\":10845:10862   */\n      add\n        /* \"#utility.yul\":10836:10842   */\n      dup5\n        /* \"#utility.yul\":10792:10863   */\n      tag_531\n      jump\t// in\n    tag_607:\n        /* \"#utility.yul\":10648:10870   */\n      swap3\n      swap2\n      pop\n      pop\n      jump\t// out\n        /* \"#utility.yul\":10876:11249   */\n    tag_45:\n        /* \"#utility.yul\":11019:11023   */\n      0x00\n        /* \"#utility.yul\":11057:11059   */\n      0x20\n        /* \"#utility.yul\":11046:11055   */\n      dup3\n        /* \"#utility.yul\":11042:11060   */\n      add\n        /* \"#utility.yul\":11034:11060   */\n      swap1\n      pop\n        /* \"#utility.yul\":11106:11115   */\n      dup2\n        /* \"#utility.yul\":11100:11104   */\n      dup2\n        /* \"#utility.yul\":11096:11116   */\n      sub\n        /* \"#utility.yul\":11092:11093   */\n      0x00\n        /* \"#utility.yul\":11081:11090   */\n      dup4\n        /* \"#utility.yul\":11077:11094   */\n      add\n        /* \"#utility.yul\":11070:11117   */\n      mstore\n        /* \"#utility.yul\":11134:11242   */\n      tag_609\n        /* \"#utility.yul\":11237:11241   */\n      dup2\n        /* \"#utility.yul\":11228:11234   */\n      dup5\n        /* \"#utility.yul\":11134:11242   */\n      tag_534\n      jump\t// in\n    tag_609:\n        /* \"#utility.yul\":11126:11242   */\n      swap1\n      pop\n        /* \"#utility.yul\":10876:11249   */\n      swap3\n      swap2\n      pop\n      pop\n      jump\t// out\n        /* \"#utility.yul\":11255:11628   */\n    tag_64:\n        /* \"#utility.yul\":11398:11402   */\n      0x00\n        /* \"#utility.yul\":11436:11438   */\n      0x20\n        /* \"#utility.yul\":11425:11434   */\n      dup3\n        /* \"#utility.yul\":11421:11439   */\n      add\n        /* \"#utility.yul\":11413:11439   */\n      swap1\n      pop\n        /* \"#utility.yul\":11485:11494   */\n      dup2\n        /* \"#utility.yul\":11479:11483   */\n      dup2\n        /* \"#utility.yul\":11475:11495   */\n      sub\n        /* \"#utility.yul\":11471:11472   */\n      0x00\n        /* \"#utility.yul\":11460:11469   */\n      dup4\n        /* \"#utility.yul\":11456:11473   */\n      add\n        /* \"#utility.yul\":11449:11496   */\n      mstore\n        /* \"#utility.yul\":11513:11621   */\n      tag_611\n        /* \"#utility.yul\":11616:11620   */\n      dup2\n        /* \"#utility.yul\":11607:11613   */\n      dup5\n        /* \"#utility.yul\":11513:11621   */\n      tag_548\n      jump\t// in\n    tag_611:\n        /* \"#utility.yul\":11505:11621   */\n      swap1\n      pop\n        /* \"#utility.yul\":11255:11628   */\n      swap3\n      swap2\n      pop\n      pop\n      jump\t// out\n        /* \"#utility.yul\":11634:11844   */\n    tag_72:\n        /* \"#utility.yul\":11721:11725   */\n      0x00\n        /* \"#utility.yul\":11759:11761   */\n      0x20\n        /* \"#utility.yul\":11748:11757   */\n      dup3\n        /* \"#utility.yul\":11744:11762   */\n      add\n        /* \"#utility.yul\":11736:11762   */\n      swap1\n      pop\n        /* \"#utility.yul\":11772:11837   */\n      tag_613\n        /* \"#utility.yul\":11834:11835   */\n      0x00\n        /* \"#utility.yul\":11823:11832   */\n      dup4\n        /* \"#utility.yul\":11819:11836   */\n      add\n        /* \"#utility.yul\":11810:11816   */\n      dup5\n        /* \"#utility.yul\":11772:11837   */\n      tag_562\n      jump\t// in\n    tag_613:\n        /* \"#utility.yul\":11634:11844   */\n      swap3\n      swap2\n      pop\n      pop\n      jump\t// out\n        /* \"#utility.yul\":11850:12086   */\n    tag_57:\n        /* \"#utility.yul\":11950:11954   */\n      0x00\n        /* \"#utility.yul\":11988:11990   */\n      0x20\n        /* \"#utility.yul\":11977:11986   */\n      dup3\n        /* \"#utility.yul\":11973:11991   */\n      add\n        /* \"#utility.yul\":11965:11991   */\n      swap1\n      pop\n        /* \"#utility.yul\":12001:12079   */\n      tag_615\n        /* \"#utility.yul\":12076:12077   */\n      0x00\n        /* \"#utility.yul\":12065:12074   */\n      dup4\n        /* \"#utility.yul\":12061:12078   */\n      add\n        /* \"#utility.yul\":12052:12058   */\n      dup5\n        /* \"#utility.yul\":12001:12079   */\n      tag_566\n      jump\t// in\n    tag_615:\n        /* \"#utility.yul\":11850:12086   */\n      swap3\n      swap2\n      pop\n      pop\n      jump\t// out\n        /* \"#utility.yul\":12092:12405   */\n    tag_53:\n        /* \"#utility.yul\":12205:12209   */\n      0x00\n        /* \"#utility.yul\":12243:12245   */\n      0x20\n        /* \"#utility.yul\":12232:12241   */\n      dup3\n        /* \"#utility.yul\":12228:12246   */\n      add\n        /* \"#utility.yul\":12220:12246   */\n      swap1\n      pop\n        /* \"#utility.yul\":12292:12301   */\n      dup2\n        /* \"#utility.yul\":12286:12290   */\n      dup2\n        /* \"#utility.yul\":12282:12302   */\n      sub\n        /* \"#utility.yul\":12278:12279   */\n      0x00\n        /* \"#utility.yul\":12267:12276   */\n      dup4\n        /* \"#utility.yul\":12263:12280   */\n      add\n        /* \"#utility.yul\":12256:12303   */\n      mstore\n        /* \"#utility.yul\":12320:12398   */\n      tag_617\n        /* \"#utility.yul\":12393:12397   */\n      dup2\n        /* \"#utility.yul\":12384:12390   */\n      dup5\n        /* \"#utility.yul\":12320:12398   */\n      tag_570\n      jump\t// in\n    tag_617:\n        /* \"#utility.yul\":12312:12398   */\n      swap1\n      pop\n        /* \"#utility.yul\":12092:12405   */\n      swap3\n      swap2\n      pop\n      pop\n      jump\t// out\n        /* \"#utility.yul\":12411:12830   */\n    tag_394:\n        /* \"#utility.yul\":12577:12581   */\n      0x00\n        /* \"#utility.yul\":12615:12617   */\n      0x20\n        /* \"#utility.yul\":12604:12613   */\n      dup3\n        /* \"#utility.yul\":12600:12618   */\n      add\n        /* \"#utility.yul\":12592:12618   */\n      swap1\n      pop\n        /* \"#utility.yul\":12664:12673   */\n      dup2\n        /* \"#utility.yul\":12658:12662   */\n      dup2\n        /* \"#utility.yul\":12654:12674   */\n      sub\n        /* \"#utility.yul\":12650:12651   */\n      0x00\n        /* \"#utility.yul\":12639:12648   */\n      dup4\n        /* \"#utility.yul\":12635:12652   */\n      add\n        /* \"#utility.yul\":12628:12675   */\n      mstore\n        /* \"#utility.yul\":12692:12823   */\n      tag_619\n        /* \"#utility.yul\":12818:12822   */\n      dup2\n        /* \"#utility.yul\":12692:12823   */\n      tag_580\n      jump\t// in\n    tag_619:\n        /* \"#utility.yul\":12684:12823   */\n      swap1\n      pop\n        /* \"#utility.yul\":12411:12830   */\n      swap2\n      swap1\n      pop\n      jump\t// out\n        /* \"#utility.yul\":12836:13255   */\n    tag_135:\n        /* \"#utility.yul\":13002:13006   */\n      0x00\n        /* \"#utility.yul\":13040:13042   */\n      0x20\n        /* \"#utility.yul\":13029:13038   */\n      dup3\n        /* \"#utility.yul\":13025:13043   */\n      add\n        /* \"#utility.yul\":13017:13043   */\n      swap1\n      pop\n        /* \"#utility.yul\":13089:13098   */\n      dup2\n        /* \"#utility.yul\":13083:13087   */\n      dup2\n        /* \"#utility.yul\":13079:13099   */\n      sub\n        /* \"#utility.yul\":13075:13076   */\n      0x00\n        /* \"#utility.yul\":13064:13073   */\n      dup4\n        /* \"#utility.yul\":13060:13077   */\n      add\n        /* \"#utility.yul\":13053:13100   */\n      mstore\n        /* \"#utility.yul\":13117:13248   */\n      tag_621\n        /* \"#utility.yul\":13243:13247   */\n      dup2\n        /* \"#utility.yul\":13117:13248   */\n      tag_585\n      jump\t// in\n    tag_621:\n        /* \"#utility.yul\":13109:13248   */\n      swap1\n      pop\n        /* \"#utility.yul\":12836:13255   */\n      swap2\n      swap1\n      pop\n      jump\t// out\n        /* \"#utility.yul\":13261:13680   */\n    tag_400:\n        /* \"#utility.yul\":13427:13431   */\n      0x00\n        /* \"#utility.yul\":13465:13467   */\n      0x20\n        /* \"#utility.yul\":13454:13463   */\n      dup3\n        /* \"#utility.yul\":13450:13468   */\n      add\n        /* \"#utility.yul\":13442:13468   */\n      swap1\n      pop\n        /* \"#utility.yul\":13514:13523   */\n      dup2\n        /* \"#utility.yul\":13508:13512   */\n      dup2\n        /* \"#utility.yul\":13504:13524   */\n      sub\n        /* \"#utility.yul\":13500:13501   */\n      0x00\n        /* \"#utility.yul\":13489:13498   */\n      dup4\n        /* \"#utility.yul\":13485:13502   */\n      add\n        /* \"#utility.yul\":13478:13525   */\n      mstore\n        /* \"#utility.yul\":13542:13673   */\n      tag_623\n        /* \"#utility.yul\":13668:13672   */\n      dup2\n        /* \"#utility.yul\":13542:13673   */\n      tag_590\n      jump\t// in\n    tag_623:\n        /* \"#utility.yul\":13534:13673   */\n      swap1\n      pop\n        /* \"#utility.yul\":13261:13680   */\n      swap2\n      swap1\n      pop\n      jump\t// out\n        /* \"#utility.yul\":13686:14105   */\n    tag_130:\n        /* \"#utility.yul\":13852:13856   */\n      0x00\n        /* \"#utility.yul\":13890:13892   */\n      0x20\n        /* \"#utility.yul\":13879:13888   */\n      dup3\n        /* \"#utility.yul\":13875:13893   */\n      add\n        /* \"#utility.yul\":13867:13893   */\n      swap1\n      pop\n        /* \"#utility.yul\":13939:13948   */\n      dup2\n        /* \"#utility.yul\":13933:13937   */\n      dup2\n        /* \"#utility.yul\":13929:13949   */\n      sub\n        /* \"#utility.yul\":13925:13926   */\n      0x00\n        /* \"#utility.yul\":13914:13923   */\n      dup4\n        /* \"#utility.yul\":13910:13927   */\n      add\n        /* \"#utility.yul\":13903:13950   */\n      mstore\n        /* \"#utility.yul\":13967:14098   */\n      tag_625\n        /* \"#utility.yul\":14093:14097   */\n      dup2\n        /* \"#utility.yul\":13967:14098   */\n      tag_595\n      jump\t// in\n    tag_625:\n        /* \"#utility.yul\":13959:14098   */\n      swap1\n      pop\n        /* \"#utility.yul\":13686:14105   */\n      swap2\n      swap1\n      pop\n      jump\t// out\n        /* \"#utility.yul\":14111:14333   */\n    tag_41:\n        /* \"#utility.yul\":14204:14208   */\n      0x00\n        /* \"#utility.yul\":14242:14244   */\n      0x20\n        /* \"#utility.yul\":14231:14240   */\n      dup3\n        /* \"#utility.yul\":14227:14245   */\n      add\n        /* \"#utility.yul\":14219:14245   */\n      swap1\n      pop\n        /* \"#utility.yul\":14255:14326   */\n      tag_627\n        /* \"#utility.yul\":14323:14324   */\n      0x00\n        /* \"#utility.yul\":14312:14321   */\n      dup4\n        /* \"#utility.yul\":14308:14325   */\n      add\n        /* \"#utility.yul\":14299:14305   */\n      dup5\n        /* \"#utility.yul\":14255:14326   */\n      tag_603\n      jump\t// in\n    tag_627:\n        /* \"#utility.yul\":14111:14333   */\n      swap3\n      swap2\n      pop\n      pop\n      jump\t// out\n        /* \"#utility.yul\":14339:14468   */\n    tag_431:\n        /* \"#utility.yul\":14373:14379   */\n      0x00\n        /* \"#utility.yul\":14400:14420   */\n      tag_629\n      tag_630\n      jump\t// in\n    tag_629:\n        /* \"#utility.yul\":14390:14420   */\n      swap1\n      pop\n        /* \"#utility.yul\":14429:14462   */\n      tag_631\n        /* \"#utility.yul\":14457:14461   */\n      dup3\n        /* \"#utility.yul\":14449:14455   */\n      dup3\n        /* \"#utility.yul\":14429:14462   */\n      tag_632\n      jump\t// in\n    tag_631:\n        /* \"#utility.yul\":14339:14468   */\n      swap2\n      swap1\n      pop\n      jump\t// out\n        /* \"#utility.yul\":14474:14549   */\n    tag_630:\n        /* \"#utility.yul\":14507:14513   */\n      0x00\n        /* \"#utility.yul\":14540:14542   */\n      0x40\n        /* \"#utility.yul\":14534:14543   */\n      mload\n        /* \"#utility.yul\":14524:14543   */\n      swap1\n      pop\n        /* \"#utility.yul\":14474:14549   */\n      swap1\n      jump\t// out\n        /* \"#utility.yul\":14555:14866   */\n    tag_430:\n        /* \"#utility.yul\":14632:14636   */\n      0x00\n        /* \"#utility.yul\":14722:14740   */\n      0xffffffffffffffff\n        /* \"#utility.yul\":14714:14720   */\n      dup3\n        /* \"#utility.yul\":14711:14741   */\n      gt\n        /* \"#utility.yul\":14708:14764   */\n      iszero\n      tag_635\n      jumpi\n        /* \"#utility.yul\":14744:14762   */\n      tag_636\n      tag_637\n      jump\t// in\n    tag_636:\n        /* \"#utility.yul\":14708:14764   */\n    tag_635:\n        /* \"#utility.yul\":14794:14798   */\n      0x20\n        /* \"#utility.yul\":14786:14792   */\n      dup3\n        /* \"#utility.yul\":14782:14799   */\n      mul\n        /* \"#utility.yul\":14774:14799   */\n      swap1\n      pop\n        /* \"#utility.yul\":14854:14858   */\n      0x20\n        /* \"#utility.yul\":14848:14852   */\n      dup2\n        /* \"#utility.yul\":14844:14859   */\n      add\n        /* \"#utility.yul\":14836:14859   */\n      swap1\n      pop\n        /* \"#utility.yul\":14555:14866   */\n      swap2\n      swap1\n      pop\n      jump\t// out\n        /* \"#utility.yul\":14872:15183   */\n    tag_444:\n        /* \"#utility.yul\":14949:14953   */\n      0x00\n        /* \"#utility.yul\":15039:15057   */\n      0xffffffffffffffff\n        /* \"#utility.yul\":15031:15037   */\n      dup3\n        /* \"#utility.yul\":15028:15058   */\n      gt\n        /* \"#utility.yul\":15025:15081   */\n      iszero\n      tag_639\n      jumpi\n        /* \"#utility.yul\":15061:15079   */\n      tag_640\n      tag_637\n      jump\t// in\n    tag_640:\n        /* \"#utility.yul\":15025:15081   */\n    tag_639:\n        /* \"#utility.yul\":15111:15115   */\n      0x20\n        /* \"#utility.yul\":15103:15109   */\n      dup3\n        /* \"#utility.yul\":15099:15116   */\n      mul\n        /* \"#utility.yul\":15091:15116   */\n      swap1\n      pop\n        /* \"#utility.yul\":15171:15175   */\n      0x20\n        /* \"#utility.yul\":15165:15169   */\n      dup2\n        /* \"#utility.yul\":15161:15176   */\n      add\n        /* \"#utility.yul\":15153:15176   */\n      swap1\n      pop\n        /* \"#utility.yul\":14872:15183   */\n      swap2\n      swap1\n      pop\n      jump\t// out\n        /* \"#utility.yul\":15189:15497   */\n    tag_456:\n        /* \"#utility.yul\":15251:15255   */\n      0x00\n        /* \"#utility.yul\":15341:15359   */\n      0xffffffffffffffff\n        /* \"#utility.yul\":15333:15339   */\n      dup3\n        /* \"#utility.yul\":15330:15360   */\n      gt\n        /* \"#utility.yul\":15327:15383   */\n      iszero\n      tag_642\n      jumpi\n        /* \"#utility.yul\":15363:15381   */\n      tag_643\n      tag_637\n      jump\t// in\n    tag_643:\n        /* \"#utility.yul\":15327:15383   */\n    tag_642:\n        /* \"#utility.yul\":15401:15430   */\n      tag_644\n        /* \"#utility.yul\":15423:15429   */\n      dup3\n        /* \"#utility.yul\":15401:15430   */\n      tag_579\n      jump\t// in\n    tag_644:\n        /* \"#utility.yul\":15393:15430   */\n      swap1\n      pop\n        /* \"#utility.yul\":15485:15489   */\n      0x20\n        /* \"#utility.yul\":15479:15483   */\n      dup2\n        /* \"#utility.yul\":15475:15490   */\n      add\n        /* \"#utility.yul\":15467:15490   */\n      swap1\n      pop\n        /* \"#utility.yul\":15189:15497   */\n      swap2\n      swap1\n      pop\n      jump\t// out\n        /* \"#utility.yul\":15503:15635   */\n    tag_541:\n        /* \"#utility.yul\":15570:15574   */\n      0x00\n        /* \"#utility.yul\":15593:15596   */\n      dup2\n        /* \"#utility.yul\":15585:15596   */\n      swap1\n      pop\n        /* \"#utility.yul\":15623:15627   */\n      0x20\n        /* \"#utility.yul\":15618:15621   */\n      dup3\n        /* \"#utility.yul\":15614:15628   */\n      add\n        /* \"#utility.yul\":15606:15628   */\n      swap1\n      pop\n        /* \"#utility.yul\":15503:15635   */\n      swap2\n      swap1\n      pop\n      jump\t// out\n        /* \"#utility.yul\":15641:15773   */\n    tag_555:\n        /* \"#utility.yul\":15708:15712   */\n      0x00\n        /* \"#utility.yul\":15731:15734   */\n      dup2\n        /* \"#utility.yul\":15723:15734   */\n      swap1\n      pop\n        /* \"#utility.yul\":15761:15765   */\n      0x20\n        /* \"#utility.yul\":15756:15759   */\n      dup3\n        /* \"#utility.yul\":15752:15766   */\n      add\n        /* \"#utility.yul\":15744:15766   */\n      swap1\n      pop\n        /* \"#utility.yul\":15641:15773   */\n      swap2\n      swap1\n      pop\n      jump\t// out\n        /* \"#utility.yul\":15779:15893   */\n    tag_537:\n        /* \"#utility.yul\":15846:15852   */\n      0x00\n        /* \"#utility.yul\":15880:15885   */\n      dup2\n        /* \"#utility.yul\":15874:15886   */\n      mload\n        /* \"#utility.yul\":15864:15886   */\n      swap1\n      pop\n        /* \"#utility.yul\":15779:15893   */\n      swap2\n      swap1\n      pop\n      jump\t// out\n        /* \"#utility.yul\":15899:16013   */\n    tag_551:\n        /* \"#utility.yul\":15966:15972   */\n      0x00\n        /* \"#utility.yul\":16000:16005   */\n      dup2\n        /* \"#utility.yul\":15994:16006   */\n      mload\n        /* \"#utility.yul\":15984:16006   */\n      swap1\n      pop\n        /* \"#utility.yul\":15899:16013   */\n      swap2\n      swap1\n      pop\n      jump\t// out\n        /* \"#utility.yul\":16019:16118   */\n    tag_573:\n        /* \"#utility.yul\":16071:16077   */\n      0x00\n        /* \"#utility.yul\":16105:16110   */\n      dup2\n        /* \"#utility.yul\":16099:16111   */\n      mload\n        /* \"#utility.yul\":16089:16111   */\n      swap1\n      pop\n        /* \"#utility.yul\":16019:16118   */\n      swap2\n      swap1\n      pop\n      jump\t// out\n        /* \"#utility.yul\":16124:16237   */\n    tag_547:\n        /* \"#utility.yul\":16194:16198   */\n      0x00\n        /* \"#utility.yul\":16226:16230   */\n      0x20\n        /* \"#utility.yul\":16221:16224   */\n      dup3\n        /* \"#utility.yul\":16217:16231   */\n      add\n        /* \"#utility.yul\":16209:16231   */\n      swap1\n      pop\n        /* \"#utility.yul\":16124:16237   */\n      swap2\n      swap1\n      pop\n      jump\t// out\n        /* \"#utility.yul\":16243:16356   */\n    tag_561:\n        /* \"#utility.yul\":16313:16317   */\n      0x00\n        /* \"#utility.yul\":16345:16349   */\n      0x20\n        /* \"#utility.yul\":16340:16343   */\n      dup3\n        /* \"#utility.yul\":16336:16350   */\n      add\n        /* \"#utility.yul\":16328:16350   */\n      swap1\n      pop\n        /* \"#utility.yul\":16243:16356   */\n      swap2\n      swap1\n      pop\n      jump\t// out\n        /* \"#utility.yul\":16362:16546   */\n    tag_539:\n        /* \"#utility.yul\":16461:16472   */\n      0x00\n        /* \"#utility.yul\":16495:16501   */\n      dup3\n        /* \"#utility.yul\":16490:16493   */\n      dup3\n        /* \"#utility.yul\":16483:16502   */\n      mstore\n        /* \"#utility.yul\":16535:16539   */\n      0x20\n        /* \"#utility.yul\":16530:16533   */\n      dup3\n        /* \"#utility.yul\":16526:16540   */\n      add\n        /* \"#utility.yul\":16511:16540   */\n      swap1\n      pop\n        /* \"#utility.yul\":16362:16546   */\n      swap3\n      swap2\n      pop\n      pop\n      jump\t// out\n        /* \"#utility.yul\":16552:16736   */\n    tag_553:\n        /* \"#utility.yul\":16651:16662   */\n      0x00\n        /* \"#utility.yul\":16685:16691   */\n      dup3\n        /* \"#utility.yul\":16680:16683   */\n      dup3\n        /* \"#utility.yul\":16673:16692   */\n      mstore\n        /* \"#utility.yul\":16725:16729   */\n      0x20\n        /* \"#utility.yul\":16720:16723   */\n      dup3\n        /* \"#utility.yul\":16716:16730   */\n      add\n        /* \"#utility.yul\":16701:16730   */\n      swap1\n      pop\n        /* \"#utility.yul\":16552:16736   */\n      swap3\n      swap2\n      pop\n      pop\n      jump\t// out\n        /* \"#utility.yul\":16742:16911   */\n    tag_575:\n        /* \"#utility.yul\":16826:16837   */\n      0x00\n        /* \"#utility.yul\":16860:16866   */\n      dup3\n        /* \"#utility.yul\":16855:16858   */\n      dup3\n        /* \"#utility.yul\":16848:16867   */\n      mstore\n        /* \"#utility.yul\":16900:16904   */\n      0x20\n        /* \"#utility.yul\":16895:16898   */\n      dup3\n        /* \"#utility.yul\":16891:16905   */\n      add\n        /* \"#utility.yul\":16876:16905   */\n      swap1\n      pop\n        /* \"#utility.yul\":16742:16911   */\n      swap3\n      swap2\n      pop\n      pop\n      jump\t// out\n        /* \"#utility.yul\":16917:17013   */\n    tag_530:\n        /* \"#utility.yul\":16954:16961   */\n      0x00\n        /* \"#utility.yul\":16983:17007   */\n      tag_656\n        /* \"#utility.yul\":17001:17006   */\n      dup3\n        /* \"#utility.yul\":16983:17007   */\n      tag_657\n      jump\t// in\n    tag_656:\n        /* \"#utility.yul\":16972:17007   */\n      swap1\n      pop\n        /* \"#utility.yul\":16917:17013   */\n      swap2\n      swap1\n      pop\n      jump\t// out\n        /* \"#utility.yul\":17019:17109   */\n    tag_565:\n        /* \"#utility.yul\":17053:17060   */\n      0x00\n        /* \"#utility.yul\":17096:17101   */\n      dup2\n        /* \"#utility.yul\":17089:17102   */\n      iszero\n        /* \"#utility.yul\":17082:17103   */\n      iszero\n        /* \"#utility.yul\":17071:17103   */\n      swap1\n      pop\n        /* \"#utility.yul\":17019:17109   */\n      swap2\n      swap1\n      pop\n      jump\t// out\n        /* \"#utility.yul\":17115:17244   */\n    tag_659:\n        /* \"#utility.yul\":17161:17168   */\n      0x00\n        /* \"#utility.yul\":17190:17195   */\n      dup2\n        /* \"#utility.yul\":17179:17195   */\n      swap1\n      pop\n        /* \"#utility.yul\":17196:17238   */\n      tag_661\n        /* \"#utility.yul\":17232:17237   */\n      dup3\n        /* \"#utility.yul\":17196:17238   */\n      tag_662\n      jump\t// in\n    tag_661:\n        /* \"#utility.yul\":17115:17244   */\n      swap2\n      swap1\n      pop\n      jump\t// out\n        /* \"#utility.yul\":17250:17376   */\n    tag_657:\n        /* \"#utility.yul\":17287:17294   */\n      0x00\n        /* \"#utility.yul\":17327:17369   */\n      0xffffffffffffffffffffffffffffffffffffffff\n        /* \"#utility.yul\":17320:17325   */\n      dup3\n        /* \"#utility.yul\":17316:17370   */\n      and\n        /* \"#utility.yul\":17305:17370   */\n      swap1\n      pop\n        /* \"#utility.yul\":17250:17376   */\n      swap2\n      swap1\n      pop\n      jump\t// out\n        /* \"#utility.yul\":17382:17459   */\n    tag_602:\n        /* \"#utility.yul\":17419:17426   */\n      0x00\n        /* \"#utility.yul\":17448:17453   */\n      dup2\n        /* \"#utility.yul\":17437:17453   */\n      swap1\n      pop\n        /* \"#utility.yul\":17382:17459   */\n      swap2\n      swap1\n      pop\n      jump\t// out\n        /* \"#utility.yul\":17465:17594   */\n    tag_569:\n        /* \"#utility.yul\":17522:17531   */\n      0x00\n        /* \"#utility.yul\":17555:17588   */\n      tag_666\n        /* \"#utility.yul\":17582:17587   */\n      dup3\n        /* \"#utility.yul\":17555:17588   */\n      tag_659\n      jump\t// in\n    tag_666:\n        /* \"#utility.yul\":17542:17588   */\n      swap1\n      pop\n        /* \"#utility.yul\":17465:17594   */\n      swap2\n      swap1\n      pop\n      jump\t// out\n        /* \"#utility.yul\":17600:17754   */\n    tag_461:\n        /* \"#utility.yul\":17684:17690   */\n      dup3\n        /* \"#utility.yul\":17679:17682   */\n      dup2\n        /* \"#utility.yul\":17674:17677   */\n      dup4\n        /* \"#utility.yul\":17661:17691   */\n      calldatacopy\n        /* \"#utility.yul\":17746:17747   */\n      0x00\n        /* \"#utility.yul\":17737:17743   */\n      dup4\n        /* \"#utility.yul\":17732:17735   */\n      dup4\n        /* \"#utility.yul\":17728:17744   */\n      add\n        /* \"#utility.yul\":17721:17748   */\n      mstore\n        /* \"#utility.yul\":17600:17754   */\n      pop\n      pop\n      pop\n      jump\t// out\n        /* \"#utility.yul\":17760:18067   */\n    tag_577:\n        /* \"#utility.yul\":17828:17829   */\n      0x00\n        /* \"#utility.yul\":17838:17951   */\n    tag_669:\n        /* \"#utility.yul\":17852:17858   */\n      dup4\n        /* \"#utility.yul\":17849:17850   */\n      dup2\n        /* \"#utility.yul\":17846:17859   */\n      lt\n        /* \"#utility.yul\":17838:17951   */\n      iszero\n      tag_671\n      jumpi\n        /* \"#utility.yul\":17937:17938   */\n      dup1\n        /* \"#utility.yul\":17932:17935   */\n      dup3\n        /* \"#utility.yul\":17928:17939   */\n      add\n        /* \"#utility.yul\":17922:17940   */\n      mload\n        /* \"#utility.yul\":17918:17919   */\n      dup2\n        /* \"#utility.yul\":17913:17916   */\n      dup5\n        /* \"#utility.yul\":17909:17920   */\n      add\n        /* \"#utility.yul\":17902:17941   */\n      mstore\n        /* \"#utility.yul\":17874:17876   */\n      0x20\n        /* \"#utility.yul\":17871:17872   */\n      dup2\n        /* \"#utility.yul\":17867:17877   */\n      add\n        /* \"#utility.yul\":17862:17877   */\n      swap1\n      pop\n        /* \"#utility.yul\":17838:17951   */\n      jump(tag_669)\n    tag_671:\n        /* \"#utility.yul\":17969:17975   */\n      dup4\n        /* \"#utility.yul\":17966:17967   */\n      dup2\n        /* \"#utility.yul\":17963:17976   */\n      gt\n        /* \"#utility.yul\":17960:18061   */\n      iszero\n      tag_672\n      jumpi\n        /* \"#utility.yul\":18049:18050   */\n      0x00\n        /* \"#utility.yul\":18040:18046   */\n      dup5\n        /* \"#utility.yul\":18035:18038   */\n      dup5\n        /* \"#utility.yul\":18031:18047   */\n      add\n        /* \"#utility.yul\":18024:18051   */\n      mstore\n        /* \"#utility.yul\":17960:18061   */\n    tag_672:\n        /* \"#utility.yul\":17809:18067   */\n      pop\n        /* \"#utility.yul\":17760:18067   */\n      pop\n      pop\n      pop\n      jump\t// out\n        /* \"#utility.yul\":18073:18393   */\n    tag_163:\n        /* \"#utility.yul\":18117:18123   */\n      0x00\n        /* \"#utility.yul\":18154:18155   */\n      0x02\n        /* \"#utility.yul\":18148:18152   */\n      dup3\n        /* \"#utility.yul\":18144:18156   */\n      div\n        /* \"#utility.yul\":18134:18156   */\n      swap1\n      pop\n        /* \"#utility.yul\":18201:18202   */\n      0x01\n        /* \"#utility.yul\":18195:18199   */\n      dup3\n        /* \"#utility.yul\":18191:18203   */\n      and\n        /* \"#utility.yul\":18222:18240   */\n      dup1\n        /* \"#utility.yul\":18212:18293   */\n      tag_674\n      jumpi\n        /* \"#utility.yul\":18278:18282   */\n      0x7f\n        /* \"#utility.yul\":18270:18276   */\n      dup3\n        /* \"#utility.yul\":18266:18283   */\n      and\n        /* \"#utility.yul\":18256:18283   */\n      swap2\n      pop\n        /* \"#utility.yul\":18212:18293   */\n    tag_674:\n        /* \"#utility.yul\":18340:18342   */\n      0x20\n        /* \"#utility.yul\":18332:18338   */\n      dup3\n        /* \"#utility.yul\":18329:18343   */\n      lt\n        /* \"#utility.yul\":18309:18327   */\n      dup2\n        /* \"#utility.yul\":18306:18344   */\n      eq\n        /* \"#utility.yul\":18303:18387   */\n      iszero\n      tag_675\n      jumpi\n        /* \"#utility.yul\":18359:18377   */\n      tag_676\n      tag_677\n      jump\t// in\n    tag_676:\n        /* \"#utility.yul\":18303:18387   */\n    tag_675:\n        /* \"#utility.yul\":18124:18393   */\n      pop\n        /* \"#utility.yul\":18073:18393   */\n      swap2\n      swap1\n      pop\n      jump\t// out\n        /* \"#utility.yul\":18399:18680   */\n    tag_632:\n        /* \"#utility.yul\":18482:18509   */\n      tag_679\n        /* \"#utility.yul\":18504:18508   */\n      dup3\n        /* \"#utility.yul\":18482:18509   */\n      tag_579\n      jump\t// in\n    tag_679:\n        /* \"#utility.yul\":18474:18480   */\n      dup2\n        /* \"#utility.yul\":18470:18510   */\n      add\n        /* \"#utility.yul\":18612:18618   */\n      dup2\n        /* \"#utility.yul\":18600:18610   */\n      dup2\n        /* \"#utility.yul\":18597:18619   */\n      lt\n        /* \"#utility.yul\":18576:18594   */\n      0xffffffffffffffff\n        /* \"#utility.yul\":18564:18574   */\n      dup3\n        /* \"#utility.yul\":18561:18595   */\n      gt\n        /* \"#utility.yul\":18558:18620   */\n      or\n        /* \"#utility.yul\":18555:18643   */\n      iszero\n      tag_680\n      jumpi\n        /* \"#utility.yul\":18623:18641   */\n      tag_681\n      tag_637\n      jump\t// in\n    tag_681:\n        /* \"#utility.yul\":18555:18643   */\n    tag_680:\n        /* \"#utility.yul\":18663:18673   */\n      dup1\n        /* \"#utility.yul\":18659:18661   */\n      0x40\n        /* \"#utility.yul\":18652:18674   */\n      mstore\n        /* \"#utility.yul\":18442:18680   */\n      pop\n        /* \"#utility.yul\":18399:18680   */\n      pop\n      pop\n      jump\t// out\n        /* \"#utility.yul\":18686:18919   */\n    tag_214:\n        /* \"#utility.yul\":18725:18728   */\n      0x00\n        /* \"#utility.yul\":18748:18772   */\n      tag_683\n        /* \"#utility.yul\":18766:18771   */\n      dup3\n        /* \"#utility.yul\":18748:18772   */\n      tag_602\n      jump\t// in\n    tag_683:\n        /* \"#utility.yul\":18739:18772   */\n      swap2\n      pop\n        /* \"#utility.yul\":18794:18860   */\n      0xffffffffffffffffffffffffffffffffffffffffffffffffffffffffffffffff\n        /* \"#utility.yul\":18787:18792   */\n      dup3\n        /* \"#utility.yul\":18784:18861   */\n      eq\n        /* \"#utility.yul\":18781:18884   */\n      iszero\n      tag_684\n      jumpi\n        /* \"#utility.yul\":18864:18882   */\n      tag_685\n      tag_686\n      jump\t// in\n    tag_685:\n        /* \"#utility.yul\":18781:18884   */\n    tag_684:\n        /* \"#utility.yul\":18911:18912   */\n      0x01\n        /* \"#utility.yul\":18904:18909   */\n      dup3\n        /* \"#utility.yul\":18900:18913   */\n      add\n        /* \"#utility.yul\":18893:18913   */\n      swap1\n      pop\n        /* \"#utility.yul\":18686:18919   */\n      swap2\n      swap1\n      pop\n      jump\t// out\n        /* \"#utility.yul\":18925:19105   */\n    tag_246:\n        /* \"#utility.yul\":18973:19050   */\n      0x4e487b7100000000000000000000000000000000000000000000000000000000\n        /* \"#utility.yul\":18970:18971   */\n      0x00\n        /* \"#utility.yul\":18963:19051   */\n      mstore\n        /* \"#utility.yul\":19070:19074   */\n      0x01\n        /* \"#utility.yul\":19067:19068   */\n      0x04\n        /* \"#utility.yul\":19060:19075   */\n      mstore\n        /* \"#utility.yul\":19094:19098   */\n      0x24\n        /* \"#utility.yul\":19091:19092   */\n      0x00\n        /* \"#utility.yul\":19084:19099   */\n      revert\n        /* \"#utility.yul\":19111:19291   */\n    tag_686:\n        /* \"#utility.yul\":19159:19236   */\n      0x4e487b7100000000000000000000000000000000000000000000000000000000\n        /* \"#utility.yul\":19156:19157   */\n      0x00\n        /* \"#utility.yul\":19149:19237   */\n      mstore\n        /* \"#utility.yul\":19256:19260   */\n      0x11\n        /* \"#utility.yul\":19253:19254   */\n      0x04\n        /* \"#utility.yul\":19246:19261   */\n      mstore\n        /* \"#utility.yul\":19280:19284   */\n      0x24\n        /* \"#utility.yul\":19277:19278   */\n      0x00\n        /* \"#utility.yul\":19270:19285   */\n      revert\n        /* \"#utility.yul\":19297:19477   */\n    tag_139:\n        /* \"#utility.yul\":19345:19422   */\n      0x4e487b7100000000000000000000000000000000000000000000000000000000\n        /* \"#utility.yul\":19342:19343   */\n      0x00\n        /* \"#utility.yul\":19335:19423   */\n      mstore\n        /* \"#utility.yul\":19442:19446   */\n      0x21\n        /* \"#utility.yul\":19439:19440   */\n      0x04\n        /* \"#utility.yul\":19432:19447   */\n      mstore\n        /* \"#utility.yul\":19466:19470   */\n      0x24\n        /* \"#utility.yul\":19463:19464   */\n      0x00\n        /* \"#utility.yul\":19456:19471   */\n      revert\n        /* \"#utility.yul\":19483:19663   */\n    tag_677:\n        /* \"#utility.yul\":19531:19608   */\n      0x4e487b7100000000000000000000000000000000000000000000000000000000\n        /* \"#utility.yul\":19528:19529   */\n      0x00\n        /* \"#utility.yul\":19521:19609   */\n      mstore\n        /* \"#utility.yul\":19628:19632   */\n      0x22\n        /* \"#utility.yul\":19625:19626   */\n      0x04\n        /* \"#utility.yul\":19618:19633   */\n      mstore\n        /* \"#utility.yul\":19652:19656   */\n      0x24\n        /* \"#utility.yul\":19649:19650   */\n      0x00\n        /* \"#utility.yul\":19642:19657   */\n      revert\n        /* \"#utility.yul\":19669:19849   */\n    tag_209:\n        /* \"#utility.yul\":19717:19794   */\n      0x4e487b7100000000000000000000000000000000000000000000000000000000\n        /* \"#utility.yul\":19714:19715   */\n      0x00\n        /* \"#utility.yul\":19707:19795   */\n      mstore\n        /* \"#utility.yul\":19814:19818   */\n      0x32\n        /* \"#utility.yul\":19811:19812   */\n      0x04\n        /* \"#utility.yul\":19804:19819   */\n      mstore\n        /* \"#utility.yul\":19838:19842   */\n      0x24\n        /* \"#utility.yul\":19835:19836   */\n      0x00\n        /* \"#utility.yul\":19828:19843   */\n      revert\n        /* \"#utility.yul\":19855:20035   */\n    tag_637:\n        /* \"#utility.yul\":19903:19980   */\n      0x4e487b7100000000000000000000000000000000000000000000000000000000\n        /* \"#utility.yul\":19900:19901   */\n      0x00\n        /* \"#utility.yul\":19893:19981   */\n      mstore\n        /* \"#utility.yul\":20000:20004   */\n      0x41\n        /* \"#utility.yul\":19997:19998   */\n      0x04\n        /* \"#utility.yul\":19990:20005   */\n      mstore\n        /* \"#utility.yul\":20024:20028   */\n      0x24\n        /* \"#utility.yul\":20021:20022   */\n      0x00\n        /* \"#utility.yul\":20014:20029   */\n      revert\n        /* \"#utility.yul\":20041:20158   */\n    tag_469:\n        /* \"#utility.yul\":20150:20151   */\n      0x00\n        /* \"#utility.yul\":20147:20148   */\n      dup1\n        /* \"#utility.yul\":20140:20152   */\n      revert\n        /* \"#utility.yul\":20164:20281   */\n    tag_434:\n        /* \"#utility.yul\":20273:20274   */\n      0x00\n        /* \"#utility.yul\":20270:20271   */\n      dup1\n        /* \"#utility.yul\":20263:20275   */\n      revert\n        /* \"#utility.yul\":20287:20404   */\n    tag_459:\n        /* \"#utility.yul\":20396:20397   */\n      0x00\n        /* \"#utility.yul\":20393:20394   */\n      dup1\n        /* \"#utility.yul\":20386:20398   */\n      revert\n        /* \"#utility.yul\":20410:20527   */\n    tag_498:\n        /* \"#utility.yul\":20519:20520   */\n      0x00\n        /* \"#utility.yul\":20516:20517   */\n      dup1\n        /* \"#utility.yul\":20509:20521   */\n      revert\n        /* \"#utility.yul\":20533:20650   */\n    tag_491:\n        /* \"#utility.yul\":20642:20643   */\n      0x00\n        /* \"#utility.yul\":20639:20640   */\n      dup1\n        /* \"#utility.yul\":20632:20644   */\n      revert\n        /* \"#utility.yul\":20656:20758   */\n    tag_579:\n        /* \"#utility.yul\":20697:20703   */\n      0x00\n        /* \"#utility.yul\":20748:20750   */\n      0x1f\n        /* \"#utility.yul\":20744:20751   */\n      not\n        /* \"#utility.yul\":20739:20741   */\n      0x1f\n        /* \"#utility.yul\":20732:20737   */\n      dup4\n        /* \"#utility.yul\":20728:20742   */\n      add\n        /* \"#utility.yul\":20724:20752   */\n      and\n        /* \"#utility.yul\":20714:20752   */\n      swap1\n      pop\n        /* \"#utility.yul\":20656:20758   */\n      swap2\n      swap1\n      pop\n      jump\t// out\n        /* \"#utility.yul\":20764:20989   */\n    tag_584:\n        /* \"#utility.yul\":20904:20938   */\n      0x4f776e61626c653a206e6577206f776e657220697320746865207a65726f2061\n        /* \"#utility.yul\":20900:20901   */\n      0x00\n        /* \"#utility.yul\":20892:20898   */\n      dup3\n        /* \"#utility.yul\":20888:20902   */\n      add\n        /* \"#utility.yul\":20881:20939   */\n      mstore\n        /* \"#utility.yul\":20973:20981   */\n      0x6464726573730000000000000000000000000000000000000000000000000000\n        /* \"#utility.yul\":20968:20970   */\n      0x20\n        /* \"#utility.yul\":20960:20966   */\n      dup3\n        /* \"#utility.yul\":20956:20971   */\n      add\n        /* \"#utility.yul\":20949:20982   */\n      mstore\n        /* \"#utility.yul\":20764:20989   */\n      pop\n      jump\t// out\n        /* \"#utility.yul\":20995:21161   */\n    tag_589:\n        /* \"#utility.yul\":21135:21153   */\n      0x5061757361626c653a2070617573656400000000000000000000000000000000\n        /* \"#utility.yul\":21131:21132   */\n      0x00\n        /* \"#utility.yul\":21123:21129   */\n      dup3\n        /* \"#utility.yul\":21119:21133   */\n      add\n        /* \"#utility.yul\":21112:21154   */\n      mstore\n        /* \"#utility.yul\":20995:21161   */\n      pop\n      jump\t// out\n        /* \"#utility.yul\":21167:21346   */\n    tag_594:\n        /* \"#utility.yul\":21307:21338   */\n      0x41727261793a20636f6e7461696e73207a65726f20656c656d656e7473000000\n        /* \"#utility.yul\":21303:21304   */\n      0x00\n        /* \"#utility.yul\":21295:21301   */\n      dup3\n        /* \"#utility.yul\":21291:21305   */\n      add\n        /* \"#utility.yul\":21284:21339   */\n      mstore\n        /* \"#utility.yul\":21167:21346   */\n      pop\n      jump\t// out\n        /* \"#utility.yul\":21352:21534   */\n    tag_599:\n        /* \"#utility.yul\":21492:21526   */\n      0x4f776e61626c653a2063616c6c6572206973206e6f7420746865206f776e6572\n        /* \"#utility.yul\":21488:21489   */\n      0x00\n        /* \"#utility.yul\":21480:21486   */\n      dup3\n        /* \"#utility.yul\":21476:21490   */\n      add\n        /* \"#utility.yul\":21469:21527   */\n      mstore\n        /* \"#utility.yul\":21352:21534   */\n      pop\n      jump\t// out\n        /* \"#utility.yul\":21540:21654   */\n    tag_662:\n        /* \"#utility.yul\":21622:21623   */\n      0x03\n        /* \"#utility.yul\":21615:21620   */\n      dup2\n        /* \"#utility.yul\":21612:21624   */\n      lt\n        /* \"#utility.yul\":21602:21648   */\n      tag_704\n      jumpi\n        /* \"#utility.yul\":21628:21646   */\n      tag_705\n      tag_139\n      jump\t// in\n    tag_705:\n        /* \"#utility.yul\":21602:21648   */\n    tag_704:\n        /* \"#utility.yul\":21540:21654   */\n      pop\n      jump\t// out\n        /* \"#utility.yul\":21660:21782   */\n    tag_464:\n        /* \"#utility.yul\":21733:21757   */\n      tag_707\n        /* \"#utility.yul\":21751:21756   */\n      dup2\n        /* \"#utility.yul\":21733:21757   */\n      tag_530\n      jump\t// in\n    tag_707:\n        /* \"#utility.yul\":21726:21731   */\n      dup2\n        /* \"#utility.yul\":21723:21758   */\n      eq\n        /* \"#utility.yul\":21713:21776   */\n      tag_708\n      jumpi\n        /* \"#utility.yul\":21772:21773   */\n      0x00\n        /* \"#utility.yul\":21769:21770   */\n      dup1\n        /* \"#utility.yul\":21762:21774   */\n      revert\n        /* \"#utility.yul\":21713:21776   */\n    tag_708:\n        /* \"#utility.yul\":21660:21782   */\n      pop\n      jump\t// out\n        /* \"#utility.yul\":21788:21896   */\n    tag_479:\n        /* \"#utility.yul\":21870:21871   */\n      0x03\n        /* \"#utility.yul\":21863:21868   */\n      dup2\n        /* \"#utility.yul\":21860:21872   */\n      lt\n        /* \"#utility.yul\":21850:21890   */\n      tag_710\n      jumpi\n        /* \"#utility.yul\":21886:21887   */\n      0x00\n        /* \"#utility.yul\":21883:21884   */\n      dup1\n        /* \"#utility.yul\":21876:21888   */\n      revert\n        /* \"#utility.yul\":21850:21890   */\n    tag_710:\n        /* \"#utility.yul\":21788:21896   */\n      pop\n      jump\t// out\n        /* \"#utility.yul\":21902:22024   */\n    tag_487:\n        /* \"#utility.yul\":21975:21999   */\n      tag_712\n        /* \"#utility.yul\":21993:21998   */\n      dup2\n        /* \"#utility.yul\":21975:21999   */\n      tag_602\n      jump\t// in\n    tag_712:\n        /* \"#utility.yul\":21968:21973   */\n      dup2\n        /* \"#utility.yul\":21965:22000   */\n      eq\n        /* \"#utility.yul\":21955:22018   */\n      tag_713\n      jumpi\n        /* \"#utility.yul\":22014:22015   */\n      0x00\n        /* \"#utility.yul\":22011:22012   */\n      dup1\n        /* \"#utility.yul\":22004:22016   */\n      revert\n        /* \"#utility.yul\":21955:22018   */\n    tag_713:\n        /* \"#utility.yul\":21902:22024   */\n      pop\n      jump\t// out\n\n    auxdata: 0xa2646970667358221220586b1d4c404979ada1374e3679d116a87dbc8d12f8d30785c7d185c9a83d99bb64736f6c63430008070033\n}\n",
				"bytecode": {
					"linkReferences": {},
					"object": "60806040526040518060800160405280600a60ff168152602001602860ff168152602001602860ff168152602001600a60ff16815250600a9060046200004792919062000249565b503480156200005557600080fd5b5060405162002ebb38038062002ebb83398181016040528101906200007b9190620003fc565b6200009b6200008f6200017d60201b60201c565b6200018560201b60201c565b60008060146101000a81548160ff021916908315150217905550620000c56200017d60201b60201c565b600160006101000a81548173ffffffffffffffffffffffffffffffffffffffff021916908373ffffffffffffffffffffffffffffffffffffffff16021790555084600590805190602001906200011d929190620002a0565b50836006908051906020019062000136929190620002a0565b508260078190555081600860006101000a81548160ff02191690836002811115620001665762000165620005cd565b5b0217905550806009819055505050505050620006aa565b600033905090565b60008060009054906101000a900473ffffffffffffffffffffffffffffffffffffffff169050816000806101000a81548173ffffffffffffffffffffffffffffffffffffffff021916908373ffffffffffffffffffffffffffffffffffffffff1602179055508173ffffffffffffffffffffffffffffffffffffffff168173ffffffffffffffffffffffffffffffffffffffff167f8be0079c531659141344cd1fd0a4f28419497f9722a3daafe3b4186f6b6457e060405160405180910390a35050565b8280548282559060005260206000209081019282156200028d579160200282015b828111156200028c578251829060ff169055916020019190600101906200026a565b5b5090506200029c919062000331565b5090565b828054620002ae9062000561565b90600052602060002090601f016020900481019282620002d257600085556200031e565b82601f10620002ed57805160ff19168380011785556200031e565b828001600101855582156200031e579182015b828111156200031d57825182559160200191906001019062000300565b5b5090506200032d919062000331565b5090565b5b808211156200034c57600081600090555060010162000332565b5090565b6000620003676200036184620004eb565b620004c2565b9050828152602081018484840111156200038657620003856200065f565b5b620003938482856200052b565b509392505050565b600081519050620003ac816200067f565b92915050565b600082601f830112620003ca57620003c96200065a565b5b8151620003dc84826020860162000350565b91505092915050565b600081519050620003f68162000690565b92915050565b600080600080600060a086880312156200041b576200041a62000669565b5b600086015167ffffffffffffffff8111156200043c576200043b62000664565b5b6200044a88828901620003b2565b955050602086015167ffffffffffffffff8111156200046e576200046d62000664565b5b6200047c88828901620003b2565b94505060406200048f88828901620003e5565b9350506060620004a2888289016200039b565b9250506080620004b588828901620003e5565b9150509295509295909350565b6000620004ce620004e1565b9050620004dc828262000597565b919050565b6000604051905090565b600067ffffffffffffffff8211156200050957620005086200062b565b5b62000514826200066e565b9050602081019050919050565b6000819050919050565b60005b838110156200054b5780820151818401526020810190506200052e565b838111156200055b576000848401525b50505050565b600060028204905060018216806200057a57607f821691505b60208210811415620005915762000590620005fc565b5b50919050565b620005a2826200066e565b810181811067ffffffffffffffff82111715620005c457620005c36200062b565b5b80604052505050565b7f4e487b7100000000000000000000000000000000000000000000000000000000600052602160045260246000fd5b7f4e487b7100000000000000000000000000000000000000000000000000000000600052602260045260246000fd5b7f4e487b7100000000000000000000000000000000000000000000000000000000600052604160045260246000fd5b600080fd5b600080fd5b600080fd5b600080fd5b6000601f19601f8301169050919050565b600381106200068d57600080fd5b50565b6200069b8162000521565b8114620006a757600080fd5b50565b61280180620006ba6000396000f3fe608060405234801561001057600080fd5b506004361061018e5760003560e01c8063715018a6116100de578063a34d846011610097578063c47f002711610071578063c47f002714610405578063d5dcf12714610421578063d9e71c021461043d578063f2fde38b1461045b5761018e565b8063a34d8460146103af578063b84c8246146103cb578063c250a9aa146103e75761018e565b8063715018a6146103115780638da5cb5b1461031b5780638f59e34f1461033957806391b7f5ed14610357578063967e6e651461037357806398d5fdca146103915761018e565b806317d7de7c1161014b5780635c975abb116101255780635c975abb1461029d5780635dca654f146102bb5780635fcd689e146102d9578063667de587146102f55761018e565b806317d7de7c146102455780631cced51b146102635780634956f4eb146102815761018e565b80630b54cbfb146101935780630b9d3f32146101af578063127810bc146101cd57806314b21322146101eb578063150704011461020957806315dae03e14610227575b600080fd5b6101ad60048036038101906101a89190611ed4565b610477565b005b6101b7610568565b6040516101c491906122b9565b60405180910390f35b6101d56105bd565b6040516101e2919061219d565b60405180910390f35b6101f3610693565b6040516102009190612182565b60405180910390f35b610211610705565b60405161021e9190612217565b60405180910390f35b61022f6107df565b60405161023c91906121fc565b60405180910390f35b61024d61083e565b60405161025a9190612217565b60405180910390f35b61026b610918565b60405161027891906121bf565b60405180910390f35b61029b60048036038101906102969190611e8b565b6109b8565b005b6102a5610af0565b6040516102b291906121e1565b60405180910390f35b6102c3610b06565b6040516102d091906122b9565b60405180910390f35b6102f360048036038101906102ee9190611e42565b610b5b565b005b61030f600480360381019061030a9190611e42565b610d8b565b005b610319610fbb565b005b610323611043565b6040516103309190612182565b60405180910390f35b61034161106c565b60405161034e91906122b9565b60405180910390f35b610371600480360381019061036c9190611f4a565b6110c1565b005b61037b61118f565b60405161038891906122b9565b60405180910390f35b6103996111e1565b6040516103a691906122b9565b60405180910390f35b6103c960048036038101906103c49190611e42565b611233565b005b6103e560048036038101906103e09190611f01565b611463565b005b6103ef611541565b6040516103fc919061219d565b60405180910390f35b61041f600480360381019061041a9190611f01565b611617565b005b61043b60048036038101906104369190611f4a565b6116f5565b005b6104456117c3565b604051610452919061219d565b60405180910390f35b61047560048036038101906104709190611e15565b611899565b005b61047f611991565b73ffffffffffffffffffffffffffffffffffffffff1661049d611043565b73ffffffffffffffffffffffffffffffffffffffff16146104f3576040517f08c379a00000000000000000000000000000000000000000000000000000000081526004016104ea90612299565b60405180910390fd5b6104fb610af0565b1561053b576040517f08c379a000000000000000000000000000000000000000000000000000000000815260040161053290612259565b60405180910390fd5b80600860006101000a81548160ff021916908360028111156105605761055f6125c9565b5b021790555050565b6000610572610af0565b156105b2576040517f08c379a00000000000000000000000000000000000000000000000000000000081526004016105a990612259565b60405180910390fd5b600480549050905090565b60606105c7610af0565b15610607576040517f08c379a00000000000000000000000000000000000000000000000000000000081526004016105fe90612259565b60405180910390fd5b600380548060200260200160405190810160405280929190818152602001828054801561068957602002820191906000526020600020905b8160009054906101000a900473ffffffffffffffffffffffffffffffffffffffff1673ffffffffffffffffffffffffffffffffffffffff168152602001906001019080831161063f575b5050505050905090565b600061069d610af0565b156106dd576040517f08c379a00000000000000000000000000000000000000000000000000000000081526004016106d490612259565b60405180910390fd5b600160009054906101000a900473ffffffffffffffffffffffffffffffffffffffff16905090565b606061070f610af0565b1561074f576040517f08c379a000000000000000000000000000000000000000000000000000000000815260040161074690612259565b60405180910390fd5b6006805461075c906124bf565b80601f0160208091040260200160405190810160405280929190818152602001828054610788906124bf565b80156107d55780601f106107aa576101008083540402835291602001916107d5565b820191906000526020600020905b8154815290600101906020018083116107b857829003601f168201915b5050505050905090565b60006107e9610af0565b15610829576040517f08c379a000000000000000000000000000000000000000000000000000000000815260040161082090612259565b60405180910390fd5b600860009054906101000a900460ff16905090565b6060610848610af0565b15610888576040517f08c379a000000000000000000000000000000000000000000000000000000000815260040161087f90612259565b60405180910390fd5b60058054610895906124bf565b80601f01602080910402602001604051908101604052809291908181526020018280546108c1906124bf565b801561090e5780601f106108e35761010080835404028352916020019161090e565b820191906000526020600020905b8154815290600101906020018083116108f157829003601f168201915b5050505050905090565b6060610922610af0565b15610962576040517f08c379a000000000000000000000000000000000000000000000000000000000815260040161095990612259565b60405180910390fd5b600a8054806020026020016040519081016040528092919081815260200182805480156109ae57602002820191906000526020600020905b81548152602001906001019080831161099a575b5050505050905090565b6109c0611991565b73ffffffffffffffffffffffffffffffffffffffff166109de611043565b73ffffffffffffffffffffffffffffffffffffffff1614610a34576040517f08c379a0000000000000000000000000000000000000000000000000000000008152600401610a2b90612299565b60405180910390fd5b610a3c610af0565b15610a7c576040517f08c379a0000000000000000000000000000000000000000000000000000000008152600401610a7390612259565b60405180910390fd5b80610a8681611999565b610a8f57600080fd5b60005b8251811015610aeb57828181518110610aae57610aad612627565b5b6020026020010151600a8281548110610aca57610ac9612627565b5b90600052602060002001819055508080610ae390612522565b915050610a92565b505050565b60008060149054906101000a900460ff16905090565b6000610b10610af0565b15610b50576040517f08c379a0000000000000000000000000000000000000000000000000000000008152600401610b4790612259565b60405180910390fd5b600380549050905090565b610b63611991565b73ffffffffffffffffffffffffffffffffffffffff16610b81611043565b73ffffffffffffffffffffffffffffffffffffffff1614610bd7576040517f08c379a0000000000000000000000000000000000000000000000000000000008152600401610bce90612299565b60405180910390fd5b610bdf610af0565b15610c1f576040517f08c379a0000000000000000000000000000000000000000000000000000000008152600401610c1690612259565b60405180910390fd5b80610c29816119ea565b610c3257600080fd5b60005b8251811015610d8657610ce86002805480602002602001604051908101604052809291908181526020018280548015610cc357602002820191906000526020600020905b8160009054906101000a900473ffffffffffffffffffffffffffffffffffffffff1673ffffffffffffffffffffffffffffffffffffffff1681526020019060010190808311610c79575b5050505050848381518110610cdb57610cda612627565b5b6020026020010151611a3b565b15610cf657610cf561256b565b5b6002838281518110610d0b57610d0a612627565b5b60200260200101519080600181540180825580915050600190039060005260206000200160009091909190916101000a81548173ffffffffffffffffffffffffffffffffffffffff021916908373ffffffffffffffffffffffffffffffffffffffff1602179055508080610d7e90612522565b915050610c35565b505050565b610d93611991565b73ffffffffffffffffffffffffffffffffffffffff16610db1611043565b73ffffffffffffffffffffffffffffffffffffffff1614610e07576040517f08c379a0000000000000000000000000000000000000000000000000000000008152600401610dfe90612299565b60405180910390fd5b610e0f610af0565b15610e4f576040517f08c379a0000000000000000000000000000000000000000000000000000000008152600401610e4690612259565b60405180910390fd5b80610e59816119ea565b610e6257600080fd5b60005b8251811015610fb657610f186003805480602002602001604051908101604052809291908181526020018280548015610ef357602002820191906000526020600020905b8160009054906101000a900473ffffffffffffffffffffffffffffffffffffffff1673ffffffffffffffffffffffffffffffffffffffff1681526020019060010190808311610ea9575b5050505050848381518110610f0b57610f0a612627565b5b6020026020010151611a3b565b15610f2657610f2561256b565b5b6003838281518110610f3b57610f3a612627565b5b60200260200101519080600181540180825580915050600190039060005260206000200160009091909190916101000a81548173ffffffffffffffffffffffffffffffffffffffff021916908373ffffffffffffffffffffffffffffffffffffffff1602179055508080610fae90612522565b915050610e65565b505050565b610fc3611991565b73ffffffffffffffffffffffffffffffffffffffff16610fe1611043565b73ffffffffffffffffffffffffffffffffffffffff1614611037576040517f08c379a000000000000000000000000000000000000000000000000000000000815260040161102e90612299565b60405180910390fd5b6110416000611ac3565b565b60008060009054906101000a900473ffffffffffffffffffffffffffffffffffffffff16905090565b6000611076610af0565b156110b6576040517f08c379a00000000000000000000000000000000000000000000000000000000081526004016110ad90612259565b60405180910390fd5b600280549050905090565b6110c9611991565b73ffffffffffffffffffffffffffffffffffffffff166110e7611043565b73ffffffffffffffffffffffffffffffffffffffff161461113d576040517f08c379a000000000000000000000000000000000000000000000000000000000815260040161113490612299565b60405180910390fd5b611145610af0565b15611185576040517f08c379a000000000000000000000000000000000000000000000000000000000815260040161117c90612259565b60405180910390fd5b8060098190555050565b6000611199610af0565b156111d9576040517f08c379a00000000000000000000000000000000000000000000000000000000081526004016111d090612259565b60405180910390fd5b600754905090565b60006111eb610af0565b1561122b576040517f08c379a000000000000000000000000000000000000000000000000000000000815260040161122290612259565b60405180910390fd5b600954905090565b61123b611991565b73ffffffffffffffffffffffffffffffffffffffff16611259611043565b73ffffffffffffffffffffffffffffffffffffffff16146112af576040517f08c379a00000000000000000000000000000000000000000000000000000000081526004016112a690612299565b60405180910390fd5b6112b7610af0565b156112f7576040517f08c379a00000000000000000000000000000000000000000000000000000000081526004016112ee90612259565b60405180910390fd5b80611301816119ea565b61130a57600080fd5b60005b825181101561145e576113c0600480548060200260200160405190810160405280929190818152602001828054801561139b57602002820191906000526020600020905b8160009054906101000a900473ffffffffffffffffffffffffffffffffffffffff1673ffffffffffffffffffffffffffffffffffffffff1681526020019060010190808311611351575b50505050508483815181106113b3576113b2612627565b5b6020026020010151611a3b565b156113ce576113cd61256b565b5b60048382815181106113e3576113e2612627565b5b60200260200101519080600181540180825580915050600190039060005260206000200160009091909190916101000a81548173ffffffffffffffffffffffffffffffffffffffff021916908373ffffffffffffffffffffffffffffffffffffffff160217905550808061145690612522565b91505061130d565b505050565b61146b611991565b73ffffffffffffffffffffffffffffffffffffffff16611489611043565b73ffffffffffffffffffffffffffffffffffffffff16146114df576040517f08c379a00000000000000000000000000000000000000000000000000000000081526004016114d690612299565b60405180910390fd5b6114e7610af0565b15611527576040517f08c379a000000000000000000000000000000000000000000000000000000000815260040161151e90612259565b60405180910390fd5b806006908051906020019061153d929190611b87565b5050565b606061154b610af0565b1561158b576040517f08c379a000000000000000000000000000000000000000000000000000000000815260040161158290612259565b60405180910390fd5b600280548060200260200160405190810160405280929190818152602001828054801561160d57602002820191906000526020600020905b8160009054906101000a900473ffffffffffffffffffffffffffffffffffffffff1673ffffffffffffffffffffffffffffffffffffffff16815260200190600101908083116115c3575b5050505050905090565b61161f611991565b73ffffffffffffffffffffffffffffffffffffffff1661163d611043565b73ffffffffffffffffffffffffffffffffffffffff1614611693576040517f08c379a000000000000000000000000000000000000000000000000000000000815260040161168a90612299565b60405180910390fd5b61169b610af0565b156116db576040517f08c379a00000000000000000000000000000000000000000000000000000000081526004016116d290612259565b60405180910390fd5b80600590805190602001906116f1929190611b87565b5050565b6116fd611991565b73ffffffffffffffffffffffffffffffffffffffff1661171b611043565b73ffffffffffffffffffffffffffffffffffffffff1614611771576040517f08c379a000000000000000000000000000000000000000000000000000000000815260040161176890612299565b60405180910390fd5b611779610af0565b156117b9576040517f08c379a00000000000000000000000000000000000000000000000000000000081526004016117b090612259565b60405180910390fd5b8060078190555050565b60606117cd610af0565b1561180d576040517f08c379a000000000000000000000000000000000000000000000000000000000815260040161180490612259565b60405180910390fd5b600480548060200260200160405190810160405280929190818152602001828054801561188f57602002820191906000526020600020905b8160009054906101000a900473ffffffffffffffffffffffffffffffffffffffff1673ffffffffffffffffffffffffffffffffffffffff1681526020019060010190808311611845575b5050505050905090565b6118a1611991565b73ffffffffffffffffffffffffffffffffffffffff166118bf611043565b73ffffffffffffffffffffffffffffffffffffffff1614611915576040517f08c379a000000000000000000000000000000000000000000000000000000000815260040161190c90612299565b60405180910390fd5b600073ffffffffffffffffffffffffffffffffffffffff168173ffffffffffffffffffffffffffffffffffffffff161415611985576040517f08c379a000000000000000000000000000000000000000000000000000000000815260040161197c90612239565b60405180910390fd5b61198e81611ac3565b50565b600033905090565b60008160008151116119e0576040517f08c379a00000000000000000000000000000000000000000000000000000000081526004016119d790612279565b60405180910390fd5b6001915050919050565b6000816000815111611a31576040517f08c379a0000000000000000000000000000000000000000000000000000000008152600401611a2890612279565b60405180910390fd5b6001915050919050565b600080600090505b8351811015611ab7578273ffffffffffffffffffffffffffffffffffffffff16848281518110611a7657611a75612627565b5b602002602001015173ffffffffffffffffffffffffffffffffffffffff161415611aa4576001915050611abd565b8080611aaf90612522565b915050611a43565b50600090505b92915050565b60008060009054906101000a900473ffffffffffffffffffffffffffffffffffffffff169050816000806101000a81548173ffffffffffffffffffffffffffffffffffffffff021916908373ffffffffffffffffffffffffffffffffffffffff1602179055508173ffffffffffffffffffffffffffffffffffffffff168173ffffffffffffffffffffffffffffffffffffffff167f8be0079c531659141344cd1fd0a4f28419497f9722a3daafe3b4186f6b6457e060405160405180910390a35050565b828054611b93906124bf565b90600052602060002090601f016020900481019282611bb55760008555611bfc565b82601f10611bce57805160ff1916838001178555611bfc565b82800160010185558215611bfc579182015b82811115611bfb578251825591602001919060010190611be0565b5b509050611c099190611c0d565b5090565b5b80821115611c26576000816000905550600101611c0e565b5090565b6000611c3d611c38846122f9565b6122d4565b90508083825260208201905082856020860282011115611c6057611c5f61268a565b5b60005b85811015611c905781611c768882611d4c565b845260208401935060208301925050600181019050611c63565b5050509392505050565b6000611cad611ca884612325565b6122d4565b90508083825260208201905082856020860282011115611cd057611ccf61268a565b5b60005b85811015611d005781611ce68882611e00565b845260208401935060208301925050600181019050611cd3565b5050509392505050565b6000611d1d611d1884612351565b6122d4565b905082815260208101848484011115611d3957611d3861268f565b5b611d4484828561247d565b509392505050565b600081359050611d5b8161278d565b92915050565b600082601f830112611d7657611d75612685565b5b8135611d86848260208601611c2a565b91505092915050565b600082601f830112611da457611da3612685565b5b8135611db4848260208601611c9a565b91505092915050565b600081359050611dcc816127a4565b92915050565b600082601f830112611de757611de6612685565b5b8135611df7848260208601611d0a565b91505092915050565b600081359050611e0f816127b4565b92915050565b600060208284031215611e2b57611e2a612699565b5b6000611e3984828501611d4c565b91505092915050565b600060208284031215611e5857611e57612699565b5b600082013567ffffffffffffffff811115611e7657611e75612694565b5b611e8284828501611d61565b91505092915050565b600060208284031215611ea157611ea0612699565b5b600082013567ffffffffffffffff811115611ebf57611ebe612694565b5b611ecb84828501611d8f565b91505092915050565b600060208284031215611eea57611ee9612699565b5b6000611ef884828501611dbd565b91505092915050565b600060208284031215611f1757611f16612699565b5b600082013567ffffffffffffffff811115611f3557611f34612694565b5b611f4184828501611dd2565b91505092915050565b600060208284031215611f6057611f5f612699565b5b6000611f6e84828501611e00565b91505092915050565b6000611f838383611fa7565b60208301905092915050565b6000611f9b8383612164565b60208301905092915050565b611fb081612410565b82525050565b611fbf81612410565b82525050565b6000611fd0826123a2565b611fda81856123dd565b9350611fe583612382565b8060005b83811015612016578151611ffd8882611f77565b9750612008836123c3565b925050600181019050611fe9565b5085935050505092915050565b600061202e826123ad565b61203881856123ee565b935061204383612392565b8060005b8381101561207457815161205b8882611f8f565b9750612066836123d0565b925050600181019050612047565b5085935050505092915050565b61208a81612422565b82525050565b6120998161246b565b82525050565b60006120aa826123b8565b6120b481856123ff565b93506120c481856020860161248c565b6120cd8161269e565b840191505092915050565b60006120e56026836123ff565b91506120f0826126af565b604082019050919050565b60006121086010836123ff565b9150612113826126fe565b602082019050919050565b600061212b601d836123ff565b915061213682612727565b602082019050919050565b600061214e6020836123ff565b915061215982612750565b602082019050919050565b61216d81612461565b82525050565b61217c81612461565b82525050565b60006020820190506121976000830184611fb6565b92915050565b600060208201905081810360008301526121b78184611fc5565b905092915050565b600060208201905081810360008301526121d98184612023565b905092915050565b60006020820190506121f66000830184612081565b92915050565b60006020820190506122116000830184612090565b92915050565b60006020820190508181036000830152612231818461209f565b905092915050565b60006020820190508181036000830152612252816120d8565b9050919050565b60006020820190508181036000830152612272816120fb565b9050919050565b600060208201905081810360008301526122928161211e565b9050919050565b600060208201905081810360008301526122b281612141565b9050919050565b60006020820190506122ce6000830184612173565b92915050565b60006122de6122ef565b90506122ea82826124f1565b919050565b6000604051905090565b600067ffffffffffffffff82111561231457612313612656565b5b602082029050602081019050919050565b600067ffffffffffffffff8211156123405761233f612656565b5b602082029050602081019050919050565b600067ffffffffffffffff82111561236c5761236b612656565b5b6123758261269e565b9050602081019050919050565b6000819050602082019050919050565b6000819050602082019050919050565b600081519050919050565b600081519050919050565b600081519050919050565b6000602082019050919050565b6000602082019050919050565b600082825260208201905092915050565b600082825260208201905092915050565b600082825260208201905092915050565b600061241b82612441565b9050919050565b60008115159050919050565b600081905061243c82612779565b919050565b600073ffffffffffffffffffffffffffffffffffffffff82169050919050565b6000819050919050565b60006124768261242e565b9050919050565b82818337600083830152505050565b60005b838110156124aa57808201518184015260208101905061248f565b838111156124b9576000848401525b50505050565b600060028204905060018216806124d757607f821691505b602082108114156124eb576124ea6125f8565b5b50919050565b6124fa8261269e565b810181811067ffffffffffffffff8211171561251957612518612656565b5b80604052505050565b600061252d82612461565b91507fffffffffffffffffffffffffffffffffffffffffffffffffffffffffffffffff8214156125605761255f61259a565b5b600182019050919050565b7f4e487b7100000000000000000000000000000000000000000000000000000000600052600160045260246000fd5b7f4e487b7100000000000000000000000000000000000000000000000000000000600052601160045260246000fd5b7f4e487b7100000000000000000000000000000000000000000000000000000000600052602160045260246000fd5b7f4e487b7100000000000000000000000000000000000000000000000000000000600052602260045260246000fd5b7f4e487b7100000000000000000000000000000000000000000000000000000000600052603260045260246000fd5b7f4e487b7100000000000000000000000000000000000000000000000000000000600052604160045260246000fd5b600080fd5b600080fd5b600080fd5b600080fd5b600080fd5b6000601f19601f8301169050919050565b7f4f776e61626c653a206e6577206f776e657220697320746865207a65726f206160008201527f6464726573730000000000000000000000000000000000000000000000000000602082015250565b7f5061757361626c653a2070617573656400000000000000000000000000000000600082015250565b7f41727261793a20636f6e7461696e73207a65726f20656c656d656e7473000000600082015250565b7f4f776e61626c653a2063616c6c6572206973206e6f7420746865206f776e6572600082015250565b6003811061278a576127896125c9565b5b50565b61279681612410565b81146127a157600080fd5b50565b600381106127b157600080fd5b50565b6127bd81612461565b81146127c857600080fd5b5056fea2646970667358221220586b1d4c404979ada1374e3679d116a87dbc8d12f8d30785c7d185c9a83d99bb64736f6c63430008070033",
					"opcodes": "PUSH1 0x80 PUSH1 0x40 MSTORE PUSH1 0x40 MLOAD DUP1 PUSH1 0x80 ADD PUSH1 0x40 MSTORE DUP1 PUSH1 0xA PUSH1 0xFF AND DUP2 MSTORE PUSH1 0x20 ADD PUSH1 0x28 PUSH1 0xFF AND DUP2 MSTORE PUSH1 0x20 ADD PUSH1 0x28 PUSH1 0xFF AND DUP2 MSTORE PUSH1 0x20 ADD PUSH1 0xA PUSH1 0xFF AND DUP2 MSTORE POP PUSH1 0xA SWAP1 PUSH1 0x4 PUSH3 0x47 SWAP3 SWAP2 SWAP1 PUSH3 0x249 JUMP JUMPDEST POP CALLVALUE DUP1 ISZERO PUSH3 0x55 JUMPI PUSH1 0x0 DUP1 REVERT JUMPDEST POP PUSH1 0x40 MLOAD PUSH3 0x2EBB CODESIZE SUB DUP1 PUSH3 0x2EBB DUP4 CODECOPY DUP2 DUP2 ADD PUSH1 0x40 MSTORE DUP2 ADD SWAP1 PUSH3 0x7B SWAP2 SWAP1 PUSH3 0x3FC JUMP JUMPDEST PUSH3 0x9B PUSH3 0x8F PUSH3 0x17D PUSH1 0x20 SHL PUSH1 0x20 SHR JUMP JUMPDEST PUSH3 0x185 PUSH1 0x20 SHL PUSH1 0x20 SHR JUMP JUMPDEST PUSH1 0x0 DUP1 PUSH1 0x14 PUSH2 0x100 EXP DUP2 SLOAD DUP2 PUSH1 0xFF MUL NOT AND SWAP1 DUP4 ISZERO ISZERO MUL OR SWAP1 SSTORE POP PUSH3 0xC5 PUSH3 0x17D PUSH1 0x20 SHL PUSH1 0x20 SHR JUMP JUMPDEST PUSH1 0x1 PUSH1 0x0 PUSH2 0x100 EXP DUP2 SLOAD DUP2 PUSH20 0xFFFFFFFFFFFFFFFFFFFFFFFFFFFFFFFFFFFFFFFF MUL NOT AND SWAP1 DUP4 PUSH20 0xFFFFFFFFFFFFFFFFFFFFFFFFFFFFFFFFFFFFFFFF AND MUL OR SWAP1 SSTORE POP DUP5 PUSH1 0x5 SWAP1 DUP1 MLOAD SWAP1 PUSH1 0x20 ADD SWAP1 PUSH3 0x11D SWAP3 SWAP2 SWAP1 PUSH3 0x2A0 JUMP JUMPDEST POP DUP4 PUSH1 0x6 SWAP1 DUP1 MLOAD SWAP1 PUSH1 0x20 ADD SWAP1 PUSH3 0x136 SWAP3 SWAP2 SWAP1 PUSH3 0x2A0 JUMP JUMPDEST POP DUP3 PUSH1 0x7 DUP2 SWAP1 SSTORE POP DUP2 PUSH1 0x8 PUSH1 0x0 PUSH2 0x100 EXP DUP2 SLOAD DUP2 PUSH1 0xFF MUL NOT AND SWAP1 DUP4 PUSH1 0x2 DUP2 GT ISZERO PUSH3 0x166 JUMPI PUSH3 0x165 PUSH3 0x5CD JUMP JUMPDEST JUMPDEST MUL OR SWAP1 SSTORE POP DUP1 PUSH1 0x9 DUP2 SWAP1 SSTORE POP POP POP POP POP POP PUSH3 0x6AA JUMP JUMPDEST PUSH1 0x0 CALLER SWAP1 POP SWAP1 JUMP JUMPDEST PUSH1 0x0 DUP1 PUSH1 0x0 SWAP1 SLOAD SWAP1 PUSH2 0x100 EXP SWAP1 DIV PUSH20 0xFFFFFFFFFFFFFFFFFFFFFFFFFFFFFFFFFFFFFFFF AND SWAP1 POP DUP2 PUSH1 0x0 DUP1 PUSH2 0x100 EXP DUP2 SLOAD DUP2 PUSH20 0xFFFFFFFFFFFFFFFFFFFFFFFFFFFFFFFFFFFFFFFF MUL NOT AND SWAP1 DUP4 PUSH20 0xFFFFFFFFFFFFFFFFFFFFFFFFFFFFFFFFFFFFFFFF AND MUL OR SWAP1 SSTORE POP DUP2 PUSH20 0xFFFFFFFFFFFFFFFFFFFFFFFFFFFFFFFFFFFFFFFF AND DUP2 PUSH20 0xFFFFFFFFFFFFFFFFFFFFFFFFFFFFFFFFFFFFFFFF AND PUSH32 0x8BE0079C531659141344CD1FD0A4F28419497F9722A3DAAFE3B4186F6B6457E0 PUSH1 0x40 MLOAD PUSH1 0x40 MLOAD DUP1 SWAP2 SUB SWAP1 LOG3 POP POP JUMP JUMPDEST DUP3 DUP1 SLOAD DUP3 DUP3 SSTORE SWAP1 PUSH1 0x0 MSTORE PUSH1 0x20 PUSH1 0x0 KECCAK256 SWAP1 DUP2 ADD SWAP3 DUP3 ISZERO PUSH3 0x28D JUMPI SWAP2 PUSH1 0x20 MUL DUP3 ADD JUMPDEST DUP3 DUP2 GT ISZERO PUSH3 0x28C JUMPI DUP3 MLOAD DUP3 SWAP1 PUSH1 0xFF AND SWAP1 SSTORE SWAP2 PUSH1 0x20 ADD SWAP2 SWAP1 PUSH1 0x1 ADD SWAP1 PUSH3 0x26A JUMP JUMPDEST JUMPDEST POP SWAP1 POP PUSH3 0x29C SWAP2 SWAP1 PUSH3 0x331 JUMP JUMPDEST POP SWAP1 JUMP JUMPDEST DUP3 DUP1 SLOAD PUSH3 0x2AE SWAP1 PUSH3 0x561 JUMP JUMPDEST SWAP1 PUSH1 0x0 MSTORE PUSH1 0x20 PUSH1 0x0 KECCAK256 SWAP1 PUSH1 0x1F ADD PUSH1 0x20 SWAP1 DIV DUP2 ADD SWAP3 DUP3 PUSH3 0x2D2 JUMPI PUSH1 0x0 DUP6 SSTORE PUSH3 0x31E JUMP JUMPDEST DUP3 PUSH1 0x1F LT PUSH3 0x2ED JUMPI DUP1 MLOAD PUSH1 0xFF NOT AND DUP4 DUP1 ADD OR DUP6 SSTORE PUSH3 0x31E JUMP JUMPDEST DUP3 DUP1 ADD PUSH1 0x1 ADD DUP6 SSTORE DUP3 ISZERO PUSH3 0x31E JUMPI SWAP2 DUP3 ADD JUMPDEST DUP3 DUP2 GT ISZERO PUSH3 0x31D JUMPI DUP3 MLOAD DUP3 SSTORE SWAP2 PUSH1 0x20 ADD SWAP2 SWAP1 PUSH1 0x1 ADD SWAP1 PUSH3 0x300 JUMP JUMPDEST JUMPDEST POP SWAP1 POP PUSH3 0x32D SWAP2 SWAP1 PUSH3 0x331 JUMP JUMPDEST POP SWAP1 JUMP JUMPDEST JUMPDEST DUP1 DUP3 GT ISZERO PUSH3 0x34C JUMPI PUSH1 0x0 DUP2 PUSH1 0x0 SWAP1 SSTORE POP PUSH1 0x1 ADD PUSH3 0x332 JUMP JUMPDEST POP SWAP1 JUMP JUMPDEST PUSH1 0x0 PUSH3 0x367 PUSH3 0x361 DUP5 PUSH3 0x4EB JUMP JUMPDEST PUSH3 0x4C2 JUMP JUMPDEST SWAP1 POP DUP3 DUP2 MSTORE PUSH1 0x20 DUP2 ADD DUP5 DUP5 DUP5 ADD GT ISZERO PUSH3 0x386 JUMPI PUSH3 0x385 PUSH3 0x65F JUMP JUMPDEST JUMPDEST PUSH3 0x393 DUP5 DUP3 DUP6 PUSH3 0x52B JUMP JUMPDEST POP SWAP4 SWAP3 POP POP POP JUMP JUMPDEST PUSH1 0x0 DUP2 MLOAD SWAP1 POP PUSH3 0x3AC DUP2 PUSH3 0x67F JUMP JUMPDEST SWAP3 SWAP2 POP POP JUMP JUMPDEST PUSH1 0x0 DUP3 PUSH1 0x1F DUP4 ADD SLT PUSH3 0x3CA JUMPI PUSH3 0x3C9 PUSH3 0x65A JUMP JUMPDEST JUMPDEST DUP2 MLOAD PUSH3 0x3DC DUP5 DUP3 PUSH1 0x20 DUP7 ADD PUSH3 0x350 JUMP JUMPDEST SWAP2 POP POP SWAP3 SWAP2 POP POP JUMP JUMPDEST PUSH1 0x0 DUP2 MLOAD SWAP1 POP PUSH3 0x3F6 DUP2 PUSH3 0x690 JUMP JUMPDEST SWAP3 SWAP2 POP POP JUMP JUMPDEST PUSH1 0x0 DUP1 PUSH1 0x0 DUP1 PUSH1 0x0 PUSH1 0xA0 DUP7 DUP9 SUB SLT ISZERO PUSH3 0x41B JUMPI PUSH3 0x41A PUSH3 0x669 JUMP JUMPDEST JUMPDEST PUSH1 0x0 DUP7 ADD MLOAD PUSH8 0xFFFFFFFFFFFFFFFF DUP2 GT ISZERO PUSH3 0x43C JUMPI PUSH3 0x43B PUSH3 0x664 JUMP JUMPDEST JUMPDEST PUSH3 0x44A DUP9 DUP3 DUP10 ADD PUSH3 0x3B2 JUMP JUMPDEST SWAP6 POP POP PUSH1 0x20 DUP7 ADD MLOAD PUSH8 0xFFFFFFFFFFFFFFFF DUP2 GT ISZERO PUSH3 0x46E JUMPI PUSH3 0x46D PUSH3 0x664 JUMP JUMPDEST JUMPDEST PUSH3 0x47C DUP9 DUP3 DUP10 ADD PUSH3 0x3B2 JUMP JUMPDEST SWAP5 POP POP PUSH1 0x40 PUSH3 0x48F DUP9 DUP3 DUP10 ADD PUSH3 0x3E5 JUMP JUMPDEST SWAP4 POP POP PUSH1 0x60 PUSH3 0x4A2 DUP9 DUP3 DUP10 ADD PUSH3 0x39B JUMP JUMPDEST SWAP3 POP POP PUSH1 0x80 PUSH3 0x4B5 DUP9 DUP3 DUP10 ADD PUSH3 0x3E5 JUMP JUMPDEST SWAP2 POP POP SWAP3 SWAP6 POP SWAP3 SWAP6 SWAP1 SWAP4 POP JUMP JUMPDEST PUSH1 0x0 PUSH3 0x4CE PUSH3 0x4E1 JUMP JUMPDEST SWAP1 POP PUSH3 0x4DC DUP3 DUP3 PUSH3 0x597 JUMP JUMPDEST SWAP2 SWAP1 POP JUMP JUMPDEST PUSH1 0x0 PUSH1 0x40 MLOAD SWAP1 POP SWAP1 JUMP JUMPDEST PUSH1 0x0 PUSH8 0xFFFFFFFFFFFFFFFF DUP3 GT ISZERO PUSH3 0x509 JUMPI PUSH3 0x508 PUSH3 0x62B JUMP JUMPDEST JUMPDEST PUSH3 0x514 DUP3 PUSH3 0x66E JUMP JUMPDEST SWAP1 POP PUSH1 0x20 DUP2 ADD SWAP1 POP SWAP2 SWAP1 POP JUMP JUMPDEST PUSH1 0x0 DUP2 SWAP1 POP SWAP2 SWAP1 POP JUMP JUMPDEST PUSH1 0x0 JUMPDEST DUP4 DUP2 LT ISZERO PUSH3 0x54B JUMPI DUP1 DUP3 ADD MLOAD DUP2 DUP5 ADD MSTORE PUSH1 0x20 DUP2 ADD SWAP1 POP PUSH3 0x52E JUMP JUMPDEST DUP4 DUP2 GT ISZERO PUSH3 0x55B JUMPI PUSH1 0x0 DUP5 DUP5 ADD MSTORE JUMPDEST POP POP POP POP JUMP JUMPDEST PUSH1 0x0 PUSH1 0x2 DUP3 DIV SWAP1 POP PUSH1 0x1 DUP3 AND DUP1 PUSH3 0x57A JUMPI PUSH1 0x7F DUP3 AND SWAP2 POP JUMPDEST PUSH1 0x20 DUP3 LT DUP2 EQ ISZERO PUSH3 0x591 JUMPI PUSH3 0x590 PUSH3 0x5FC JUMP JUMPDEST JUMPDEST POP SWAP2 SWAP1 POP JUMP JUMPDEST PUSH3 0x5A2 DUP3 PUSH3 0x66E JUMP JUMPDEST DUP2 ADD DUP2 DUP2 LT PUSH8 0xFFFFFFFFFFFFFFFF DUP3 GT OR ISZERO PUSH3 0x5C4 JUMPI PUSH3 0x5C3 PUSH3 0x62B JUMP JUMPDEST JUMPDEST DUP1 PUSH1 0x40 MSTORE POP POP POP JUMP JUMPDEST PUSH32 0x4E487B7100000000000000000000000000000000000000000000000000000000 PUSH1 0x0 MSTORE PUSH1 0x21 PUSH1 0x4 MSTORE PUSH1 0x24 PUSH1 0x0 REVERT JUMPDEST PUSH32 0x4E487B7100000000000000000000000000000000000000000000000000000000 PUSH1 0x0 MSTORE PUSH1 0x22 PUSH1 0x4 MSTORE PUSH1 0x24 PUSH1 0x0 REVERT JUMPDEST PUSH32 0x4E487B7100000000000000000000000000000000000000000000000000000000 PUSH1 0x0 MSTORE PUSH1 0x41 PUSH1 0x4 MSTORE PUSH1 0x24 PUSH1 0x0 REVERT JUMPDEST PUSH1 0x0 DUP1 REVERT JUMPDEST PUSH1 0x0 DUP1 REVERT JUMPDEST PUSH1 0x0 DUP1 REVERT JUMPDEST PUSH1 0x0 DUP1 REVERT JUMPDEST PUSH1 0x0 PUSH1 0x1F NOT PUSH1 0x1F DUP4 ADD AND SWAP1 POP SWAP2 SWAP1 POP JUMP JUMPDEST PUSH1 0x3 DUP2 LT PUSH3 0x68D JUMPI PUSH1 0x0 DUP1 REVERT JUMPDEST POP JUMP JUMPDEST PUSH3 0x69B DUP2 PUSH3 0x521 JUMP JUMPDEST DUP2 EQ PUSH3 0x6A7 JUMPI PUSH1 0x0 DUP1 REVERT JUMPDEST POP JUMP JUMPDEST PUSH2 0x2801 DUP1 PUSH3 0x6BA PUSH1 0x0 CODECOPY PUSH1 0x0 RETURN INVALID PUSH1 0x80 PUSH1 0x40 MSTORE CALLVALUE DUP1 ISZERO PUSH2 0x10 JUMPI PUSH1 0x0 DUP1 REVERT JUMPDEST POP PUSH1 0x4 CALLDATASIZE LT PUSH2 0x18E JUMPI PUSH1 0x0 CALLDATALOAD PUSH1 0xE0 SHR DUP1 PUSH4 0x715018A6 GT PUSH2 0xDE JUMPI DUP1 PUSH4 0xA34D8460 GT PUSH2 0x97 JUMPI DUP1 PUSH4 0xC47F0027 GT PUSH2 0x71 JUMPI DUP1 PUSH4 0xC47F0027 EQ PUSH2 0x405 JUMPI DUP1 PUSH4 0xD5DCF127 EQ PUSH2 0x421 JUMPI DUP1 PUSH4 0xD9E71C02 EQ PUSH2 0x43D JUMPI DUP1 PUSH4 0xF2FDE38B EQ PUSH2 0x45B JUMPI PUSH2 0x18E JUMP JUMPDEST DUP1 PUSH4 0xA34D8460 EQ PUSH2 0x3AF JUMPI DUP1 PUSH4 0xB84C8246 EQ PUSH2 0x3CB JUMPI DUP1 PUSH4 0xC250A9AA EQ PUSH2 0x3E7 JUMPI PUSH2 0x18E JUMP JUMPDEST DUP1 PUSH4 0x715018A6 EQ PUSH2 0x311 JUMPI DUP1 PUSH4 0x8DA5CB5B EQ PUSH2 0x31B JUMPI DUP1 PUSH4 0x8F59E34F EQ PUSH2 0x339 JUMPI DUP1 PUSH4 0x91B7F5ED EQ PUSH2 0x357 JUMPI DUP1 PUSH4 0x967E6E65 EQ PUSH2 0x373 JUMPI DUP1 PUSH4 0x98D5FDCA EQ PUSH2 0x391 JUMPI PUSH2 0x18E JUMP JUMPDEST DUP1 PUSH4 0x17D7DE7C GT PUSH2 0x14B JUMPI DUP1 PUSH4 0x5C975ABB GT PUSH2 0x125 JUMPI DUP1 PUSH4 0x5C975ABB EQ PUSH2 0x29D JUMPI DUP1 PUSH4 0x5DCA654F EQ PUSH2 0x2BB JUMPI DUP1 PUSH4 0x5FCD689E EQ PUSH2 0x2D9 JUMPI DUP1 PUSH4 0x667DE587 EQ PUSH2 0x2F5 JUMPI PUSH2 0x18E JUMP JUMPDEST DUP1 PUSH4 0x17D7DE7C EQ PUSH2 0x245 JUMPI DUP1 PUSH4 0x1CCED51B EQ PUSH2 0x263 JUMPI DUP1 PUSH4 0x4956F4EB EQ PUSH2 0x281 JUMPI PUSH2 0x18E JUMP JUMPDEST DUP1 PUSH4 0xB54CBFB EQ PUSH2 0x193 JUMPI DUP1 PUSH4 0xB9D3F32 EQ PUSH2 0x1AF JUMPI DUP1 PUSH4 0x127810BC EQ PUSH2 0x1CD JUMPI DUP1 PUSH4 0x14B21322 EQ PUSH2 0x1EB JUMPI DUP1 PUSH4 0x15070401 EQ PUSH2 0x209 JUMPI DUP1 PUSH4 0x15DAE03E EQ PUSH2 0x227 JUMPI JUMPDEST PUSH1 0x0 DUP1 REVERT JUMPDEST PUSH2 0x1AD PUSH1 0x4 DUP1 CALLDATASIZE SUB DUP2 ADD SWAP1 PUSH2 0x1A8 SWAP2 SWAP1 PUSH2 0x1ED4 JUMP JUMPDEST PUSH2 0x477 JUMP JUMPDEST STOP JUMPDEST PUSH2 0x1B7 PUSH2 0x568 JUMP JUMPDEST PUSH1 0x40 MLOAD PUSH2 0x1C4 SWAP2 SWAP1 PUSH2 0x22B9 JUMP JUMPDEST PUSH1 0x40 MLOAD DUP1 SWAP2 SUB SWAP1 RETURN JUMPDEST PUSH2 0x1D5 PUSH2 0x5BD JUMP JUMPDEST PUSH1 0x40 MLOAD PUSH2 0x1E2 SWAP2 SWAP1 PUSH2 0x219D JUMP JUMPDEST PUSH1 0x40 MLOAD DUP1 SWAP2 SUB SWAP1 RETURN JUMPDEST PUSH2 0x1F3 PUSH2 0x693 JUMP JUMPDEST PUSH1 0x40 MLOAD PUSH2 0x200 SWAP2 SWAP1 PUSH2 0x2182 JUMP JUMPDEST PUSH1 0x40 MLOAD DUP1 SWAP2 SUB SWAP1 RETURN JUMPDEST PUSH2 0x211 PUSH2 0x705 JUMP JUMPDEST PUSH1 0x40 MLOAD PUSH2 0x21E SWAP2 SWAP1 PUSH2 0x2217 JUMP JUMPDEST PUSH1 0x40 MLOAD DUP1 SWAP2 SUB SWAP1 RETURN JUMPDEST PUSH2 0x22F PUSH2 0x7DF JUMP JUMPDEST PUSH1 0x40 MLOAD PUSH2 0x23C SWAP2 SWAP1 PUSH2 0x21FC JUMP JUMPDEST PUSH1 0x40 MLOAD DUP1 SWAP2 SUB SWAP1 RETURN JUMPDEST PUSH2 0x24D PUSH2 0x83E JUMP JUMPDEST PUSH1 0x40 MLOAD PUSH2 0x25A SWAP2 SWAP1 PUSH2 0x2217 JUMP JUMPDEST PUSH1 0x40 MLOAD DUP1 SWAP2 SUB SWAP1 RETURN JUMPDEST PUSH2 0x26B PUSH2 0x918 JUMP JUMPDEST PUSH1 0x40 MLOAD PUSH2 0x278 SWAP2 SWAP1 PUSH2 0x21BF JUMP JUMPDEST PUSH1 0x40 MLOAD DUP1 SWAP2 SUB SWAP1 RETURN JUMPDEST PUSH2 0x29B PUSH1 0x4 DUP1 CALLDATASIZE SUB DUP2 ADD SWAP1 PUSH2 0x296 SWAP2 SWAP1 PUSH2 0x1E8B JUMP JUMPDEST PUSH2 0x9B8 JUMP JUMPDEST STOP JUMPDEST PUSH2 0x2A5 PUSH2 0xAF0 JUMP JUMPDEST PUSH1 0x40 MLOAD PUSH2 0x2B2 SWAP2 SWAP1 PUSH2 0x21E1 JUMP JUMPDEST PUSH1 0x40 MLOAD DUP1 SWAP2 SUB SWAP1 RETURN JUMPDEST PUSH2 0x2C3 PUSH2 0xB06 JUMP JUMPDEST PUSH1 0x40 MLOAD PUSH2 0x2D0 SWAP2 SWAP1 PUSH2 0x22B9 JUMP JUMPDEST PUSH1 0x40 MLOAD DUP1 SWAP2 SUB SWAP1 RETURN JUMPDEST PUSH2 0x2F3 PUSH1 0x4 DUP1 CALLDATASIZE SUB DUP2 ADD SWAP1 PUSH2 0x2EE SWAP2 SWAP1 PUSH2 0x1E42 JUMP JUMPDEST PUSH2 0xB5B JUMP JUMPDEST STOP JUMPDEST PUSH2 0x30F PUSH1 0x4 DUP1 CALLDATASIZE SUB DUP2 ADD SWAP1 PUSH2 0x30A SWAP2 SWAP1 PUSH2 0x1E42 JUMP JUMPDEST PUSH2 0xD8B JUMP JUMPDEST STOP JUMPDEST PUSH2 0x319 PUSH2 0xFBB JUMP JUMPDEST STOP JUMPDEST PUSH2 0x323 PUSH2 0x1043 JUMP JUMPDEST PUSH1 0x40 MLOAD PUSH2 0x330 SWAP2 SWAP1 PUSH2 0x2182 JUMP JUMPDEST PUSH1 0x40 MLOAD DUP1 SWAP2 SUB SWAP1 RETURN JUMPDEST PUSH2 0x341 PUSH2 0x106C JUMP JUMPDEST PUSH1 0x40 MLOAD PUSH2 0x34E SWAP2 SWAP1 PUSH2 0x22B9 JUMP JUMPDEST PUSH1 0x40 MLOAD DUP1 SWAP2 SUB SWAP1 RETURN JUMPDEST PUSH2 0x371 PUSH1 0x4 DUP1 CALLDATASIZE SUB DUP2 ADD SWAP1 PUSH2 0x36C SWAP2 SWAP1 PUSH2 0x1F4A JUMP JUMPDEST PUSH2 0x10C1 JUMP JUMPDEST STOP JUMPDEST PUSH2 0x37B PUSH2 0x118F JUMP JUMPDEST PUSH1 0x40 MLOAD PUSH2 0x388 SWAP2 SWAP1 PUSH2 0x22B9 JUMP JUMPDEST PUSH1 0x40 MLOAD DUP1 SWAP2 SUB SWAP1 RETURN JUMPDEST PUSH2 0x399 PUSH2 0x11E1 JUMP JUMPDEST PUSH1 0x40 MLOAD PUSH2 0x3A6 SWAP2 SWAP1 PUSH2 0x22B9 JUMP JUMPDEST PUSH1 0x40 MLOAD DUP1 SWAP2 SUB SWAP1 RETURN JUMPDEST PUSH2 0x3C9 PUSH1 0x4 DUP1 CALLDATASIZE SUB DUP2 ADD SWAP1 PUSH2 0x3C4 SWAP2 SWAP1 PUSH2 0x1E42 JUMP JUMPDEST PUSH2 0x1233 JUMP JUMPDEST STOP JUMPDEST PUSH2 0x3E5 PUSH1 0x4 DUP1 CALLDATASIZE SUB DUP2 ADD SWAP1 PUSH2 0x3E0 SWAP2 SWAP1 PUSH2 0x1F01 JUMP JUMPDEST PUSH2 0x1463 JUMP JUMPDEST STOP JUMPDEST PUSH2 0x3EF PUSH2 0x1541 JUMP JUMPDEST PUSH1 0x40 MLOAD PUSH2 0x3FC SWAP2 SWAP1 PUSH2 0x219D JUMP JUMPDEST PUSH1 0x40 MLOAD DUP1 SWAP2 SUB SWAP1 RETURN JUMPDEST PUSH2 0x41F PUSH1 0x4 DUP1 CALLDATASIZE SUB DUP2 ADD SWAP1 PUSH2 0x41A SWAP2 SWAP1 PUSH2 0x1F01 JUMP JUMPDEST PUSH2 0x1617 JUMP JUMPDEST STOP JUMPDEST PUSH2 0x43B PUSH1 0x4 DUP1 CALLDATASIZE SUB DUP2 ADD SWAP1 PUSH2 0x436 SWAP2 SWAP1 PUSH2 0x1F4A JUMP JUMPDEST PUSH2 0x16F5 JUMP JUMPDEST STOP JUMPDEST PUSH2 0x445 PUSH2 0x17C3 JUMP JUMPDEST PUSH1 0x40 MLOAD PUSH2 0x452 SWAP2 SWAP1 PUSH2 0x219D JUMP JUMPDEST PUSH1 0x40 MLOAD DUP1 SWAP2 SUB SWAP1 RETURN JUMPDEST PUSH2 0x475 PUSH1 0x4 DUP1 CALLDATASIZE SUB DUP2 ADD SWAP1 PUSH2 0x470 SWAP2 SWAP1 PUSH2 0x1E15 JUMP JUMPDEST PUSH2 0x1899 JUMP JUMPDEST STOP JUMPDEST PUSH2 0x47F PUSH2 0x1991 JUMP JUMPDEST PUSH20 0xFFFFFFFFFFFFFFFFFFFFFFFFFFFFFFFFFFFFFFFF AND PUSH2 0x49D PUSH2 0x1043 JUMP JUMPDEST PUSH20 0xFFFFFFFFFFFFFFFFFFFFFFFFFFFFFFFFFFFFFFFF AND EQ PUSH2 0x4F3 JUMPI PUSH1 0x40 MLOAD PUSH32 0x8C379A000000000000000000000000000000000000000000000000000000000 DUP2 MSTORE PUSH1 0x4 ADD PUSH2 0x4EA SWAP1 PUSH2 0x2299 JUMP JUMPDEST PUSH1 0x40 MLOAD DUP1 SWAP2 SUB SWAP1 REVERT JUMPDEST PUSH2 0x4FB PUSH2 0xAF0 JUMP JUMPDEST ISZERO PUSH2 0x53B JUMPI PUSH1 0x40 MLOAD PUSH32 0x8C379A000000000000000000000000000000000000000000000000000000000 DUP2 MSTORE PUSH1 0x4 ADD PUSH2 0x532 SWAP1 PUSH2 0x2259 JUMP JUMPDEST PUSH1 0x40 MLOAD DUP1 SWAP2 SUB SWAP1 REVERT JUMPDEST DUP1 PUSH1 0x8 PUSH1 0x0 PUSH2 0x100 EXP DUP2 SLOAD DUP2 PUSH1 0xFF MUL NOT AND SWAP1 DUP4 PUSH1 0x2 DUP2 GT ISZERO PUSH2 0x560 JUMPI PUSH2 0x55F PUSH2 0x25C9 JUMP JUMPDEST JUMPDEST MUL OR SWAP1 SSTORE POP POP JUMP JUMPDEST PUSH1 0x0 PUSH2 0x572 PUSH2 0xAF0 JUMP JUMPDEST ISZERO PUSH2 0x5B2 JUMPI PUSH1 0x40 MLOAD PUSH32 0x8C379A000000000000000000000000000000000000000000000000000000000 DUP2 MSTORE PUSH1 0x4 ADD PUSH2 0x5A9 SWAP1 PUSH2 0x2259 JUMP JUMPDEST PUSH1 0x40 MLOAD DUP1 SWAP2 SUB SWAP1 REVERT JUMPDEST PUSH1 0x4 DUP1 SLOAD SWAP1 POP SWAP1 POP SWAP1 JUMP JUMPDEST PUSH1 0x60 PUSH2 0x5C7 PUSH2 0xAF0 JUMP JUMPDEST ISZERO PUSH2 0x607 JUMPI PUSH1 0x40 MLOAD PUSH32 0x8C379A000000000000000000000000000000000000000000000000000000000 DUP2 MSTORE PUSH1 0x4 ADD PUSH2 0x5FE SWAP1 PUSH2 0x2259 JUMP JUMPDEST PUSH1 0x40 MLOAD DUP1 SWAP2 SUB SWAP1 REVERT JUMPDEST PUSH1 0x3 DUP1 SLOAD DUP1 PUSH1 0x20 MUL PUSH1 0x20 ADD PUSH1 0x40 MLOAD SWAP1 DUP2 ADD PUSH1 0x40 MSTORE DUP1 SWAP3 SWAP2 SWAP1 DUP2 DUP2 MSTORE PUSH1 0x20 ADD DUP3 DUP1 SLOAD DUP1 ISZERO PUSH2 0x689 JUMPI PUSH1 0x20 MUL DUP3 ADD SWAP2 SWAP1 PUSH1 0x0 MSTORE PUSH1 0x20 PUSH1 0x0 KECCAK256 SWAP1 JUMPDEST DUP2 PUSH1 0x0 SWAP1 SLOAD SWAP1 PUSH2 0x100 EXP SWAP1 DIV PUSH20 0xFFFFFFFFFFFFFFFFFFFFFFFFFFFFFFFFFFFFFFFF AND PUSH20 0xFFFFFFFFFFFFFFFFFFFFFFFFFFFFFFFFFFFFFFFF AND DUP2 MSTORE PUSH1 0x20 ADD SWAP1 PUSH1 0x1 ADD SWAP1 DUP1 DUP4 GT PUSH2 0x63F JUMPI JUMPDEST POP POP POP POP POP SWAP1 POP SWAP1 JUMP JUMPDEST PUSH1 0x0 PUSH2 0x69D PUSH2 0xAF0 JUMP JUMPDEST ISZERO PUSH2 0x6DD JUMPI PUSH1 0x40 MLOAD PUSH32 0x8C379A000000000000000000000000000000000000000000000000000000000 DUP2 MSTORE PUSH1 0x4 ADD PUSH2 0x6D4 SWAP1 PUSH2 0x2259 JUMP JUMPDEST PUSH1 0x40 MLOAD DUP1 SWAP2 SUB SWAP1 REVERT JUMPDEST PUSH1 0x1 PUSH1 0x0 SWAP1 SLOAD SWAP1 PUSH2 0x100 EXP SWAP1 DIV PUSH20 0xFFFFFFFFFFFFFFFFFFFFFFFFFFFFFFFFFFFFFFFF AND SWAP1 POP SWAP1 JUMP JUMPDEST PUSH1 0x60 PUSH2 0x70F PUSH2 0xAF0 JUMP JUMPDEST ISZERO PUSH2 0x74F JUMPI PUSH1 0x40 MLOAD PUSH32 0x8C379A000000000000000000000000000000000000000000000000000000000 DUP2 MSTORE PUSH1 0x4 ADD PUSH2 0x746 SWAP1 PUSH2 0x2259 JUMP JUMPDEST PUSH1 0x40 MLOAD DUP1 SWAP2 SUB SWAP1 REVERT JUMPDEST PUSH1 0x6 DUP1 SLOAD PUSH2 0x75C SWAP1 PUSH2 0x24BF JUMP JUMPDEST DUP1 PUSH1 0x1F ADD PUSH1 0x20 DUP1 SWAP2 DIV MUL PUSH1 0x20 ADD PUSH1 0x40 MLOAD SWAP1 DUP2 ADD PUSH1 0x40 MSTORE DUP1 SWAP3 SWAP2 SWAP1 DUP2 DUP2 MSTORE PUSH1 0x20 ADD DUP3 DUP1 SLOAD PUSH2 0x788 SWAP1 PUSH2 0x24BF JUMP JUMPDEST DUP1 ISZERO PUSH2 0x7D5 JUMPI DUP1 PUSH1 0x1F LT PUSH2 0x7AA JUMPI PUSH2 0x100 DUP1 DUP4 SLOAD DIV MUL DUP4 MSTORE SWAP2 PUSH1 0x20 ADD SWAP2 PUSH2 0x7D5 JUMP JUMPDEST DUP3 ADD SWAP2 SWAP1 PUSH1 0x0 MSTORE PUSH1 0x20 PUSH1 0x0 KECCAK256 SWAP1 JUMPDEST DUP2 SLOAD DUP2 MSTORE SWAP1 PUSH1 0x1 ADD SWAP1 PUSH1 0x20 ADD DUP1 DUP4 GT PUSH2 0x7B8 JUMPI DUP3 SWAP1 SUB PUSH1 0x1F AND DUP3 ADD SWAP2 JUMPDEST POP POP POP POP POP SWAP1 POP SWAP1 JUMP JUMPDEST PUSH1 0x0 PUSH2 0x7E9 PUSH2 0xAF0 JUMP JUMPDEST ISZERO PUSH2 0x829 JUMPI PUSH1 0x40 MLOAD PUSH32 0x8C379A000000000000000000000000000000000000000000000000000000000 DUP2 MSTORE PUSH1 0x4 ADD PUSH2 0x820 SWAP1 PUSH2 0x2259 JUMP JUMPDEST PUSH1 0x40 MLOAD DUP1 SWAP2 SUB SWAP1 REVERT JUMPDEST PUSH1 0x8 PUSH1 0x0 SWAP1 SLOAD SWAP1 PUSH2 0x100 EXP SWAP1 DIV PUSH1 0xFF AND SWAP1 POP SWAP1 JUMP JUMPDEST PUSH1 0x60 PUSH2 0x848 PUSH2 0xAF0 JUMP JUMPDEST ISZERO PUSH2 0x888 JUMPI PUSH1 0x40 MLOAD PUSH32 0x8C379A000000000000000000000000000000000000000000000000000000000 DUP2 MSTORE PUSH1 0x4 ADD PUSH2 0x87F SWAP1 PUSH2 0x2259 JUMP JUMPDEST PUSH1 0x40 MLOAD DUP1 SWAP2 SUB SWAP1 REVERT JUMPDEST PUSH1 0x5 DUP1 SLOAD PUSH2 0x895 SWAP1 PUSH2 0x24BF JUMP JUMPDEST DUP1 PUSH1 0x1F ADD PUSH1 0x20 DUP1 SWAP2 DIV MUL PUSH1 0x20 ADD PUSH1 0x40 MLOAD SWAP1 DUP2 ADD PUSH1 0x40 MSTORE DUP1 SWAP3 SWAP2 SWAP1 DUP2 DUP2 MSTORE PUSH1 0x20 ADD DUP3 DUP1 SLOAD PUSH2 0x8C1 SWAP1 PUSH2 0x24BF JUMP JUMPDEST DUP1 ISZERO PUSH2 0x90E JUMPI DUP1 PUSH1 0x1F LT PUSH2 0x8E3 JUMPI PUSH2 0x100 DUP1 DUP4 SLOAD DIV MUL DUP4 MSTORE SWAP2 PUSH1 0x20 ADD SWAP2 PUSH2 0x90E JUMP JUMPDEST DUP3 ADD SWAP2 SWAP1 PUSH1 0x0 MSTORE PUSH1 0x20 PUSH1 0x0 KECCAK256 SWAP1 JUMPDEST DUP2 SLOAD DUP2 MSTORE SWAP1 PUSH1 0x1 ADD SWAP1 PUSH1 0x20 ADD DUP1 DUP4 GT PUSH2 0x8F1 JUMPI DUP3 SWAP1 SUB PUSH1 0x1F AND DUP3 ADD SWAP2 JUMPDEST POP POP POP POP POP SWAP1 POP SWAP1 JUMP JUMPDEST PUSH1 0x60 PUSH2 0x922 PUSH2 0xAF0 JUMP JUMPDEST ISZERO PUSH2 0x962 JUMPI PUSH1 0x40 MLOAD PUSH32 0x8C379A000000000000000000000000000000000000000000000000000000000 DUP2 MSTORE PUSH1 0x4 ADD PUSH2 0x959 SWAP1 PUSH2 0x2259 JUMP JUMPDEST PUSH1 0x40 MLOAD DUP1 SWAP2 SUB SWAP1 REVERT JUMPDEST PUSH1 0xA DUP1 SLOAD DUP1 PUSH1 0x20 MUL PUSH1 0x20 ADD PUSH1 0x40 MLOAD SWAP1 DUP2 ADD PUSH1 0x40 MSTORE DUP1 SWAP3 SWAP2 SWAP1 DUP2 DUP2 MSTORE PUSH1 0x20 ADD DUP3 DUP1 SLOAD DUP1 ISZERO PUSH2 0x9AE JUMPI PUSH1 0x20 MUL DUP3 ADD SWAP2 SWAP1 PUSH1 0x0 MSTORE PUSH1 0x20 PUSH1 0x0 KECCAK256 SWAP1 JUMPDEST DUP2 SLOAD DUP2 MSTORE PUSH1 0x20 ADD SWAP1 PUSH1 0x1 ADD SWAP1 DUP1 DUP4 GT PUSH2 0x99A JUMPI JUMPDEST POP POP POP POP POP SWAP1 POP SWAP1 JUMP JUMPDEST PUSH2 0x9C0 PUSH2 0x1991 JUMP JUMPDEST PUSH20 0xFFFFFFFFFFFFFFFFFFFFFFFFFFFFFFFFFFFFFFFF AND PUSH2 0x9DE PUSH2 0x1043 JUMP JUMPDEST PUSH20 0xFFFFFFFFFFFFFFFFFFFFFFFFFFFFFFFFFFFFFFFF AND EQ PUSH2 0xA34 JUMPI PUSH1 0x40 MLOAD PUSH32 0x8C379A000000000000000000000000000000000000000000000000000000000 DUP2 MSTORE PUSH1 0x4 ADD PUSH2 0xA2B SWAP1 PUSH2 0x2299 JUMP JUMPDEST PUSH1 0x40 MLOAD DUP1 SWAP2 SUB SWAP1 REVERT JUMPDEST PUSH2 0xA3C PUSH2 0xAF0 JUMP JUMPDEST ISZERO PUSH2 0xA7C JUMPI PUSH1 0x40 MLOAD PUSH32 0x8C379A000000000000000000000000000000000000000000000000000000000 DUP2 MSTORE PUSH1 0x4 ADD PUSH2 0xA73 SWAP1 PUSH2 0x2259 JUMP JUMPDEST PUSH1 0x40 MLOAD DUP1 SWAP2 SUB SWAP1 REVERT JUMPDEST DUP1 PUSH2 0xA86 DUP2 PUSH2 0x1999 JUMP JUMPDEST PUSH2 0xA8F JUMPI PUSH1 0x0 DUP1 REVERT JUMPDEST PUSH1 0x0 JUMPDEST DUP3 MLOAD DUP2 LT ISZERO PUSH2 0xAEB JUMPI DUP3 DUP2 DUP2 MLOAD DUP2 LT PUSH2 0xAAE JUMPI PUSH2 0xAAD PUSH2 0x2627 JUMP JUMPDEST JUMPDEST PUSH1 0x20 MUL PUSH1 0x20 ADD ADD MLOAD PUSH1 0xA DUP3 DUP2 SLOAD DUP2 LT PUSH2 0xACA JUMPI PUSH2 0xAC9 PUSH2 0x2627 JUMP JUMPDEST JUMPDEST SWAP1 PUSH1 0x0 MSTORE PUSH1 0x20 PUSH1 0x0 KECCAK256 ADD DUP2 SWAP1 SSTORE POP DUP1 DUP1 PUSH2 0xAE3 SWAP1 PUSH2 0x2522 JUMP JUMPDEST SWAP2 POP POP PUSH2 0xA92 JUMP JUMPDEST POP POP POP JUMP JUMPDEST PUSH1 0x0 DUP1 PUSH1 0x14 SWAP1 SLOAD SWAP1 PUSH2 0x100 EXP SWAP1 DIV PUSH1 0xFF AND SWAP1 POP SWAP1 JUMP JUMPDEST PUSH1 0x0 PUSH2 0xB10 PUSH2 0xAF0 JUMP JUMPDEST ISZERO PUSH2 0xB50 JUMPI PUSH1 0x40 MLOAD PUSH32 0x8C379A000000000000000000000000000000000000000000000000000000000 DUP2 MSTORE PUSH1 0x4 ADD PUSH2 0xB47 SWAP1 PUSH2 0x2259 JUMP JUMPDEST PUSH1 0x40 MLOAD DUP1 SWAP2 SUB SWAP1 REVERT JUMPDEST PUSH1 0x3 DUP1 SLOAD SWAP1 POP SWAP1 POP SWAP1 JUMP JUMPDEST PUSH2 0xB63 PUSH2 0x1991 JUMP JUMPDEST PUSH20 0xFFFFFFFFFFFFFFFFFFFFFFFFFFFFFFFFFFFFFFFF AND PUSH2 0xB81 PUSH2 0x1043 JUMP JUMPDEST PUSH20 0xFFFFFFFFFFFFFFFFFFFFFFFFFFFFFFFFFFFFFFFF AND EQ PUSH2 0xBD7 JUMPI PUSH1 0x40 MLOAD PUSH32 0x8C379A000000000000000000000000000000000000000000000000000000000 DUP2 MSTORE PUSH1 0x4 ADD PUSH2 0xBCE SWAP1 PUSH2 0x2299 JUMP JUMPDEST PUSH1 0x40 MLOAD DUP1 SWAP2 SUB SWAP1 REVERT JUMPDEST PUSH2 0xBDF PUSH2 0xAF0 JUMP JUMPDEST ISZERO PUSH2 0xC1F JUMPI PUSH1 0x40 MLOAD PUSH32 0x8C379A000000000000000000000000000000000000000000000000000000000 DUP2 MSTORE PUSH1 0x4 ADD PUSH2 0xC16 SWAP1 PUSH2 0x2259 JUMP JUMPDEST PUSH1 0x40 MLOAD DUP1 SWAP2 SUB SWAP1 REVERT JUMPDEST DUP1 PUSH2 0xC29 DUP2 PUSH2 0x19EA JUMP JUMPDEST PUSH2 0xC32 JUMPI PUSH1 0x0 DUP1 REVERT JUMPDEST PUSH1 0x0 JUMPDEST DUP3 MLOAD DUP2 LT ISZERO PUSH2 0xD86 JUMPI PUSH2 0xCE8 PUSH1 0x2 DUP1 SLOAD DUP1 PUSH1 0x20 MUL PUSH1 0x20 ADD PUSH1 0x40 MLOAD SWAP1 DUP2 ADD PUSH1 0x40 MSTORE DUP1 SWAP3 SWAP2 SWAP1 DUP2 DUP2 MSTORE PUSH1 0x20 ADD DUP3 DUP1 SLOAD DUP1 ISZERO PUSH2 0xCC3 JUMPI PUSH1 0x20 MUL DUP3 ADD SWAP2 SWAP1 PUSH1 0x0 MSTORE PUSH1 0x20 PUSH1 0x0 KECCAK256 SWAP1 JUMPDEST DUP2 PUSH1 0x0 SWAP1 SLOAD SWAP1 PUSH2 0x100 EXP SWAP1 DIV PUSH20 0xFFFFFFFFFFFFFFFFFFFFFFFFFFFFFFFFFFFFFFFF AND PUSH20 0xFFFFFFFFFFFFFFFFFFFFFFFFFFFFFFFFFFFFFFFF AND DUP2 MSTORE PUSH1 0x20 ADD SWAP1 PUSH1 0x1 ADD SWAP1 DUP1 DUP4 GT PUSH2 0xC79 JUMPI JUMPDEST POP POP POP POP POP DUP5 DUP4 DUP2 MLOAD DUP2 LT PUSH2 0xCDB JUMPI PUSH2 0xCDA PUSH2 0x2627 JUMP JUMPDEST JUMPDEST PUSH1 0x20 MUL PUSH1 0x20 ADD ADD MLOAD PUSH2 0x1A3B JUMP JUMPDEST ISZERO PUSH2 0xCF6 JUMPI PUSH2 0xCF5 PUSH2 0x256B JUMP JUMPDEST JUMPDEST PUSH1 0x2 DUP4 DUP3 DUP2 MLOAD DUP2 LT PUSH2 0xD0B JUMPI PUSH2 0xD0A PUSH2 0x2627 JUMP JUMPDEST JUMPDEST PUSH1 0x20 MUL PUSH1 0x20 ADD ADD MLOAD SWAP1 DUP1 PUSH1 0x1 DUP2 SLOAD ADD DUP1 DUP3 SSTORE DUP1 SWAP2 POP POP PUSH1 0x1 SWAP1 SUB SWAP1 PUSH1 0x0 MSTORE PUSH1 0x20 PUSH1 0x0 KECCAK256 ADD PUSH1 0x0 SWAP1 SWAP2 SWAP1 SWAP2 SWAP1 SWAP2 PUSH2 0x100 EXP DUP2 SLOAD DUP2 PUSH20 0xFFFFFFFFFFFFFFFFFFFFFFFFFFFFFFFFFFFFFFFF MUL NOT AND SWAP1 DUP4 PUSH20 0xFFFFFFFFFFFFFFFFFFFFFFFFFFFFFFFFFFFFFFFF AND MUL OR SWAP1 SSTORE POP DUP1 DUP1 PUSH2 0xD7E SWAP1 PUSH2 0x2522 JUMP JUMPDEST SWAP2 POP POP PUSH2 0xC35 JUMP JUMPDEST POP POP POP JUMP JUMPDEST PUSH2 0xD93 PUSH2 0x1991 JUMP JUMPDEST PUSH20 0xFFFFFFFFFFFFFFFFFFFFFFFFFFFFFFFFFFFFFFFF AND PUSH2 0xDB1 PUSH2 0x1043 JUMP JUMPDEST PUSH20 0xFFFFFFFFFFFFFFFFFFFFFFFFFFFFFFFFFFFFFFFF AND EQ PUSH2 0xE07 JUMPI PUSH1 0x40 MLOAD PUSH32 0x8C379A000000000000000000000000000000000000000000000000000000000 DUP2 MSTORE PUSH1 0x4 ADD PUSH2 0xDFE SWAP1 PUSH2 0x2299 JUMP JUMPDEST PUSH1 0x40 MLOAD DUP1 SWAP2 SUB SWAP1 REVERT JUMPDEST PUSH2 0xE0F PUSH2 0xAF0 JUMP JUMPDEST ISZERO PUSH2 0xE4F JUMPI PUSH1 0x40 MLOAD PUSH32 0x8C379A000000000000000000000000000000000000000000000000000000000 DUP2 MSTORE PUSH1 0x4 ADD PUSH2 0xE46 SWAP1 PUSH2 0x2259 JUMP JUMPDEST PUSH1 0x40 MLOAD DUP1 SWAP2 SUB SWAP1 REVERT JUMPDEST DUP1 PUSH2 0xE59 DUP2 PUSH2 0x19EA JUMP JUMPDEST PUSH2 0xE62 JUMPI PUSH1 0x0 DUP1 REVERT JUMPDEST PUSH1 0x0 JUMPDEST DUP3 MLOAD DUP2 LT ISZERO PUSH2 0xFB6 JUMPI PUSH2 0xF18 PUSH1 0x3 DUP1 SLOAD DUP1 PUSH1 0x20 MUL PUSH1 0x20 ADD PUSH1 0x40 MLOAD SWAP1 DUP2 ADD PUSH1 0x40 MSTORE DUP1 SWAP3 SWAP2 SWAP1 DUP2 DUP2 MSTORE PUSH1 0x20 ADD DUP3 DUP1 SLOAD DUP1 ISZERO PUSH2 0xEF3 JUMPI PUSH1 0x20 MUL DUP3 ADD SWAP2 SWAP1 PUSH1 0x0 MSTORE PUSH1 0x20 PUSH1 0x0 KECCAK256 SWAP1 JUMPDEST DUP2 PUSH1 0x0 SWAP1 SLOAD SWAP1 PUSH2 0x100 EXP SWAP1 DIV PUSH20 0xFFFFFFFFFFFFFFFFFFFFFFFFFFFFFFFFFFFFFFFF AND PUSH20 0xFFFFFFFFFFFFFFFFFFFFFFFFFFFFFFFFFFFFFFFF AND DUP2 MSTORE PUSH1 0x20 ADD SWAP1 PUSH1 0x1 ADD SWAP1 DUP1 DUP4 GT PUSH2 0xEA9 JUMPI JUMPDEST POP POP POP POP POP DUP5 DUP4 DUP2 MLOAD DUP2 LT PUSH2 0xF0B JUMPI PUSH2 0xF0A PUSH2 0x2627 JUMP JUMPDEST JUMPDEST PUSH1 0x20 MUL PUSH1 0x20 ADD ADD MLOAD PUSH2 0x1A3B JUMP JUMPDEST ISZERO PUSH2 0xF26 JUMPI PUSH2 0xF25 PUSH2 0x256B JUMP JUMPDEST JUMPDEST PUSH1 0x3 DUP4 DUP3 DUP2 MLOAD DUP2 LT PUSH2 0xF3B JUMPI PUSH2 0xF3A PUSH2 0x2627 JUMP JUMPDEST JUMPDEST PUSH1 0x20 MUL PUSH1 0x20 ADD ADD MLOAD SWAP1 DUP1 PUSH1 0x1 DUP2 SLOAD ADD DUP1 DUP3 SSTORE DUP1 SWAP2 POP POP PUSH1 0x1 SWAP1 SUB SWAP1 PUSH1 0x0 MSTORE PUSH1 0x20 PUSH1 0x0 KECCAK256 ADD PUSH1 0x0 SWAP1 SWAP2 SWAP1 SWAP2 SWAP1 SWAP2 PUSH2 0x100 EXP DUP2 SLOAD DUP2 PUSH20 0xFFFFFFFFFFFFFFFFFFFFFFFFFFFFFFFFFFFFFFFF MUL NOT AND SWAP1 DUP4 PUSH20 0xFFFFFFFFFFFFFFFFFFFFFFFFFFFFFFFFFFFFFFFF AND MUL OR SWAP1 SSTORE POP DUP1 DUP1 PUSH2 0xFAE SWAP1 PUSH2 0x2522 JUMP JUMPDEST SWAP2 POP POP PUSH2 0xE65 JUMP JUMPDEST POP POP POP JUMP JUMPDEST PUSH2 0xFC3 PUSH2 0x1991 JUMP JUMPDEST PUSH20 0xFFFFFFFFFFFFFFFFFFFFFFFFFFFFFFFFFFFFFFFF AND PUSH2 0xFE1 PUSH2 0x1043 JUMP JUMPDEST PUSH20 0xFFFFFFFFFFFFFFFFFFFFFFFFFFFFFFFFFFFFFFFF AND EQ PUSH2 0x1037 JUMPI PUSH1 0x40 MLOAD PUSH32 0x8C379A000000000000000000000000000000000000000000000000000000000 DUP2 MSTORE PUSH1 0x4 ADD PUSH2 0x102E SWAP1 PUSH2 0x2299 JUMP JUMPDEST PUSH1 0x40 MLOAD DUP1 SWAP2 SUB SWAP1 REVERT JUMPDEST PUSH2 0x1041 PUSH1 0x0 PUSH2 0x1AC3 JUMP JUMPDEST JUMP JUMPDEST PUSH1 0x0 DUP1 PUSH1 0x0 SWAP1 SLOAD SWAP1 PUSH2 0x100 EXP SWAP1 DIV PUSH20 0xFFFFFFFFFFFFFFFFFFFFFFFFFFFFFFFFFFFFFFFF AND SWAP1 POP SWAP1 JUMP JUMPDEST PUSH1 0x0 PUSH2 0x1076 PUSH2 0xAF0 JUMP JUMPDEST ISZERO PUSH2 0x10B6 JUMPI PUSH1 0x40 MLOAD PUSH32 0x8C379A000000000000000000000000000000000000000000000000000000000 DUP2 MSTORE PUSH1 0x4 ADD PUSH2 0x10AD SWAP1 PUSH2 0x2259 JUMP JUMPDEST PUSH1 0x40 MLOAD DUP1 SWAP2 SUB SWAP1 REVERT JUMPDEST PUSH1 0x2 DUP1 SLOAD SWAP1 POP SWAP1 POP SWAP1 JUMP JUMPDEST PUSH2 0x10C9 PUSH2 0x1991 JUMP JUMPDEST PUSH20 0xFFFFFFFFFFFFFFFFFFFFFFFFFFFFFFFFFFFFFFFF AND PUSH2 0x10E7 PUSH2 0x1043 JUMP JUMPDEST PUSH20 0xFFFFFFFFFFFFFFFFFFFFFFFFFFFFFFFFFFFFFFFF AND EQ PUSH2 0x113D JUMPI PUSH1 0x40 MLOAD PUSH32 0x8C379A000000000000000000000000000000000000000000000000000000000 DUP2 MSTORE PUSH1 0x4 ADD PUSH2 0x1134 SWAP1 PUSH2 0x2299 JUMP JUMPDEST PUSH1 0x40 MLOAD DUP1 SWAP2 SUB SWAP1 REVERT JUMPDEST PUSH2 0x1145 PUSH2 0xAF0 JUMP JUMPDEST ISZERO PUSH2 0x1185 JUMPI PUSH1 0x40 MLOAD PUSH32 0x8C379A000000000000000000000000000000000000000000000000000000000 DUP2 MSTORE PUSH1 0x4 ADD PUSH2 0x117C SWAP1 PUSH2 0x2259 JUMP JUMPDEST PUSH1 0x40 MLOAD DUP1 SWAP2 SUB SWAP1 REVERT JUMPDEST DUP1 PUSH1 0x9 DUP2 SWAP1 SSTORE POP POP JUMP JUMPDEST PUSH1 0x0 PUSH2 0x1199 PUSH2 0xAF0 JUMP JUMPDEST ISZERO PUSH2 0x11D9 JUMPI PUSH1 0x40 MLOAD PUSH32 0x8C379A000000000000000000000000000000000000000000000000000000000 DUP2 MSTORE PUSH1 0x4 ADD PUSH2 0x11D0 SWAP1 PUSH2 0x2259 JUMP JUMPDEST PUSH1 0x40 MLOAD DUP1 SWAP2 SUB SWAP1 REVERT JUMPDEST PUSH1 0x7 SLOAD SWAP1 POP SWAP1 JUMP JUMPDEST PUSH1 0x0 PUSH2 0x11EB PUSH2 0xAF0 JUMP JUMPDEST ISZERO PUSH2 0x122B JUMPI PUSH1 0x40 MLOAD PUSH32 0x8C379A000000000000000000000000000000000000000000000000000000000 DUP2 MSTORE PUSH1 0x4 ADD PUSH2 0x1222 SWAP1 PUSH2 0x2259 JUMP JUMPDEST PUSH1 0x40 MLOAD DUP1 SWAP2 SUB SWAP1 REVERT JUMPDEST PUSH1 0x9 SLOAD SWAP1 POP SWAP1 JUMP JUMPDEST PUSH2 0x123B PUSH2 0x1991 JUMP JUMPDEST PUSH20 0xFFFFFFFFFFFFFFFFFFFFFFFFFFFFFFFFFFFFFFFF AND PUSH2 0x1259 PUSH2 0x1043 JUMP JUMPDEST PUSH20 0xFFFFFFFFFFFFFFFFFFFFFFFFFFFFFFFFFFFFFFFF AND EQ PUSH2 0x12AF JUMPI PUSH1 0x40 MLOAD PUSH32 0x8C379A000000000000000000000000000000000000000000000000000000000 DUP2 MSTORE PUSH1 0x4 ADD PUSH2 0x12A6 SWAP1 PUSH2 0x2299 JUMP JUMPDEST PUSH1 0x40 MLOAD DUP1 SWAP2 SUB SWAP1 REVERT JUMPDEST PUSH2 0x12B7 PUSH2 0xAF0 JUMP JUMPDEST ISZERO PUSH2 0x12F7 JUMPI PUSH1 0x40 MLOAD PUSH32 0x8C379A000000000000000000000000000000000000000000000000000000000 DUP2 MSTORE PUSH1 0x4 ADD PUSH2 0x12EE SWAP1 PUSH2 0x2259 JUMP JUMPDEST PUSH1 0x40 MLOAD DUP1 SWAP2 SUB SWAP1 REVERT JUMPDEST DUP1 PUSH2 0x1301 DUP2 PUSH2 0x19EA JUMP JUMPDEST PUSH2 0x130A JUMPI PUSH1 0x0 DUP1 REVERT JUMPDEST PUSH1 0x0 JUMPDEST DUP3 MLOAD DUP2 LT ISZERO PUSH2 0x145E JUMPI PUSH2 0x13C0 PUSH1 0x4 DUP1 SLOAD DUP1 PUSH1 0x20 MUL PUSH1 0x20 ADD PUSH1 0x40 MLOAD SWAP1 DUP2 ADD PUSH1 0x40 MSTORE DUP1 SWAP3 SWAP2 SWAP1 DUP2 DUP2 MSTORE PUSH1 0x20 ADD DUP3 DUP1 SLOAD DUP1 ISZERO PUSH2 0x139B JUMPI PUSH1 0x20 MUL DUP3 ADD SWAP2 SWAP1 PUSH1 0x0 MSTORE PUSH1 0x20 PUSH1 0x0 KECCAK256 SWAP1 JUMPDEST DUP2 PUSH1 0x0 SWAP1 SLOAD SWAP1 PUSH2 0x100 EXP SWAP1 DIV PUSH20 0xFFFFFFFFFFFFFFFFFFFFFFFFFFFFFFFFFFFFFFFF AND PUSH20 0xFFFFFFFFFFFFFFFFFFFFFFFFFFFFFFFFFFFFFFFF AND DUP2 MSTORE PUSH1 0x20 ADD SWAP1 PUSH1 0x1 ADD SWAP1 DUP1 DUP4 GT PUSH2 0x1351 JUMPI JUMPDEST POP POP POP POP POP DUP5 DUP4 DUP2 MLOAD DUP2 LT PUSH2 0x13B3 JUMPI PUSH2 0x13B2 PUSH2 0x2627 JUMP JUMPDEST JUMPDEST PUSH1 0x20 MUL PUSH1 0x20 ADD ADD MLOAD PUSH2 0x1A3B JUMP JUMPDEST ISZERO PUSH2 0x13CE JUMPI PUSH2 0x13CD PUSH2 0x256B JUMP JUMPDEST JUMPDEST PUSH1 0x4 DUP4 DUP3 DUP2 MLOAD DUP2 LT PUSH2 0x13E3 JUMPI PUSH2 0x13E2 PUSH2 0x2627 JUMP JUMPDEST JUMPDEST PUSH1 0x20 MUL PUSH1 0x20 ADD ADD MLOAD SWAP1 DUP1 PUSH1 0x1 DUP2 SLOAD ADD DUP1 DUP3 SSTORE DUP1 SWAP2 POP POP PUSH1 0x1 SWAP1 SUB SWAP1 PUSH1 0x0 MSTORE PUSH1 0x20 PUSH1 0x0 KECCAK256 ADD PUSH1 0x0 SWAP1 SWAP2 SWAP1 SWAP2 SWAP1 SWAP2 PUSH2 0x100 EXP DUP2 SLOAD DUP2 PUSH20 0xFFFFFFFFFFFFFFFFFFFFFFFFFFFFFFFFFFFFFFFF MUL NOT AND SWAP1 DUP4 PUSH20 0xFFFFFFFFFFFFFFFFFFFFFFFFFFFFFFFFFFFFFFFF AND MUL OR SWAP1 SSTORE POP DUP1 DUP1 PUSH2 0x1456 SWAP1 PUSH2 0x2522 JUMP JUMPDEST SWAP2 POP POP PUSH2 0x130D JUMP JUMPDEST POP POP POP JUMP JUMPDEST PUSH2 0x146B PUSH2 0x1991 JUMP JUMPDEST PUSH20 0xFFFFFFFFFFFFFFFFFFFFFFFFFFFFFFFFFFFFFFFF AND PUSH2 0x1489 PUSH2 0x1043 JUMP JUMPDEST PUSH20 0xFFFFFFFFFFFFFFFFFFFFFFFFFFFFFFFFFFFFFFFF AND EQ PUSH2 0x14DF JUMPI PUSH1 0x40 MLOAD PUSH32 0x8C379A000000000000000000000000000000000000000000000000000000000 DUP2 MSTORE PUSH1 0x4 ADD PUSH2 0x14D6 SWAP1 PUSH2 0x2299 JUMP JUMPDEST PUSH1 0x40 MLOAD DUP1 SWAP2 SUB SWAP1 REVERT JUMPDEST PUSH2 0x14E7 PUSH2 0xAF0 JUMP JUMPDEST ISZERO PUSH2 0x1527 JUMPI PUSH1 0x40 MLOAD PUSH32 0x8C379A000000000000000000000000000000000000000000000000000000000 DUP2 MSTORE PUSH1 0x4 ADD PUSH2 0x151E SWAP1 PUSH2 0x2259 JUMP JUMPDEST PUSH1 0x40 MLOAD DUP1 SWAP2 SUB SWAP1 REVERT JUMPDEST DUP1 PUSH1 0x6 SWAP1 DUP1 MLOAD SWAP1 PUSH1 0x20 ADD SWAP1 PUSH2 0x153D SWAP3 SWAP2 SWAP1 PUSH2 0x1B87 JUMP JUMPDEST POP POP JUMP JUMPDEST PUSH1 0x60 PUSH2 0x154B PUSH2 0xAF0 JUMP JUMPDEST ISZERO PUSH2 0x158B JUMPI PUSH1 0x40 MLOAD PUSH32 0x8C379A000000000000000000000000000000000000000000000000000000000 DUP2 MSTORE PUSH1 0x4 ADD PUSH2 0x1582 SWAP1 PUSH2 0x2259 JUMP JUMPDEST PUSH1 0x40 MLOAD DUP1 SWAP2 SUB SWAP1 REVERT JUMPDEST PUSH1 0x2 DUP1 SLOAD DUP1 PUSH1 0x20 MUL PUSH1 0x20 ADD PUSH1 0x40 MLOAD SWAP1 DUP2 ADD PUSH1 0x40 MSTORE DUP1 SWAP3 SWAP2 SWAP1 DUP2 DUP2 MSTORE PUSH1 0x20 ADD DUP3 DUP1 SLOAD DUP1 ISZERO PUSH2 0x160D JUMPI PUSH1 0x20 MUL DUP3 ADD SWAP2 SWAP1 PUSH1 0x0 MSTORE PUSH1 0x20 PUSH1 0x0 KECCAK256 SWAP1 JUMPDEST DUP2 PUSH1 0x0 SWAP1 SLOAD SWAP1 PUSH2 0x100 EXP SWAP1 DIV PUSH20 0xFFFFFFFFFFFFFFFFFFFFFFFFFFFFFFFFFFFFFFFF AND PUSH20 0xFFFFFFFFFFFFFFFFFFFFFFFFFFFFFFFFFFFFFFFF AND DUP2 MSTORE PUSH1 0x20 ADD SWAP1 PUSH1 0x1 ADD SWAP1 DUP1 DUP4 GT PUSH2 0x15C3 JUMPI JUMPDEST POP POP POP POP POP SWAP1 POP SWAP1 JUMP JUMPDEST PUSH2 0x161F PUSH2 0x1991 JUMP JUMPDEST PUSH20 0xFFFFFFFFFFFFFFFFFFFFFFFFFFFFFFFFFFFFFFFF AND PUSH2 0x163D PUSH2 0x1043 JUMP JUMPDEST PUSH20 0xFFFFFFFFFFFFFFFFFFFFFFFFFFFFFFFFFFFFFFFF AND EQ PUSH2 0x1693 JUMPI PUSH1 0x40 MLOAD PUSH32 0x8C379A000000000000000000000000000000000000000000000000000000000 DUP2 MSTORE PUSH1 0x4 ADD PUSH2 0x168A SWAP1 PUSH2 0x2299 JUMP JUMPDEST PUSH1 0x40 MLOAD DUP1 SWAP2 SUB SWAP1 REVERT JUMPDEST PUSH2 0x169B PUSH2 0xAF0 JUMP JUMPDEST ISZERO PUSH2 0x16DB JUMPI PUSH1 0x40 MLOAD PUSH32 0x8C379A000000000000000000000000000000000000000000000000000000000 DUP2 MSTORE PUSH1 0x4 ADD PUSH2 0x16D2 SWAP1 PUSH2 0x2259 JUMP JUMPDEST PUSH1 0x40 MLOAD DUP1 SWAP2 SUB SWAP1 REVERT JUMPDEST DUP1 PUSH1 0x5 SWAP1 DUP1 MLOAD SWAP1 PUSH1 0x20 ADD SWAP1 PUSH2 0x16F1 SWAP3 SWAP2 SWAP1 PUSH2 0x1B87 JUMP JUMPDEST POP POP JUMP JUMPDEST PUSH2 0x16FD PUSH2 0x1991 JUMP JUMPDEST PUSH20 0xFFFFFFFFFFFFFFFFFFFFFFFFFFFFFFFFFFFFFFFF AND PUSH2 0x171B PUSH2 0x1043 JUMP JUMPDEST PUSH20 0xFFFFFFFFFFFFFFFFFFFFFFFFFFFFFFFFFFFFFFFF AND EQ PUSH2 0x1771 JUMPI PUSH1 0x40 MLOAD PUSH32 0x8C379A000000000000000000000000000000000000000000000000000000000 DUP2 MSTORE PUSH1 0x4 ADD PUSH2 0x1768 SWAP1 PUSH2 0x2299 JUMP JUMPDEST PUSH1 0x40 MLOAD DUP1 SWAP2 SUB SWAP1 REVERT JUMPDEST PUSH2 0x1779 PUSH2 0xAF0 JUMP JUMPDEST ISZERO PUSH2 0x17B9 JUMPI PUSH1 0x40 MLOAD PUSH32 0x8C379A000000000000000000000000000000000000000000000000000000000 DUP2 MSTORE PUSH1 0x4 ADD PUSH2 0x17B0 SWAP1 PUSH2 0x2259 JUMP JUMPDEST PUSH1 0x40 MLOAD DUP1 SWAP2 SUB SWAP1 REVERT JUMPDEST DUP1 PUSH1 0x7 DUP2 SWAP1 SSTORE POP POP JUMP JUMPDEST PUSH1 0x60 PUSH2 0x17CD PUSH2 0xAF0 JUMP JUMPDEST ISZERO PUSH2 0x180D JUMPI PUSH1 0x40 MLOAD PUSH32 0x8C379A000000000000000000000000000000000000000000000000000000000 DUP2 MSTORE PUSH1 0x4 ADD PUSH2 0x1804 SWAP1 PUSH2 0x2259 JUMP JUMPDEST PUSH1 0x40 MLOAD DUP1 SWAP2 SUB SWAP1 REVERT JUMPDEST PUSH1 0x4 DUP1 SLOAD DUP1 PUSH1 0x20 MUL PUSH1 0x20 ADD PUSH1 0x40 MLOAD SWAP1 DUP2 ADD PUSH1 0x40 MSTORE DUP1 SWAP3 SWAP2 SWAP1 DUP2 DUP2 MSTORE PUSH1 0x20 ADD DUP3 DUP1 SLOAD DUP1 ISZERO PUSH2 0x188F JUMPI PUSH1 0x20 MUL DUP3 ADD SWAP2 SWAP1 PUSH1 0x0 MSTORE PUSH1 0x20 PUSH1 0x0 KECCAK256 SWAP1 JUMPDEST DUP2 PUSH1 0x0 SWAP1 SLOAD SWAP1 PUSH2 0x100 EXP SWAP1 DIV PUSH20 0xFFFFFFFFFFFFFFFFFFFFFFFFFFFFFFFFFFFFFFFF AND PUSH20 0xFFFFFFFFFFFFFFFFFFFFFFFFFFFFFFFFFFFFFFFF AND DUP2 MSTORE PUSH1 0x20 ADD SWAP1 PUSH1 0x1 ADD SWAP1 DUP1 DUP4 GT PUSH2 0x1845 JUMPI JUMPDEST POP POP POP POP POP SWAP1 POP SWAP1 JUMP JUMPDEST PUSH2 0x18A1 PUSH2 0x1991 JUMP JUMPDEST PUSH20 0xFFFFFFFFFFFFFFFFFFFFFFFFFFFFFFFFFFFFFFFF AND PUSH2 0x18BF PUSH2 0x1043 JUMP JUMPDEST PUSH20 0xFFFFFFFFFFFFFFFFFFFFFFFFFFFFFFFFFFFFFFFF AND EQ PUSH2 0x1915 JUMPI PUSH1 0x40 MLOAD PUSH32 0x8C379A000000000000000000000000000000000000000000000000000000000 DUP2 MSTORE PUSH1 0x4 ADD PUSH2 0x190C SWAP1 PUSH2 0x2299 JUMP JUMPDEST PUSH1 0x40 MLOAD DUP1 SWAP2 SUB SWAP1 REVERT JUMPDEST PUSH1 0x0 PUSH20 0xFFFFFFFFFFFFFFFFFFFFFFFFFFFFFFFFFFFFFFFF AND DUP2 PUSH20 0xFFFFFFFFFFFFFFFFFFFFFFFFFFFFFFFFFFFFFFFF AND EQ ISZERO PUSH2 0x1985 JUMPI PUSH1 0x40 MLOAD PUSH32 0x8C379A000000000000000000000000000000000000000000000000000000000 DUP2 MSTORE PUSH1 0x4 ADD PUSH2 0x197C SWAP1 PUSH2 0x2239 JUMP JUMPDEST PUSH1 0x40 MLOAD DUP1 SWAP2 SUB SWAP1 REVERT JUMPDEST PUSH2 0x198E DUP2 PUSH2 0x1AC3 JUMP JUMPDEST POP JUMP JUMPDEST PUSH1 0x0 CALLER SWAP1 POP SWAP1 JUMP JUMPDEST PUSH1 0x0 DUP2 PUSH1 0x0 DUP2 MLOAD GT PUSH2 0x19E0 JUMPI PUSH1 0x40 MLOAD PUSH32 0x8C379A000000000000000000000000000000000000000000000000000000000 DUP2 MSTORE PUSH1 0x4 ADD PUSH2 0x19D7 SWAP1 PUSH2 0x2279 JUMP JUMPDEST PUSH1 0x40 MLOAD DUP1 SWAP2 SUB SWAP1 REVERT JUMPDEST PUSH1 0x1 SWAP2 POP POP SWAP2 SWAP1 POP JUMP JUMPDEST PUSH1 0x0 DUP2 PUSH1 0x0 DUP2 MLOAD GT PUSH2 0x1A31 JUMPI PUSH1 0x40 MLOAD PUSH32 0x8C379A000000000000000000000000000000000000000000000000000000000 DUP2 MSTORE PUSH1 0x4 ADD PUSH2 0x1A28 SWAP1 PUSH2 0x2279 JUMP JUMPDEST PUSH1 0x40 MLOAD DUP1 SWAP2 SUB SWAP1 REVERT JUMPDEST PUSH1 0x1 SWAP2 POP POP SWAP2 SWAP1 POP JUMP JUMPDEST PUSH1 0x0 DUP1 PUSH1 0x0 SWAP1 POP JUMPDEST DUP4 MLOAD DUP2 LT ISZERO PUSH2 0x1AB7 JUMPI DUP3 PUSH20 0xFFFFFFFFFFFFFFFFFFFFFFFFFFFFFFFFFFFFFFFF AND DUP5 DUP3 DUP2 MLOAD DUP2 LT PUSH2 0x1A76 JUMPI PUSH2 0x1A75 PUSH2 0x2627 JUMP JUMPDEST JUMPDEST PUSH1 0x20 MUL PUSH1 0x20 ADD ADD MLOAD PUSH20 0xFFFFFFFFFFFFFFFFFFFFFFFFFFFFFFFFFFFFFFFF AND EQ ISZERO PUSH2 0x1AA4 JUMPI PUSH1 0x1 SWAP2 POP POP PUSH2 0x1ABD JUMP JUMPDEST DUP1 DUP1 PUSH2 0x1AAF SWAP1 PUSH2 0x2522 JUMP JUMPDEST SWAP2 POP POP PUSH2 0x1A43 JUMP JUMPDEST POP PUSH1 0x0 SWAP1 POP JUMPDEST SWAP3 SWAP2 POP POP JUMP JUMPDEST PUSH1 0x0 DUP1 PUSH1 0x0 SWAP1 SLOAD SWAP1 PUSH2 0x100 EXP SWAP1 DIV PUSH20 0xFFFFFFFFFFFFFFFFFFFFFFFFFFFFFFFFFFFFFFFF AND SWAP1 POP DUP2 PUSH1 0x0 DUP1 PUSH2 0x100 EXP DUP2 SLOAD DUP2 PUSH20 0xFFFFFFFFFFFFFFFFFFFFFFFFFFFFFFFFFFFFFFFF MUL NOT AND SWAP1 DUP4 PUSH20 0xFFFFFFFFFFFFFFFFFFFFFFFFFFFFFFFFFFFFFFFF AND MUL OR SWAP1 SSTORE POP DUP2 PUSH20 0xFFFFFFFFFFFFFFFFFFFFFFFFFFFFFFFFFFFFFFFF AND DUP2 PUSH20 0xFFFFFFFFFFFFFFFFFFFFFFFFFFFFFFFFFFFFFFFF AND PUSH32 0x8BE0079C531659141344CD1FD0A4F28419497F9722A3DAAFE3B4186F6B6457E0 PUSH1 0x40 MLOAD PUSH1 0x40 MLOAD DUP1 SWAP2 SUB SWAP1 LOG3 POP POP JUMP JUMPDEST DUP3 DUP1 SLOAD PUSH2 0x1B93 SWAP1 PUSH2 0x24BF JUMP JUMPDEST SWAP1 PUSH1 0x0 MSTORE PUSH1 0x20 PUSH1 0x0 KECCAK256 SWAP1 PUSH1 0x1F ADD PUSH1 0x20 SWAP1 DIV DUP2 ADD SWAP3 DUP3 PUSH2 0x1BB5 JUMPI PUSH1 0x0 DUP6 SSTORE PUSH2 0x1BFC JUMP JUMPDEST DUP3 PUSH1 0x1F LT PUSH2 0x1BCE JUMPI DUP1 MLOAD PUSH1 0xFF NOT AND DUP4 DUP1 ADD OR DUP6 SSTORE PUSH2 0x1BFC JUMP JUMPDEST DUP3 DUP1 ADD PUSH1 0x1 ADD DUP6 SSTORE DUP3 ISZERO PUSH2 0x1BFC JUMPI SWAP2 DUP3 ADD JUMPDEST DUP3 DUP2 GT ISZERO PUSH2 0x1BFB JUMPI DUP3 MLOAD DUP3 SSTORE SWAP2 PUSH1 0x20 ADD SWAP2 SWAP1 PUSH1 0x1 ADD SWAP1 PUSH2 0x1BE0 JUMP JUMPDEST JUMPDEST POP SWAP1 POP PUSH2 0x1C09 SWAP2 SWAP1 PUSH2 0x1C0D JUMP JUMPDEST POP SWAP1 JUMP JUMPDEST JUMPDEST DUP1 DUP3 GT ISZERO PUSH2 0x1C26 JUMPI PUSH1 0x0 DUP2 PUSH1 0x0 SWAP1 SSTORE POP PUSH1 0x1 ADD PUSH2 0x1C0E JUMP JUMPDEST POP SWAP1 JUMP JUMPDEST PUSH1 0x0 PUSH2 0x1C3D PUSH2 0x1C38 DUP5 PUSH2 0x22F9 JUMP JUMPDEST PUSH2 0x22D4 JUMP JUMPDEST SWAP1 POP DUP1 DUP4 DUP3 MSTORE PUSH1 0x20 DUP3 ADD SWAP1 POP DUP3 DUP6 PUSH1 0x20 DUP7 MUL DUP3 ADD GT ISZERO PUSH2 0x1C60 JUMPI PUSH2 0x1C5F PUSH2 0x268A JUMP JUMPDEST JUMPDEST PUSH1 0x0 JUMPDEST DUP6 DUP2 LT ISZERO PUSH2 0x1C90 JUMPI DUP2 PUSH2 0x1C76 DUP9 DUP3 PUSH2 0x1D4C JUMP JUMPDEST DUP5 MSTORE PUSH1 0x20 DUP5 ADD SWAP4 POP PUSH1 0x20 DUP4 ADD SWAP3 POP POP PUSH1 0x1 DUP2 ADD SWAP1 POP PUSH2 0x1C63 JUMP JUMPDEST POP POP POP SWAP4 SWAP3 POP POP POP JUMP JUMPDEST PUSH1 0x0 PUSH2 0x1CAD PUSH2 0x1CA8 DUP5 PUSH2 0x2325 JUMP JUMPDEST PUSH2 0x22D4 JUMP JUMPDEST SWAP1 POP DUP1 DUP4 DUP3 MSTORE PUSH1 0x20 DUP3 ADD SWAP1 POP DUP3 DUP6 PUSH1 0x20 DUP7 MUL DUP3 ADD GT ISZERO PUSH2 0x1CD0 JUMPI PUSH2 0x1CCF PUSH2 0x268A JUMP JUMPDEST JUMPDEST PUSH1 0x0 JUMPDEST DUP6 DUP2 LT ISZERO PUSH2 0x1D00 JUMPI DUP2 PUSH2 0x1CE6 DUP9 DUP3 PUSH2 0x1E00 JUMP JUMPDEST DUP5 MSTORE PUSH1 0x20 DUP5 ADD SWAP4 POP PUSH1 0x20 DUP4 ADD SWAP3 POP POP PUSH1 0x1 DUP2 ADD SWAP1 POP PUSH2 0x1CD3 JUMP JUMPDEST POP POP POP SWAP4 SWAP3 POP POP POP JUMP JUMPDEST PUSH1 0x0 PUSH2 0x1D1D PUSH2 0x1D18 DUP5 PUSH2 0x2351 JUMP JUMPDEST PUSH2 0x22D4 JUMP JUMPDEST SWAP1 POP DUP3 DUP2 MSTORE PUSH1 0x20 DUP2 ADD DUP5 DUP5 DUP5 ADD GT ISZERO PUSH2 0x1D39 JUMPI PUSH2 0x1D38 PUSH2 0x268F JUMP JUMPDEST JUMPDEST PUSH2 0x1D44 DUP5 DUP3 DUP6 PUSH2 0x247D JUMP JUMPDEST POP SWAP4 SWAP3 POP POP POP JUMP JUMPDEST PUSH1 0x0 DUP2 CALLDATALOAD SWAP1 POP PUSH2 0x1D5B DUP2 PUSH2 0x278D JUMP JUMPDEST SWAP3 SWAP2 POP POP JUMP JUMPDEST PUSH1 0x0 DUP3 PUSH1 0x1F DUP4 ADD SLT PUSH2 0x1D76 JUMPI PUSH2 0x1D75 PUSH2 0x2685 JUMP JUMPDEST JUMPDEST DUP2 CALLDATALOAD PUSH2 0x1D86 DUP5 DUP3 PUSH1 0x20 DUP7 ADD PUSH2 0x1C2A JUMP JUMPDEST SWAP2 POP POP SWAP3 SWAP2 POP POP JUMP JUMPDEST PUSH1 0x0 DUP3 PUSH1 0x1F DUP4 ADD SLT PUSH2 0x1DA4 JUMPI PUSH2 0x1DA3 PUSH2 0x2685 JUMP JUMPDEST JUMPDEST DUP2 CALLDATALOAD PUSH2 0x1DB4 DUP5 DUP3 PUSH1 0x20 DUP7 ADD PUSH2 0x1C9A JUMP JUMPDEST SWAP2 POP POP SWAP3 SWAP2 POP POP JUMP JUMPDEST PUSH1 0x0 DUP2 CALLDATALOAD SWAP1 POP PUSH2 0x1DCC DUP2 PUSH2 0x27A4 JUMP JUMPDEST SWAP3 SWAP2 POP POP JUMP JUMPDEST PUSH1 0x0 DUP3 PUSH1 0x1F DUP4 ADD SLT PUSH2 0x1DE7 JUMPI PUSH2 0x1DE6 PUSH2 0x2685 JUMP JUMPDEST JUMPDEST DUP2 CALLDATALOAD PUSH2 0x1DF7 DUP5 DUP3 PUSH1 0x20 DUP7 ADD PUSH2 0x1D0A JUMP JUMPDEST SWAP2 POP POP SWAP3 SWAP2 POP POP JUMP JUMPDEST PUSH1 0x0 DUP2 CALLDATALOAD SWAP1 POP PUSH2 0x1E0F DUP2 PUSH2 0x27B4 JUMP JUMPDEST SWAP3 SWAP2 POP POP JUMP JUMPDEST PUSH1 0x0 PUSH1 0x20 DUP3 DUP5 SUB SLT ISZERO PUSH2 0x1E2B JUMPI PUSH2 0x1E2A PUSH2 0x2699 JUMP JUMPDEST JUMPDEST PUSH1 0x0 PUSH2 0x1E39 DUP5 DUP3 DUP6 ADD PUSH2 0x1D4C JUMP JUMPDEST SWAP2 POP POP SWAP3 SWAP2 POP POP JUMP JUMPDEST PUSH1 0x0 PUSH1 0x20 DUP3 DUP5 SUB SLT ISZERO PUSH2 0x1E58 JUMPI PUSH2 0x1E57 PUSH2 0x2699 JUMP JUMPDEST JUMPDEST PUSH1 0x0 DUP3 ADD CALLDATALOAD PUSH8 0xFFFFFFFFFFFFFFFF DUP2 GT ISZERO PUSH2 0x1E76 JUMPI PUSH2 0x1E75 PUSH2 0x2694 JUMP JUMPDEST JUMPDEST PUSH2 0x1E82 DUP5 DUP3 DUP6 ADD PUSH2 0x1D61 JUMP JUMPDEST SWAP2 POP POP SWAP3 SWAP2 POP POP JUMP JUMPDEST PUSH1 0x0 PUSH1 0x20 DUP3 DUP5 SUB SLT ISZERO PUSH2 0x1EA1 JUMPI PUSH2 0x1EA0 PUSH2 0x2699 JUMP JUMPDEST JUMPDEST PUSH1 0x0 DUP3 ADD CALLDATALOAD PUSH8 0xFFFFFFFFFFFFFFFF DUP2 GT ISZERO PUSH2 0x1EBF JUMPI PUSH2 0x1EBE PUSH2 0x2694 JUMP JUMPDEST JUMPDEST PUSH2 0x1ECB DUP5 DUP3 DUP6 ADD PUSH2 0x1D8F JUMP JUMPDEST SWAP2 POP POP SWAP3 SWAP2 POP POP JUMP JUMPDEST PUSH1 0x0 PUSH1 0x20 DUP3 DUP5 SUB SLT ISZERO PUSH2 0x1EEA JUMPI PUSH2 0x1EE9 PUSH2 0x2699 JUMP JUMPDEST JUMPDEST PUSH1 0x0 PUSH2 0x1EF8 DUP5 DUP3 DUP6 ADD PUSH2 0x1DBD JUMP JUMPDEST SWAP2 POP POP SWAP3 SWAP2 POP POP JUMP JUMPDEST PUSH1 0x0 PUSH1 0x20 DUP3 DUP5 SUB SLT ISZERO PUSH2 0x1F17 JUMPI PUSH2 0x1F16 PUSH2 0x2699 JUMP JUMPDEST JUMPDEST PUSH1 0x0 DUP3 ADD CALLDATALOAD PUSH8 0xFFFFFFFFFFFFFFFF DUP2 GT ISZERO PUSH2 0x1F35 JUMPI PUSH2 0x1F34 PUSH2 0x2694 JUMP JUMPDEST JUMPDEST PUSH2 0x1F41 DUP5 DUP3 DUP6 ADD PUSH2 0x1DD2 JUMP JUMPDEST SWAP2 POP POP SWAP3 SWAP2 POP POP JUMP JUMPDEST PUSH1 0x0 PUSH1 0x20 DUP3 DUP5 SUB SLT ISZERO PUSH2 0x1F60 JUMPI PUSH2 0x1F5F PUSH2 0x2699 JUMP JUMPDEST JUMPDEST PUSH1 0x0 PUSH2 0x1F6E DUP5 DUP3 DUP6 ADD PUSH2 0x1E00 JUMP JUMPDEST SWAP2 POP POP SWAP3 SWAP2 POP POP JUMP JUMPDEST PUSH1 0x0 PUSH2 0x1F83 DUP4 DUP4 PUSH2 0x1FA7 JUMP JUMPDEST PUSH1 0x20 DUP4 ADD SWAP1 POP SWAP3 SWAP2 POP POP JUMP JUMPDEST PUSH1 0x0 PUSH2 0x1F9B DUP4 DUP4 PUSH2 0x2164 JUMP JUMPDEST PUSH1 0x20 DUP4 ADD SWAP1 POP SWAP3 SWAP2 POP POP JUMP JUMPDEST PUSH2 0x1FB0 DUP2 PUSH2 0x2410 JUMP JUMPDEST DUP3 MSTORE POP POP JUMP JUMPDEST PUSH2 0x1FBF DUP2 PUSH2 0x2410 JUMP JUMPDEST DUP3 MSTORE POP POP JUMP JUMPDEST PUSH1 0x0 PUSH2 0x1FD0 DUP3 PUSH2 0x23A2 JUMP JUMPDEST PUSH2 0x1FDA DUP2 DUP6 PUSH2 0x23DD JUMP JUMPDEST SWAP4 POP PUSH2 0x1FE5 DUP4 PUSH2 0x2382 JUMP JUMPDEST DUP1 PUSH1 0x0 JUMPDEST DUP4 DUP2 LT ISZERO PUSH2 0x2016 JUMPI DUP2 MLOAD PUSH2 0x1FFD DUP9 DUP3 PUSH2 0x1F77 JUMP JUMPDEST SWAP8 POP PUSH2 0x2008 DUP4 PUSH2 0x23C3 JUMP JUMPDEST SWAP3 POP POP PUSH1 0x1 DUP2 ADD SWAP1 POP PUSH2 0x1FE9 JUMP JUMPDEST POP DUP6 SWAP4 POP POP POP POP SWAP3 SWAP2 POP POP JUMP JUMPDEST PUSH1 0x0 PUSH2 0x202E DUP3 PUSH2 0x23AD JUMP JUMPDEST PUSH2 0x2038 DUP2 DUP6 PUSH2 0x23EE JUMP JUMPDEST SWAP4 POP PUSH2 0x2043 DUP4 PUSH2 0x2392 JUMP JUMPDEST DUP1 PUSH1 0x0 JUMPDEST DUP4 DUP2 LT ISZERO PUSH2 0x2074 JUMPI DUP2 MLOAD PUSH2 0x205B DUP9 DUP3 PUSH2 0x1F8F JUMP JUMPDEST SWAP8 POP PUSH2 0x2066 DUP4 PUSH2 0x23D0 JUMP JUMPDEST SWAP3 POP POP PUSH1 0x1 DUP2 ADD SWAP1 POP PUSH2 0x2047 JUMP JUMPDEST POP DUP6 SWAP4 POP POP POP POP SWAP3 SWAP2 POP POP JUMP JUMPDEST PUSH2 0x208A DUP2 PUSH2 0x2422 JUMP JUMPDEST DUP3 MSTORE POP POP JUMP JUMPDEST PUSH2 0x2099 DUP2 PUSH2 0x246B JUMP JUMPDEST DUP3 MSTORE POP POP JUMP JUMPDEST PUSH1 0x0 PUSH2 0x20AA DUP3 PUSH2 0x23B8 JUMP JUMPDEST PUSH2 0x20B4 DUP2 DUP6 PUSH2 0x23FF JUMP JUMPDEST SWAP4 POP PUSH2 0x20C4 DUP2 DUP6 PUSH1 0x20 DUP7 ADD PUSH2 0x248C JUMP JUMPDEST PUSH2 0x20CD DUP2 PUSH2 0x269E JUMP JUMPDEST DUP5 ADD SWAP2 POP POP SWAP3 SWAP2 POP POP JUMP JUMPDEST PUSH1 0x0 PUSH2 0x20E5 PUSH1 0x26 DUP4 PUSH2 0x23FF JUMP JUMPDEST SWAP2 POP PUSH2 0x20F0 DUP3 PUSH2 0x26AF JUMP JUMPDEST PUSH1 0x40 DUP3 ADD SWAP1 POP SWAP2 SWAP1 POP JUMP JUMPDEST PUSH1 0x0 PUSH2 0x2108 PUSH1 0x10 DUP4 PUSH2 0x23FF JUMP JUMPDEST SWAP2 POP PUSH2 0x2113 DUP3 PUSH2 0x26FE JUMP JUMPDEST PUSH1 0x20 DUP3 ADD SWAP1 POP SWAP2 SWAP1 POP JUMP JUMPDEST PUSH1 0x0 PUSH2 0x212B PUSH1 0x1D DUP4 PUSH2 0x23FF JUMP JUMPDEST SWAP2 POP PUSH2 0x2136 DUP3 PUSH2 0x2727 JUMP JUMPDEST PUSH1 0x20 DUP3 ADD SWAP1 POP SWAP2 SWAP1 POP JUMP JUMPDEST PUSH1 0x0 PUSH2 0x214E PUSH1 0x20 DUP4 PUSH2 0x23FF JUMP JUMPDEST SWAP2 POP PUSH2 0x2159 DUP3 PUSH2 0x2750 JUMP JUMPDEST PUSH1 0x20 DUP3 ADD SWAP1 POP SWAP2 SWAP1 POP JUMP JUMPDEST PUSH2 0x216D DUP2 PUSH2 0x2461 JUMP JUMPDEST DUP3 MSTORE POP POP JUMP JUMPDEST PUSH2 0x217C DUP2 PUSH2 0x2461 JUMP JUMPDEST DUP3 MSTORE POP POP JUMP JUMPDEST PUSH1 0x0 PUSH1 0x20 DUP3 ADD SWAP1 POP PUSH2 0x2197 PUSH1 0x0 DUP4 ADD DUP5 PUSH2 0x1FB6 JUMP JUMPDEST SWAP3 SWAP2 POP POP JUMP JUMPDEST PUSH1 0x0 PUSH1 0x20 DUP3 ADD SWAP1 POP DUP2 DUP2 SUB PUSH1 0x0 DUP4 ADD MSTORE PUSH2 0x21B7 DUP2 DUP5 PUSH2 0x1FC5 JUMP JUMPDEST SWAP1 POP SWAP3 SWAP2 POP POP JUMP JUMPDEST PUSH1 0x0 PUSH1 0x20 DUP3 ADD SWAP1 POP DUP2 DUP2 SUB PUSH1 0x0 DUP4 ADD MSTORE PUSH2 0x21D9 DUP2 DUP5 PUSH2 0x2023 JUMP JUMPDEST SWAP1 POP SWAP3 SWAP2 POP POP JUMP JUMPDEST PUSH1 0x0 PUSH1 0x20 DUP3 ADD SWAP1 POP PUSH2 0x21F6 PUSH1 0x0 DUP4 ADD DUP5 PUSH2 0x2081 JUMP JUMPDEST SWAP3 SWAP2 POP POP JUMP JUMPDEST PUSH1 0x0 PUSH1 0x20 DUP3 ADD SWAP1 POP PUSH2 0x2211 PUSH1 0x0 DUP4 ADD DUP5 PUSH2 0x2090 JUMP JUMPDEST SWAP3 SWAP2 POP POP JUMP JUMPDEST PUSH1 0x0 PUSH1 0x20 DUP3 ADD SWAP1 POP DUP2 DUP2 SUB PUSH1 0x0 DUP4 ADD MSTORE PUSH2 0x2231 DUP2 DUP5 PUSH2 0x209F JUMP JUMPDEST SWAP1 POP SWAP3 SWAP2 POP POP JUMP JUMPDEST PUSH1 0x0 PUSH1 0x20 DUP3 ADD SWAP1 POP DUP2 DUP2 SUB PUSH1 0x0 DUP4 ADD MSTORE PUSH2 0x2252 DUP2 PUSH2 0x20D8 JUMP JUMPDEST SWAP1 POP SWAP2 SWAP1 POP JUMP JUMPDEST PUSH1 0x0 PUSH1 0x20 DUP3 ADD SWAP1 POP DUP2 DUP2 SUB PUSH1 0x0 DUP4 ADD MSTORE PUSH2 0x2272 DUP2 PUSH2 0x20FB JUMP JUMPDEST SWAP1 POP SWAP2 SWAP1 POP JUMP JUMPDEST PUSH1 0x0 PUSH1 0x20 DUP3 ADD SWAP1 POP DUP2 DUP2 SUB PUSH1 0x0 DUP4 ADD MSTORE PUSH2 0x2292 DUP2 PUSH2 0x211E JUMP JUMPDEST SWAP1 POP SWAP2 SWAP1 POP JUMP JUMPDEST PUSH1 0x0 PUSH1 0x20 DUP3 ADD SWAP1 POP DUP2 DUP2 SUB PUSH1 0x0 DUP4 ADD MSTORE PUSH2 0x22B2 DUP2 PUSH2 0x2141 JUMP JUMPDEST SWAP1 POP SWAP2 SWAP1 POP JUMP JUMPDEST PUSH1 0x0 PUSH1 0x20 DUP3 ADD SWAP1 POP PUSH2 0x22CE PUSH1 0x0 DUP4 ADD DUP5 PUSH2 0x2173 JUMP JUMPDEST SWAP3 SWAP2 POP POP JUMP JUMPDEST PUSH1 0x0 PUSH2 0x22DE PUSH2 0x22EF JUMP JUMPDEST SWAP1 POP PUSH2 0x22EA DUP3 DUP3 PUSH2 0x24F1 JUMP JUMPDEST SWAP2 SWAP1 POP JUMP JUMPDEST PUSH1 0x0 PUSH1 0x40 MLOAD SWAP1 POP SWAP1 JUMP JUMPDEST PUSH1 0x0 PUSH8 0xFFFFFFFFFFFFFFFF DUP3 GT ISZERO PUSH2 0x2314 JUMPI PUSH2 0x2313 PUSH2 0x2656 JUMP JUMPDEST JUMPDEST PUSH1 0x20 DUP3 MUL SWAP1 POP PUSH1 0x20 DUP2 ADD SWAP1 POP SWAP2 SWAP1 POP JUMP JUMPDEST PUSH1 0x0 PUSH8 0xFFFFFFFFFFFFFFFF DUP3 GT ISZERO PUSH2 0x2340 JUMPI PUSH2 0x233F PUSH2 0x2656 JUMP JUMPDEST JUMPDEST PUSH1 0x20 DUP3 MUL SWAP1 POP PUSH1 0x20 DUP2 ADD SWAP1 POP SWAP2 SWAP1 POP JUMP JUMPDEST PUSH1 0x0 PUSH8 0xFFFFFFFFFFFFFFFF DUP3 GT ISZERO PUSH2 0x236C JUMPI PUSH2 0x236B PUSH2 0x2656 JUMP JUMPDEST JUMPDEST PUSH2 0x2375 DUP3 PUSH2 0x269E JUMP JUMPDEST SWAP1 POP PUSH1 0x20 DUP2 ADD SWAP1 POP SWAP2 SWAP1 POP JUMP JUMPDEST PUSH1 0x0 DUP2 SWAP1 POP PUSH1 0x20 DUP3 ADD SWAP1 POP SWAP2 SWAP1 POP JUMP JUMPDEST PUSH1 0x0 DUP2 SWAP1 POP PUSH1 0x20 DUP3 ADD SWAP1 POP SWAP2 SWAP1 POP JUMP JUMPDEST PUSH1 0x0 DUP2 MLOAD SWAP1 POP SWAP2 SWAP1 POP JUMP JUMPDEST PUSH1 0x0 DUP2 MLOAD SWAP1 POP SWAP2 SWAP1 POP JUMP JUMPDEST PUSH1 0x0 DUP2 MLOAD SWAP1 POP SWAP2 SWAP1 POP JUMP JUMPDEST PUSH1 0x0 PUSH1 0x20 DUP3 ADD SWAP1 POP SWAP2 SWAP1 POP JUMP JUMPDEST PUSH1 0x0 PUSH1 0x20 DUP3 ADD SWAP1 POP SWAP2 SWAP1 POP JUMP JUMPDEST PUSH1 0x0 DUP3 DUP3 MSTORE PUSH1 0x20 DUP3 ADD SWAP1 POP SWAP3 SWAP2 POP POP JUMP JUMPDEST PUSH1 0x0 DUP3 DUP3 MSTORE PUSH1 0x20 DUP3 ADD SWAP1 POP SWAP3 SWAP2 POP POP JUMP JUMPDEST PUSH1 0x0 DUP3 DUP3 MSTORE PUSH1 0x20 DUP3 ADD SWAP1 POP SWAP3 SWAP2 POP POP JUMP JUMPDEST PUSH1 0x0 PUSH2 0x241B DUP3 PUSH2 0x2441 JUMP JUMPDEST SWAP1 POP SWAP2 SWAP1 POP JUMP JUMPDEST PUSH1 0x0 DUP2 ISZERO ISZERO SWAP1 POP SWAP2 SWAP1 POP JUMP JUMPDEST PUSH1 0x0 DUP2 SWAP1 POP PUSH2 0x243C DUP3 PUSH2 0x2779 JUMP JUMPDEST SWAP2 SWAP1 POP JUMP JUMPDEST PUSH1 0x0 PUSH20 0xFFFFFFFFFFFFFFFFFFFFFFFFFFFFFFFFFFFFFFFF DUP3 AND SWAP1 POP SWAP2 SWAP1 POP JUMP JUMPDEST PUSH1 0x0 DUP2 SWAP1 POP SWAP2 SWAP1 POP JUMP JUMPDEST PUSH1 0x0 PUSH2 0x2476 DUP3 PUSH2 0x242E JUMP JUMPDEST SWAP1 POP SWAP2 SWAP1 POP JUMP JUMPDEST DUP3 DUP2 DUP4 CALLDATACOPY PUSH1 0x0 DUP4 DUP4 ADD MSTORE POP POP POP JUMP JUMPDEST PUSH1 0x0 JUMPDEST DUP4 DUP2 LT ISZERO PUSH2 0x24AA JUMPI DUP1 DUP3 ADD MLOAD DUP2 DUP5 ADD MSTORE PUSH1 0x20 DUP2 ADD SWAP1 POP PUSH2 0x248F JUMP JUMPDEST DUP4 DUP2 GT ISZERO PUSH2 0x24B9 JUMPI PUSH1 0x0 DUP5 DUP5 ADD MSTORE JUMPDEST POP POP POP POP JUMP JUMPDEST PUSH1 0x0 PUSH1 0x2 DUP3 DIV SWAP1 POP PUSH1 0x1 DUP3 AND DUP1 PUSH2 0x24D7 JUMPI PUSH1 0x7F DUP3 AND SWAP2 POP JUMPDEST PUSH1 0x20 DUP3 LT DUP2 EQ ISZERO PUSH2 0x24EB JUMPI PUSH2 0x24EA PUSH2 0x25F8 JUMP JUMPDEST JUMPDEST POP SWAP2 SWAP1 POP JUMP JUMPDEST PUSH2 0x24FA DUP3 PUSH2 0x269E JUMP JUMPDEST DUP2 ADD DUP2 DUP2 LT PUSH8 0xFFFFFFFFFFFFFFFF DUP3 GT OR ISZERO PUSH2 0x2519 JUMPI PUSH2 0x2518 PUSH2 0x2656 JUMP JUMPDEST JUMPDEST DUP1 PUSH1 0x40 MSTORE POP POP POP JUMP JUMPDEST PUSH1 0x0 PUSH2 0x252D DUP3 PUSH2 0x2461 JUMP JUMPDEST SWAP2 POP PUSH32 0xFFFFFFFFFFFFFFFFFFFFFFFFFFFFFFFFFFFFFFFFFFFFFFFFFFFFFFFFFFFFFFFF DUP3 EQ ISZERO PUSH2 0x2560 JUMPI PUSH2 0x255F PUSH2 0x259A JUMP JUMPDEST JUMPDEST PUSH1 0x1 DUP3 ADD SWAP1 POP SWAP2 SWAP1 POP JUMP JUMPDEST PUSH32 0x4E487B7100000000000000000000000000000000000000000000000000000000 PUSH1 0x0 MSTORE PUSH1 0x1 PUSH1 0x4 MSTORE PUSH1 0x24 PUSH1 0x0 REVERT JUMPDEST PUSH32 0x4E487B7100000000000000000000000000000000000000000000000000000000 PUSH1 0x0 MSTORE PUSH1 0x11 PUSH1 0x4 MSTORE PUSH1 0x24 PUSH1 0x0 REVERT JUMPDEST PUSH32 0x4E487B7100000000000000000000000000000000000000000000000000000000 PUSH1 0x0 MSTORE PUSH1 0x21 PUSH1 0x4 MSTORE PUSH1 0x24 PUSH1 0x0 REVERT JUMPDEST PUSH32 0x4E487B7100000000000000000000000000000000000000000000000000000000 PUSH1 0x0 MSTORE PUSH1 0x22 PUSH1 0x4 MSTORE PUSH1 0x24 PUSH1 0x0 REVERT JUMPDEST PUSH32 0x4E487B7100000000000000000000000000000000000000000000000000000000 PUSH1 0x0 MSTORE PUSH1 0x32 PUSH1 0x4 MSTORE PUSH1 0x24 PUSH1 0x0 REVERT JUMPDEST PUSH32 0x4E487B7100000000000000000000000000000000000000000000000000000000 PUSH1 0x0 MSTORE PUSH1 0x41 PUSH1 0x4 MSTORE PUSH1 0x24 PUSH1 0x0 REVERT JUMPDEST PUSH1 0x0 DUP1 REVERT JUMPDEST PUSH1 0x0 DUP1 REVERT JUMPDEST PUSH1 0x0 DUP1 REVERT JUMPDEST PUSH1 0x0 DUP1 REVERT JUMPDEST PUSH1 0x0 DUP1 REVERT JUMPDEST PUSH1 0x0 PUSH1 0x1F NOT PUSH1 0x1F DUP4 ADD AND SWAP1 POP SWAP2 SWAP1 POP JUMP JUMPDEST PUSH32 0x4F776E61626C653A206E6577206F776E657220697320746865207A65726F2061 PUSH1 0x0 DUP3 ADD MSTORE PUSH32 0x6464726573730000000000000000000000000000000000000000000000000000 PUSH1 0x20 DUP3 ADD MSTORE POP JUMP JUMPDEST PUSH32 0x5061757361626C653A2070617573656400000000000000000000000000000000 PUSH1 0x0 DUP3 ADD MSTORE POP JUMP JUMPDEST PUSH32 0x41727261793A20636F6E7461696E73207A65726F20656C656D656E7473000000 PUSH1 0x0 DUP3 ADD MSTORE POP JUMP JUMPDEST PUSH32 0x4F776E61626C653A2063616C6C6572206973206E6F7420746865206F776E6572 PUSH1 0x0 DUP3 ADD MSTORE POP JUMP JUMPDEST PUSH1 0x3 DUP2 LT PUSH2 0x278A JUMPI PUSH2 0x2789 PUSH2 0x25C9 JUMP JUMPDEST JUMPDEST POP JUMP JUMPDEST PUSH2 0x2796 DUP2 PUSH2 0x2410 JUMP JUMPDEST DUP2 EQ PUSH2 0x27A1 JUMPI PUSH1 0x0 DUP1 REVERT JUMPDEST POP JUMP JUMPDEST PUSH1 0x3 DUP2 LT PUSH2 0x27B1 JUMPI PUSH1 0x0 DUP1 REVERT JUMPDEST POP JUMP JUMPDEST PUSH2 0x27BD DUP2 PUSH2 0x2461 JUMP JUMPDEST DUP2 EQ PUSH2 0x27C8 JUMPI PUSH1 0x0 DUP1 REVERT JUMPDEST POP JUMP INVALID LOG2 PUSH5 0x6970667358 0x22 SLT KECCAK256 PC PUSH12 0x1D4C404979ADA1374E3679D1 AND 0xA8 PUSH30 0xBC8D12F8D30785C7D185C9A83D99BB64736F6C6343000807003300000000 "
				},
				"gasEstimates": {
					"creation": {
						"codeDepositCost": "2048200",
						"executionCost": "infinite",
						"totalCost": "infinite"
					},
					"external": {
						"getActor()": "infinite",
						"getAge()": "4789",
						"getCompany()": "infinite",
						"getDistribution()": "infinite",
						"getIeee1599()": "4853",
						"getName()": "infinite",
						"getNumActor()": "4753",
						"getNumCompany()": "4753",
						"getNumSynchronization()": "4732",
						"getPrice()": "4811",
						"getSymbol()": "infinite",
						"getSynchronization()": "infinite",
						"getType()": "4943",
						"owner()": "2567",
						"paused()": "2574",
						"renounceOwnership()": "30397",
						"setActor(address[])": "infinite",
						"setAge(uint256)": "27067",
						"setCompany(address[])": "infinite",
						"setDistribution(uint256[])": "infinite",
						"setName(string)": "infinite",
						"setPrice(uint256)": "27090",
						"setSymbol(string)": "infinite",
						"setSynchronization(address[])": "infinite",
						"setType(uint8)": "29155",
						"transferOwnership(address)": "30833"
					}
				},
				"methodIdentifiers": {
					"getActor()": "c250a9aa",
					"getAge()": "967e6e65",
					"getCompany()": "127810bc",
					"getDistribution()": "1cced51b",
					"getIeee1599()": "14b21322",
					"getName()": "17d7de7c",
					"getNumActor()": "8f59e34f",
					"getNumCompany()": "5dca654f",
					"getNumSynchronization()": "0b9d3f32",
					"getPrice()": "98d5fdca",
					"getSymbol()": "15070401",
					"getSynchronization()": "d9e71c02",
					"getType()": "15dae03e",
					"owner()": "8da5cb5b",
					"paused()": "5c975abb",
					"renounceOwnership()": "715018a6",
					"setActor(address[])": "5fcd689e",
					"setAge(uint256)": "d5dcf127",
					"setCompany(address[])": "667de587",
					"setDistribution(uint256[])": "4956f4eb",
					"setName(string)": "c47f0027",
					"setPrice(uint256)": "91b7f5ed",
					"setSymbol(string)": "b84c8246",
					"setSynchronization(address[])": "a34d8460",
					"setType(uint8)": "0b54cbfb",
					"transferOwnership(address)": "f2fde38b"
				}
			},
			"storageLayout": {
				"storage": [
					{
						"astId": 655,
						"contract": "contracts/SingleDigitalObject.sol:SingleDigitalObject",
						"label": "_owner",
						"offset": 0,
						"slot": "0",
						"type": "t_address"
					},
					{
						"astId": 770,
						"contract": "contracts/SingleDigitalObject.sol:SingleDigitalObject",
						"label": "_paused",
						"offset": 20,
						"slot": "0",
						"type": "t_bool"
					},
					{
						"astId": 18,
						"contract": "contracts/SingleDigitalObject.sol:SingleDigitalObject",
						"label": "ieee1599",
						"offset": 0,
						"slot": "1",
						"type": "t_address"
					},
					{
						"astId": 21,
						"contract": "contracts/SingleDigitalObject.sol:SingleDigitalObject",
						"label": "actor",
						"offset": 0,
						"slot": "2",
						"type": "t_array(t_address)dyn_storage"
					},
					{
						"astId": 24,
						"contract": "contracts/SingleDigitalObject.sol:SingleDigitalObject",
						"label": "company",
						"offset": 0,
						"slot": "3",
						"type": "t_array(t_address)dyn_storage"
					},
					{
						"astId": 27,
						"contract": "contracts/SingleDigitalObject.sol:SingleDigitalObject",
						"label": "synchronization",
						"offset": 0,
						"slot": "4",
						"type": "t_array(t_address)dyn_storage"
					},
					{
						"astId": 29,
						"contract": "contracts/SingleDigitalObject.sol:SingleDigitalObject",
						"label": "name",
						"offset": 0,
						"slot": "5",
						"type": "t_string_storage"
					},
					{
						"astId": 31,
						"contract": "contracts/SingleDigitalObject.sol:SingleDigitalObject",
						"label": "symbol",
						"offset": 0,
						"slot": "6",
						"type": "t_string_storage"
					},
					{
						"astId": 33,
						"contract": "contracts/SingleDigitalObject.sol:SingleDigitalObject",
						"label": "age",
						"offset": 0,
						"slot": "7",
						"type": "t_uint256"
					},
					{
						"astId": 36,
						"contract": "contracts/SingleDigitalObject.sol:SingleDigitalObject",
						"label": "typeOf",
						"offset": 0,
						"slot": "8",
						"type": "t_enum(typeT)504"
					},
					{
						"astId": 38,
						"contract": "contracts/SingleDigitalObject.sol:SingleDigitalObject",
						"label": "price",
						"offset": 0,
						"slot": "9",
						"type": "t_uint256"
					},
					{
						"astId": 46,
						"contract": "contracts/SingleDigitalObject.sol:SingleDigitalObject",
						"label": "distribution",
						"offset": 0,
						"slot": "10",
						"type": "t_array(t_uint256)dyn_storage"
					}
				],
				"types": {
					"t_address": {
						"encoding": "inplace",
						"label": "address",
						"numberOfBytes": "20"
					},
					"t_array(t_address)dyn_storage": {
						"base": "t_address",
						"encoding": "dynamic_array",
						"label": "address[]",
						"numberOfBytes": "32"
					},
					"t_array(t_uint256)dyn_storage": {
						"base": "t_uint256",
						"encoding": "dynamic_array",
						"label": "uint256[]",
						"numberOfBytes": "32"
					},
					"t_bool": {
						"encoding": "inplace",
						"label": "bool",
						"numberOfBytes": "1"
					},
					"t_enum(typeT)504": {
						"encoding": "inplace",
						"label": "enum ISingleDigitalObject.typeT",
						"numberOfBytes": "1"
					},
					"t_string_storage": {
						"encoding": "bytes",
						"label": "string",
						"numberOfBytes": "32"
					},
					"t_uint256": {
						"encoding": "inplace",
						"label": "uint256",
						"numberOfBytes": "32"
					}
				}
			},
			"userdoc": {
				"kind": "user",
				"methods": {},
				"version": 1
			}
		}
	}
}