{
	"data": {
		"bytecode": {
			"linkReferences": {},
			"object": "608060405234801561001057600080fd5b5060008060006101000a81548160ff0219169083151502179055506111448061003a6000396000f3fe60806040526004361061007b5760003560e01c80635c975abb1161004e5780635c975abb1461013f5780636482fa711461016a578063954437a614610186578063d32aaaf5146101af5761007b565b80631921873c146100805780632e0f40001461009c5780633cff6368146100d95780635a77d9a914610116575b600080fd5b61009a60048036038101906100959190610c69565b6101cb565b005b3480156100a857600080fd5b506100c360048036038101906100be9190610be9565b6102d6565b6040516100d09190610f07565b60405180910390f35b3480156100e557600080fd5b5061010060048036038101906100fb9190610b8f565b6103a5565b60405161010d9190610e81565b60405180910390f35b34801561012257600080fd5b5061013d60048036038101906101389190610ca9565b6104ba565b005b34801561014b57600080fd5b506101546105ac565b6040516101619190610ea3565b60405180910390f35b610184600480360381019061017f9190610c29565b6105c2565b005b34801561019257600080fd5b506101ad60048036038101906101a89190610c69565b6106d2565b005b6101c960048036038101906101c49190610c69565b6107a6565b005b6101d36105ac565b15610213576040517f08c379a000000000000000000000000000000000000000000000000000000000815260040161020a90610ee7565b60405180910390fd5b8173ffffffffffffffffffffffffffffffffffffffff16635f36a162610237610b01565b836040518363ffffffff1660e01b81526004016102549190610f07565b6000604051808303818588803b15801561026d57600080fd5b505af1158015610281573d6000803e3d6000fd5b505050505061029082826106d2565b7f2fa1aae003a9edf84e2d87799e0762cd605d49ec24efaad2679ddae2dd5ec5cb6102b9610b09565b83836040516102ca93929190610e4a565b60405180910390a15050565b60006102e06105ac565b15610320576040517f08c379a000000000000000000000000000000000000000000000000000000000815260040161031790610ee7565b60405180910390fd5b600160008373ffffffffffffffffffffffffffffffffffffffff1673ffffffffffffffffffffffffffffffffffffffff16815260200190815260200160002060008473ffffffffffffffffffffffffffffffffffffffff1673ffffffffffffffffffffffffffffffffffffffff16815260200190815260200160002054905092915050565b60606103af6105ac565b156103ef576040517f08c379a00000000000000000000000000000000000000000000000000000000081526004016103e690610ee7565b60405180910390fd5b600260008373ffffffffffffffffffffffffffffffffffffffff1673ffffffffffffffffffffffffffffffffffffffff1681526020019081526020016000208054806020026020016040519081016040528092919081815260200182805480156104ae57602002820191906000526020600020905b8160009054906101000a900473ffffffffffffffffffffffffffffffffffffffff1673ffffffffffffffffffffffffffffffffffffffff1681526020019060010190808311610464575b50505050509050919050565b6104c26105ac565b15610502576040517f08c379a00000000000000000000000000000000000000000000000000000000081526004016104f990610ee7565b60405180910390fd5b6002600061050e610b09565b73ffffffffffffffffffffffffffffffffffffffff1673ffffffffffffffffffffffffffffffffffffffff168152602001908152602001600020819080600181540180825580915050600190039060005260206000200160009091909190916101000a81548173ffffffffffffffffffffffffffffffffffffffff021916908373ffffffffffffffffffffffffffffffffffffffff16021790555050565b60008060009054906101000a900460ff16905090565b6105ca6105ac565b1561060a576040517f08c379a000000000000000000000000000000000000000000000000000000000815260040161060190610ee7565b60405180910390fd5b8173ffffffffffffffffffffffffffffffffffffffff1663ced5026361062e610b01565b8360006040518463ffffffff1660e01b815260040161064e929190610ebe565b6000604051808303818588803b15801561066757600080fd5b505af115801561067b573d6000803e3d6000fd5b5050505050610689816104ba565b7fbce9b87b7b3ea5d834da69a30ac9e4086f4b874659a7a14c11fbff1b2d7541ba6106b2610b09565b838360006040516106c69493929190610e05565b60405180910390a15050565b6106da6105ac565b1561071a576040517f08c379a000000000000000000000000000000000000000000000000000000000815260040161071190610ee7565b60405180910390fd5b8060016000610727610b09565b73ffffffffffffffffffffffffffffffffffffffff1673ffffffffffffffffffffffffffffffffffffffff16815260200190815260200160002060008473ffffffffffffffffffffffffffffffffffffffff1673ffffffffffffffffffffffffffffffffffffffff168152602001908152602001600020819055505050565b6107ae6105ac565b156107ee576040517f08c379a00000000000000000000000000000000000000000000000000000000081526004016107e590610ee7565b60405180910390fd5b6000600160006107fc610b09565b73ffffffffffffffffffffffffffffffffffffffff1673ffffffffffffffffffffffffffffffffffffffff16815260200190815260200160002060008473ffffffffffffffffffffffffffffffffffffffff1673ffffffffffffffffffffffffffffffffffffffff1681526020019081526020016000205411801561090357508060016000610889610b09565b73ffffffffffffffffffffffffffffffffffffffff1673ffffffffffffffffffffffffffffffffffffffff16815260200190815260200160002060008473ffffffffffffffffffffffffffffffffffffffff1673ffffffffffffffffffffffffffffffffffffffff16815260200190815260200160002054105b61090c57600080fd5b60008273ffffffffffffffffffffffffffffffffffffffff1663c5e4dd826040518163ffffffff1660e01b815260040160206040518083038186803b15801561095457600080fd5b505afa158015610968573d6000803e3d6000fd5b505050506040513d601f19601f8201168201806040525081019061098c9190610bbc565b73ffffffffffffffffffffffffffffffffffffffff1663f0e530f8600160006109b3610b09565b73ffffffffffffffffffffffffffffffffffffffff1673ffffffffffffffffffffffffffffffffffffffff16815260200190815260200160002060008673ffffffffffffffffffffffffffffffffffffffff1673ffffffffffffffffffffffffffffffffffffffff16815260200190815260200160002054846040518363ffffffff1660e01b8152600401610a49929190610f22565b602060405180830381600087803b158015610a6357600080fd5b505af1158015610a77573d6000803e3d6000fd5b505050506040513d601f19601f82011682018060405250810190610a9b9190610cd6565b905080610aa6610b01565b14610ab057600080fd5b610aba83836101cb565b7f2fa1aae003a9edf84e2d87799e0762cd605d49ec24efaad2679ddae2dd5ec5cb610ae3610b09565b8484604051610af493929190610e4a565b60405180910390a1505050565b600034905090565b600033905090565b600081359050610b208161109b565b92915050565b600081519050610b35816110b2565b92915050565b600081359050610b4a816110c9565b92915050565b600081359050610b5f816110e0565b92915050565b600081359050610b74816110f7565b92915050565b600081519050610b89816110f7565b92915050565b600060208284031215610ba557610ba461106d565b5b6000610bb384828501610b11565b91505092915050565b600060208284031215610bd257610bd161106d565b5b6000610be084828501610b26565b91505092915050565b60008060408385031215610c0057610bff61106d565b5b6000610c0e85828601610b3b565b9250506020610c1f85828601610b11565b9150509250929050565b60008060408385031215610c4057610c3f61106d565b5b6000610c4e85828601610b3b565b9250506020610c5f85828601610b50565b9150509250929050565b60008060408385031215610c8057610c7f61106d565b5b6000610c8e85828601610b3b565b9250506020610c9f85828601610b65565b9150509250929050565b600060208284031215610cbf57610cbe61106d565b5b6000610ccd84828501610b50565b91505092915050565b600060208284031215610cec57610ceb61106d565b5b6000610cfa84828501610b7a565b91505092915050565b6000610d0f8383610da6565b60208301905092915050565b610d2481610f95565b82525050565b6000610d3582610f5b565b610d3f8185610f73565b9350610d4a83610f4b565b8060005b83811015610d7b578151610d628882610d03565b9750610d6d83610f66565b925050600181019050610d4e565b5085935050505092915050565b610d9181610fa7565b82525050565b610da081611013565b82525050565b610daf81611025565b82525050565b610dbe81611025565b82525050565b610dcd81611037565b82525050565b6000610de0601083610f84565b9150610deb82611072565b602082019050919050565b610dff81611009565b82525050565b6000608082019050610e1a6000830187610d1b565b610e276020830186610d97565b610e346040830185610db5565b610e416060830184610dc4565b95945050505050565b6000606082019050610e5f6000830186610d1b565b610e6c6020830185610d97565b610e796040830184610df6565b949350505050565b60006020820190508181036000830152610e9b8184610d2a565b905092915050565b6000602082019050610eb86000830184610d88565b92915050565b6000604082019050610ed36000830185610db5565b610ee06020830184610dc4565b9392505050565b60006020820190508181036000830152610f0081610dd3565b9050919050565b6000602082019050610f1c6000830184610df6565b92915050565b6000604082019050610f376000830185610df6565b610f446020830184610df6565b9392505050565b6000819050602082019050919050565b600081519050919050565b6000602082019050919050565b600082825260208201905092915050565b600082825260208201905092915050565b6000610fa082610fe9565b9050919050565b60008115159050919050565b6000610fbe82610f95565b9050919050565b6000610fd082610f95565b9050919050565b6000610fe282610f95565b9050919050565b600073ffffffffffffffffffffffffffffffffffffffff82169050919050565b6000819050919050565b600061101e82611049565b9050919050565b600061103082611049565b9050919050565b600061104282611009565b9050919050565b60006110548261105b565b9050919050565b600061106682610fe9565b9050919050565b600080fd5b7f5061757361626c653a2070617573656400000000000000000000000000000000600082015250565b6110a481610f95565b81146110af57600080fd5b50565b6110bb81610fb3565b81146110c657600080fd5b50565b6110d281610fc5565b81146110dd57600080fd5b50565b6110e981610fd7565b81146110f457600080fd5b50565b61110081611009565b811461110b57600080fd5b5056fea2646970667358221220dfd91103a00be1bb8270a1976e65a2fed0f6ea0d17c6d049087a6103653719de64736f6c63430008070033",
			"opcodes": "PUSH1 0x80 PUSH1 0x40 MSTORE CALLVALUE DUP1 ISZERO PUSH2 0x10 JUMPI PUSH1 0x0 DUP1 REVERT JUMPDEST POP PUSH1 0x0 DUP1 PUSH1 0x0 PUSH2 0x100 EXP DUP2 SLOAD DUP2 PUSH1 0xFF MUL NOT AND SWAP1 DUP4 ISZERO ISZERO MUL OR SWAP1 SSTORE POP PUSH2 0x1144 DUP1 PUSH2 0x3A PUSH1 0x0 CODECOPY PUSH1 0x0 RETURN INVALID PUSH1 0x80 PUSH1 0x40 MSTORE PUSH1 0x4 CALLDATASIZE LT PUSH2 0x7B JUMPI PUSH1 0x0 CALLDATALOAD PUSH1 0xE0 SHR DUP1 PUSH4 0x5C975ABB GT PUSH2 0x4E JUMPI DUP1 PUSH4 0x5C975ABB EQ PUSH2 0x13F JUMPI DUP1 PUSH4 0x6482FA71 EQ PUSH2 0x16A JUMPI DUP1 PUSH4 0x954437A6 EQ PUSH2 0x186 JUMPI DUP1 PUSH4 0xD32AAAF5 EQ PUSH2 0x1AF JUMPI PUSH2 0x7B JUMP JUMPDEST DUP1 PUSH4 0x1921873C EQ PUSH2 0x80 JUMPI DUP1 PUSH4 0x2E0F4000 EQ PUSH2 0x9C JUMPI DUP1 PUSH4 0x3CFF6368 EQ PUSH2 0xD9 JUMPI DUP1 PUSH4 0x5A77D9A9 EQ PUSH2 0x116 JUMPI JUMPDEST PUSH1 0x0 DUP1 REVERT JUMPDEST PUSH2 0x9A PUSH1 0x4 DUP1 CALLDATASIZE SUB DUP2 ADD SWAP1 PUSH2 0x95 SWAP2 SWAP1 PUSH2 0xC69 JUMP JUMPDEST PUSH2 0x1CB JUMP JUMPDEST STOP JUMPDEST CALLVALUE DUP1 ISZERO PUSH2 0xA8 JUMPI PUSH1 0x0 DUP1 REVERT JUMPDEST POP PUSH2 0xC3 PUSH1 0x4 DUP1 CALLDATASIZE SUB DUP2 ADD SWAP1 PUSH2 0xBE SWAP2 SWAP1 PUSH2 0xBE9 JUMP JUMPDEST PUSH2 0x2D6 JUMP JUMPDEST PUSH1 0x40 MLOAD PUSH2 0xD0 SWAP2 SWAP1 PUSH2 0xF07 JUMP JUMPDEST PUSH1 0x40 MLOAD DUP1 SWAP2 SUB SWAP1 RETURN JUMPDEST CALLVALUE DUP1 ISZERO PUSH2 0xE5 JUMPI PUSH1 0x0 DUP1 REVERT JUMPDEST POP PUSH2 0x100 PUSH1 0x4 DUP1 CALLDATASIZE SUB DUP2 ADD SWAP1 PUSH2 0xFB SWAP2 SWAP1 PUSH2 0xB8F JUMP JUMPDEST PUSH2 0x3A5 JUMP JUMPDEST PUSH1 0x40 MLOAD PUSH2 0x10D SWAP2 SWAP1 PUSH2 0xE81 JUMP JUMPDEST PUSH1 0x40 MLOAD DUP1 SWAP2 SUB SWAP1 RETURN JUMPDEST CALLVALUE DUP1 ISZERO PUSH2 0x122 JUMPI PUSH1 0x0 DUP1 REVERT JUMPDEST POP PUSH2 0x13D PUSH1 0x4 DUP1 CALLDATASIZE SUB DUP2 ADD SWAP1 PUSH2 0x138 SWAP2 SWAP1 PUSH2 0xCA9 JUMP JUMPDEST PUSH2 0x4BA JUMP JUMPDEST STOP JUMPDEST CALLVALUE DUP1 ISZERO PUSH2 0x14B JUMPI PUSH1 0x0 DUP1 REVERT JUMPDEST POP PUSH2 0x154 PUSH2 0x5AC JUMP JUMPDEST PUSH1 0x40 MLOAD PUSH2 0x161 SWAP2 SWAP1 PUSH2 0xEA3 JUMP JUMPDEST PUSH1 0x40 MLOAD DUP1 SWAP2 SUB SWAP1 RETURN JUMPDEST PUSH2 0x184 PUSH1 0x4 DUP1 CALLDATASIZE SUB DUP2 ADD SWAP1 PUSH2 0x17F SWAP2 SWAP1 PUSH2 0xC29 JUMP JUMPDEST PUSH2 0x5C2 JUMP JUMPDEST STOP JUMPDEST CALLVALUE DUP1 ISZERO PUSH2 0x192 JUMPI PUSH1 0x0 DUP1 REVERT JUMPDEST POP PUSH2 0x1AD PUSH1 0x4 DUP1 CALLDATASIZE SUB DUP2 ADD SWAP1 PUSH2 0x1A8 SWAP2 SWAP1 PUSH2 0xC69 JUMP JUMPDEST PUSH2 0x6D2 JUMP JUMPDEST STOP JUMPDEST PUSH2 0x1C9 PUSH1 0x4 DUP1 CALLDATASIZE SUB DUP2 ADD SWAP1 PUSH2 0x1C4 SWAP2 SWAP1 PUSH2 0xC69 JUMP JUMPDEST PUSH2 0x7A6 JUMP JUMPDEST STOP JUMPDEST PUSH2 0x1D3 PUSH2 0x5AC JUMP JUMPDEST ISZERO PUSH2 0x213 JUMPI PUSH1 0x40 MLOAD PUSH32 0x8C379A000000000000000000000000000000000000000000000000000000000 DUP2 MSTORE PUSH1 0x4 ADD PUSH2 0x20A SWAP1 PUSH2 0xEE7 JUMP JUMPDEST PUSH1 0x40 MLOAD DUP1 SWAP2 SUB SWAP1 REVERT JUMPDEST DUP2 PUSH20 0xFFFFFFFFFFFFFFFFFFFFFFFFFFFFFFFFFFFFFFFF AND PUSH4 0x5F36A162 PUSH2 0x237 PUSH2 0xB01 JUMP JUMPDEST DUP4 PUSH1 0x40 MLOAD DUP4 PUSH4 0xFFFFFFFF AND PUSH1 0xE0 SHL DUP2 MSTORE PUSH1 0x4 ADD PUSH2 0x254 SWAP2 SWAP1 PUSH2 0xF07 JUMP JUMPDEST PUSH1 0x0 PUSH1 0x40 MLOAD DUP1 DUP4 SUB DUP2 DUP6 DUP9 DUP1 EXTCODESIZE ISZERO DUP1 ISZERO PUSH2 0x26D JUMPI PUSH1 0x0 DUP1 REVERT JUMPDEST POP GAS CALL ISZERO DUP1 ISZERO PUSH2 0x281 JUMPI RETURNDATASIZE PUSH1 0x0 DUP1 RETURNDATACOPY RETURNDATASIZE PUSH1 0x0 REVERT JUMPDEST POP POP POP POP POP PUSH2 0x290 DUP3 DUP3 PUSH2 0x6D2 JUMP JUMPDEST PUSH32 0x2FA1AAE003A9EDF84E2D87799E0762CD605D49EC24EFAAD2679DDAE2DD5EC5CB PUSH2 0x2B9 PUSH2 0xB09 JUMP JUMPDEST DUP4 DUP4 PUSH1 0x40 MLOAD PUSH2 0x2CA SWAP4 SWAP3 SWAP2 SWAP1 PUSH2 0xE4A JUMP JUMPDEST PUSH1 0x40 MLOAD DUP1 SWAP2 SUB SWAP1 LOG1 POP POP JUMP JUMPDEST PUSH1 0x0 PUSH2 0x2E0 PUSH2 0x5AC JUMP JUMPDEST ISZERO PUSH2 0x320 JUMPI PUSH1 0x40 MLOAD PUSH32 0x8C379A000000000000000000000000000000000000000000000000000000000 DUP2 MSTORE PUSH1 0x4 ADD PUSH2 0x317 SWAP1 PUSH2 0xEE7 JUMP JUMPDEST PUSH1 0x40 MLOAD DUP1 SWAP2 SUB SWAP1 REVERT JUMPDEST PUSH1 0x1 PUSH1 0x0 DUP4 PUSH20 0xFFFFFFFFFFFFFFFFFFFFFFFFFFFFFFFFFFFFFFFF AND PUSH20 0xFFFFFFFFFFFFFFFFFFFFFFFFFFFFFFFFFFFFFFFF AND DUP2 MSTORE PUSH1 0x20 ADD SWAP1 DUP2 MSTORE PUSH1 0x20 ADD PUSH1 0x0 KECCAK256 PUSH1 0x0 DUP5 PUSH20 0xFFFFFFFFFFFFFFFFFFFFFFFFFFFFFFFFFFFFFFFF AND PUSH20 0xFFFFFFFFFFFFFFFFFFFFFFFFFFFFFFFFFFFFFFFF AND DUP2 MSTORE PUSH1 0x20 ADD SWAP1 DUP2 MSTORE PUSH1 0x20 ADD PUSH1 0x0 KECCAK256 SLOAD SWAP1 POP SWAP3 SWAP2 POP POP JUMP JUMPDEST PUSH1 0x60 PUSH2 0x3AF PUSH2 0x5AC JUMP JUMPDEST ISZERO PUSH2 0x3EF JUMPI PUSH1 0x40 MLOAD PUSH32 0x8C379A000000000000000000000000000000000000000000000000000000000 DUP2 MSTORE PUSH1 0x4 ADD PUSH2 0x3E6 SWAP1 PUSH2 0xEE7 JUMP JUMPDEST PUSH1 0x40 MLOAD DUP1 SWAP2 SUB SWAP1 REVERT JUMPDEST PUSH1 0x2 PUSH1 0x0 DUP4 PUSH20 0xFFFFFFFFFFFFFFFFFFFFFFFFFFFFFFFFFFFFFFFF AND PUSH20 0xFFFFFFFFFFFFFFFFFFFFFFFFFFFFFFFFFFFFFFFF AND DUP2 MSTORE PUSH1 0x20 ADD SWAP1 DUP2 MSTORE PUSH1 0x20 ADD PUSH1 0x0 KECCAK256 DUP1 SLOAD DUP1 PUSH1 0x20 MUL PUSH1 0x20 ADD PUSH1 0x40 MLOAD SWAP1 DUP2 ADD PUSH1 0x40 MSTORE DUP1 SWAP3 SWAP2 SWAP1 DUP2 DUP2 MSTORE PUSH1 0x20 ADD DUP3 DUP1 SLOAD DUP1 ISZERO PUSH2 0x4AE JUMPI PUSH1 0x20 MUL DUP3 ADD SWAP2 SWAP1 PUSH1 0x0 MSTORE PUSH1 0x20 PUSH1 0x0 KECCAK256 SWAP1 JUMPDEST DUP2 PUSH1 0x0 SWAP1 SLOAD SWAP1 PUSH2 0x100 EXP SWAP1 DIV PUSH20 0xFFFFFFFFFFFFFFFFFFFFFFFFFFFFFFFFFFFFFFFF AND PUSH20 0xFFFFFFFFFFFFFFFFFFFFFFFFFFFFFFFFFFFFFFFF AND DUP2 MSTORE PUSH1 0x20 ADD SWAP1 PUSH1 0x1 ADD SWAP1 DUP1 DUP4 GT PUSH2 0x464 JUMPI JUMPDEST POP POP POP POP POP SWAP1 POP SWAP2 SWAP1 POP JUMP JUMPDEST PUSH2 0x4C2 PUSH2 0x5AC JUMP JUMPDEST ISZERO PUSH2 0x502 JUMPI PUSH1 0x40 MLOAD PUSH32 0x8C379A000000000000000000000000000000000000000000000000000000000 DUP2 MSTORE PUSH1 0x4 ADD PUSH2 0x4F9 SWAP1 PUSH2 0xEE7 JUMP JUMPDEST PUSH1 0x40 MLOAD DUP1 SWAP2 SUB SWAP1 REVERT JUMPDEST PUSH1 0x2 PUSH1 0x0 PUSH2 0x50E PUSH2 0xB09 JUMP JUMPDEST PUSH20 0xFFFFFFFFFFFFFFFFFFFFFFFFFFFFFFFFFFFFFFFF AND PUSH20 0xFFFFFFFFFFFFFFFFFFFFFFFFFFFFFFFFFFFFFFFF AND DUP2 MSTORE PUSH1 0x20 ADD SWAP1 DUP2 MSTORE PUSH1 0x20 ADD PUSH1 0x0 KECCAK256 DUP2 SWAP1 DUP1 PUSH1 0x1 DUP2 SLOAD ADD DUP1 DUP3 SSTORE DUP1 SWAP2 POP POP PUSH1 0x1 SWAP1 SUB SWAP1 PUSH1 0x0 MSTORE PUSH1 0x20 PUSH1 0x0 KECCAK256 ADD PUSH1 0x0 SWAP1 SWAP2 SWAP1 SWAP2 SWAP1 SWAP2 PUSH2 0x100 EXP DUP2 SLOAD DUP2 PUSH20 0xFFFFFFFFFFFFFFFFFFFFFFFFFFFFFFFFFFFFFFFF MUL NOT AND SWAP1 DUP4 PUSH20 0xFFFFFFFFFFFFFFFFFFFFFFFFFFFFFFFFFFFFFFFF AND MUL OR SWAP1 SSTORE POP POP JUMP JUMPDEST PUSH1 0x0 DUP1 PUSH1 0x0 SWAP1 SLOAD SWAP1 PUSH2 0x100 EXP SWAP1 DIV PUSH1 0xFF AND SWAP1 POP SWAP1 JUMP JUMPDEST PUSH2 0x5CA PUSH2 0x5AC JUMP JUMPDEST ISZERO PUSH2 0x60A JUMPI PUSH1 0x40 MLOAD PUSH32 0x8C379A000000000000000000000000000000000000000000000000000000000 DUP2 MSTORE PUSH1 0x4 ADD PUSH2 0x601 SWAP1 PUSH2 0xEE7 JUMP JUMPDEST PUSH1 0x40 MLOAD DUP1 SWAP2 SUB SWAP1 REVERT JUMPDEST DUP2 PUSH20 0xFFFFFFFFFFFFFFFFFFFFFFFFFFFFFFFFFFFFFFFF AND PUSH4 0xCED50263 PUSH2 0x62E PUSH2 0xB01 JUMP JUMPDEST DUP4 PUSH1 0x0 PUSH1 0x40 MLOAD DUP5 PUSH4 0xFFFFFFFF AND PUSH1 0xE0 SHL DUP2 MSTORE PUSH1 0x4 ADD PUSH2 0x64E SWAP3 SWAP2 SWAP1 PUSH2 0xEBE JUMP JUMPDEST PUSH1 0x0 PUSH1 0x40 MLOAD DUP1 DUP4 SUB DUP2 DUP6 DUP9 DUP1 EXTCODESIZE ISZERO DUP1 ISZERO PUSH2 0x667 JUMPI PUSH1 0x0 DUP1 REVERT JUMPDEST POP GAS CALL ISZERO DUP1 ISZERO PUSH2 0x67B JUMPI RETURNDATASIZE PUSH1 0x0 DUP1 RETURNDATACOPY RETURNDATASIZE PUSH1 0x0 REVERT JUMPDEST POP POP POP POP POP PUSH2 0x689 DUP2 PUSH2 0x4BA JUMP JUMPDEST PUSH32 0xBCE9B87B7B3EA5D834DA69A30AC9E4086F4B874659A7A14C11FBFF1B2D7541BA PUSH2 0x6B2 PUSH2 0xB09 JUMP JUMPDEST DUP4 DUP4 PUSH1 0x0 PUSH1 0x40 MLOAD PUSH2 0x6C6 SWAP5 SWAP4 SWAP3 SWAP2 SWAP1 PUSH2 0xE05 JUMP JUMPDEST PUSH1 0x40 MLOAD DUP1 SWAP2 SUB SWAP1 LOG1 POP POP JUMP JUMPDEST PUSH2 0x6DA PUSH2 0x5AC JUMP JUMPDEST ISZERO PUSH2 0x71A JUMPI PUSH1 0x40 MLOAD PUSH32 0x8C379A000000000000000000000000000000000000000000000000000000000 DUP2 MSTORE PUSH1 0x4 ADD PUSH2 0x711 SWAP1 PUSH2 0xEE7 JUMP JUMPDEST PUSH1 0x40 MLOAD DUP1 SWAP2 SUB SWAP1 REVERT JUMPDEST DUP1 PUSH1 0x1 PUSH1 0x0 PUSH2 0x727 PUSH2 0xB09 JUMP JUMPDEST PUSH20 0xFFFFFFFFFFFFFFFFFFFFFFFFFFFFFFFFFFFFFFFF AND PUSH20 0xFFFFFFFFFFFFFFFFFFFFFFFFFFFFFFFFFFFFFFFF AND DUP2 MSTORE PUSH1 0x20 ADD SWAP1 DUP2 MSTORE PUSH1 0x20 ADD PUSH1 0x0 KECCAK256 PUSH1 0x0 DUP5 PUSH20 0xFFFFFFFFFFFFFFFFFFFFFFFFFFFFFFFFFFFFFFFF AND PUSH20 0xFFFFFFFFFFFFFFFFFFFFFFFFFFFFFFFFFFFFFFFF AND DUP2 MSTORE PUSH1 0x20 ADD SWAP1 DUP2 MSTORE PUSH1 0x20 ADD PUSH1 0x0 KECCAK256 DUP2 SWAP1 SSTORE POP POP POP JUMP JUMPDEST PUSH2 0x7AE PUSH2 0x5AC JUMP JUMPDEST ISZERO PUSH2 0x7EE JUMPI PUSH1 0x40 MLOAD PUSH32 0x8C379A000000000000000000000000000000000000000000000000000000000 DUP2 MSTORE PUSH1 0x4 ADD PUSH2 0x7E5 SWAP1 PUSH2 0xEE7 JUMP JUMPDEST PUSH1 0x40 MLOAD DUP1 SWAP2 SUB SWAP1 REVERT JUMPDEST PUSH1 0x0 PUSH1 0x1 PUSH1 0x0 PUSH2 0x7FC PUSH2 0xB09 JUMP JUMPDEST PUSH20 0xFFFFFFFFFFFFFFFFFFFFFFFFFFFFFFFFFFFFFFFF AND PUSH20 0xFFFFFFFFFFFFFFFFFFFFFFFFFFFFFFFFFFFFFFFF AND DUP2 MSTORE PUSH1 0x20 ADD SWAP1 DUP2 MSTORE PUSH1 0x20 ADD PUSH1 0x0 KECCAK256 PUSH1 0x0 DUP5 PUSH20 0xFFFFFFFFFFFFFFFFFFFFFFFFFFFFFFFFFFFFFFFF AND PUSH20 0xFFFFFFFFFFFFFFFFFFFFFFFFFFFFFFFFFFFFFFFF AND DUP2 MSTORE PUSH1 0x20 ADD SWAP1 DUP2 MSTORE PUSH1 0x20 ADD PUSH1 0x0 KECCAK256 SLOAD GT DUP1 ISZERO PUSH2 0x903 JUMPI POP DUP1 PUSH1 0x1 PUSH1 0x0 PUSH2 0x889 PUSH2 0xB09 JUMP JUMPDEST PUSH20 0xFFFFFFFFFFFFFFFFFFFFFFFFFFFFFFFFFFFFFFFF AND PUSH20 0xFFFFFFFFFFFFFFFFFFFFFFFFFFFFFFFFFFFFFFFF AND DUP2 MSTORE PUSH1 0x20 ADD SWAP1 DUP2 MSTORE PUSH1 0x20 ADD PUSH1 0x0 KECCAK256 PUSH1 0x0 DUP5 PUSH20 0xFFFFFFFFFFFFFFFFFFFFFFFFFFFFFFFFFFFFFFFF AND PUSH20 0xFFFFFFFFFFFFFFFFFFFFFFFFFFFFFFFFFFFFFFFF AND DUP2 MSTORE PUSH1 0x20 ADD SWAP1 DUP2 MSTORE PUSH1 0x20 ADD PUSH1 0x0 KECCAK256 SLOAD LT JUMPDEST PUSH2 0x90C JUMPI PUSH1 0x0 DUP1 REVERT JUMPDEST PUSH1 0x0 DUP3 PUSH20 0xFFFFFFFFFFFFFFFFFFFFFFFFFFFFFFFFFFFFFFFF AND PUSH4 0xC5E4DD82 PUSH1 0x40 MLOAD DUP2 PUSH4 0xFFFFFFFF AND PUSH1 0xE0 SHL DUP2 MSTORE PUSH1 0x4 ADD PUSH1 0x20 PUSH1 0x40 MLOAD DUP1 DUP4 SUB DUP2 DUP7 DUP1 EXTCODESIZE ISZERO DUP1 ISZERO PUSH2 0x954 JUMPI PUSH1 0x0 DUP1 REVERT JUMPDEST POP GAS STATICCALL ISZERO DUP1 ISZERO PUSH2 0x968 JUMPI RETURNDATASIZE PUSH1 0x0 DUP1 RETURNDATACOPY RETURNDATASIZE PUSH1 0x0 REVERT JUMPDEST POP POP POP POP PUSH1 0x40 MLOAD RETURNDATASIZE PUSH1 0x1F NOT PUSH1 0x1F DUP3 ADD AND DUP3 ADD DUP1 PUSH1 0x40 MSTORE POP DUP2 ADD SWAP1 PUSH2 0x98C SWAP2 SWAP1 PUSH2 0xBBC JUMP JUMPDEST PUSH20 0xFFFFFFFFFFFFFFFFFFFFFFFFFFFFFFFFFFFFFFFF AND PUSH4 0xF0E530F8 PUSH1 0x1 PUSH1 0x0 PUSH2 0x9B3 PUSH2 0xB09 JUMP JUMPDEST PUSH20 0xFFFFFFFFFFFFFFFFFFFFFFFFFFFFFFFFFFFFFFFF AND PUSH20 0xFFFFFFFFFFFFFFFFFFFFFFFFFFFFFFFFFFFFFFFF AND DUP2 MSTORE PUSH1 0x20 ADD SWAP1 DUP2 MSTORE PUSH1 0x20 ADD PUSH1 0x0 KECCAK256 PUSH1 0x0 DUP7 PUSH20 0xFFFFFFFFFFFFFFFFFFFFFFFFFFFFFFFFFFFFFFFF AND PUSH20 0xFFFFFFFFFFFFFFFFFFFFFFFFFFFFFFFFFFFFFFFF AND DUP2 MSTORE PUSH1 0x20 ADD SWAP1 DUP2 MSTORE PUSH1 0x20 ADD PUSH1 0x0 KECCAK256 SLOAD DUP5 PUSH1 0x40 MLOAD DUP4 PUSH4 0xFFFFFFFF AND PUSH1 0xE0 SHL DUP2 MSTORE PUSH1 0x4 ADD PUSH2 0xA49 SWAP3 SWAP2 SWAP1 PUSH2 0xF22 JUMP JUMPDEST PUSH1 0x20 PUSH1 0x40 MLOAD DUP1 DUP4 SUB DUP2 PUSH1 0x0 DUP8 DUP1 EXTCODESIZE ISZERO DUP1 ISZERO PUSH2 0xA63 JUMPI PUSH1 0x0 DUP1 REVERT JUMPDEST POP GAS CALL ISZERO DUP1 ISZERO PUSH2 0xA77 JUMPI RETURNDATASIZE PUSH1 0x0 DUP1 RETURNDATACOPY RETURNDATASIZE PUSH1 0x0 REVERT JUMPDEST POP POP POP POP PUSH1 0x40 MLOAD RETURNDATASIZE PUSH1 0x1F NOT PUSH1 0x1F DUP3 ADD AND DUP3 ADD DUP1 PUSH1 0x40 MSTORE POP DUP2 ADD SWAP1 PUSH2 0xA9B SWAP2 SWAP1 PUSH2 0xCD6 JUMP JUMPDEST SWAP1 POP DUP1 PUSH2 0xAA6 PUSH2 0xB01 JUMP JUMPDEST EQ PUSH2 0xAB0 JUMPI PUSH1 0x0 DUP1 REVERT JUMPDEST PUSH2 0xABA DUP4 DUP4 PUSH2 0x1CB JUMP JUMPDEST PUSH32 0x2FA1AAE003A9EDF84E2D87799E0762CD605D49EC24EFAAD2679DDAE2DD5EC5CB PUSH2 0xAE3 PUSH2 0xB09 JUMP JUMPDEST DUP5 DUP5 PUSH1 0x40 MLOAD PUSH2 0xAF4 SWAP4 SWAP3 SWAP2 SWAP1 PUSH2 0xE4A JUMP JUMPDEST PUSH1 0x40 MLOAD DUP1 SWAP2 SUB SWAP1 LOG1 POP POP POP JUMP JUMPDEST PUSH1 0x0 CALLVALUE SWAP1 POP SWAP1 JUMP JUMPDEST PUSH1 0x0 CALLER SWAP1 POP SWAP1 JUMP JUMPDEST PUSH1 0x0 DUP2 CALLDATALOAD SWAP1 POP PUSH2 0xB20 DUP2 PUSH2 0x109B JUMP JUMPDEST SWAP3 SWAP2 POP POP JUMP JUMPDEST PUSH1 0x0 DUP2 MLOAD SWAP1 POP PUSH2 0xB35 DUP2 PUSH2 0x10B2 JUMP JUMPDEST SWAP3 SWAP2 POP POP JUMP JUMPDEST PUSH1 0x0 DUP2 CALLDATALOAD SWAP1 POP PUSH2 0xB4A DUP2 PUSH2 0x10C9 JUMP JUMPDEST SWAP3 SWAP2 POP POP JUMP JUMPDEST PUSH1 0x0 DUP2 CALLDATALOAD SWAP1 POP PUSH2 0xB5F DUP2 PUSH2 0x10E0 JUMP JUMPDEST SWAP3 SWAP2 POP POP JUMP JUMPDEST PUSH1 0x0 DUP2 CALLDATALOAD SWAP1 POP PUSH2 0xB74 DUP2 PUSH2 0x10F7 JUMP JUMPDEST SWAP3 SWAP2 POP POP JUMP JUMPDEST PUSH1 0x0 DUP2 MLOAD SWAP1 POP PUSH2 0xB89 DUP2 PUSH2 0x10F7 JUMP JUMPDEST SWAP3 SWAP2 POP POP JUMP JUMPDEST PUSH1 0x0 PUSH1 0x20 DUP3 DUP5 SUB SLT ISZERO PUSH2 0xBA5 JUMPI PUSH2 0xBA4 PUSH2 0x106D JUMP JUMPDEST JUMPDEST PUSH1 0x0 PUSH2 0xBB3 DUP5 DUP3 DUP6 ADD PUSH2 0xB11 JUMP JUMPDEST SWAP2 POP POP SWAP3 SWAP2 POP POP JUMP JUMPDEST PUSH1 0x0 PUSH1 0x20 DUP3 DUP5 SUB SLT ISZERO PUSH2 0xBD2 JUMPI PUSH2 0xBD1 PUSH2 0x106D JUMP JUMPDEST JUMPDEST PUSH1 0x0 PUSH2 0xBE0 DUP5 DUP3 DUP6 ADD PUSH2 0xB26 JUMP JUMPDEST SWAP2 POP POP SWAP3 SWAP2 POP POP JUMP JUMPDEST PUSH1 0x0 DUP1 PUSH1 0x40 DUP4 DUP6 SUB SLT ISZERO PUSH2 0xC00 JUMPI PUSH2 0xBFF PUSH2 0x106D JUMP JUMPDEST JUMPDEST PUSH1 0x0 PUSH2 0xC0E DUP6 DUP3 DUP7 ADD PUSH2 0xB3B JUMP JUMPDEST SWAP3 POP POP PUSH1 0x20 PUSH2 0xC1F DUP6 DUP3 DUP7 ADD PUSH2 0xB11 JUMP JUMPDEST SWAP2 POP POP SWAP3 POP SWAP3 SWAP1 POP JUMP JUMPDEST PUSH1 0x0 DUP1 PUSH1 0x40 DUP4 DUP6 SUB SLT ISZERO PUSH2 0xC40 JUMPI PUSH2 0xC3F PUSH2 0x106D JUMP JUMPDEST JUMPDEST PUSH1 0x0 PUSH2 0xC4E DUP6 DUP3 DUP7 ADD PUSH2 0xB3B JUMP JUMPDEST SWAP3 POP POP PUSH1 0x20 PUSH2 0xC5F DUP6 DUP3 DUP7 ADD PUSH2 0xB50 JUMP JUMPDEST SWAP2 POP POP SWAP3 POP SWAP3 SWAP1 POP JUMP JUMPDEST PUSH1 0x0 DUP1 PUSH1 0x40 DUP4 DUP6 SUB SLT ISZERO PUSH2 0xC80 JUMPI PUSH2 0xC7F PUSH2 0x106D JUMP JUMPDEST JUMPDEST PUSH1 0x0 PUSH2 0xC8E DUP6 DUP3 DUP7 ADD PUSH2 0xB3B JUMP JUMPDEST SWAP3 POP POP PUSH1 0x20 PUSH2 0xC9F DUP6 DUP3 DUP7 ADD PUSH2 0xB65 JUMP JUMPDEST SWAP2 POP POP SWAP3 POP SWAP3 SWAP1 POP JUMP JUMPDEST PUSH1 0x0 PUSH1 0x20 DUP3 DUP5 SUB SLT ISZERO PUSH2 0xCBF JUMPI PUSH2 0xCBE PUSH2 0x106D JUMP JUMPDEST JUMPDEST PUSH1 0x0 PUSH2 0xCCD DUP5 DUP3 DUP6 ADD PUSH2 0xB50 JUMP JUMPDEST SWAP2 POP POP SWAP3 SWAP2 POP POP JUMP JUMPDEST PUSH1 0x0 PUSH1 0x20 DUP3 DUP5 SUB SLT ISZERO PUSH2 0xCEC JUMPI PUSH2 0xCEB PUSH2 0x106D JUMP JUMPDEST JUMPDEST PUSH1 0x0 PUSH2 0xCFA DUP5 DUP3 DUP6 ADD PUSH2 0xB7A JUMP JUMPDEST SWAP2 POP POP SWAP3 SWAP2 POP POP JUMP JUMPDEST PUSH1 0x0 PUSH2 0xD0F DUP4 DUP4 PUSH2 0xDA6 JUMP JUMPDEST PUSH1 0x20 DUP4 ADD SWAP1 POP SWAP3 SWAP2 POP POP JUMP JUMPDEST PUSH2 0xD24 DUP2 PUSH2 0xF95 JUMP JUMPDEST DUP3 MSTORE POP POP JUMP JUMPDEST PUSH1 0x0 PUSH2 0xD35 DUP3 PUSH2 0xF5B JUMP JUMPDEST PUSH2 0xD3F DUP2 DUP6 PUSH2 0xF73 JUMP JUMPDEST SWAP4 POP PUSH2 0xD4A DUP4 PUSH2 0xF4B JUMP JUMPDEST DUP1 PUSH1 0x0 JUMPDEST DUP4 DUP2 LT ISZERO PUSH2 0xD7B JUMPI DUP2 MLOAD PUSH2 0xD62 DUP9 DUP3 PUSH2 0xD03 JUMP JUMPDEST SWAP8 POP PUSH2 0xD6D DUP4 PUSH2 0xF66 JUMP JUMPDEST SWAP3 POP POP PUSH1 0x1 DUP2 ADD SWAP1 POP PUSH2 0xD4E JUMP JUMPDEST POP DUP6 SWAP4 POP POP POP POP SWAP3 SWAP2 POP POP JUMP JUMPDEST PUSH2 0xD91 DUP2 PUSH2 0xFA7 JUMP JUMPDEST DUP3 MSTORE POP POP JUMP JUMPDEST PUSH2 0xDA0 DUP2 PUSH2 0x1013 JUMP JUMPDEST DUP3 MSTORE POP POP JUMP JUMPDEST PUSH2 0xDAF DUP2 PUSH2 0x1025 JUMP JUMPDEST DUP3 MSTORE POP POP JUMP JUMPDEST PUSH2 0xDBE DUP2 PUSH2 0x1025 JUMP JUMPDEST DUP3 MSTORE POP POP JUMP JUMPDEST PUSH2 0xDCD DUP2 PUSH2 0x1037 JUMP JUMPDEST DUP3 MSTORE POP POP JUMP JUMPDEST PUSH1 0x0 PUSH2 0xDE0 PUSH1 0x10 DUP4 PUSH2 0xF84 JUMP JUMPDEST SWAP2 POP PUSH2 0xDEB DUP3 PUSH2 0x1072 JUMP JUMPDEST PUSH1 0x20 DUP3 ADD SWAP1 POP SWAP2 SWAP1 POP JUMP JUMPDEST PUSH2 0xDFF DUP2 PUSH2 0x1009 JUMP JUMPDEST DUP3 MSTORE POP POP JUMP JUMPDEST PUSH1 0x0 PUSH1 0x80 DUP3 ADD SWAP1 POP PUSH2 0xE1A PUSH1 0x0 DUP4 ADD DUP8 PUSH2 0xD1B JUMP JUMPDEST PUSH2 0xE27 PUSH1 0x20 DUP4 ADD DUP7 PUSH2 0xD97 JUMP JUMPDEST PUSH2 0xE34 PUSH1 0x40 DUP4 ADD DUP6 PUSH2 0xDB5 JUMP JUMPDEST PUSH2 0xE41 PUSH1 0x60 DUP4 ADD DUP5 PUSH2 0xDC4 JUMP JUMPDEST SWAP6 SWAP5 POP POP POP POP POP JUMP JUMPDEST PUSH1 0x0 PUSH1 0x60 DUP3 ADD SWAP1 POP PUSH2 0xE5F PUSH1 0x0 DUP4 ADD DUP7 PUSH2 0xD1B JUMP JUMPDEST PUSH2 0xE6C PUSH1 0x20 DUP4 ADD DUP6 PUSH2 0xD97 JUMP JUMPDEST PUSH2 0xE79 PUSH1 0x40 DUP4 ADD DUP5 PUSH2 0xDF6 JUMP JUMPDEST SWAP5 SWAP4 POP POP POP POP JUMP JUMPDEST PUSH1 0x0 PUSH1 0x20 DUP3 ADD SWAP1 POP DUP2 DUP2 SUB PUSH1 0x0 DUP4 ADD MSTORE PUSH2 0xE9B DUP2 DUP5 PUSH2 0xD2A JUMP JUMPDEST SWAP1 POP SWAP3 SWAP2 POP POP JUMP JUMPDEST PUSH1 0x0 PUSH1 0x20 DUP3 ADD SWAP1 POP PUSH2 0xEB8 PUSH1 0x0 DUP4 ADD DUP5 PUSH2 0xD88 JUMP JUMPDEST SWAP3 SWAP2 POP POP JUMP JUMPDEST PUSH1 0x0 PUSH1 0x40 DUP3 ADD SWAP1 POP PUSH2 0xED3 PUSH1 0x0 DUP4 ADD DUP6 PUSH2 0xDB5 JUMP JUMPDEST PUSH2 0xEE0 PUSH1 0x20 DUP4 ADD DUP5 PUSH2 0xDC4 JUMP JUMPDEST SWAP4 SWAP3 POP POP POP JUMP JUMPDEST PUSH1 0x0 PUSH1 0x20 DUP3 ADD SWAP1 POP DUP2 DUP2 SUB PUSH1 0x0 DUP4 ADD MSTORE PUSH2 0xF00 DUP2 PUSH2 0xDD3 JUMP JUMPDEST SWAP1 POP SWAP2 SWAP1 POP JUMP JUMPDEST PUSH1 0x0 PUSH1 0x20 DUP3 ADD SWAP1 POP PUSH2 0xF1C PUSH1 0x0 DUP4 ADD DUP5 PUSH2 0xDF6 JUMP JUMPDEST SWAP3 SWAP2 POP POP JUMP JUMPDEST PUSH1 0x0 PUSH1 0x40 DUP3 ADD SWAP1 POP PUSH2 0xF37 PUSH1 0x0 DUP4 ADD DUP6 PUSH2 0xDF6 JUMP JUMPDEST PUSH2 0xF44 PUSH1 0x20 DUP4 ADD DUP5 PUSH2 0xDF6 JUMP JUMPDEST SWAP4 SWAP3 POP POP POP JUMP JUMPDEST PUSH1 0x0 DUP2 SWAP1 POP PUSH1 0x20 DUP3 ADD SWAP1 POP SWAP2 SWAP1 POP JUMP JUMPDEST PUSH1 0x0 DUP2 MLOAD SWAP1 POP SWAP2 SWAP1 POP JUMP JUMPDEST PUSH1 0x0 PUSH1 0x20 DUP3 ADD SWAP1 POP SWAP2 SWAP1 POP JUMP JUMPDEST PUSH1 0x0 DUP3 DUP3 MSTORE PUSH1 0x20 DUP3 ADD SWAP1 POP SWAP3 SWAP2 POP POP JUMP JUMPDEST PUSH1 0x0 DUP3 DUP3 MSTORE PUSH1 0x20 DUP3 ADD SWAP1 POP SWAP3 SWAP2 POP POP JUMP JUMPDEST PUSH1 0x0 PUSH2 0xFA0 DUP3 PUSH2 0xFE9 JUMP JUMPDEST SWAP1 POP SWAP2 SWAP1 POP JUMP JUMPDEST PUSH1 0x0 DUP2 ISZERO ISZERO SWAP1 POP SWAP2 SWAP1 POP JUMP JUMPDEST PUSH1 0x0 PUSH2 0xFBE DUP3 PUSH2 0xF95 JUMP JUMPDEST SWAP1 POP SWAP2 SWAP1 POP JUMP JUMPDEST PUSH1 0x0 PUSH2 0xFD0 DUP3 PUSH2 0xF95 JUMP JUMPDEST SWAP1 POP SWAP2 SWAP1 POP JUMP JUMPDEST PUSH1 0x0 PUSH2 0xFE2 DUP3 PUSH2 0xF95 JUMP JUMPDEST SWAP1 POP SWAP2 SWAP1 POP JUMP JUMPDEST PUSH1 0x0 PUSH20 0xFFFFFFFFFFFFFFFFFFFFFFFFFFFFFFFFFFFFFFFF DUP3 AND SWAP1 POP SWAP2 SWAP1 POP JUMP JUMPDEST PUSH1 0x0 DUP2 SWAP1 POP SWAP2 SWAP1 POP JUMP JUMPDEST PUSH1 0x0 PUSH2 0x101E DUP3 PUSH2 0x1049 JUMP JUMPDEST SWAP1 POP SWAP2 SWAP1 POP JUMP JUMPDEST PUSH1 0x0 PUSH2 0x1030 DUP3 PUSH2 0x1049 JUMP JUMPDEST SWAP1 POP SWAP2 SWAP1 POP JUMP JUMPDEST PUSH1 0x0 PUSH2 0x1042 DUP3 PUSH2 0x1009 JUMP JUMPDEST SWAP1 POP SWAP2 SWAP1 POP JUMP JUMPDEST PUSH1 0x0 PUSH2 0x1054 DUP3 PUSH2 0x105B JUMP JUMPDEST SWAP1 POP SWAP2 SWAP1 POP JUMP JUMPDEST PUSH1 0x0 PUSH2 0x1066 DUP3 PUSH2 0xFE9 JUMP JUMPDEST SWAP1 POP SWAP2 SWAP1 POP JUMP JUMPDEST PUSH1 0x0 DUP1 REVERT JUMPDEST PUSH32 0x5061757361626C653A2070617573656400000000000000000000000000000000 PUSH1 0x0 DUP3 ADD MSTORE POP JUMP JUMPDEST PUSH2 0x10A4 DUP2 PUSH2 0xF95 JUMP JUMPDEST DUP2 EQ PUSH2 0x10AF JUMPI PUSH1 0x0 DUP1 REVERT JUMPDEST POP JUMP JUMPDEST PUSH2 0x10BB DUP2 PUSH2 0xFB3 JUMP JUMPDEST DUP2 EQ PUSH2 0x10C6 JUMPI PUSH1 0x0 DUP1 REVERT JUMPDEST POP JUMP JUMPDEST PUSH2 0x10D2 DUP2 PUSH2 0xFC5 JUMP JUMPDEST DUP2 EQ PUSH2 0x10DD JUMPI PUSH1 0x0 DUP1 REVERT JUMPDEST POP JUMP JUMPDEST PUSH2 0x10E9 DUP2 PUSH2 0xFD7 JUMP JUMPDEST DUP2 EQ PUSH2 0x10F4 JUMPI PUSH1 0x0 DUP1 REVERT JUMPDEST POP JUMP JUMPDEST PUSH2 0x1100 DUP2 PUSH2 0x1009 JUMP JUMPDEST DUP2 EQ PUSH2 0x110B JUMPI PUSH1 0x0 DUP1 REVERT JUMPDEST POP JUMP INVALID LOG2 PUSH5 0x6970667358 0x22 SLT KECCAK256 0xDF 0xD9 GT SUB LOG0 SIGNEXTEND 0xE1 0xBB DUP3 PUSH17 0xA1976E65A2FED0F6EA0D17C6D049087A61 SUB PUSH6 0x3719DE64736F PUSH13 0x63430008070033000000000000 "
		},
		"gasEstimates": {
			"creation": {
				"codeDepositCost": "884000",
				"executionCost": "25189",
				"totalCost": "909189"
			},
			"external": {
				"buyPackageDigitalObjectLicense(address,uint256)": "infinite",
				"buySingleDigitalObject(address,address)": "infinite",
				"getPackageDigitalObjectLicenseOfAddress(address,address)": "infinite",
				"getSingleDigitalObjectLicenseOfAddress(address)": "infinite",
				"paused()": "2479",
				"setPackageDigitalObject(address,uint256)": "25234",
				"setSingleDigitalObjectLicense(address)": "51459",
				"upgradeLicenseOfPackage(address,uint256)": "infinite"
			}
		},
		"methodIdentifiers": {
			"buyPackageDigitalObjectLicense(address,uint256)": "1921873c",
			"buySingleDigitalObject(address,address)": "6482fa71",
			"getPackageDigitalObjectLicenseOfAddress(address,address)": "2e0f4000",
			"getSingleDigitalObjectLicenseOfAddress(address)": "3cff6368",
			"paused()": "5c975abb",
			"setPackageDigitalObject(address,uint256)": "954437a6",
			"setSingleDigitalObjectLicense(address)": "5a77d9a9",
			"upgradeLicenseOfPackage(address,uint256)": "d32aaaf5"
		}
	},
	"abi": [
		{
			"anonymous": false,
			"inputs": [
				{
					"indexed": false,
					"internalType": "address",
					"name": "who",
					"type": "address"
				},
				{
					"indexed": false,
					"internalType": "contract PackageDigitalObject",
					"name": "packageDigitalObject",
					"type": "address"
				},
				{
					"indexed": false,
					"internalType": "uint256",
					"name": "license",
					"type": "uint256"
				}
			],
			"name": "LicenseOfPackage",
			"type": "event"
		},
		{
			"anonymous": false,
			"inputs": [
				{
					"indexed": false,
					"internalType": "address",
					"name": "who",
					"type": "address"
				},
				{
					"indexed": false,
					"internalType": "contract PackageDigitalObject",
					"name": "packageDigitalObject",
					"type": "address"
				},
				{
					"indexed": false,
					"internalType": "contract SingleDigitalObject",
					"name": "singleDigitalObject",
					"type": "address"
				},
				{
					"indexed": false,
					"internalType": "uint256",
					"name": "license",
					"type": "uint256"
				}
			],
			"name": "LicenseOfSingle",
			"type": "event"
		},
		{
			"anonymous": false,
			"inputs": [
				{
					"indexed": false,
					"internalType": "address",
					"name": "account",
					"type": "address"
				}
			],
			"name": "Paused",
			"type": "event"
		},
		{
			"anonymous": false,
			"inputs": [
				{
					"indexed": false,
					"internalType": "address",
					"name": "account",
					"type": "address"
				}
			],
			"name": "Unpaused",
			"type": "event"
		},
		{
			"inputs": [
				{
					"internalType": "contract PackageDigitalObject",
					"name": "_packageDigitalObject",
					"type": "address"
				},
				{
					"internalType": "uint256",
					"name": "_license",
					"type": "uint256"
				}
			],
			"name": "buyPackageDigitalObjectLicense",
			"outputs": [],
			"stateMutability": "payable",
			"type": "function"
		},
		{
			"inputs": [
				{
					"internalType": "contract PackageDigitalObject",
					"name": "_packageDigitalObject",
					"type": "address"
				},
				{
					"internalType": "contract SingleDigitalObject",
					"name": "_singleDigitalObject",
					"type": "address"
				}
			],
			"name": "buySingleDigitalObject",
			"outputs": [],
			"stateMutability": "payable",
			"type": "function"
		},
		{
			"inputs": [
				{
					"internalType": "contract PackageDigitalObject",
					"name": "_packageDigitalObject",
					"type": "address"
				},
				{
					"internalType": "address",
					"name": "_address",
					"type": "address"
				}
			],
			"name": "getPackageDigitalObjectLicenseOfAddress",
			"outputs": [
				{
					"internalType": "uint256",
					"name": "",
					"type": "uint256"
				}
			],
			"stateMutability": "view",
			"type": "function"
		},
		{
			"inputs": [
				{
					"internalType": "address",
					"name": "_address",
					"type": "address"
				}
			],
			"name": "getSingleDigitalObjectLicenseOfAddress",
			"outputs": [
				{
					"internalType": "contract SingleDigitalObject[]",
					"name": "",
					"type": "address[]"
				}
			],
			"stateMutability": "view",
			"type": "function"
		},
		{
			"inputs": [],
			"name": "paused",
			"outputs": [
				{
					"internalType": "bool",
					"name": "",
					"type": "bool"
				}
			],
			"stateMutability": "view",
			"type": "function"
		},
		{
			"inputs": [
				{
					"internalType": "contract PackageDigitalObject",
					"name": "_packageDigitalObject",
					"type": "address"
				},
				{
					"internalType": "uint256",
					"name": "_license",
					"type": "uint256"
				}
			],
			"name": "setPackageDigitalObject",
			"outputs": [],
			"stateMutability": "nonpayable",
			"type": "function"
		},
		{
			"inputs": [
				{
					"internalType": "contract SingleDigitalObject",
					"name": "_singleDigitalObject",
					"type": "address"
				}
			],
			"name": "setSingleDigitalObjectLicense",
			"outputs": [],
			"stateMutability": "nonpayable",
			"type": "function"
		},
		{
			"inputs": [
				{
					"internalType": "contract PackageDigitalObject",
					"name": "_packageDigitalObject",
					"type": "address"
				},
				{
					"internalType": "uint256",
					"name": "_license",
					"type": "uint256"
				}
			],
			"name": "upgradeLicenseOfPackage",
			"outputs": [],
			"stateMutability": "payable",
			"type": "function"
		}
	]
}